{
	"contracts/Basic.sol": {
		"TestEnum": {
			"abi": [
				{
					"inputs": [
						{
							"internalType": "enum TestEnum.Pet",
							"name": "_pet",
							"type": "uint8"
						}
					],
					"name": "adoptPet",
					"outputs": [],
					"stateMutability": "nonpayable",
					"type": "function"
				},
				{
					"inputs": [],
					"name": "getDefaultPet",
					"outputs": [
						{
							"internalType": "enum TestEnum.Pet",
							"name": "",
							"type": "uint8"
						}
					],
					"stateMutability": "pure",
					"type": "function"
				},
				{
					"inputs": [],
					"name": "getPet",
					"outputs": [
						{
							"internalType": "enum TestEnum.Pet",
							"name": "",
							"type": "uint8"
						}
					],
					"stateMutability": "view",
					"type": "function"
				}
			],
			"devdoc": {
				"kind": "dev",
				"methods": {},
				"version": 1
			},
			"evm": {
				"assembly": "    /* \"contracts/Basic.sol\":3205:3547  contract TestEnum {... */\n  mstore(0x40, 0x80)\n  callvalue\n  dup1\n  iszero\n  tag_1\n  jumpi\n  0x00\n  dup1\n  revert\ntag_1:\n  pop\n  dataSize(sub_0)\n  dup1\n  dataOffset(sub_0)\n  0x00\n  codecopy\n  0x00\n  return\nstop\n\nsub_0: assembly {\n        /* \"contracts/Basic.sol\":3205:3547  contract TestEnum {... */\n      mstore(0x40, 0x80)\n      callvalue\n      dup1\n      iszero\n      tag_1\n      jumpi\n      0x00\n      dup1\n      revert\n    tag_1:\n      pop\n      jumpi(tag_2, lt(calldatasize, 0x04))\n      shr(0xe0, calldataload(0x00))\n      dup1\n      0x8cf3375d\n      eq\n      tag_3\n      jumpi\n      dup1\n      0xdc69a5d1\n      eq\n      tag_4\n      jumpi\n      dup1\n      0xdea76e55\n      eq\n      tag_5\n      jumpi\n    tag_2:\n      0x00\n      dup1\n      revert\n        /* \"contracts/Basic.sol\":3383:3454  function getPet() public view returns (Pet) {... */\n    tag_3:\n      tag_6\n      tag_7\n      jump\t// in\n    tag_6:\n      mload(0x40)\n      tag_8\n      swap2\n      swap1\n      tag_9\n      jump\t// in\n    tag_8:\n      mload(0x40)\n      dup1\n      swap2\n      sub\n      swap1\n      return\n        /* \"contracts/Basic.sol\":3315:3377  function adoptPet(Pet _pet) public {... */\n    tag_4:\n      tag_10\n      0x04\n      dup1\n      calldatasize\n      sub\n      dup2\n      add\n      swap1\n      tag_11\n      swap2\n      swap1\n      tag_12\n      jump\t// in\n    tag_11:\n      tag_13\n      jump\t// in\n    tag_10:\n      stop\n        /* \"contracts/Basic.sol\":3460:3545  function getDefaultPet() public pure returns (Pet) {... */\n    tag_5:\n      tag_14\n      tag_15\n      jump\t// in\n    tag_14:\n      mload(0x40)\n      tag_16\n      swap2\n      swap1\n      tag_9\n      jump\t// in\n    tag_16:\n      mload(0x40)\n      dup1\n      swap2\n      sub\n      swap1\n      return\n        /* \"contracts/Basic.sol\":3383:3454  function getPet() public view returns (Pet) {... */\n    tag_7:\n        /* \"contracts/Basic.sol\":3422:3425  Pet */\n      0x00\n        /* \"contracts/Basic.sol\":3444:3447  pet */\n      dup1\n      0x00\n      swap1\n      sload\n      swap1\n      0x0100\n      exp\n      swap1\n      div\n      0xff\n      and\n        /* \"contracts/Basic.sol\":3437:3447  return pet */\n      swap1\n      pop\n        /* \"contracts/Basic.sol\":3383:3454  function getPet() public view returns (Pet) {... */\n      swap1\n      jump\t// out\n        /* \"contracts/Basic.sol\":3315:3377  function adoptPet(Pet _pet) public {... */\n    tag_13:\n        /* \"contracts/Basic.sol\":3366:3370  _pet */\n      dup1\n        /* \"contracts/Basic.sol\":3360:3363  pet */\n      0x00\n      dup1\n        /* \"contracts/Basic.sol\":3360:3370  pet = _pet */\n      0x0100\n      exp\n      dup2\n      sload\n      dup2\n      0xff\n      mul\n      not\n      and\n      swap1\n      dup4\n      0x02\n      dup2\n      gt\n      iszero\n      tag_19\n      jumpi\n      tag_20\n      tag_21\n      jump\t// in\n    tag_20:\n    tag_19:\n      mul\n      or\n      swap1\n      sstore\n      pop\n        /* \"contracts/Basic.sol\":3315:3377  function adoptPet(Pet _pet) public {... */\n      pop\n      jump\t// out\n        /* \"contracts/Basic.sol\":3460:3545  function getDefaultPet() public pure returns (Pet) {... */\n    tag_15:\n        /* \"contracts/Basic.sol\":3506:3509  Pet */\n      0x00\n        /* \"contracts/Basic.sol\":3301:3308  Pet.DOG */\n      0x01\n        /* \"contracts/Basic.sol\":3521:3538  return defaultPet */\n      swap1\n      pop\n        /* \"contracts/Basic.sol\":3460:3545  function getDefaultPet() public pure returns (Pet) {... */\n      swap1\n      jump\t// out\n        /* \"#utility.yul\":7:187   */\n    tag_21:\n        /* \"#utility.yul\":55:132   */\n      0x4e487b7100000000000000000000000000000000000000000000000000000000\n        /* \"#utility.yul\":52:53   */\n      0x00\n        /* \"#utility.yul\":45:133   */\n      mstore\n        /* \"#utility.yul\":152:156   */\n      0x21\n        /* \"#utility.yul\":149:150   */\n      0x04\n        /* \"#utility.yul\":142:157   */\n      mstore\n        /* \"#utility.yul\":176:180   */\n      0x24\n        /* \"#utility.yul\":173:174   */\n      0x00\n        /* \"#utility.yul\":166:181   */\n      revert\n        /* \"#utility.yul\":193:305   */\n    tag_23:\n        /* \"#utility.yul\":273:274   */\n      0x03\n        /* \"#utility.yul\":266:271   */\n      dup2\n        /* \"#utility.yul\":263:275   */\n      lt\n        /* \"#utility.yul\":253:299   */\n      tag_35\n      jumpi\n        /* \"#utility.yul\":279:297   */\n      tag_36\n      tag_21\n      jump\t// in\n    tag_36:\n        /* \"#utility.yul\":253:299   */\n    tag_35:\n        /* \"#utility.yul\":193:305   */\n      pop\n      jump\t// out\n        /* \"#utility.yul\":311:436   */\n    tag_24:\n        /* \"#utility.yul\":355:362   */\n      0x00\n        /* \"#utility.yul\":384:389   */\n      dup2\n        /* \"#utility.yul\":373:389   */\n      swap1\n      pop\n        /* \"#utility.yul\":390:430   */\n      tag_38\n        /* \"#utility.yul\":424:429   */\n      dup3\n        /* \"#utility.yul\":390:430   */\n      tag_23\n      jump\t// in\n    tag_38:\n        /* \"#utility.yul\":311:436   */\n      swap2\n      swap1\n      pop\n      jump\t// out\n        /* \"#utility.yul\":442:567   */\n    tag_25:\n        /* \"#utility.yul\":497:506   */\n      0x00\n        /* \"#utility.yul\":530:561   */\n      tag_40\n        /* \"#utility.yul\":555:560   */\n      dup3\n        /* \"#utility.yul\":530:561   */\n      tag_24\n      jump\t// in\n    tag_40:\n        /* \"#utility.yul\":517:561   */\n      swap1\n      pop\n        /* \"#utility.yul\":442:567   */\n      swap2\n      swap1\n      pop\n      jump\t// out\n        /* \"#utility.yul\":573:714   */\n    tag_26:\n        /* \"#utility.yul\":665:707   */\n      tag_42\n        /* \"#utility.yul\":701:706   */\n      dup2\n        /* \"#utility.yul\":665:707   */\n      tag_25\n      jump\t// in\n    tag_42:\n        /* \"#utility.yul\":660:663   */\n      dup3\n        /* \"#utility.yul\":653:708   */\n      mstore\n        /* \"#utility.yul\":573:714   */\n      pop\n      pop\n      jump\t// out\n        /* \"#utility.yul\":720:952   */\n    tag_9:\n        /* \"#utility.yul\":818:822   */\n      0x00\n        /* \"#utility.yul\":856:858   */\n      0x20\n        /* \"#utility.yul\":845:854   */\n      dup3\n        /* \"#utility.yul\":841:859   */\n      add\n        /* \"#utility.yul\":833:859   */\n      swap1\n      pop\n        /* \"#utility.yul\":869:945   */\n      tag_44\n        /* \"#utility.yul\":942:943   */\n      0x00\n        /* \"#utility.yul\":931:940   */\n      dup4\n        /* \"#utility.yul\":927:944   */\n      add\n        /* \"#utility.yul\":918:924   */\n      dup5\n        /* \"#utility.yul\":869:945   */\n      tag_26\n      jump\t// in\n    tag_44:\n        /* \"#utility.yul\":720:952   */\n      swap3\n      swap2\n      pop\n      pop\n      jump\t// out\n        /* \"#utility.yul\":1039:1156   */\n    tag_28:\n        /* \"#utility.yul\":1148:1149   */\n      0x00\n        /* \"#utility.yul\":1145:1146   */\n      dup1\n        /* \"#utility.yul\":1138:1150   */\n      revert\n        /* \"#utility.yul\":1285:1391   */\n    tag_30:\n        /* \"#utility.yul\":1365:1366   */\n      0x03\n        /* \"#utility.yul\":1358:1363   */\n      dup2\n        /* \"#utility.yul\":1355:1367   */\n      lt\n        /* \"#utility.yul\":1345:1385   */\n      tag_49\n      jumpi\n        /* \"#utility.yul\":1381:1382   */\n      0x00\n        /* \"#utility.yul\":1378:1379   */\n      dup1\n        /* \"#utility.yul\":1371:1383   */\n      revert\n        /* \"#utility.yul\":1345:1385   */\n    tag_49:\n        /* \"#utility.yul\":1285:1391   */\n      pop\n      jump\t// out\n        /* \"#utility.yul\":1397:1550   */\n    tag_31:\n        /* \"#utility.yul\":1450:1455   */\n      0x00\n        /* \"#utility.yul\":1488:1494   */\n      dup2\n        /* \"#utility.yul\":1475:1495   */\n      calldataload\n        /* \"#utility.yul\":1466:1495   */\n      swap1\n      pop\n        /* \"#utility.yul\":1504:1544   */\n      tag_51\n        /* \"#utility.yul\":1538:1543   */\n      dup2\n        /* \"#utility.yul\":1504:1544   */\n      tag_30\n      jump\t// in\n    tag_51:\n        /* \"#utility.yul\":1397:1550   */\n      swap3\n      swap2\n      pop\n      pop\n      jump\t// out\n        /* \"#utility.yul\":1556:1899   */\n    tag_12:\n        /* \"#utility.yul\":1622:1628   */\n      0x00\n        /* \"#utility.yul\":1671:1673   */\n      0x20\n        /* \"#utility.yul\":1659:1668   */\n      dup3\n        /* \"#utility.yul\":1650:1657   */\n      dup5\n        /* \"#utility.yul\":1646:1669   */\n      sub\n        /* \"#utility.yul\":1642:1674   */\n      slt\n        /* \"#utility.yul\":1639:1758   */\n      iszero\n      tag_53\n      jumpi\n        /* \"#utility.yul\":1677:1756   */\n      tag_54\n      tag_28\n      jump\t// in\n    tag_54:\n        /* \"#utility.yul\":1639:1758   */\n    tag_53:\n        /* \"#utility.yul\":1797:1798   */\n      0x00\n        /* \"#utility.yul\":1822:1882   */\n      tag_55\n        /* \"#utility.yul\":1874:1881   */\n      dup5\n        /* \"#utility.yul\":1865:1871   */\n      dup3\n        /* \"#utility.yul\":1854:1863   */\n      dup6\n        /* \"#utility.yul\":1850:1872   */\n      add\n        /* \"#utility.yul\":1822:1882   */\n      tag_31\n      jump\t// in\n    tag_55:\n        /* \"#utility.yul\":1812:1882   */\n      swap2\n      pop\n        /* \"#utility.yul\":1768:1892   */\n      pop\n        /* \"#utility.yul\":1556:1899   */\n      swap3\n      swap2\n      pop\n      pop\n      jump\t// out\n\n    auxdata: 0xa2646970667358221220f5154e005d0a69b4e5f44701bc1c515481a59bec1c43e9354a195e369faec84464736f6c634300081a0033\n}\n",
				"bytecode": {
					"linkReferences": {},
					"object": "6080604052348015600e575f80fd5b506101f68061001c5f395ff3fe608060405234801561000f575f80fd5b506004361061003f575f3560e01c80638cf3375d14610043578063dc69a5d114610061578063dea76e551461007d575b5f80fd5b61004b61009b565b6040516100589190610155565b60405180910390f35b61007b60048036038101906100769190610195565b6100af565b005b6100856100da565b6040516100929190610155565b60405180910390f35b5f805f9054906101000a900460ff16905090565b805f806101000a81548160ff021916908360028111156100d2576100d16100e2565b5b021790555050565b5f6001905090565b7f4e487b71000000000000000000000000000000000000000000000000000000005f52602160045260245ffd5b600381106101205761011f6100e2565b5b50565b5f8190506101308261010f565b919050565b5f61013f82610123565b9050919050565b61014f81610135565b82525050565b5f6020820190506101685f830184610146565b92915050565b5f80fd5b6003811061017e575f80fd5b50565b5f8135905061018f81610172565b92915050565b5f602082840312156101aa576101a961016e565b5b5f6101b784828501610181565b9150509291505056fea2646970667358221220f5154e005d0a69b4e5f44701bc1c515481a59bec1c43e9354a195e369faec84464736f6c634300081a0033",
					"opcodes": "PUSH1 0x80 PUSH1 0x40 MSTORE CALLVALUE DUP1 ISZERO PUSH1 0xE JUMPI PUSH0 DUP1 REVERT JUMPDEST POP PUSH2 0x1F6 DUP1 PUSH2 0x1C PUSH0 CODECOPY PUSH0 RETURN INVALID PUSH1 0x80 PUSH1 0x40 MSTORE CALLVALUE DUP1 ISZERO PUSH2 0xF JUMPI PUSH0 DUP1 REVERT JUMPDEST POP PUSH1 0x4 CALLDATASIZE LT PUSH2 0x3F JUMPI PUSH0 CALLDATALOAD PUSH1 0xE0 SHR DUP1 PUSH4 0x8CF3375D EQ PUSH2 0x43 JUMPI DUP1 PUSH4 0xDC69A5D1 EQ PUSH2 0x61 JUMPI DUP1 PUSH4 0xDEA76E55 EQ PUSH2 0x7D JUMPI JUMPDEST PUSH0 DUP1 REVERT JUMPDEST PUSH2 0x4B PUSH2 0x9B JUMP JUMPDEST PUSH1 0x40 MLOAD PUSH2 0x58 SWAP2 SWAP1 PUSH2 0x155 JUMP JUMPDEST PUSH1 0x40 MLOAD DUP1 SWAP2 SUB SWAP1 RETURN JUMPDEST PUSH2 0x7B PUSH1 0x4 DUP1 CALLDATASIZE SUB DUP2 ADD SWAP1 PUSH2 0x76 SWAP2 SWAP1 PUSH2 0x195 JUMP JUMPDEST PUSH2 0xAF JUMP JUMPDEST STOP JUMPDEST PUSH2 0x85 PUSH2 0xDA JUMP JUMPDEST PUSH1 0x40 MLOAD PUSH2 0x92 SWAP2 SWAP1 PUSH2 0x155 JUMP JUMPDEST PUSH1 0x40 MLOAD DUP1 SWAP2 SUB SWAP1 RETURN JUMPDEST PUSH0 DUP1 PUSH0 SWAP1 SLOAD SWAP1 PUSH2 0x100 EXP SWAP1 DIV PUSH1 0xFF AND SWAP1 POP SWAP1 JUMP JUMPDEST DUP1 PUSH0 DUP1 PUSH2 0x100 EXP DUP2 SLOAD DUP2 PUSH1 0xFF MUL NOT AND SWAP1 DUP4 PUSH1 0x2 DUP2 GT ISZERO PUSH2 0xD2 JUMPI PUSH2 0xD1 PUSH2 0xE2 JUMP JUMPDEST JUMPDEST MUL OR SWAP1 SSTORE POP POP JUMP JUMPDEST PUSH0 PUSH1 0x1 SWAP1 POP SWAP1 JUMP JUMPDEST PUSH32 0x4E487B7100000000000000000000000000000000000000000000000000000000 PUSH0 MSTORE PUSH1 0x21 PUSH1 0x4 MSTORE PUSH1 0x24 PUSH0 REVERT JUMPDEST PUSH1 0x3 DUP2 LT PUSH2 0x120 JUMPI PUSH2 0x11F PUSH2 0xE2 JUMP JUMPDEST JUMPDEST POP JUMP JUMPDEST PUSH0 DUP2 SWAP1 POP PUSH2 0x130 DUP3 PUSH2 0x10F JUMP JUMPDEST SWAP2 SWAP1 POP JUMP JUMPDEST PUSH0 PUSH2 0x13F DUP3 PUSH2 0x123 JUMP JUMPDEST SWAP1 POP SWAP2 SWAP1 POP JUMP JUMPDEST PUSH2 0x14F DUP2 PUSH2 0x135 JUMP JUMPDEST DUP3 MSTORE POP POP JUMP JUMPDEST PUSH0 PUSH1 0x20 DUP3 ADD SWAP1 POP PUSH2 0x168 PUSH0 DUP4 ADD DUP5 PUSH2 0x146 JUMP JUMPDEST SWAP3 SWAP2 POP POP JUMP JUMPDEST PUSH0 DUP1 REVERT JUMPDEST PUSH1 0x3 DUP2 LT PUSH2 0x17E JUMPI PUSH0 DUP1 REVERT JUMPDEST POP JUMP JUMPDEST PUSH0 DUP2 CALLDATALOAD SWAP1 POP PUSH2 0x18F DUP2 PUSH2 0x172 JUMP JUMPDEST SWAP3 SWAP2 POP POP JUMP JUMPDEST PUSH0 PUSH1 0x20 DUP3 DUP5 SUB SLT ISZERO PUSH2 0x1AA JUMPI PUSH2 0x1A9 PUSH2 0x16E JUMP JUMPDEST JUMPDEST PUSH0 PUSH2 0x1B7 DUP5 DUP3 DUP6 ADD PUSH2 0x181 JUMP JUMPDEST SWAP2 POP POP SWAP3 SWAP2 POP POP JUMP INVALID LOG2 PUSH5 0x6970667358 0x22 SLT KECCAK256 CREATE2 ISZERO 0x4E STOP TSTORE EXP PUSH10 0xB4E5F44701BC1C515481 0xA5 SWAP12 0xEC SHR NUMBER 0xE9 CALLDATALOAD BLOBBASEFEE NOT MCOPY CALLDATASIZE SWAP16 0xAE 0xC8 PREVRANDAO PUSH5 0x736F6C6343 STOP ADDMOD BYTE STOP CALLER "
				},
				"gasEstimates": {
					"creation": {
						"codeDepositCost": "100400",
						"executionCost": "145",
						"totalCost": "100545"
					},
					"external": {
						"adoptPet(uint8)": "24645",
						"getDefaultPet()": "448",
						"getPet()": "2539"
					}
				},
				"methodIdentifiers": {
					"adoptPet(uint8)": "dc69a5d1",
					"getDefaultPet()": "dea76e55",
					"getPet()": "8cf3375d"
				}
			},
			"storageLayout": {
				"storage": [
					{
						"astId": 334,
						"contract": "contracts/Basic.sol:TestEnum",
						"label": "pet",
						"offset": 0,
						"slot": "0",
						"type": "t_enum(Pet)331"
					}
				],
				"types": {
					"t_enum(Pet)331": {
						"encoding": "inplace",
						"label": "enum TestEnum.Pet",
						"numberOfBytes": "1"
					}
				}
			},
			"userdoc": {
				"kind": "user",
				"methods": {},
				"version": 1
			}
		}
	}
}