{
	"contracts/Basic.sol": {
		"DerivedBasic": {
			"abi": [
				{
					"anonymous": false,
					"inputs": [
						{
							"indexed": false,
							"internalType": "address",
							"name": "_sender",
							"type": "address"
						},
						{
							"indexed": false,
							"internalType": "address",
							"name": "_receiver",
							"type": "address"
						}
					],
					"name": "printAddressType",
					"type": "event"
				},
				{
					"anonymous": false,
					"inputs": [
						{
							"indexed": false,
							"internalType": "bool",
							"name": "_boolVal",
							"type": "bool"
						},
						{
							"indexed": false,
							"internalType": "string",
							"name": "_stringVal",
							"type": "string"
						},
						{
							"indexed": false,
							"internalType": "address",
							"name": "_addressVal",
							"type": "address"
						},
						{
							"indexed": false,
							"internalType": "uint256",
							"name": "_uint256Val",
							"type": "uint256"
						}
					],
					"name": "printTypes",
					"type": "event"
				},
				{
					"anonymous": false,
					"inputs": [
						{
							"indexed": false,
							"internalType": "uint256",
							"name": "_var",
							"type": "uint256"
						}
					],
					"name": "printVariable",
					"type": "event"
				},
				{
					"inputs": [],
					"name": "getInternalStateVariable",
					"outputs": [
						{
							"internalType": "uint256",
							"name": "",
							"type": "uint256"
						}
					],
					"stateMutability": "view",
					"type": "function"
				},
				{
					"inputs": [],
					"name": "publicStateVar",
					"outputs": [
						{
							"internalType": "uint256",
							"name": "",
							"type": "uint256"
						}
					],
					"stateMutability": "view",
					"type": "function"
				},
				{
					"inputs": [],
					"name": "testAddressType",
					"outputs": [],
					"stateMutability": "nonpayable",
					"type": "function"
				},
				{
					"inputs": [],
					"name": "testGlobalVariable",
					"outputs": [],
					"stateMutability": "nonpayable",
					"type": "function"
				},
				{
					"inputs": [],
					"name": "testLocalVariable",
					"outputs": [],
					"stateMutability": "nonpayable",
					"type": "function"
				},
				{
					"inputs": [],
					"name": "testStateVariable",
					"outputs": [],
					"stateMutability": "nonpayable",
					"type": "function"
				},
				{
					"inputs": [],
					"name": "testTypes",
					"outputs": [],
					"stateMutability": "nonpayable",
					"type": "function"
				}
			],
			"devdoc": {
				"kind": "dev",
				"methods": {},
				"version": 1
			},
			"evm": {
				"assembly": "    /* \"contracts/Basic.sol\":1387:1529  contract DerivedBasic is Basic {... */\n  mstore(0x40, 0x80)\n    /* \"contracts/Basic.sol\":136:146  1073741824 */\n  0x40000000\n    /* \"contracts/Basic.sol\":107:146  uint public publicStateVar = 1073741824 */\n  0x00\n  sstore\n    /* \"contracts/Basic.sol\":185:195  1073741824 */\n  0x40000000\n    /* \"contracts/Basic.sol\":152:195  uint internal internalStateVar = 1073741824 */\n  0x01\n  sstore\n    /* \"contracts/Basic.sol\":1387:1529  contract DerivedBasic is Basic {... */\n  callvalue\n  dup1\n  iszero\n  tag_1\n  jumpi\n  0x00\n  dup1\n  revert\ntag_1:\n  pop\n  dataSize(sub_0)\n  dup1\n  dataOffset(sub_0)\n  0x00\n  codecopy\n  0x00\n  return\nstop\n\nsub_0: assembly {\n        /* \"contracts/Basic.sol\":1387:1529  contract DerivedBasic is Basic {... */\n      mstore(0x40, 0x80)\n      callvalue\n      dup1\n      iszero\n      tag_1\n      jumpi\n      0x00\n      dup1\n      revert\n    tag_1:\n      pop\n      jumpi(tag_2, lt(calldatasize, 0x04))\n      shr(0xe0, calldataload(0x00))\n      dup1\n      0x5b9dbef7\n      gt\n      tag_10\n      jumpi\n      dup1\n      0x5b9dbef7\n      eq\n      tag_6\n      jumpi\n      dup1\n      0x797f3696\n      eq\n      tag_7\n      jumpi\n      dup1\n      0xb5d499d0\n      eq\n      tag_8\n      jumpi\n      dup1\n      0xfa462c46\n      eq\n      tag_9\n      jumpi\n      jump(tag_2)\n    tag_10:\n      dup1\n      0x09d97dda\n      eq\n      tag_3\n      jumpi\n      dup1\n      0x10b300cf\n      eq\n      tag_4\n      jumpi\n      dup1\n      0x324224c2\n      eq\n      tag_5\n      jumpi\n    tag_2:\n      0x00\n      dup1\n      revert\n        /* \"contracts/Basic.sol\":107:146  uint public publicStateVar = 1073741824 */\n    tag_3:\n      tag_11\n      tag_12\n      jump\t// in\n    tag_11:\n      mload(0x40)\n      tag_13\n      swap2\n      swap1\n      tag_14\n      jump\t// in\n    tag_13:\n      mload(0x40)\n      dup1\n      swap2\n      sub\n      swap1\n      return\n        /* \"contracts/Basic.sol\":688:949  function testTypes() public {... */\n    tag_4:\n      tag_15\n      tag_16\n      jump\t// in\n    tag_15:\n      stop\n        /* \"contracts/Basic.sol\":955:1125  function testAddressType() public {... */\n    tag_5:\n      tag_17\n      tag_18\n      jump\t// in\n    tag_17:\n      stop\n        /* \"contracts/Basic.sol\":381:498  function testLocalVariable() public {... */\n    tag_6:\n      tag_19\n      tag_20\n      jump\t// in\n    tag_19:\n      stop\n        /* \"contracts/Basic.sol\":1424:1527  function getInternalStateVariable() public view returns (uint) {... */\n    tag_7:\n      tag_21\n      tag_22\n      jump\t// in\n    tag_21:\n      mload(0x40)\n      tag_23\n      swap2\n      swap1\n      tag_14\n      jump\t// in\n    tag_23:\n      mload(0x40)\n      dup1\n      swap2\n      sub\n      swap1\n      return\n        /* \"contracts/Basic.sol\":504:626  function testGlobalVariable() public {... */\n    tag_8:\n      tag_24\n      tag_25\n      jump\t// in\n    tag_24:\n      stop\n        /* \"contracts/Basic.sol\":263:375  function testStateVariable() public {... */\n    tag_9:\n      tag_26\n      tag_27\n      jump\t// in\n    tag_26:\n      stop\n        /* \"contracts/Basic.sol\":107:146  uint public publicStateVar = 1073741824 */\n    tag_12:\n      sload(0x00)\n      dup2\n      jump\t// out\n        /* \"contracts/Basic.sol\":688:949  function testTypes() public {... */\n    tag_16:\n        /* \"contracts/Basic.sol\":726:738  bool boolVal */\n      0x00\n        /* \"contracts/Basic.sol\":741:745  true */\n      0x01\n        /* \"contracts/Basic.sol\":726:745  bool boolVal = true */\n      swap1\n      pop\n        /* \"contracts/Basic.sol\":755:778  string memory stringVal */\n      0x00\n        /* \"contracts/Basic.sol\":755:791  string memory stringVal = \"Solidity\" */\n      mload(0x40)\n      dup1\n      0x40\n      add\n      0x40\n      mstore\n      dup1\n      0x08\n      dup2\n      mstore\n      0x20\n      add\n      0x536f6c6964697479000000000000000000000000000000000000000000000000\n      dup2\n      mstore\n      pop\n      swap1\n      pop\n        /* \"contracts/Basic.sol\":801:819  address addressVal */\n      0x00\n        /* \"contracts/Basic.sol\":842:860  uint256 uint256Val */\n      dup1\n        /* \"contracts/Basic.sol\":863:873  1073741824 */\n      0x40000000\n        /* \"contracts/Basic.sol\":842:873  uint256 uint256Val = 1073741824 */\n      swap1\n      pop\n        /* \"contracts/Basic.sol\":888:942  printTypes(boolVal, stringVal, addressVal, uint256Val) */\n      0x2f0d85d6e91ffbeb6d7e574372b7160fc892a08b22ca0d25555c17de3f677141\n        /* \"contracts/Basic.sol\":899:906  boolVal */\n      dup5\n        /* \"contracts/Basic.sol\":908:917  stringVal */\n      dup5\n        /* \"contracts/Basic.sol\":919:929  addressVal */\n      dup5\n        /* \"contracts/Basic.sol\":931:941  uint256Val */\n      dup5\n        /* \"contracts/Basic.sol\":888:942  printTypes(boolVal, stringVal, addressVal, uint256Val) */\n      mload(0x40)\n      tag_29\n      swap5\n      swap4\n      swap3\n      swap2\n      swap1\n      tag_30\n      jump\t// in\n    tag_29:\n      mload(0x40)\n      dup1\n      swap2\n      sub\n      swap1\n      log1\n        /* \"contracts/Basic.sol\":716:949  {... */\n      pop\n      pop\n      pop\n      pop\n        /* \"contracts/Basic.sol\":688:949  function testTypes() public {... */\n      jump\t// out\n        /* \"contracts/Basic.sol\":955:1125  function testAddressType() public {... */\n    tag_18:\n        /* \"contracts/Basic.sol\":999:1013  address sender */\n      0x00\n        /* \"contracts/Basic.sol\":1016:1026  msg.sender */\n      caller\n        /* \"contracts/Basic.sol\":999:1026  address sender = msg.sender */\n      swap1\n      pop\n        /* \"contracts/Basic.sol\":1036:1052  address receiver */\n      0x00\n        /* \"contracts/Basic.sol\":1063:1068  0x101 */\n      0x0101\n        /* \"contracts/Basic.sol\":1036:1069  address receiver = address(0x101) */\n      swap1\n      pop\n        /* \"contracts/Basic.sol\":1084:1118  printAddressType(sender, receiver) */\n      0xf8e6e1fdfb9a814b6dc1c1a93053742f9ae0933e85677a49e3243e4b382c737a\n        /* \"contracts/Basic.sol\":1101:1107  sender */\n      dup3\n        /* \"contracts/Basic.sol\":1109:1117  receiver */\n      dup3\n        /* \"contracts/Basic.sol\":1084:1118  printAddressType(sender, receiver) */\n      mload(0x40)\n      tag_32\n      swap3\n      swap2\n      swap1\n      tag_33\n      jump\t// in\n    tag_32:\n      mload(0x40)\n      dup1\n      swap2\n      sub\n      swap1\n      log1\n        /* \"contracts/Basic.sol\":989:1125  {... */\n      pop\n      pop\n        /* \"contracts/Basic.sol\":955:1125  function testAddressType() public {... */\n      jump\t// out\n        /* \"contracts/Basic.sol\":381:498  function testLocalVariable() public {... */\n    tag_20:\n        /* \"contracts/Basic.sol\":427:440  uint localVar */\n      0x00\n        /* \"contracts/Basic.sol\":443:453  1073741824 */\n      0x40000000\n        /* \"contracts/Basic.sol\":427:453  uint localVar = 1073741824 */\n      swap1\n      pop\n        /* \"contracts/Basic.sol\":468:491  printVariable(localVar) */\n      0x4eb424d1dc05ad494739fd43b6d90ca5639bb642b3404edeece2190e0c610991\n        /* \"contracts/Basic.sol\":482:490  localVar */\n      dup2\n        /* \"contracts/Basic.sol\":468:491  printVariable(localVar) */\n      mload(0x40)\n      tag_35\n      swap2\n      swap1\n      tag_14\n      jump\t// in\n    tag_35:\n      mload(0x40)\n      dup1\n      swap2\n      sub\n      swap1\n      log1\n        /* \"contracts/Basic.sol\":417:498  {... */\n      pop\n        /* \"contracts/Basic.sol\":381:498  function testLocalVariable() public {... */\n      jump\t// out\n        /* \"contracts/Basic.sol\":1424:1527  function getInternalStateVariable() public view returns (uint) {... */\n    tag_22:\n        /* \"contracts/Basic.sol\":1481:1485  uint */\n      0x00\n        /* \"contracts/Basic.sol\":1504:1520  internalStateVar */\n      sload(0x01)\n        /* \"contracts/Basic.sol\":1497:1520  return internalStateVar */\n      swap1\n      pop\n        /* \"contracts/Basic.sol\":1424:1527  function getInternalStateVariable() public view returns (uint) {... */\n      swap1\n      jump\t// out\n        /* \"contracts/Basic.sol\":504:626  function testGlobalVariable() public {... */\n    tag_25:\n        /* \"contracts/Basic.sol\":551:565  uint globalVar */\n      0x00\n        /* \"contracts/Basic.sol\":568:580  block.number */\n      number\n        /* \"contracts/Basic.sol\":551:580  uint globalVar = block.number */\n      swap1\n      pop\n        /* \"contracts/Basic.sol\":595:619  printVariable(globalVar) */\n      0x4eb424d1dc05ad494739fd43b6d90ca5639bb642b3404edeece2190e0c610991\n        /* \"contracts/Basic.sol\":609:618  globalVar */\n      dup2\n        /* \"contracts/Basic.sol\":595:619  printVariable(globalVar) */\n      mload(0x40)\n      tag_38\n      swap2\n      swap1\n      tag_14\n      jump\t// in\n    tag_38:\n      mload(0x40)\n      dup1\n      swap2\n      sub\n      swap1\n      log1\n        /* \"contracts/Basic.sol\":541:626  {... */\n      pop\n        /* \"contracts/Basic.sol\":504:626  function testGlobalVariable() public {... */\n      jump\t// out\n        /* \"contracts/Basic.sol\":263:375  function testStateVariable() public {... */\n    tag_27:\n        /* \"contracts/Basic.sol\":320:330  1073741824 */\n      0x40000000\n        /* \"contracts/Basic.sol\":309:317  stateVar */\n      0x02\n        /* \"contracts/Basic.sol\":309:330  stateVar = 1073741824 */\n      dup2\n      swap1\n      sstore\n      pop\n        /* \"contracts/Basic.sol\":345:368  printVariable(stateVar) */\n      0x4eb424d1dc05ad494739fd43b6d90ca5639bb642b3404edeece2190e0c610991\n        /* \"contracts/Basic.sol\":359:367  stateVar */\n      sload(0x02)\n        /* \"contracts/Basic.sol\":345:368  printVariable(stateVar) */\n      mload(0x40)\n      tag_40\n      swap2\n      swap1\n      tag_14\n      jump\t// in\n    tag_40:\n      mload(0x40)\n      dup1\n      swap2\n      sub\n      swap1\n      log1\n        /* \"contracts/Basic.sol\":263:375  function testStateVariable() public {... */\n      jump\t// out\n        /* \"#utility.yul\":7:84   */\n    tag_41:\n        /* \"#utility.yul\":44:51   */\n      0x00\n        /* \"#utility.yul\":73:78   */\n      dup2\n        /* \"#utility.yul\":62:78   */\n      swap1\n      pop\n        /* \"#utility.yul\":7:84   */\n      swap2\n      swap1\n      pop\n      jump\t// out\n        /* \"#utility.yul\":90:208   */\n    tag_42:\n        /* \"#utility.yul\":177:201   */\n      tag_56\n        /* \"#utility.yul\":195:200   */\n      dup2\n        /* \"#utility.yul\":177:201   */\n      tag_41\n      jump\t// in\n    tag_56:\n        /* \"#utility.yul\":172:175   */\n      dup3\n        /* \"#utility.yul\":165:202   */\n      mstore\n        /* \"#utility.yul\":90:208   */\n      pop\n      pop\n      jump\t// out\n        /* \"#utility.yul\":214:436   */\n    tag_14:\n        /* \"#utility.yul\":307:311   */\n      0x00\n        /* \"#utility.yul\":345:347   */\n      0x20\n        /* \"#utility.yul\":334:343   */\n      dup3\n        /* \"#utility.yul\":330:348   */\n      add\n        /* \"#utility.yul\":322:348   */\n      swap1\n      pop\n        /* \"#utility.yul\":358:429   */\n      tag_58\n        /* \"#utility.yul\":426:427   */\n      0x00\n        /* \"#utility.yul\":415:424   */\n      dup4\n        /* \"#utility.yul\":411:428   */\n      add\n        /* \"#utility.yul\":402:408   */\n      dup5\n        /* \"#utility.yul\":358:429   */\n      tag_42\n      jump\t// in\n    tag_58:\n        /* \"#utility.yul\":214:436   */\n      swap3\n      swap2\n      pop\n      pop\n      jump\t// out\n        /* \"#utility.yul\":442:532   */\n    tag_43:\n        /* \"#utility.yul\":476:483   */\n      0x00\n        /* \"#utility.yul\":519:524   */\n      dup2\n        /* \"#utility.yul\":512:525   */\n      iszero\n        /* \"#utility.yul\":505:526   */\n      iszero\n        /* \"#utility.yul\":494:526   */\n      swap1\n      pop\n        /* \"#utility.yul\":442:532   */\n      swap2\n      swap1\n      pop\n      jump\t// out\n        /* \"#utility.yul\":538:647   */\n    tag_44:\n        /* \"#utility.yul\":619:640   */\n      tag_61\n        /* \"#utility.yul\":634:639   */\n      dup2\n        /* \"#utility.yul\":619:640   */\n      tag_43\n      jump\t// in\n    tag_61:\n        /* \"#utility.yul\":614:617   */\n      dup3\n        /* \"#utility.yul\":607:641   */\n      mstore\n        /* \"#utility.yul\":538:647   */\n      pop\n      pop\n      jump\t// out\n        /* \"#utility.yul\":653:752   */\n    tag_45:\n        /* \"#utility.yul\":705:711   */\n      0x00\n        /* \"#utility.yul\":739:744   */\n      dup2\n        /* \"#utility.yul\":733:745   */\n      mload\n        /* \"#utility.yul\":723:745   */\n      swap1\n      pop\n        /* \"#utility.yul\":653:752   */\n      swap2\n      swap1\n      pop\n      jump\t// out\n        /* \"#utility.yul\":758:927   */\n    tag_46:\n        /* \"#utility.yul\":842:853   */\n      0x00\n        /* \"#utility.yul\":876:882   */\n      dup3\n        /* \"#utility.yul\":871:874   */\n      dup3\n        /* \"#utility.yul\":864:883   */\n      mstore\n        /* \"#utility.yul\":916:920   */\n      0x20\n        /* \"#utility.yul\":911:914   */\n      dup3\n        /* \"#utility.yul\":907:921   */\n      add\n        /* \"#utility.yul\":892:921   */\n      swap1\n      pop\n        /* \"#utility.yul\":758:927   */\n      swap3\n      swap2\n      pop\n      pop\n      jump\t// out\n        /* \"#utility.yul\":933:1072   */\n    tag_47:\n        /* \"#utility.yul\":1022:1028   */\n      dup3\n        /* \"#utility.yul\":1017:1020   */\n      dup2\n        /* \"#utility.yul\":1012:1015   */\n      dup4\n        /* \"#utility.yul\":1006:1029   */\n      mcopy\n        /* \"#utility.yul\":1063:1064   */\n      0x00\n        /* \"#utility.yul\":1054:1060   */\n      dup4\n        /* \"#utility.yul\":1049:1052   */\n      dup4\n        /* \"#utility.yul\":1045:1061   */\n      add\n        /* \"#utility.yul\":1038:1065   */\n      mstore\n        /* \"#utility.yul\":933:1072   */\n      pop\n      pop\n      pop\n      jump\t// out\n        /* \"#utility.yul\":1078:1180   */\n    tag_48:\n        /* \"#utility.yul\":1119:1125   */\n      0x00\n        /* \"#utility.yul\":1170:1172   */\n      0x1f\n        /* \"#utility.yul\":1166:1173   */\n      not\n        /* \"#utility.yul\":1161:1163   */\n      0x1f\n        /* \"#utility.yul\":1154:1159   */\n      dup4\n        /* \"#utility.yul\":1150:1164   */\n      add\n        /* \"#utility.yul\":1146:1174   */\n      and\n        /* \"#utility.yul\":1136:1174   */\n      swap1\n      pop\n        /* \"#utility.yul\":1078:1180   */\n      swap2\n      swap1\n      pop\n      jump\t// out\n        /* \"#utility.yul\":1186:1563   */\n    tag_49:\n        /* \"#utility.yul\":1274:1277   */\n      0x00\n        /* \"#utility.yul\":1302:1341   */\n      tag_67\n        /* \"#utility.yul\":1335:1340   */\n      dup3\n        /* \"#utility.yul\":1302:1341   */\n      tag_45\n      jump\t// in\n    tag_67:\n        /* \"#utility.yul\":1357:1428   */\n      tag_68\n        /* \"#utility.yul\":1421:1427   */\n      dup2\n        /* \"#utility.yul\":1416:1419   */\n      dup6\n        /* \"#utility.yul\":1357:1428   */\n      tag_46\n      jump\t// in\n    tag_68:\n        /* \"#utility.yul\":1350:1428   */\n      swap4\n      pop\n        /* \"#utility.yul\":1437:1502   */\n      tag_69\n        /* \"#utility.yul\":1495:1501   */\n      dup2\n        /* \"#utility.yul\":1490:1493   */\n      dup6\n        /* \"#utility.yul\":1483:1487   */\n      0x20\n        /* \"#utility.yul\":1476:1481   */\n      dup7\n        /* \"#utility.yul\":1472:1488   */\n      add\n        /* \"#utility.yul\":1437:1502   */\n      tag_47\n      jump\t// in\n    tag_69:\n        /* \"#utility.yul\":1527:1556   */\n      tag_70\n        /* \"#utility.yul\":1549:1555   */\n      dup2\n        /* \"#utility.yul\":1527:1556   */\n      tag_48\n      jump\t// in\n    tag_70:\n        /* \"#utility.yul\":1522:1525   */\n      dup5\n        /* \"#utility.yul\":1518:1557   */\n      add\n        /* \"#utility.yul\":1511:1557   */\n      swap2\n      pop\n        /* \"#utility.yul\":1278:1563   */\n      pop\n        /* \"#utility.yul\":1186:1563   */\n      swap3\n      swap2\n      pop\n      pop\n      jump\t// out\n        /* \"#utility.yul\":1569:1695   */\n    tag_50:\n        /* \"#utility.yul\":1606:1613   */\n      0x00\n        /* \"#utility.yul\":1646:1688   */\n      0xffffffffffffffffffffffffffffffffffffffff\n        /* \"#utility.yul\":1639:1644   */\n      dup3\n        /* \"#utility.yul\":1635:1689   */\n      and\n        /* \"#utility.yul\":1624:1689   */\n      swap1\n      pop\n        /* \"#utility.yul\":1569:1695   */\n      swap2\n      swap1\n      pop\n      jump\t// out\n        /* \"#utility.yul\":1701:1797   */\n    tag_51:\n        /* \"#utility.yul\":1738:1745   */\n      0x00\n        /* \"#utility.yul\":1767:1791   */\n      tag_73\n        /* \"#utility.yul\":1785:1790   */\n      dup3\n        /* \"#utility.yul\":1767:1791   */\n      tag_50\n      jump\t// in\n    tag_73:\n        /* \"#utility.yul\":1756:1791   */\n      swap1\n      pop\n        /* \"#utility.yul\":1701:1797   */\n      swap2\n      swap1\n      pop\n      jump\t// out\n        /* \"#utility.yul\":1803:1921   */\n    tag_52:\n        /* \"#utility.yul\":1890:1914   */\n      tag_75\n        /* \"#utility.yul\":1908:1913   */\n      dup2\n        /* \"#utility.yul\":1890:1914   */\n      tag_51\n      jump\t// in\n    tag_75:\n        /* \"#utility.yul\":1885:1888   */\n      dup3\n        /* \"#utility.yul\":1878:1915   */\n      mstore\n        /* \"#utility.yul\":1803:1921   */\n      pop\n      pop\n      jump\t// out\n        /* \"#utility.yul\":1927:2559   */\n    tag_30:\n        /* \"#utility.yul\":2118:2122   */\n      0x00\n        /* \"#utility.yul\":2156:2159   */\n      0x80\n        /* \"#utility.yul\":2145:2154   */\n      dup3\n        /* \"#utility.yul\":2141:2160   */\n      add\n        /* \"#utility.yul\":2133:2160   */\n      swap1\n      pop\n        /* \"#utility.yul\":2170:2235   */\n      tag_77\n        /* \"#utility.yul\":2232:2233   */\n      0x00\n        /* \"#utility.yul\":2221:2230   */\n      dup4\n        /* \"#utility.yul\":2217:2234   */\n      add\n        /* \"#utility.yul\":2208:2214   */\n      dup8\n        /* \"#utility.yul\":2170:2235   */\n      tag_44\n      jump\t// in\n    tag_77:\n        /* \"#utility.yul\":2282:2291   */\n      dup2\n        /* \"#utility.yul\":2276:2280   */\n      dup2\n        /* \"#utility.yul\":2272:2292   */\n      sub\n        /* \"#utility.yul\":2267:2269   */\n      0x20\n        /* \"#utility.yul\":2256:2265   */\n      dup4\n        /* \"#utility.yul\":2252:2270   */\n      add\n        /* \"#utility.yul\":2245:2293   */\n      mstore\n        /* \"#utility.yul\":2310:2388   */\n      tag_78\n        /* \"#utility.yul\":2383:2387   */\n      dup2\n        /* \"#utility.yul\":2374:2380   */\n      dup7\n        /* \"#utility.yul\":2310:2388   */\n      tag_49\n      jump\t// in\n    tag_78:\n        /* \"#utility.yul\":2302:2388   */\n      swap1\n      pop\n        /* \"#utility.yul\":2398:2470   */\n      tag_79\n        /* \"#utility.yul\":2466:2468   */\n      0x40\n        /* \"#utility.yul\":2455:2464   */\n      dup4\n        /* \"#utility.yul\":2451:2469   */\n      add\n        /* \"#utility.yul\":2442:2448   */\n      dup6\n        /* \"#utility.yul\":2398:2470   */\n      tag_52\n      jump\t// in\n    tag_79:\n        /* \"#utility.yul\":2480:2552   */\n      tag_80\n        /* \"#utility.yul\":2548:2550   */\n      0x60\n        /* \"#utility.yul\":2537:2546   */\n      dup4\n        /* \"#utility.yul\":2533:2551   */\n      add\n        /* \"#utility.yul\":2524:2530   */\n      dup5\n        /* \"#utility.yul\":2480:2552   */\n      tag_42\n      jump\t// in\n    tag_80:\n        /* \"#utility.yul\":1927:2559   */\n      swap6\n      swap5\n      pop\n      pop\n      pop\n      pop\n      pop\n      jump\t// out\n        /* \"#utility.yul\":2565:2897   */\n    tag_33:\n        /* \"#utility.yul\":2686:2690   */\n      0x00\n        /* \"#utility.yul\":2724:2726   */\n      0x40\n        /* \"#utility.yul\":2713:2722   */\n      dup3\n        /* \"#utility.yul\":2709:2727   */\n      add\n        /* \"#utility.yul\":2701:2727   */\n      swap1\n      pop\n        /* \"#utility.yul\":2737:2808   */\n      tag_82\n        /* \"#utility.yul\":2805:2806   */\n      0x00\n        /* \"#utility.yul\":2794:2803   */\n      dup4\n        /* \"#utility.yul\":2790:2807   */\n      add\n        /* \"#utility.yul\":2781:2787   */\n      dup6\n        /* \"#utility.yul\":2737:2808   */\n      tag_52\n      jump\t// in\n    tag_82:\n        /* \"#utility.yul\":2818:2890   */\n      tag_83\n        /* \"#utility.yul\":2886:2888   */\n      0x20\n        /* \"#utility.yul\":2875:2884   */\n      dup4\n        /* \"#utility.yul\":2871:2889   */\n      add\n        /* \"#utility.yul\":2862:2868   */\n      dup5\n        /* \"#utility.yul\":2818:2890   */\n      tag_52\n      jump\t// in\n    tag_83:\n        /* \"#utility.yul\":2565:2897   */\n      swap4\n      swap3\n      pop\n      pop\n      pop\n      jump\t// out\n\n    auxdata: 0xa2646970667358221220a9efbd151ee9f8a5ccbeeb8acbf9ac3e69ce584943d1cabbc1f5dca3af68433c64736f6c634300081a0033\n}\n",
				"bytecode": {
					"linkReferences": {},
					"object": "608060405263400000005f556340000000600155348015601d575f80fd5b506104338061002b5f395ff3fe608060405234801561000f575f80fd5b506004361061007b575f3560e01c80635b9dbef7116100595780635b9dbef7146100b1578063797f3696146100bb578063b5d499d0146100d9578063fa462c46146100e35761007b565b806309d97dda1461007f57806310b300cf1461009d578063324224c2146100a7575b5f80fd5b6100876100ed565b60405161009491906102aa565b60405180910390f35b6100a56100f2565b005b6100af61017c565b005b6100b96101c3565b005b6100c3610205565b6040516100d091906102aa565b60405180910390f35b6100e161020e565b005b6100eb61024c565b005b5f5481565b5f600190505f6040518060400160405280600881526020017f536f6c696469747900000000000000000000000000000000000000000000000081525090505f80634000000090507f2f0d85d6e91ffbeb6d7e574372b7160fc892a08b22ca0d25555c17de3f6771418484848460405161016e949392919061038c565b60405180910390a150505050565b5f3390505f61010190507ff8e6e1fdfb9a814b6dc1c1a93053742f9ae0933e85677a49e3243e4b382c737a82826040516101b79291906103d6565b60405180910390a15050565b5f634000000090507f4eb424d1dc05ad494739fd43b6d90ca5639bb642b3404edeece2190e0c610991816040516101fa91906102aa565b60405180910390a150565b5f600154905090565b5f4390507f4eb424d1dc05ad494739fd43b6d90ca5639bb642b3404edeece2190e0c6109918160405161024191906102aa565b60405180910390a150565b63400000006002819055507f4eb424d1dc05ad494739fd43b6d90ca5639bb642b3404edeece2190e0c61099160025460405161028891906102aa565b60405180910390a1565b5f819050919050565b6102a481610292565b82525050565b5f6020820190506102bd5f83018461029b565b92915050565b5f8115159050919050565b6102d7816102c3565b82525050565b5f81519050919050565b5f82825260208201905092915050565b8281835e5f83830152505050565b5f601f19601f8301169050919050565b5f61031f826102dd565b61032981856102e7565b93506103398185602086016102f7565b61034281610305565b840191505092915050565b5f73ffffffffffffffffffffffffffffffffffffffff82169050919050565b5f6103768261034d565b9050919050565b6103868161036c565b82525050565b5f60808201905061039f5f8301876102ce565b81810360208301526103b18186610315565b90506103c0604083018561037d565b6103cd606083018461029b565b95945050505050565b5f6040820190506103e95f83018561037d565b6103f6602083018461037d565b939250505056fea2646970667358221220a9efbd151ee9f8a5ccbeeb8acbf9ac3e69ce584943d1cabbc1f5dca3af68433c64736f6c634300081a0033",
					"opcodes": "PUSH1 0x80 PUSH1 0x40 MSTORE PUSH4 0x40000000 PUSH0 SSTORE PUSH4 0x40000000 PUSH1 0x1 SSTORE CALLVALUE DUP1 ISZERO PUSH1 0x1D JUMPI PUSH0 DUP1 REVERT JUMPDEST POP PUSH2 0x433 DUP1 PUSH2 0x2B PUSH0 CODECOPY PUSH0 RETURN INVALID PUSH1 0x80 PUSH1 0x40 MSTORE CALLVALUE DUP1 ISZERO PUSH2 0xF JUMPI PUSH0 DUP1 REVERT JUMPDEST POP PUSH1 0x4 CALLDATASIZE LT PUSH2 0x7B JUMPI PUSH0 CALLDATALOAD PUSH1 0xE0 SHR DUP1 PUSH4 0x5B9DBEF7 GT PUSH2 0x59 JUMPI DUP1 PUSH4 0x5B9DBEF7 EQ PUSH2 0xB1 JUMPI DUP1 PUSH4 0x797F3696 EQ PUSH2 0xBB JUMPI DUP1 PUSH4 0xB5D499D0 EQ PUSH2 0xD9 JUMPI DUP1 PUSH4 0xFA462C46 EQ PUSH2 0xE3 JUMPI PUSH2 0x7B JUMP JUMPDEST DUP1 PUSH4 0x9D97DDA EQ PUSH2 0x7F JUMPI DUP1 PUSH4 0x10B300CF EQ PUSH2 0x9D JUMPI DUP1 PUSH4 0x324224C2 EQ PUSH2 0xA7 JUMPI JUMPDEST PUSH0 DUP1 REVERT JUMPDEST PUSH2 0x87 PUSH2 0xED JUMP JUMPDEST PUSH1 0x40 MLOAD PUSH2 0x94 SWAP2 SWAP1 PUSH2 0x2AA JUMP JUMPDEST PUSH1 0x40 MLOAD DUP1 SWAP2 SUB SWAP1 RETURN JUMPDEST PUSH2 0xA5 PUSH2 0xF2 JUMP JUMPDEST STOP JUMPDEST PUSH2 0xAF PUSH2 0x17C JUMP JUMPDEST STOP JUMPDEST PUSH2 0xB9 PUSH2 0x1C3 JUMP JUMPDEST STOP JUMPDEST PUSH2 0xC3 PUSH2 0x205 JUMP JUMPDEST PUSH1 0x40 MLOAD PUSH2 0xD0 SWAP2 SWAP1 PUSH2 0x2AA JUMP JUMPDEST PUSH1 0x40 MLOAD DUP1 SWAP2 SUB SWAP1 RETURN JUMPDEST PUSH2 0xE1 PUSH2 0x20E JUMP JUMPDEST STOP JUMPDEST PUSH2 0xEB PUSH2 0x24C JUMP JUMPDEST STOP JUMPDEST PUSH0 SLOAD DUP2 JUMP JUMPDEST PUSH0 PUSH1 0x1 SWAP1 POP PUSH0 PUSH1 0x40 MLOAD DUP1 PUSH1 0x40 ADD PUSH1 0x40 MSTORE DUP1 PUSH1 0x8 DUP2 MSTORE PUSH1 0x20 ADD PUSH32 0x536F6C6964697479000000000000000000000000000000000000000000000000 DUP2 MSTORE POP SWAP1 POP PUSH0 DUP1 PUSH4 0x40000000 SWAP1 POP PUSH32 0x2F0D85D6E91FFBEB6D7E574372B7160FC892A08B22CA0D25555C17DE3F677141 DUP5 DUP5 DUP5 DUP5 PUSH1 0x40 MLOAD PUSH2 0x16E SWAP5 SWAP4 SWAP3 SWAP2 SWAP1 PUSH2 0x38C JUMP JUMPDEST PUSH1 0x40 MLOAD DUP1 SWAP2 SUB SWAP1 LOG1 POP POP POP POP JUMP JUMPDEST PUSH0 CALLER SWAP1 POP PUSH0 PUSH2 0x101 SWAP1 POP PUSH32 0xF8E6E1FDFB9A814B6DC1C1A93053742F9AE0933E85677A49E3243E4B382C737A DUP3 DUP3 PUSH1 0x40 MLOAD PUSH2 0x1B7 SWAP3 SWAP2 SWAP1 PUSH2 0x3D6 JUMP JUMPDEST PUSH1 0x40 MLOAD DUP1 SWAP2 SUB SWAP1 LOG1 POP POP JUMP JUMPDEST PUSH0 PUSH4 0x40000000 SWAP1 POP PUSH32 0x4EB424D1DC05AD494739FD43B6D90CA5639BB642B3404EDEECE2190E0C610991 DUP2 PUSH1 0x40 MLOAD PUSH2 0x1FA SWAP2 SWAP1 PUSH2 0x2AA JUMP JUMPDEST PUSH1 0x40 MLOAD DUP1 SWAP2 SUB SWAP1 LOG1 POP JUMP JUMPDEST PUSH0 PUSH1 0x1 SLOAD SWAP1 POP SWAP1 JUMP JUMPDEST PUSH0 NUMBER SWAP1 POP PUSH32 0x4EB424D1DC05AD494739FD43B6D90CA5639BB642B3404EDEECE2190E0C610991 DUP2 PUSH1 0x40 MLOAD PUSH2 0x241 SWAP2 SWAP1 PUSH2 0x2AA JUMP JUMPDEST PUSH1 0x40 MLOAD DUP1 SWAP2 SUB SWAP1 LOG1 POP JUMP JUMPDEST PUSH4 0x40000000 PUSH1 0x2 DUP2 SWAP1 SSTORE POP PUSH32 0x4EB424D1DC05AD494739FD43B6D90CA5639BB642B3404EDEECE2190E0C610991 PUSH1 0x2 SLOAD PUSH1 0x40 MLOAD PUSH2 0x288 SWAP2 SWAP1 PUSH2 0x2AA JUMP JUMPDEST PUSH1 0x40 MLOAD DUP1 SWAP2 SUB SWAP1 LOG1 JUMP JUMPDEST PUSH0 DUP2 SWAP1 POP SWAP2 SWAP1 POP JUMP JUMPDEST PUSH2 0x2A4 DUP2 PUSH2 0x292 JUMP JUMPDEST DUP3 MSTORE POP POP JUMP JUMPDEST PUSH0 PUSH1 0x20 DUP3 ADD SWAP1 POP PUSH2 0x2BD PUSH0 DUP4 ADD DUP5 PUSH2 0x29B JUMP JUMPDEST SWAP3 SWAP2 POP POP JUMP JUMPDEST PUSH0 DUP2 ISZERO ISZERO SWAP1 POP SWAP2 SWAP1 POP JUMP JUMPDEST PUSH2 0x2D7 DUP2 PUSH2 0x2C3 JUMP JUMPDEST DUP3 MSTORE POP POP JUMP JUMPDEST PUSH0 DUP2 MLOAD SWAP1 POP SWAP2 SWAP1 POP JUMP JUMPDEST PUSH0 DUP3 DUP3 MSTORE PUSH1 0x20 DUP3 ADD SWAP1 POP SWAP3 SWAP2 POP POP JUMP JUMPDEST DUP3 DUP2 DUP4 MCOPY PUSH0 DUP4 DUP4 ADD MSTORE POP POP POP JUMP JUMPDEST PUSH0 PUSH1 0x1F NOT PUSH1 0x1F DUP4 ADD AND SWAP1 POP SWAP2 SWAP1 POP JUMP JUMPDEST PUSH0 PUSH2 0x31F DUP3 PUSH2 0x2DD JUMP JUMPDEST PUSH2 0x329 DUP2 DUP6 PUSH2 0x2E7 JUMP JUMPDEST SWAP4 POP PUSH2 0x339 DUP2 DUP6 PUSH1 0x20 DUP7 ADD PUSH2 0x2F7 JUMP JUMPDEST PUSH2 0x342 DUP2 PUSH2 0x305 JUMP JUMPDEST DUP5 ADD SWAP2 POP POP SWAP3 SWAP2 POP POP JUMP JUMPDEST PUSH0 PUSH20 0xFFFFFFFFFFFFFFFFFFFFFFFFFFFFFFFFFFFFFFFF DUP3 AND SWAP1 POP SWAP2 SWAP1 POP JUMP JUMPDEST PUSH0 PUSH2 0x376 DUP3 PUSH2 0x34D JUMP JUMPDEST SWAP1 POP SWAP2 SWAP1 POP JUMP JUMPDEST PUSH2 0x386 DUP2 PUSH2 0x36C JUMP JUMPDEST DUP3 MSTORE POP POP JUMP JUMPDEST PUSH0 PUSH1 0x80 DUP3 ADD SWAP1 POP PUSH2 0x39F PUSH0 DUP4 ADD DUP8 PUSH2 0x2CE JUMP JUMPDEST DUP2 DUP2 SUB PUSH1 0x20 DUP4 ADD MSTORE PUSH2 0x3B1 DUP2 DUP7 PUSH2 0x315 JUMP JUMPDEST SWAP1 POP PUSH2 0x3C0 PUSH1 0x40 DUP4 ADD DUP6 PUSH2 0x37D JUMP JUMPDEST PUSH2 0x3CD PUSH1 0x60 DUP4 ADD DUP5 PUSH2 0x29B JUMP JUMPDEST SWAP6 SWAP5 POP POP POP POP POP JUMP JUMPDEST PUSH0 PUSH1 0x40 DUP3 ADD SWAP1 POP PUSH2 0x3E9 PUSH0 DUP4 ADD DUP6 PUSH2 0x37D JUMP JUMPDEST PUSH2 0x3F6 PUSH1 0x20 DUP4 ADD DUP5 PUSH2 0x37D JUMP JUMPDEST SWAP4 SWAP3 POP POP POP JUMP INVALID LOG2 PUSH5 0x6970667358 0x22 SLT KECCAK256 0xA9 0xEF 0xBD ISZERO 0x1E 0xE9 0xF8 0xA5 0xCC 0xBE 0xEB DUP11 0xCB 0xF9 0xAC RETURNDATACOPY PUSH10 0xCE584943D1CABBC1F5DC LOG3 0xAF PUSH9 0x433C64736F6C634300 ADDMOD BYTE STOP CALLER "
				},
				"gasEstimates": {
					"creation": {
						"codeDepositCost": "215000",
						"executionCost": "44466",
						"totalCost": "259466"
					},
					"external": {
						"getInternalStateVariable()": "2454",
						"publicStateVar()": "2425",
						"testAddressType()": "infinite",
						"testGlobalVariable()": "1386",
						"testLocalVariable()": "1343",
						"testStateVariable()": "25611",
						"testTypes()": "infinite"
					}
				},
				"methodIdentifiers": {
					"getInternalStateVariable()": "797f3696",
					"publicStateVar()": "09d97dda",
					"testAddressType()": "324224c2",
					"testGlobalVariable()": "b5d499d0",
					"testLocalVariable()": "5b9dbef7",
					"testStateVariable()": "fa462c46",
					"testTypes()": "10b300cf"
				}
			},
			"storageLayout": {
				"storage": [
					{
						"astId": 4,
						"contract": "contracts/Basic.sol:DerivedBasic",
						"label": "publicStateVar",
						"offset": 0,
						"slot": "0",
						"type": "t_uint256"
					},
					{
						"astId": 7,
						"contract": "contracts/Basic.sol:DerivedBasic",
						"label": "internalStateVar",
						"offset": 0,
						"slot": "1",
						"type": "t_uint256"
					},
					{
						"astId": 9,
						"contract": "contracts/Basic.sol:DerivedBasic",
						"label": "stateVar",
						"offset": 0,
						"slot": "2",
						"type": "t_uint256"
					}
				],
				"types": {
					"t_uint256": {
						"encoding": "inplace",
						"label": "uint256",
						"numberOfBytes": "32"
					}
				}
			},
			"userdoc": {
				"kind": "user",
				"methods": {},
				"version": 1
			}
		}
	}
}