{
	"contracts/Basic.sol": {
		"Basic": {
			"abi": [
				{
					"anonymous": false,
					"inputs": [
						{
							"indexed": false,
							"internalType": "address",
							"name": "_sender",
							"type": "address"
						},
						{
							"indexed": false,
							"internalType": "address",
							"name": "_receiver",
							"type": "address"
						}
					],
					"name": "printAddressType",
					"type": "event"
				},
				{
					"anonymous": false,
					"inputs": [
						{
							"indexed": false,
							"internalType": "bool",
							"name": "_boolVal",
							"type": "bool"
						},
						{
							"indexed": false,
							"internalType": "string",
							"name": "_stringVal",
							"type": "string"
						},
						{
							"indexed": false,
							"internalType": "address",
							"name": "_addressVal",
							"type": "address"
						},
						{
							"indexed": false,
							"internalType": "uint256",
							"name": "_uint256Val",
							"type": "uint256"
						}
					],
					"name": "printTypes",
					"type": "event"
				},
				{
					"anonymous": false,
					"inputs": [
						{
							"indexed": false,
							"internalType": "uint256",
							"name": "_var",
							"type": "uint256"
						}
					],
					"name": "printVariable",
					"type": "event"
				},
				{
					"inputs": [],
					"name": "publicStateVar",
					"outputs": [
						{
							"internalType": "uint256",
							"name": "",
							"type": "uint256"
						}
					],
					"stateMutability": "view",
					"type": "function"
				},
				{
					"inputs": [],
					"name": "testAddressType",
					"outputs": [],
					"stateMutability": "nonpayable",
					"type": "function"
				},
				{
					"inputs": [],
					"name": "testGlobalVariable",
					"outputs": [],
					"stateMutability": "nonpayable",
					"type": "function"
				},
				{
					"inputs": [],
					"name": "testLocalVariable",
					"outputs": [],
					"stateMutability": "nonpayable",
					"type": "function"
				},
				{
					"inputs": [
						{
							"internalType": "uint256",
							"name": "_var",
							"type": "uint256"
						}
					],
					"name": "testMultipleThings",
					"outputs": [
						{
							"internalType": "string",
							"name": "",
							"type": "string"
						}
					],
					"stateMutability": "pure",
					"type": "function"
				},
				{
					"inputs": [],
					"name": "testStateVariable",
					"outputs": [],
					"stateMutability": "nonpayable",
					"type": "function"
				},
				{
					"inputs": [],
					"name": "testTypes",
					"outputs": [],
					"stateMutability": "nonpayable",
					"type": "function"
				}
			],
			"devdoc": {
				"kind": "dev",
				"methods": {},
				"version": 1
			},
			"evm": {
				"assembly": "    /* \"contracts/Basic.sol\":58:2132  contract Basic {... */\n  mstore(0x40, 0x80)\n    /* \"contracts/Basic.sol\":883:893  1073741824 */\n  0x40000000\n    /* \"contracts/Basic.sol\":854:893  uint public publicStateVar = 1073741824 */\n  0x00\n  sstore\n    /* \"contracts/Basic.sol\":932:942  1073741824 */\n  0x40000000\n    /* \"contracts/Basic.sol\":899:942  uint internal internalStateVar = 1073741824 */\n  0x01\n  sstore\n    /* \"contracts/Basic.sol\":58:2132  contract Basic {... */\n  callvalue\n  dup1\n  iszero\n  tag_1\n  jumpi\n  0x00\n  dup1\n  revert\ntag_1:\n  pop\n  dataSize(sub_0)\n  dup1\n  dataOffset(sub_0)\n  0x00\n  codecopy\n  0x00\n  return\nstop\n\nsub_0: assembly {\n        /* \"contracts/Basic.sol\":58:2132  contract Basic {... */\n      mstore(0x40, 0x80)\n      callvalue\n      dup1\n      iszero\n      tag_1\n      jumpi\n      0x00\n      dup1\n      revert\n    tag_1:\n      pop\n      jumpi(tag_2, lt(calldatasize, 0x04))\n      shr(0xe0, calldataload(0x00))\n      dup1\n      0x5b9dbef7\n      gt\n      tag_10\n      jumpi\n      dup1\n      0x5b9dbef7\n      eq\n      tag_6\n      jumpi\n      dup1\n      0x7048a82b\n      eq\n      tag_7\n      jumpi\n      dup1\n      0xb5d499d0\n      eq\n      tag_8\n      jumpi\n      dup1\n      0xfa462c46\n      eq\n      tag_9\n      jumpi\n      jump(tag_2)\n    tag_10:\n      dup1\n      0x09d97dda\n      eq\n      tag_3\n      jumpi\n      dup1\n      0x10b300cf\n      eq\n      tag_4\n      jumpi\n      dup1\n      0x324224c2\n      eq\n      tag_5\n      jumpi\n    tag_2:\n      0x00\n      dup1\n      revert\n        /* \"contracts/Basic.sol\":854:893  uint public publicStateVar = 1073741824 */\n    tag_3:\n      tag_11\n      tag_12\n      jump\t// in\n    tag_11:\n      mload(0x40)\n      tag_13\n      swap2\n      swap1\n      tag_14\n      jump\t// in\n    tag_13:\n      mload(0x40)\n      dup1\n      swap2\n      sub\n      swap1\n      return\n        /* \"contracts/Basic.sol\":1435:1696  function testTypes() public {... */\n    tag_4:\n      tag_15\n      tag_16\n      jump\t// in\n    tag_15:\n      stop\n        /* \"contracts/Basic.sol\":1702:1872  function testAddressType() public {... */\n    tag_5:\n      tag_17\n      tag_18\n      jump\t// in\n    tag_17:\n      stop\n        /* \"contracts/Basic.sol\":1128:1245  function testLocalVariable() public {... */\n    tag_6:\n      tag_19\n      tag_20\n      jump\t// in\n    tag_19:\n      stop\n        /* \"contracts/Basic.sol\":129:256  function testMultipleThings(uint _var) public pure returns (string memory) {... */\n    tag_7:\n      tag_21\n      0x04\n      dup1\n      calldatasize\n      sub\n      dup2\n      add\n      swap1\n      tag_22\n      swap2\n      swap1\n      tag_23\n      jump\t// in\n    tag_22:\n      tag_24\n      jump\t// in\n    tag_21:\n      mload(0x40)\n      tag_25\n      swap2\n      swap1\n      tag_26\n      jump\t// in\n    tag_25:\n      mload(0x40)\n      dup1\n      swap2\n      sub\n      swap1\n      return\n        /* \"contracts/Basic.sol\":1251:1373  function testGlobalVariable() public {... */\n    tag_8:\n      tag_27\n      tag_28\n      jump\t// in\n    tag_27:\n      stop\n        /* \"contracts/Basic.sol\":1010:1122  function testStateVariable() public {... */\n    tag_9:\n      tag_29\n      tag_30\n      jump\t// in\n    tag_29:\n      stop\n        /* \"contracts/Basic.sol\":854:893  uint public publicStateVar = 1073741824 */\n    tag_12:\n      sload(0x00)\n      dup2\n      jump\t// out\n        /* \"contracts/Basic.sol\":1435:1696  function testTypes() public {... */\n    tag_16:\n        /* \"contracts/Basic.sol\":1473:1485  bool boolVal */\n      0x00\n        /* \"contracts/Basic.sol\":1488:1492  true */\n      0x01\n        /* \"contracts/Basic.sol\":1473:1492  bool boolVal = true */\n      swap1\n      pop\n        /* \"contracts/Basic.sol\":1502:1525  string memory stringVal */\n      0x00\n        /* \"contracts/Basic.sol\":1502:1538  string memory stringVal = \"Solidity\" */\n      mload(0x40)\n      dup1\n      0x40\n      add\n      0x40\n      mstore\n      dup1\n      0x08\n      dup2\n      mstore\n      0x20\n      add\n      0x536f6c6964697479000000000000000000000000000000000000000000000000\n      dup2\n      mstore\n      pop\n      swap1\n      pop\n        /* \"contracts/Basic.sol\":1548:1566  address addressVal */\n      0x00\n        /* \"contracts/Basic.sol\":1589:1607  uint256 uint256Val */\n      dup1\n        /* \"contracts/Basic.sol\":1610:1620  1073741824 */\n      0x40000000\n        /* \"contracts/Basic.sol\":1589:1620  uint256 uint256Val = 1073741824 */\n      swap1\n      pop\n        /* \"contracts/Basic.sol\":1635:1689  printTypes(boolVal, stringVal, addressVal, uint256Val) */\n      0x2f0d85d6e91ffbeb6d7e574372b7160fc892a08b22ca0d25555c17de3f677141\n        /* \"contracts/Basic.sol\":1646:1653  boolVal */\n      dup5\n        /* \"contracts/Basic.sol\":1655:1664  stringVal */\n      dup5\n        /* \"contracts/Basic.sol\":1666:1676  addressVal */\n      dup5\n        /* \"contracts/Basic.sol\":1678:1688  uint256Val */\n      dup5\n        /* \"contracts/Basic.sol\":1635:1689  printTypes(boolVal, stringVal, addressVal, uint256Val) */\n      mload(0x40)\n      tag_32\n      swap5\n      swap4\n      swap3\n      swap2\n      swap1\n      tag_33\n      jump\t// in\n    tag_32:\n      mload(0x40)\n      dup1\n      swap2\n      sub\n      swap1\n      log1\n        /* \"contracts/Basic.sol\":1463:1696  {... */\n      pop\n      pop\n      pop\n      pop\n        /* \"contracts/Basic.sol\":1435:1696  function testTypes() public {... */\n      jump\t// out\n        /* \"contracts/Basic.sol\":1702:1872  function testAddressType() public {... */\n    tag_18:\n        /* \"contracts/Basic.sol\":1746:1760  address sender */\n      0x00\n        /* \"contracts/Basic.sol\":1763:1773  msg.sender */\n      caller\n        /* \"contracts/Basic.sol\":1746:1773  address sender = msg.sender */\n      swap1\n      pop\n        /* \"contracts/Basic.sol\":1783:1799  address receiver */\n      0x00\n        /* \"contracts/Basic.sol\":1810:1815  0x101 */\n      0x0101\n        /* \"contracts/Basic.sol\":1783:1816  address receiver = address(0x101) */\n      swap1\n      pop\n        /* \"contracts/Basic.sol\":1831:1865  printAddressType(sender, receiver) */\n      0xf8e6e1fdfb9a814b6dc1c1a93053742f9ae0933e85677a49e3243e4b382c737a\n        /* \"contracts/Basic.sol\":1848:1854  sender */\n      dup3\n        /* \"contracts/Basic.sol\":1856:1864  receiver */\n      dup3\n        /* \"contracts/Basic.sol\":1831:1865  printAddressType(sender, receiver) */\n      mload(0x40)\n      tag_35\n      swap3\n      swap2\n      swap1\n      tag_36\n      jump\t// in\n    tag_35:\n      mload(0x40)\n      dup1\n      swap2\n      sub\n      swap1\n      log1\n        /* \"contracts/Basic.sol\":1736:1872  {... */\n      pop\n      pop\n        /* \"contracts/Basic.sol\":1702:1872  function testAddressType() public {... */\n      jump\t// out\n        /* \"contracts/Basic.sol\":1128:1245  function testLocalVariable() public {... */\n    tag_20:\n        /* \"contracts/Basic.sol\":1174:1187  uint localVar */\n      0x00\n        /* \"contracts/Basic.sol\":1190:1200  1073741824 */\n      0x40000000\n        /* \"contracts/Basic.sol\":1174:1200  uint localVar = 1073741824 */\n      swap1\n      pop\n        /* \"contracts/Basic.sol\":1215:1238  printVariable(localVar) */\n      0x4eb424d1dc05ad494739fd43b6d90ca5639bb642b3404edeece2190e0c610991\n        /* \"contracts/Basic.sol\":1229:1237  localVar */\n      dup2\n        /* \"contracts/Basic.sol\":1215:1238  printVariable(localVar) */\n      mload(0x40)\n      tag_38\n      swap2\n      swap1\n      tag_14\n      jump\t// in\n    tag_38:\n      mload(0x40)\n      dup1\n      swap2\n      sub\n      swap1\n      log1\n        /* \"contracts/Basic.sol\":1164:1245  {... */\n      pop\n        /* \"contracts/Basic.sol\":1128:1245  function testLocalVariable() public {... */\n      jump\t// out\n        /* \"contracts/Basic.sol\":129:256  function testMultipleThings(uint _var) public pure returns (string memory) {... */\n    tag_24:\n        /* \"contracts/Basic.sol\":189:202  string memory */\n      0x60\n        /* \"contracts/Basic.sol\":221:249  convertIntegerToString(_var) */\n      tag_40\n        /* \"contracts/Basic.sol\":244:248  _var */\n      dup3\n        /* \"contracts/Basic.sol\":221:243  convertIntegerToString */\n      tag_41\n        /* \"contracts/Basic.sol\":221:249  convertIntegerToString(_var) */\n      jump\t// in\n    tag_40:\n        /* \"contracts/Basic.sol\":214:249  return convertIntegerToString(_var) */\n      swap1\n      pop\n        /* \"contracts/Basic.sol\":129:256  function testMultipleThings(uint _var) public pure returns (string memory) {... */\n      swap2\n      swap1\n      pop\n      jump\t// out\n        /* \"contracts/Basic.sol\":1251:1373  function testGlobalVariable() public {... */\n    tag_28:\n        /* \"contracts/Basic.sol\":1298:1312  uint globalVar */\n      0x00\n        /* \"contracts/Basic.sol\":1315:1327  block.number */\n      number\n        /* \"contracts/Basic.sol\":1298:1327  uint globalVar = block.number */\n      swap1\n      pop\n        /* \"contracts/Basic.sol\":1342:1366  printVariable(globalVar) */\n      0x4eb424d1dc05ad494739fd43b6d90ca5639bb642b3404edeece2190e0c610991\n        /* \"contracts/Basic.sol\":1356:1365  globalVar */\n      dup2\n        /* \"contracts/Basic.sol\":1342:1366  printVariable(globalVar) */\n      mload(0x40)\n      tag_43\n      swap2\n      swap1\n      tag_14\n      jump\t// in\n    tag_43:\n      mload(0x40)\n      dup1\n      swap2\n      sub\n      swap1\n      log1\n        /* \"contracts/Basic.sol\":1288:1373  {... */\n      pop\n        /* \"contracts/Basic.sol\":1251:1373  function testGlobalVariable() public {... */\n      jump\t// out\n        /* \"contracts/Basic.sol\":1010:1122  function testStateVariable() public {... */\n    tag_30:\n        /* \"contracts/Basic.sol\":1067:1077  1073741824 */\n      0x40000000\n        /* \"contracts/Basic.sol\":1056:1064  stateVar */\n      0x02\n        /* \"contracts/Basic.sol\":1056:1077  stateVar = 1073741824 */\n      dup2\n      swap1\n      sstore\n      pop\n        /* \"contracts/Basic.sol\":1092:1115  printVariable(stateVar) */\n      0x4eb424d1dc05ad494739fd43b6d90ca5639bb642b3404edeece2190e0c610991\n        /* \"contracts/Basic.sol\":1106:1114  stateVar */\n      sload(0x02)\n        /* \"contracts/Basic.sol\":1092:1115  printVariable(stateVar) */\n      mload(0x40)\n      tag_45\n      swap2\n      swap1\n      tag_14\n      jump\t// in\n    tag_45:\n      mload(0x40)\n      dup1\n      swap2\n      sub\n      swap1\n      log1\n        /* \"contracts/Basic.sol\":1010:1122  function testStateVariable() public {... */\n      jump\t// out\n        /* \"contracts/Basic.sol\":262:820  function convertIntegerToString(uint _var) private pure returns (string memory) {... */\n    tag_41:\n        /* \"contracts/Basic.sol\":327:340  string memory */\n      0x60\n        /* \"contracts/Basic.sol\":364:365  0 */\n      0x00\n        /* \"contracts/Basic.sol\":356:360  _var */\n      dup3\n        /* \"contracts/Basic.sol\":356:365  _var == 0 */\n      sub\n        /* \"contracts/Basic.sol\":352:402  if (_var == 0) {... */\n      tag_47\n      jumpi\n        /* \"contracts/Basic.sol\":381:391  return \"0\" */\n      mload(0x40)\n      dup1\n      0x40\n      add\n      0x40\n      mstore\n      dup1\n      0x01\n      dup2\n      mstore\n      0x20\n      add\n      0x3000000000000000000000000000000000000000000000000000000000000000\n      dup2\n      mstore\n      pop\n      swap1\n      pop\n      jump(tag_46)\n        /* \"contracts/Basic.sol\":352:402  if (_var == 0) {... */\n    tag_47:\n        /* \"contracts/Basic.sol\":411:417  uint i */\n      0x00\n        /* \"contracts/Basic.sol\":420:424  _var */\n      dup3\n        /* \"contracts/Basic.sol\":411:424  uint i = _var */\n      swap1\n      pop\n        /* \"contracts/Basic.sol\":434:442  uint len */\n      0x00\n        /* \"contracts/Basic.sol\":456:522  while (i != 0) {... */\n    tag_48:\n        /* \"contracts/Basic.sol\":468:469  0 */\n      0x00\n        /* \"contracts/Basic.sol\":463:464  i */\n      dup3\n        /* \"contracts/Basic.sol\":463:469  i != 0 */\n      eq\n        /* \"contracts/Basic.sol\":456:522  while (i != 0) {... */\n      tag_49\n      jumpi\n        /* \"contracts/Basic.sol\":485:490  len++ */\n      dup1\n      dup1\n      tag_50\n      swap1\n      tag_51\n      jump\t// in\n    tag_50:\n      swap2\n      pop\n      pop\n        /* \"contracts/Basic.sol\":509:511  10 */\n      0x0a\n        /* \"contracts/Basic.sol\":504:511  i /= 10 */\n      dup3\n      tag_52\n      swap2\n      swap1\n      tag_53\n      jump\t// in\n    tag_52:\n      swap2\n      pop\n        /* \"contracts/Basic.sol\":456:522  while (i != 0) {... */\n      jump(tag_48)\n    tag_49:\n        /* \"contracts/Basic.sol\":531:547  bytes memory buf */\n      0x00\n        /* \"contracts/Basic.sol\":560:563  len */\n      dup2\n        /* \"contracts/Basic.sol\":550:564  new bytes(len) */\n      0xffffffffffffffff\n      dup2\n      gt\n      iszero\n      tag_54\n      jumpi\n      tag_55\n      tag_56\n      jump\t// in\n    tag_55:\n    tag_54:\n      mload(0x40)\n      swap1\n      dup1\n      dup3\n      mstore\n      dup1\n      0x1f\n      add\n      not(0x1f)\n      and\n      0x20\n      add\n      dup3\n      add\n      0x40\n      mstore\n      dup1\n      iszero\n      tag_57\n      jumpi\n      dup2\n      0x20\n      add\n      0x01\n      dup3\n      mul\n      dup1\n      calldatasize\n      dup4\n      calldatacopy\n      dup1\n      dup3\n      add\n      swap2\n      pop\n      pop\n      swap1\n      pop\n    tag_57:\n      pop\n        /* \"contracts/Basic.sol\":531:564  bytes memory buf = new bytes(len) */\n      swap1\n      pop\n        /* \"contracts/Basic.sol\":574:580  uint j */\n      0x00\n        /* \"contracts/Basic.sol\":589:590  1 */\n      0x01\n        /* \"contracts/Basic.sol\":583:586  len */\n      dup4\n        /* \"contracts/Basic.sol\":583:590  len - 1 */\n      tag_58\n      swap2\n      swap1\n      tag_59\n      jump\t// in\n    tag_58:\n        /* \"contracts/Basic.sol\":574:590  uint j = len - 1 */\n      swap1\n      pop\n        /* \"contracts/Basic.sol\":600:786  do {... */\n    tag_60:\n        /* \"contracts/Basic.sol\":651:653  10 */\n      0x0a\n        /* \"contracts/Basic.sol\":644:648  _var */\n      dup7\n        /* \"contracts/Basic.sol\":644:653  _var % 10 */\n      tag_63\n      swap2\n      swap1\n      tag_64\n      jump\t// in\n    tag_63:\n        /* \"contracts/Basic.sol\":639:641  48 */\n      0x30\n        /* \"contracts/Basic.sol\":639:653  48 + _var % 10 */\n      tag_65\n      swap2\n      swap1\n      tag_66\n      jump\t// in\n    tag_65:\n        /* \"contracts/Basic.sol\":626:655  bytes1(uint8(48 + _var % 10)) */\n      0xf8\n      shl\n        /* \"contracts/Basic.sol\":617:620  buf */\n      dup3\n        /* \"contracts/Basic.sol\":621:622  j */\n      dup3\n        /* \"contracts/Basic.sol\":617:623  buf[j] */\n      dup2\n      mload\n      dup2\n      lt\n      tag_67\n      jumpi\n      tag_68\n      tag_69\n      jump\t// in\n    tag_68:\n    tag_67:\n      0x20\n      add\n      add\n        /* \"contracts/Basic.sol\":617:655  buf[j] = bytes1(uint8(48 + _var % 10)) */\n      swap1\n      not(0xffffffffffffffffffffffffffffffffffffffffffffffffffffffffffffff)\n      and\n      swap1\n      dup2\n      0x00\n      byte\n      swap1\n      mstore8\n      pop\n        /* \"contracts/Basic.sol\":678:679  0 */\n      0x00\n        /* \"contracts/Basic.sol\":673:674  j */\n      dup2\n        /* \"contracts/Basic.sol\":673:679  j == 0 */\n      sub\n        /* \"contracts/Basic.sol\":669:719  if (j == 0) {... */\n      iszero\n        /* \"contracts/Basic.sol\":699:704  break */\n      tag_61\n        /* \"contracts/Basic.sol\":669:719  if (j == 0) {... */\n      jumpi\n        /* \"contracts/Basic.sol\":732:735  j-- */\n      dup1\n      dup1\n      tag_71\n      swap1\n      tag_72\n      jump\t// in\n    tag_71:\n      swap2\n      pop\n      pop\n        /* \"contracts/Basic.sol\":757:759  10 */\n      0x0a\n        /* \"contracts/Basic.sol\":749:759  _var /= 10 */\n      dup7\n      tag_73\n      swap2\n      swap1\n      tag_53\n      jump\t// in\n    tag_73:\n      swap6\n      pop\n        /* \"contracts/Basic.sol\":783:784  0 */\n      0x00\n        /* \"contracts/Basic.sol\":778:779  j */\n      dup2\n        /* \"contracts/Basic.sol\":778:784  j >= 0 */\n      lt\n      iszero\n        /* \"contracts/Basic.sol\":600:786  do {... */\n      tag_60\n      jumpi\n    tag_61:\n        /* \"contracts/Basic.sol\":809:812  buf */\n      dup2\n        /* \"contracts/Basic.sol\":795:813  return string(buf) */\n      swap5\n      pop\n      pop\n      pop\n      pop\n      pop\n        /* \"contracts/Basic.sol\":262:820  function convertIntegerToString(uint _var) private pure returns (string memory) {... */\n    tag_46:\n      swap2\n      swap1\n      pop\n      jump\t// out\n        /* \"#utility.yul\":7:84   */\n    tag_74:\n        /* \"#utility.yul\":44:51   */\n      0x00\n        /* \"#utility.yul\":73:78   */\n      dup2\n        /* \"#utility.yul\":62:78   */\n      swap1\n      pop\n        /* \"#utility.yul\":7:84   */\n      swap2\n      swap1\n      pop\n      jump\t// out\n        /* \"#utility.yul\":90:208   */\n    tag_75:\n        /* \"#utility.yul\":177:201   */\n      tag_96\n        /* \"#utility.yul\":195:200   */\n      dup2\n        /* \"#utility.yul\":177:201   */\n      tag_74\n      jump\t// in\n    tag_96:\n        /* \"#utility.yul\":172:175   */\n      dup3\n        /* \"#utility.yul\":165:202   */\n      mstore\n        /* \"#utility.yul\":90:208   */\n      pop\n      pop\n      jump\t// out\n        /* \"#utility.yul\":214:436   */\n    tag_14:\n        /* \"#utility.yul\":307:311   */\n      0x00\n        /* \"#utility.yul\":345:347   */\n      0x20\n        /* \"#utility.yul\":334:343   */\n      dup3\n        /* \"#utility.yul\":330:348   */\n      add\n        /* \"#utility.yul\":322:348   */\n      swap1\n      pop\n        /* \"#utility.yul\":358:429   */\n      tag_98\n        /* \"#utility.yul\":426:427   */\n      0x00\n        /* \"#utility.yul\":415:424   */\n      dup4\n        /* \"#utility.yul\":411:428   */\n      add\n        /* \"#utility.yul\":402:408   */\n      dup5\n        /* \"#utility.yul\":358:429   */\n      tag_75\n      jump\t// in\n    tag_98:\n        /* \"#utility.yul\":214:436   */\n      swap3\n      swap2\n      pop\n      pop\n      jump\t// out\n        /* \"#utility.yul\":523:640   */\n    tag_77:\n        /* \"#utility.yul\":632:633   */\n      0x00\n        /* \"#utility.yul\":629:630   */\n      dup1\n        /* \"#utility.yul\":622:634   */\n      revert\n        /* \"#utility.yul\":769:891   */\n    tag_79:\n        /* \"#utility.yul\":842:866   */\n      tag_103\n        /* \"#utility.yul\":860:865   */\n      dup2\n        /* \"#utility.yul\":842:866   */\n      tag_74\n      jump\t// in\n    tag_103:\n        /* \"#utility.yul\":835:840   */\n      dup2\n        /* \"#utility.yul\":832:867   */\n      eq\n        /* \"#utility.yul\":822:885   */\n      tag_104\n      jumpi\n        /* \"#utility.yul\":881:882   */\n      0x00\n        /* \"#utility.yul\":878:879   */\n      dup1\n        /* \"#utility.yul\":871:883   */\n      revert\n        /* \"#utility.yul\":822:885   */\n    tag_104:\n        /* \"#utility.yul\":769:891   */\n      pop\n      jump\t// out\n        /* \"#utility.yul\":897:1036   */\n    tag_80:\n        /* \"#utility.yul\":943:948   */\n      0x00\n        /* \"#utility.yul\":981:987   */\n      dup2\n        /* \"#utility.yul\":968:988   */\n      calldataload\n        /* \"#utility.yul\":959:988   */\n      swap1\n      pop\n        /* \"#utility.yul\":997:1030   */\n      tag_106\n        /* \"#utility.yul\":1024:1029   */\n      dup2\n        /* \"#utility.yul\":997:1030   */\n      tag_79\n      jump\t// in\n    tag_106:\n        /* \"#utility.yul\":897:1036   */\n      swap3\n      swap2\n      pop\n      pop\n      jump\t// out\n        /* \"#utility.yul\":1042:1371   */\n    tag_23:\n        /* \"#utility.yul\":1101:1107   */\n      0x00\n        /* \"#utility.yul\":1150:1152   */\n      0x20\n        /* \"#utility.yul\":1138:1147   */\n      dup3\n        /* \"#utility.yul\":1129:1136   */\n      dup5\n        /* \"#utility.yul\":1125:1148   */\n      sub\n        /* \"#utility.yul\":1121:1153   */\n      slt\n        /* \"#utility.yul\":1118:1237   */\n      iszero\n      tag_108\n      jumpi\n        /* \"#utility.yul\":1156:1235   */\n      tag_109\n      tag_77\n      jump\t// in\n    tag_109:\n        /* \"#utility.yul\":1118:1237   */\n    tag_108:\n        /* \"#utility.yul\":1276:1277   */\n      0x00\n        /* \"#utility.yul\":1301:1354   */\n      tag_110\n        /* \"#utility.yul\":1346:1353   */\n      dup5\n        /* \"#utility.yul\":1337:1343   */\n      dup3\n        /* \"#utility.yul\":1326:1335   */\n      dup6\n        /* \"#utility.yul\":1322:1344   */\n      add\n        /* \"#utility.yul\":1301:1354   */\n      tag_80\n      jump\t// in\n    tag_110:\n        /* \"#utility.yul\":1291:1354   */\n      swap2\n      pop\n        /* \"#utility.yul\":1247:1364   */\n      pop\n        /* \"#utility.yul\":1042:1371   */\n      swap3\n      swap2\n      pop\n      pop\n      jump\t// out\n        /* \"#utility.yul\":1377:1476   */\n    tag_81:\n        /* \"#utility.yul\":1429:1435   */\n      0x00\n        /* \"#utility.yul\":1463:1468   */\n      dup2\n        /* \"#utility.yul\":1457:1469   */\n      mload\n        /* \"#utility.yul\":1447:1469   */\n      swap1\n      pop\n        /* \"#utility.yul\":1377:1476   */\n      swap2\n      swap1\n      pop\n      jump\t// out\n        /* \"#utility.yul\":1482:1651   */\n    tag_82:\n        /* \"#utility.yul\":1566:1577   */\n      0x00\n        /* \"#utility.yul\":1600:1606   */\n      dup3\n        /* \"#utility.yul\":1595:1598   */\n      dup3\n        /* \"#utility.yul\":1588:1607   */\n      mstore\n        /* \"#utility.yul\":1640:1644   */\n      0x20\n        /* \"#utility.yul\":1635:1638   */\n      dup3\n        /* \"#utility.yul\":1631:1645   */\n      add\n        /* \"#utility.yul\":1616:1645   */\n      swap1\n      pop\n        /* \"#utility.yul\":1482:1651   */\n      swap3\n      swap2\n      pop\n      pop\n      jump\t// out\n        /* \"#utility.yul\":1657:1796   */\n    tag_83:\n        /* \"#utility.yul\":1746:1752   */\n      dup3\n        /* \"#utility.yul\":1741:1744   */\n      dup2\n        /* \"#utility.yul\":1736:1739   */\n      dup4\n        /* \"#utility.yul\":1730:1753   */\n      mcopy\n        /* \"#utility.yul\":1787:1788   */\n      0x00\n        /* \"#utility.yul\":1778:1784   */\n      dup4\n        /* \"#utility.yul\":1773:1776   */\n      dup4\n        /* \"#utility.yul\":1769:1785   */\n      add\n        /* \"#utility.yul\":1762:1789   */\n      mstore\n        /* \"#utility.yul\":1657:1796   */\n      pop\n      pop\n      pop\n      jump\t// out\n        /* \"#utility.yul\":1802:1904   */\n    tag_84:\n        /* \"#utility.yul\":1843:1849   */\n      0x00\n        /* \"#utility.yul\":1894:1896   */\n      0x1f\n        /* \"#utility.yul\":1890:1897   */\n      not\n        /* \"#utility.yul\":1885:1887   */\n      0x1f\n        /* \"#utility.yul\":1878:1883   */\n      dup4\n        /* \"#utility.yul\":1874:1888   */\n      add\n        /* \"#utility.yul\":1870:1898   */\n      and\n        /* \"#utility.yul\":1860:1898   */\n      swap1\n      pop\n        /* \"#utility.yul\":1802:1904   */\n      swap2\n      swap1\n      pop\n      jump\t// out\n        /* \"#utility.yul\":1910:2287   */\n    tag_85:\n        /* \"#utility.yul\":1998:2001   */\n      0x00\n        /* \"#utility.yul\":2026:2065   */\n      tag_116\n        /* \"#utility.yul\":2059:2064   */\n      dup3\n        /* \"#utility.yul\":2026:2065   */\n      tag_81\n      jump\t// in\n    tag_116:\n        /* \"#utility.yul\":2081:2152   */\n      tag_117\n        /* \"#utility.yul\":2145:2151   */\n      dup2\n        /* \"#utility.yul\":2140:2143   */\n      dup6\n        /* \"#utility.yul\":2081:2152   */\n      tag_82\n      jump\t// in\n    tag_117:\n        /* \"#utility.yul\":2074:2152   */\n      swap4\n      pop\n        /* \"#utility.yul\":2161:2226   */\n      tag_118\n        /* \"#utility.yul\":2219:2225   */\n      dup2\n        /* \"#utility.yul\":2214:2217   */\n      dup6\n        /* \"#utility.yul\":2207:2211   */\n      0x20\n        /* \"#utility.yul\":2200:2205   */\n      dup7\n        /* \"#utility.yul\":2196:2212   */\n      add\n        /* \"#utility.yul\":2161:2226   */\n      tag_83\n      jump\t// in\n    tag_118:\n        /* \"#utility.yul\":2251:2280   */\n      tag_119\n        /* \"#utility.yul\":2273:2279   */\n      dup2\n        /* \"#utility.yul\":2251:2280   */\n      tag_84\n      jump\t// in\n    tag_119:\n        /* \"#utility.yul\":2246:2249   */\n      dup5\n        /* \"#utility.yul\":2242:2281   */\n      add\n        /* \"#utility.yul\":2235:2281   */\n      swap2\n      pop\n        /* \"#utility.yul\":2002:2287   */\n      pop\n        /* \"#utility.yul\":1910:2287   */\n      swap3\n      swap2\n      pop\n      pop\n      jump\t// out\n        /* \"#utility.yul\":2293:2606   */\n    tag_26:\n        /* \"#utility.yul\":2406:2410   */\n      0x00\n        /* \"#utility.yul\":2444:2446   */\n      0x20\n        /* \"#utility.yul\":2433:2442   */\n      dup3\n        /* \"#utility.yul\":2429:2447   */\n      add\n        /* \"#utility.yul\":2421:2447   */\n      swap1\n      pop\n        /* \"#utility.yul\":2493:2502   */\n      dup2\n        /* \"#utility.yul\":2487:2491   */\n      dup2\n        /* \"#utility.yul\":2483:2503   */\n      sub\n        /* \"#utility.yul\":2479:2480   */\n      0x00\n        /* \"#utility.yul\":2468:2477   */\n      dup4\n        /* \"#utility.yul\":2464:2481   */\n      add\n        /* \"#utility.yul\":2457:2504   */\n      mstore\n        /* \"#utility.yul\":2521:2599   */\n      tag_121\n        /* \"#utility.yul\":2594:2598   */\n      dup2\n        /* \"#utility.yul\":2585:2591   */\n      dup5\n        /* \"#utility.yul\":2521:2599   */\n      tag_85\n      jump\t// in\n    tag_121:\n        /* \"#utility.yul\":2513:2599   */\n      swap1\n      pop\n        /* \"#utility.yul\":2293:2606   */\n      swap3\n      swap2\n      pop\n      pop\n      jump\t// out\n        /* \"#utility.yul\":2612:2702   */\n    tag_86:\n        /* \"#utility.yul\":2646:2653   */\n      0x00\n        /* \"#utility.yul\":2689:2694   */\n      dup2\n        /* \"#utility.yul\":2682:2695   */\n      iszero\n        /* \"#utility.yul\":2675:2696   */\n      iszero\n        /* \"#utility.yul\":2664:2696   */\n      swap1\n      pop\n        /* \"#utility.yul\":2612:2702   */\n      swap2\n      swap1\n      pop\n      jump\t// out\n        /* \"#utility.yul\":2708:2817   */\n    tag_87:\n        /* \"#utility.yul\":2789:2810   */\n      tag_124\n        /* \"#utility.yul\":2804:2809   */\n      dup2\n        /* \"#utility.yul\":2789:2810   */\n      tag_86\n      jump\t// in\n    tag_124:\n        /* \"#utility.yul\":2784:2787   */\n      dup3\n        /* \"#utility.yul\":2777:2811   */\n      mstore\n        /* \"#utility.yul\":2708:2817   */\n      pop\n      pop\n      jump\t// out\n        /* \"#utility.yul\":2823:2949   */\n    tag_88:\n        /* \"#utility.yul\":2860:2867   */\n      0x00\n        /* \"#utility.yul\":2900:2942   */\n      0xffffffffffffffffffffffffffffffffffffffff\n        /* \"#utility.yul\":2893:2898   */\n      dup3\n        /* \"#utility.yul\":2889:2943   */\n      and\n        /* \"#utility.yul\":2878:2943   */\n      swap1\n      pop\n        /* \"#utility.yul\":2823:2949   */\n      swap2\n      swap1\n      pop\n      jump\t// out\n        /* \"#utility.yul\":2955:3051   */\n    tag_89:\n        /* \"#utility.yul\":2992:2999   */\n      0x00\n        /* \"#utility.yul\":3021:3045   */\n      tag_127\n        /* \"#utility.yul\":3039:3044   */\n      dup3\n        /* \"#utility.yul\":3021:3045   */\n      tag_88\n      jump\t// in\n    tag_127:\n        /* \"#utility.yul\":3010:3045   */\n      swap1\n      pop\n        /* \"#utility.yul\":2955:3051   */\n      swap2\n      swap1\n      pop\n      jump\t// out\n        /* \"#utility.yul\":3057:3175   */\n    tag_90:\n        /* \"#utility.yul\":3144:3168   */\n      tag_129\n        /* \"#utility.yul\":3162:3167   */\n      dup2\n        /* \"#utility.yul\":3144:3168   */\n      tag_89\n      jump\t// in\n    tag_129:\n        /* \"#utility.yul\":3139:3142   */\n      dup3\n        /* \"#utility.yul\":3132:3169   */\n      mstore\n        /* \"#utility.yul\":3057:3175   */\n      pop\n      pop\n      jump\t// out\n        /* \"#utility.yul\":3181:3813   */\n    tag_33:\n        /* \"#utility.yul\":3372:3376   */\n      0x00\n        /* \"#utility.yul\":3410:3413   */\n      0x80\n        /* \"#utility.yul\":3399:3408   */\n      dup3\n        /* \"#utility.yul\":3395:3414   */\n      add\n        /* \"#utility.yul\":3387:3414   */\n      swap1\n      pop\n        /* \"#utility.yul\":3424:3489   */\n      tag_131\n        /* \"#utility.yul\":3486:3487   */\n      0x00\n        /* \"#utility.yul\":3475:3484   */\n      dup4\n        /* \"#utility.yul\":3471:3488   */\n      add\n        /* \"#utility.yul\":3462:3468   */\n      dup8\n        /* \"#utility.yul\":3424:3489   */\n      tag_87\n      jump\t// in\n    tag_131:\n        /* \"#utility.yul\":3536:3545   */\n      dup2\n        /* \"#utility.yul\":3530:3534   */\n      dup2\n        /* \"#utility.yul\":3526:3546   */\n      sub\n        /* \"#utility.yul\":3521:3523   */\n      0x20\n        /* \"#utility.yul\":3510:3519   */\n      dup4\n        /* \"#utility.yul\":3506:3524   */\n      add\n        /* \"#utility.yul\":3499:3547   */\n      mstore\n        /* \"#utility.yul\":3564:3642   */\n      tag_132\n        /* \"#utility.yul\":3637:3641   */\n      dup2\n        /* \"#utility.yul\":3628:3634   */\n      dup7\n        /* \"#utility.yul\":3564:3642   */\n      tag_85\n      jump\t// in\n    tag_132:\n        /* \"#utility.yul\":3556:3642   */\n      swap1\n      pop\n        /* \"#utility.yul\":3652:3724   */\n      tag_133\n        /* \"#utility.yul\":3720:3722   */\n      0x40\n        /* \"#utility.yul\":3709:3718   */\n      dup4\n        /* \"#utility.yul\":3705:3723   */\n      add\n        /* \"#utility.yul\":3696:3702   */\n      dup6\n        /* \"#utility.yul\":3652:3724   */\n      tag_90\n      jump\t// in\n    tag_133:\n        /* \"#utility.yul\":3734:3806   */\n      tag_134\n        /* \"#utility.yul\":3802:3804   */\n      0x60\n        /* \"#utility.yul\":3791:3800   */\n      dup4\n        /* \"#utility.yul\":3787:3805   */\n      add\n        /* \"#utility.yul\":3778:3784   */\n      dup5\n        /* \"#utility.yul\":3734:3806   */\n      tag_75\n      jump\t// in\n    tag_134:\n        /* \"#utility.yul\":3181:3813   */\n      swap6\n      swap5\n      pop\n      pop\n      pop\n      pop\n      pop\n      jump\t// out\n        /* \"#utility.yul\":3819:4151   */\n    tag_36:\n        /* \"#utility.yul\":3940:3944   */\n      0x00\n        /* \"#utility.yul\":3978:3980   */\n      0x40\n        /* \"#utility.yul\":3967:3976   */\n      dup3\n        /* \"#utility.yul\":3963:3981   */\n      add\n        /* \"#utility.yul\":3955:3981   */\n      swap1\n      pop\n        /* \"#utility.yul\":3991:4062   */\n      tag_136\n        /* \"#utility.yul\":4059:4060   */\n      0x00\n        /* \"#utility.yul\":4048:4057   */\n      dup4\n        /* \"#utility.yul\":4044:4061   */\n      add\n        /* \"#utility.yul\":4035:4041   */\n      dup6\n        /* \"#utility.yul\":3991:4062   */\n      tag_90\n      jump\t// in\n    tag_136:\n        /* \"#utility.yul\":4072:4144   */\n      tag_137\n        /* \"#utility.yul\":4140:4142   */\n      0x20\n        /* \"#utility.yul\":4129:4138   */\n      dup4\n        /* \"#utility.yul\":4125:4143   */\n      add\n        /* \"#utility.yul\":4116:4122   */\n      dup5\n        /* \"#utility.yul\":4072:4144   */\n      tag_90\n      jump\t// in\n    tag_137:\n        /* \"#utility.yul\":3819:4151   */\n      swap4\n      swap3\n      pop\n      pop\n      pop\n      jump\t// out\n        /* \"#utility.yul\":4157:4337   */\n    tag_91:\n        /* \"#utility.yul\":4205:4282   */\n      0x4e487b7100000000000000000000000000000000000000000000000000000000\n        /* \"#utility.yul\":4202:4203   */\n      0x00\n        /* \"#utility.yul\":4195:4283   */\n      mstore\n        /* \"#utility.yul\":4302:4306   */\n      0x11\n        /* \"#utility.yul\":4299:4300   */\n      0x04\n        /* \"#utility.yul\":4292:4307   */\n      mstore\n        /* \"#utility.yul\":4326:4330   */\n      0x24\n        /* \"#utility.yul\":4323:4324   */\n      0x00\n        /* \"#utility.yul\":4316:4331   */\n      revert\n        /* \"#utility.yul\":4343:4576   */\n    tag_51:\n        /* \"#utility.yul\":4382:4385   */\n      0x00\n        /* \"#utility.yul\":4405:4429   */\n      tag_140\n        /* \"#utility.yul\":4423:4428   */\n      dup3\n        /* \"#utility.yul\":4405:4429   */\n      tag_74\n      jump\t// in\n    tag_140:\n        /* \"#utility.yul\":4396:4429   */\n      swap2\n      pop\n        /* \"#utility.yul\":4451:4517   */\n      0xffffffffffffffffffffffffffffffffffffffffffffffffffffffffffffffff\n        /* \"#utility.yul\":4444:4449   */\n      dup3\n        /* \"#utility.yul\":4441:4518   */\n      sub\n        /* \"#utility.yul\":4438:4541   */\n      tag_141\n      jumpi\n        /* \"#utility.yul\":4521:4539   */\n      tag_142\n      tag_91\n      jump\t// in\n    tag_142:\n        /* \"#utility.yul\":4438:4541   */\n    tag_141:\n        /* \"#utility.yul\":4568:4569   */\n      0x01\n        /* \"#utility.yul\":4561:4566   */\n      dup3\n        /* \"#utility.yul\":4557:4570   */\n      add\n        /* \"#utility.yul\":4550:4570   */\n      swap1\n      pop\n        /* \"#utility.yul\":4343:4576   */\n      swap2\n      swap1\n      pop\n      jump\t// out\n        /* \"#utility.yul\":4582:4762   */\n    tag_92:\n        /* \"#utility.yul\":4630:4707   */\n      0x4e487b7100000000000000000000000000000000000000000000000000000000\n        /* \"#utility.yul\":4627:4628   */\n      0x00\n        /* \"#utility.yul\":4620:4708   */\n      mstore\n        /* \"#utility.yul\":4727:4731   */\n      0x12\n        /* \"#utility.yul\":4724:4725   */\n      0x04\n        /* \"#utility.yul\":4717:4732   */\n      mstore\n        /* \"#utility.yul\":4751:4755   */\n      0x24\n        /* \"#utility.yul\":4748:4749   */\n      0x00\n        /* \"#utility.yul\":4741:4756   */\n      revert\n        /* \"#utility.yul\":4768:4953   */\n    tag_53:\n        /* \"#utility.yul\":4808:4809   */\n      0x00\n        /* \"#utility.yul\":4825:4845   */\n      tag_145\n        /* \"#utility.yul\":4843:4844   */\n      dup3\n        /* \"#utility.yul\":4825:4845   */\n      tag_74\n      jump\t// in\n    tag_145:\n        /* \"#utility.yul\":4820:4845   */\n      swap2\n      pop\n        /* \"#utility.yul\":4859:4879   */\n      tag_146\n        /* \"#utility.yul\":4877:4878   */\n      dup4\n        /* \"#utility.yul\":4859:4879   */\n      tag_74\n      jump\t// in\n    tag_146:\n        /* \"#utility.yul\":4854:4879   */\n      swap3\n      pop\n        /* \"#utility.yul\":4898:4899   */\n      dup3\n        /* \"#utility.yul\":4888:4923   */\n      tag_147\n      jumpi\n        /* \"#utility.yul\":4903:4921   */\n      tag_148\n      tag_92\n      jump\t// in\n    tag_148:\n        /* \"#utility.yul\":4888:4923   */\n    tag_147:\n        /* \"#utility.yul\":4945:4946   */\n      dup3\n        /* \"#utility.yul\":4942:4943   */\n      dup3\n        /* \"#utility.yul\":4938:4947   */\n      div\n        /* \"#utility.yul\":4933:4947   */\n      swap1\n      pop\n        /* \"#utility.yul\":4768:4953   */\n      swap3\n      swap2\n      pop\n      pop\n      jump\t// out\n        /* \"#utility.yul\":4959:5139   */\n    tag_56:\n        /* \"#utility.yul\":5007:5084   */\n      0x4e487b7100000000000000000000000000000000000000000000000000000000\n        /* \"#utility.yul\":5004:5005   */\n      0x00\n        /* \"#utility.yul\":4997:5085   */\n      mstore\n        /* \"#utility.yul\":5104:5108   */\n      0x41\n        /* \"#utility.yul\":5101:5102   */\n      0x04\n        /* \"#utility.yul\":5094:5109   */\n      mstore\n        /* \"#utility.yul\":5128:5132   */\n      0x24\n        /* \"#utility.yul\":5125:5126   */\n      0x00\n        /* \"#utility.yul\":5118:5133   */\n      revert\n        /* \"#utility.yul\":5145:5339   */\n    tag_59:\n        /* \"#utility.yul\":5185:5189   */\n      0x00\n        /* \"#utility.yul\":5205:5225   */\n      tag_151\n        /* \"#utility.yul\":5223:5224   */\n      dup3\n        /* \"#utility.yul\":5205:5225   */\n      tag_74\n      jump\t// in\n    tag_151:\n        /* \"#utility.yul\":5200:5225   */\n      swap2\n      pop\n        /* \"#utility.yul\":5239:5259   */\n      tag_152\n        /* \"#utility.yul\":5257:5258   */\n      dup4\n        /* \"#utility.yul\":5239:5259   */\n      tag_74\n      jump\t// in\n    tag_152:\n        /* \"#utility.yul\":5234:5259   */\n      swap3\n      pop\n        /* \"#utility.yul\":5283:5284   */\n      dup3\n        /* \"#utility.yul\":5280:5281   */\n      dup3\n        /* \"#utility.yul\":5276:5285   */\n      sub\n        /* \"#utility.yul\":5268:5285   */\n      swap1\n      pop\n        /* \"#utility.yul\":5307:5308   */\n      dup2\n        /* \"#utility.yul\":5301:5305   */\n      dup2\n        /* \"#utility.yul\":5298:5309   */\n      gt\n        /* \"#utility.yul\":5295:5332   */\n      iszero\n      tag_153\n      jumpi\n        /* \"#utility.yul\":5312:5330   */\n      tag_154\n      tag_91\n      jump\t// in\n    tag_154:\n        /* \"#utility.yul\":5295:5332   */\n    tag_153:\n        /* \"#utility.yul\":5145:5339   */\n      swap3\n      swap2\n      pop\n      pop\n      jump\t// out\n        /* \"#utility.yul\":5345:5521   */\n    tag_64:\n        /* \"#utility.yul\":5377:5378   */\n      0x00\n        /* \"#utility.yul\":5394:5414   */\n      tag_156\n        /* \"#utility.yul\":5412:5413   */\n      dup3\n        /* \"#utility.yul\":5394:5414   */\n      tag_74\n      jump\t// in\n    tag_156:\n        /* \"#utility.yul\":5389:5414   */\n      swap2\n      pop\n        /* \"#utility.yul\":5428:5448   */\n      tag_157\n        /* \"#utility.yul\":5446:5447   */\n      dup4\n        /* \"#utility.yul\":5428:5448   */\n      tag_74\n      jump\t// in\n    tag_157:\n        /* \"#utility.yul\":5423:5448   */\n      swap3\n      pop\n        /* \"#utility.yul\":5467:5468   */\n      dup3\n        /* \"#utility.yul\":5457:5492   */\n      tag_158\n      jumpi\n        /* \"#utility.yul\":5472:5490   */\n      tag_159\n      tag_92\n      jump\t// in\n    tag_159:\n        /* \"#utility.yul\":5457:5492   */\n    tag_158:\n        /* \"#utility.yul\":5513:5514   */\n      dup3\n        /* \"#utility.yul\":5510:5511   */\n      dup3\n        /* \"#utility.yul\":5506:5515   */\n      mod\n        /* \"#utility.yul\":5501:5515   */\n      swap1\n      pop\n        /* \"#utility.yul\":5345:5521   */\n      swap3\n      swap2\n      pop\n      pop\n      jump\t// out\n        /* \"#utility.yul\":5527:5718   */\n    tag_66:\n        /* \"#utility.yul\":5567:5570   */\n      0x00\n        /* \"#utility.yul\":5586:5606   */\n      tag_161\n        /* \"#utility.yul\":5604:5605   */\n      dup3\n        /* \"#utility.yul\":5586:5606   */\n      tag_74\n      jump\t// in\n    tag_161:\n        /* \"#utility.yul\":5581:5606   */\n      swap2\n      pop\n        /* \"#utility.yul\":5620:5640   */\n      tag_162\n        /* \"#utility.yul\":5638:5639   */\n      dup4\n        /* \"#utility.yul\":5620:5640   */\n      tag_74\n      jump\t// in\n    tag_162:\n        /* \"#utility.yul\":5615:5640   */\n      swap3\n      pop\n        /* \"#utility.yul\":5663:5664   */\n      dup3\n        /* \"#utility.yul\":5660:5661   */\n      dup3\n        /* \"#utility.yul\":5656:5665   */\n      add\n        /* \"#utility.yul\":5649:5665   */\n      swap1\n      pop\n        /* \"#utility.yul\":5684:5687   */\n      dup1\n        /* \"#utility.yul\":5681:5682   */\n      dup3\n        /* \"#utility.yul\":5678:5688   */\n      gt\n        /* \"#utility.yul\":5675:5711   */\n      iszero\n      tag_163\n      jumpi\n        /* \"#utility.yul\":5691:5709   */\n      tag_164\n      tag_91\n      jump\t// in\n    tag_164:\n        /* \"#utility.yul\":5675:5711   */\n    tag_163:\n        /* \"#utility.yul\":5527:5718   */\n      swap3\n      swap2\n      pop\n      pop\n      jump\t// out\n        /* \"#utility.yul\":5724:5904   */\n    tag_69:\n        /* \"#utility.yul\":5772:5849   */\n      0x4e487b7100000000000000000000000000000000000000000000000000000000\n        /* \"#utility.yul\":5769:5770   */\n      0x00\n        /* \"#utility.yul\":5762:5850   */\n      mstore\n        /* \"#utility.yul\":5869:5873   */\n      0x32\n        /* \"#utility.yul\":5866:5867   */\n      0x04\n        /* \"#utility.yul\":5859:5874   */\n      mstore\n        /* \"#utility.yul\":5893:5897   */\n      0x24\n        /* \"#utility.yul\":5890:5891   */\n      0x00\n        /* \"#utility.yul\":5883:5898   */\n      revert\n        /* \"#utility.yul\":5910:6081   */\n    tag_72:\n        /* \"#utility.yul\":5949:5952   */\n      0x00\n        /* \"#utility.yul\":5972:5996   */\n      tag_167\n        /* \"#utility.yul\":5990:5995   */\n      dup3\n        /* \"#utility.yul\":5972:5996   */\n      tag_74\n      jump\t// in\n    tag_167:\n        /* \"#utility.yul\":5963:5996   */\n      swap2\n      pop\n        /* \"#utility.yul\":6018:6022   */\n      0x00\n        /* \"#utility.yul\":6011:6016   */\n      dup3\n        /* \"#utility.yul\":6008:6023   */\n      sub\n        /* \"#utility.yul\":6005:6046   */\n      tag_168\n      jumpi\n        /* \"#utility.yul\":6026:6044   */\n      tag_169\n      tag_91\n      jump\t// in\n    tag_169:\n        /* \"#utility.yul\":6005:6046   */\n    tag_168:\n        /* \"#utility.yul\":6073:6074   */\n      0x01\n        /* \"#utility.yul\":6066:6071   */\n      dup3\n        /* \"#utility.yul\":6062:6075   */\n      sub\n        /* \"#utility.yul\":6055:6075   */\n      swap1\n      pop\n        /* \"#utility.yul\":5910:6081   */\n      swap2\n      swap1\n      pop\n      jump\t// out\n\n    auxdata: 0xa26469706673582212208f90abaec36c4b2bc9ef64019a3c2d6e4c8aec2dbd36ac77ad1f8e1dcd6d891364736f6c634300081a0033\n}\n",
				"bytecode": {
					"linkReferences": {},
					"object": "608060405263400000005f556340000000600155348015601d575f80fd5b5061081d8061002b5f395ff3fe608060405234801561000f575f80fd5b506004361061007b575f3560e01c80635b9dbef7116100595780635b9dbef7146100b15780637048a82b146100bb578063b5d499d0146100eb578063fa462c46146100f55761007b565b806309d97dda1461007f57806310b300cf1461009d578063324224c2146100a7575b5f80fd5b6100876100ff565b6040516100949190610433565b60405180910390f35b6100a5610104565b005b6100af61018e565b005b6100b96101d5565b005b6100d560048036038101906100d0919061047a565b610217565b6040516100e29190610515565b60405180910390f35b6100f3610229565b005b6100fd610267565b005b5f5481565b5f600190505f6040518060400160405280600881526020017f536f6c696469747900000000000000000000000000000000000000000000000081525090505f80634000000090507f2f0d85d6e91ffbeb6d7e574372b7160fc892a08b22ca0d25555c17de3f67714184848484604051610180949392919061058e565b60405180910390a150505050565b5f3390505f61010190507ff8e6e1fdfb9a814b6dc1c1a93053742f9ae0933e85677a49e3243e4b382c737a82826040516101c99291906105d8565b60405180910390a15050565b5f634000000090507f4eb424d1dc05ad494739fd43b6d90ca5639bb642b3404edeece2190e0c6109918160405161020c9190610433565b60405180910390a150565b6060610222826102ad565b9050919050565b5f4390507f4eb424d1dc05ad494739fd43b6d90ca5639bb642b3404edeece2190e0c6109918160405161025c9190610433565b60405180910390a150565b63400000006002819055507f4eb424d1dc05ad494739fd43b6d90ca5639bb642b3404edeece2190e0c6109916002546040516102a39190610433565b60405180910390a1565b60605f82036102f3576040518060400160405280600181526020017f30000000000000000000000000000000000000000000000000000000000000008152509050610416565b5f8290505f5b5f821461032257808061030b9061062c565b915050600a8261031b91906106a0565b91506102f9565b5f8167ffffffffffffffff81111561033d5761033c6106d0565b5b6040519080825280601f01601f19166020018201604052801561036f5781602001600182028036833780820191505090505b5090505f60018361038091906106fd565b90505b600a866103909190610730565b603061039c9190610760565b60f81b8282815181106103b2576103b1610793565b5b60200101907effffffffffffffffffffffffffffffffffffffffffffffffffffffffffffff191690815f1a9053505f81031561040e5780806103f3906107c0565b915050600a8661040391906106a0565b95505f811015610383575b819450505050505b919050565b5f819050919050565b61042d8161041b565b82525050565b5f6020820190506104465f830184610424565b92915050565b5f80fd5b6104598161041b565b8114610463575f80fd5b50565b5f8135905061047481610450565b92915050565b5f6020828403121561048f5761048e61044c565b5b5f61049c84828501610466565b91505092915050565b5f81519050919050565b5f82825260208201905092915050565b8281835e5f83830152505050565b5f601f19601f8301169050919050565b5f6104e7826104a5565b6104f181856104af565b93506105018185602086016104bf565b61050a816104cd565b840191505092915050565b5f6020820190508181035f83015261052d81846104dd565b905092915050565b5f8115159050919050565b61054981610535565b82525050565b5f73ffffffffffffffffffffffffffffffffffffffff82169050919050565b5f6105788261054f565b9050919050565b6105888161056e565b82525050565b5f6080820190506105a15f830187610540565b81810360208301526105b381866104dd565b90506105c2604083018561057f565b6105cf6060830184610424565b95945050505050565b5f6040820190506105eb5f83018561057f565b6105f8602083018461057f565b9392505050565b7f4e487b71000000000000000000000000000000000000000000000000000000005f52601160045260245ffd5b5f6106368261041b565b91507fffffffffffffffffffffffffffffffffffffffffffffffffffffffffffffffff8203610668576106676105ff565b5b600182019050919050565b7f4e487b71000000000000000000000000000000000000000000000000000000005f52601260045260245ffd5b5f6106aa8261041b565b91506106b58361041b565b9250826106c5576106c4610673565b5b828204905092915050565b7f4e487b71000000000000000000000000000000000000000000000000000000005f52604160045260245ffd5b5f6107078261041b565b91506107128361041b565b925082820390508181111561072a576107296105ff565b5b92915050565b5f61073a8261041b565b91506107458361041b565b92508261075557610754610673565b5b828206905092915050565b5f61076a8261041b565b91506107758361041b565b925082820190508082111561078d5761078c6105ff565b5b92915050565b7f4e487b71000000000000000000000000000000000000000000000000000000005f52603260045260245ffd5b5f6107ca8261041b565b91505f82036107dc576107db6105ff565b5b60018203905091905056fea26469706673582212208f90abaec36c4b2bc9ef64019a3c2d6e4c8aec2dbd36ac77ad1f8e1dcd6d891364736f6c634300081a0033",
					"opcodes": "PUSH1 0x80 PUSH1 0x40 MSTORE PUSH4 0x40000000 PUSH0 SSTORE PUSH4 0x40000000 PUSH1 0x1 SSTORE CALLVALUE DUP1 ISZERO PUSH1 0x1D JUMPI PUSH0 DUP1 REVERT JUMPDEST POP PUSH2 0x81D DUP1 PUSH2 0x2B PUSH0 CODECOPY PUSH0 RETURN INVALID PUSH1 0x80 PUSH1 0x40 MSTORE CALLVALUE DUP1 ISZERO PUSH2 0xF JUMPI PUSH0 DUP1 REVERT JUMPDEST POP PUSH1 0x4 CALLDATASIZE LT PUSH2 0x7B JUMPI PUSH0 CALLDATALOAD PUSH1 0xE0 SHR DUP1 PUSH4 0x5B9DBEF7 GT PUSH2 0x59 JUMPI DUP1 PUSH4 0x5B9DBEF7 EQ PUSH2 0xB1 JUMPI DUP1 PUSH4 0x7048A82B EQ PUSH2 0xBB JUMPI DUP1 PUSH4 0xB5D499D0 EQ PUSH2 0xEB JUMPI DUP1 PUSH4 0xFA462C46 EQ PUSH2 0xF5 JUMPI PUSH2 0x7B JUMP JUMPDEST DUP1 PUSH4 0x9D97DDA EQ PUSH2 0x7F JUMPI DUP1 PUSH4 0x10B300CF EQ PUSH2 0x9D JUMPI DUP1 PUSH4 0x324224C2 EQ PUSH2 0xA7 JUMPI JUMPDEST PUSH0 DUP1 REVERT JUMPDEST PUSH2 0x87 PUSH2 0xFF JUMP JUMPDEST PUSH1 0x40 MLOAD PUSH2 0x94 SWAP2 SWAP1 PUSH2 0x433 JUMP JUMPDEST PUSH1 0x40 MLOAD DUP1 SWAP2 SUB SWAP1 RETURN JUMPDEST PUSH2 0xA5 PUSH2 0x104 JUMP JUMPDEST STOP JUMPDEST PUSH2 0xAF PUSH2 0x18E JUMP JUMPDEST STOP JUMPDEST PUSH2 0xB9 PUSH2 0x1D5 JUMP JUMPDEST STOP JUMPDEST PUSH2 0xD5 PUSH1 0x4 DUP1 CALLDATASIZE SUB DUP2 ADD SWAP1 PUSH2 0xD0 SWAP2 SWAP1 PUSH2 0x47A JUMP JUMPDEST PUSH2 0x217 JUMP JUMPDEST PUSH1 0x40 MLOAD PUSH2 0xE2 SWAP2 SWAP1 PUSH2 0x515 JUMP JUMPDEST PUSH1 0x40 MLOAD DUP1 SWAP2 SUB SWAP1 RETURN JUMPDEST PUSH2 0xF3 PUSH2 0x229 JUMP JUMPDEST STOP JUMPDEST PUSH2 0xFD PUSH2 0x267 JUMP JUMPDEST STOP JUMPDEST PUSH0 SLOAD DUP2 JUMP JUMPDEST PUSH0 PUSH1 0x1 SWAP1 POP PUSH0 PUSH1 0x40 MLOAD DUP1 PUSH1 0x40 ADD PUSH1 0x40 MSTORE DUP1 PUSH1 0x8 DUP2 MSTORE PUSH1 0x20 ADD PUSH32 0x536F6C6964697479000000000000000000000000000000000000000000000000 DUP2 MSTORE POP SWAP1 POP PUSH0 DUP1 PUSH4 0x40000000 SWAP1 POP PUSH32 0x2F0D85D6E91FFBEB6D7E574372B7160FC892A08B22CA0D25555C17DE3F677141 DUP5 DUP5 DUP5 DUP5 PUSH1 0x40 MLOAD PUSH2 0x180 SWAP5 SWAP4 SWAP3 SWAP2 SWAP1 PUSH2 0x58E JUMP JUMPDEST PUSH1 0x40 MLOAD DUP1 SWAP2 SUB SWAP1 LOG1 POP POP POP POP JUMP JUMPDEST PUSH0 CALLER SWAP1 POP PUSH0 PUSH2 0x101 SWAP1 POP PUSH32 0xF8E6E1FDFB9A814B6DC1C1A93053742F9AE0933E85677A49E3243E4B382C737A DUP3 DUP3 PUSH1 0x40 MLOAD PUSH2 0x1C9 SWAP3 SWAP2 SWAP1 PUSH2 0x5D8 JUMP JUMPDEST PUSH1 0x40 MLOAD DUP1 SWAP2 SUB SWAP1 LOG1 POP POP JUMP JUMPDEST PUSH0 PUSH4 0x40000000 SWAP1 POP PUSH32 0x4EB424D1DC05AD494739FD43B6D90CA5639BB642B3404EDEECE2190E0C610991 DUP2 PUSH1 0x40 MLOAD PUSH2 0x20C SWAP2 SWAP1 PUSH2 0x433 JUMP JUMPDEST PUSH1 0x40 MLOAD DUP1 SWAP2 SUB SWAP1 LOG1 POP JUMP JUMPDEST PUSH1 0x60 PUSH2 0x222 DUP3 PUSH2 0x2AD JUMP JUMPDEST SWAP1 POP SWAP2 SWAP1 POP JUMP JUMPDEST PUSH0 NUMBER SWAP1 POP PUSH32 0x4EB424D1DC05AD494739FD43B6D90CA5639BB642B3404EDEECE2190E0C610991 DUP2 PUSH1 0x40 MLOAD PUSH2 0x25C SWAP2 SWAP1 PUSH2 0x433 JUMP JUMPDEST PUSH1 0x40 MLOAD DUP1 SWAP2 SUB SWAP1 LOG1 POP JUMP JUMPDEST PUSH4 0x40000000 PUSH1 0x2 DUP2 SWAP1 SSTORE POP PUSH32 0x4EB424D1DC05AD494739FD43B6D90CA5639BB642B3404EDEECE2190E0C610991 PUSH1 0x2 SLOAD PUSH1 0x40 MLOAD PUSH2 0x2A3 SWAP2 SWAP1 PUSH2 0x433 JUMP JUMPDEST PUSH1 0x40 MLOAD DUP1 SWAP2 SUB SWAP1 LOG1 JUMP JUMPDEST PUSH1 0x60 PUSH0 DUP3 SUB PUSH2 0x2F3 JUMPI PUSH1 0x40 MLOAD DUP1 PUSH1 0x40 ADD PUSH1 0x40 MSTORE DUP1 PUSH1 0x1 DUP2 MSTORE PUSH1 0x20 ADD PUSH32 0x3000000000000000000000000000000000000000000000000000000000000000 DUP2 MSTORE POP SWAP1 POP PUSH2 0x416 JUMP JUMPDEST PUSH0 DUP3 SWAP1 POP PUSH0 JUMPDEST PUSH0 DUP3 EQ PUSH2 0x322 JUMPI DUP1 DUP1 PUSH2 0x30B SWAP1 PUSH2 0x62C JUMP JUMPDEST SWAP2 POP POP PUSH1 0xA DUP3 PUSH2 0x31B SWAP2 SWAP1 PUSH2 0x6A0 JUMP JUMPDEST SWAP2 POP PUSH2 0x2F9 JUMP JUMPDEST PUSH0 DUP2 PUSH8 0xFFFFFFFFFFFFFFFF DUP2 GT ISZERO PUSH2 0x33D JUMPI PUSH2 0x33C PUSH2 0x6D0 JUMP JUMPDEST JUMPDEST PUSH1 0x40 MLOAD SWAP1 DUP1 DUP3 MSTORE DUP1 PUSH1 0x1F ADD PUSH1 0x1F NOT AND PUSH1 0x20 ADD DUP3 ADD PUSH1 0x40 MSTORE DUP1 ISZERO PUSH2 0x36F JUMPI DUP2 PUSH1 0x20 ADD PUSH1 0x1 DUP3 MUL DUP1 CALLDATASIZE DUP4 CALLDATACOPY DUP1 DUP3 ADD SWAP2 POP POP SWAP1 POP JUMPDEST POP SWAP1 POP PUSH0 PUSH1 0x1 DUP4 PUSH2 0x380 SWAP2 SWAP1 PUSH2 0x6FD JUMP JUMPDEST SWAP1 POP JUMPDEST PUSH1 0xA DUP7 PUSH2 0x390 SWAP2 SWAP1 PUSH2 0x730 JUMP JUMPDEST PUSH1 0x30 PUSH2 0x39C SWAP2 SWAP1 PUSH2 0x760 JUMP JUMPDEST PUSH1 0xF8 SHL DUP3 DUP3 DUP2 MLOAD DUP2 LT PUSH2 0x3B2 JUMPI PUSH2 0x3B1 PUSH2 0x793 JUMP JUMPDEST JUMPDEST PUSH1 0x20 ADD ADD SWAP1 PUSH31 0xFFFFFFFFFFFFFFFFFFFFFFFFFFFFFFFFFFFFFFFFFFFFFFFFFFFFFFFFFFFFFF NOT AND SWAP1 DUP2 PUSH0 BYTE SWAP1 MSTORE8 POP PUSH0 DUP2 SUB ISZERO PUSH2 0x40E JUMPI DUP1 DUP1 PUSH2 0x3F3 SWAP1 PUSH2 0x7C0 JUMP JUMPDEST SWAP2 POP POP PUSH1 0xA DUP7 PUSH2 0x403 SWAP2 SWAP1 PUSH2 0x6A0 JUMP JUMPDEST SWAP6 POP PUSH0 DUP2 LT ISZERO PUSH2 0x383 JUMPI JUMPDEST DUP2 SWAP5 POP POP POP POP POP JUMPDEST SWAP2 SWAP1 POP JUMP JUMPDEST PUSH0 DUP2 SWAP1 POP SWAP2 SWAP1 POP JUMP JUMPDEST PUSH2 0x42D DUP2 PUSH2 0x41B JUMP JUMPDEST DUP3 MSTORE POP POP JUMP JUMPDEST PUSH0 PUSH1 0x20 DUP3 ADD SWAP1 POP PUSH2 0x446 PUSH0 DUP4 ADD DUP5 PUSH2 0x424 JUMP JUMPDEST SWAP3 SWAP2 POP POP JUMP JUMPDEST PUSH0 DUP1 REVERT JUMPDEST PUSH2 0x459 DUP2 PUSH2 0x41B JUMP JUMPDEST DUP2 EQ PUSH2 0x463 JUMPI PUSH0 DUP1 REVERT JUMPDEST POP JUMP JUMPDEST PUSH0 DUP2 CALLDATALOAD SWAP1 POP PUSH2 0x474 DUP2 PUSH2 0x450 JUMP JUMPDEST SWAP3 SWAP2 POP POP JUMP JUMPDEST PUSH0 PUSH1 0x20 DUP3 DUP5 SUB SLT ISZERO PUSH2 0x48F JUMPI PUSH2 0x48E PUSH2 0x44C JUMP JUMPDEST JUMPDEST PUSH0 PUSH2 0x49C DUP5 DUP3 DUP6 ADD PUSH2 0x466 JUMP JUMPDEST SWAP2 POP POP SWAP3 SWAP2 POP POP JUMP JUMPDEST PUSH0 DUP2 MLOAD SWAP1 POP SWAP2 SWAP1 POP JUMP JUMPDEST PUSH0 DUP3 DUP3 MSTORE PUSH1 0x20 DUP3 ADD SWAP1 POP SWAP3 SWAP2 POP POP JUMP JUMPDEST DUP3 DUP2 DUP4 MCOPY PUSH0 DUP4 DUP4 ADD MSTORE POP POP POP JUMP JUMPDEST PUSH0 PUSH1 0x1F NOT PUSH1 0x1F DUP4 ADD AND SWAP1 POP SWAP2 SWAP1 POP JUMP JUMPDEST PUSH0 PUSH2 0x4E7 DUP3 PUSH2 0x4A5 JUMP JUMPDEST PUSH2 0x4F1 DUP2 DUP6 PUSH2 0x4AF JUMP JUMPDEST SWAP4 POP PUSH2 0x501 DUP2 DUP6 PUSH1 0x20 DUP7 ADD PUSH2 0x4BF JUMP JUMPDEST PUSH2 0x50A DUP2 PUSH2 0x4CD JUMP JUMPDEST DUP5 ADD SWAP2 POP POP SWAP3 SWAP2 POP POP JUMP JUMPDEST PUSH0 PUSH1 0x20 DUP3 ADD SWAP1 POP DUP2 DUP2 SUB PUSH0 DUP4 ADD MSTORE PUSH2 0x52D DUP2 DUP5 PUSH2 0x4DD JUMP JUMPDEST SWAP1 POP SWAP3 SWAP2 POP POP JUMP JUMPDEST PUSH0 DUP2 ISZERO ISZERO SWAP1 POP SWAP2 SWAP1 POP JUMP JUMPDEST PUSH2 0x549 DUP2 PUSH2 0x535 JUMP JUMPDEST DUP3 MSTORE POP POP JUMP JUMPDEST PUSH0 PUSH20 0xFFFFFFFFFFFFFFFFFFFFFFFFFFFFFFFFFFFFFFFF DUP3 AND SWAP1 POP SWAP2 SWAP1 POP JUMP JUMPDEST PUSH0 PUSH2 0x578 DUP3 PUSH2 0x54F JUMP JUMPDEST SWAP1 POP SWAP2 SWAP1 POP JUMP JUMPDEST PUSH2 0x588 DUP2 PUSH2 0x56E JUMP JUMPDEST DUP3 MSTORE POP POP JUMP JUMPDEST PUSH0 PUSH1 0x80 DUP3 ADD SWAP1 POP PUSH2 0x5A1 PUSH0 DUP4 ADD DUP8 PUSH2 0x540 JUMP JUMPDEST DUP2 DUP2 SUB PUSH1 0x20 DUP4 ADD MSTORE PUSH2 0x5B3 DUP2 DUP7 PUSH2 0x4DD JUMP JUMPDEST SWAP1 POP PUSH2 0x5C2 PUSH1 0x40 DUP4 ADD DUP6 PUSH2 0x57F JUMP JUMPDEST PUSH2 0x5CF PUSH1 0x60 DUP4 ADD DUP5 PUSH2 0x424 JUMP JUMPDEST SWAP6 SWAP5 POP POP POP POP POP JUMP JUMPDEST PUSH0 PUSH1 0x40 DUP3 ADD SWAP1 POP PUSH2 0x5EB PUSH0 DUP4 ADD DUP6 PUSH2 0x57F JUMP JUMPDEST PUSH2 0x5F8 PUSH1 0x20 DUP4 ADD DUP5 PUSH2 0x57F JUMP JUMPDEST SWAP4 SWAP3 POP POP POP JUMP JUMPDEST PUSH32 0x4E487B7100000000000000000000000000000000000000000000000000000000 PUSH0 MSTORE PUSH1 0x11 PUSH1 0x4 MSTORE PUSH1 0x24 PUSH0 REVERT JUMPDEST PUSH0 PUSH2 0x636 DUP3 PUSH2 0x41B JUMP JUMPDEST SWAP2 POP PUSH32 0xFFFFFFFFFFFFFFFFFFFFFFFFFFFFFFFFFFFFFFFFFFFFFFFFFFFFFFFFFFFFFFFF DUP3 SUB PUSH2 0x668 JUMPI PUSH2 0x667 PUSH2 0x5FF JUMP JUMPDEST JUMPDEST PUSH1 0x1 DUP3 ADD SWAP1 POP SWAP2 SWAP1 POP JUMP JUMPDEST PUSH32 0x4E487B7100000000000000000000000000000000000000000000000000000000 PUSH0 MSTORE PUSH1 0x12 PUSH1 0x4 MSTORE PUSH1 0x24 PUSH0 REVERT JUMPDEST PUSH0 PUSH2 0x6AA DUP3 PUSH2 0x41B JUMP JUMPDEST SWAP2 POP PUSH2 0x6B5 DUP4 PUSH2 0x41B JUMP JUMPDEST SWAP3 POP DUP3 PUSH2 0x6C5 JUMPI PUSH2 0x6C4 PUSH2 0x673 JUMP JUMPDEST JUMPDEST DUP3 DUP3 DIV SWAP1 POP SWAP3 SWAP2 POP POP JUMP JUMPDEST PUSH32 0x4E487B7100000000000000000000000000000000000000000000000000000000 PUSH0 MSTORE PUSH1 0x41 PUSH1 0x4 MSTORE PUSH1 0x24 PUSH0 REVERT JUMPDEST PUSH0 PUSH2 0x707 DUP3 PUSH2 0x41B JUMP JUMPDEST SWAP2 POP PUSH2 0x712 DUP4 PUSH2 0x41B JUMP JUMPDEST SWAP3 POP DUP3 DUP3 SUB SWAP1 POP DUP2 DUP2 GT ISZERO PUSH2 0x72A JUMPI PUSH2 0x729 PUSH2 0x5FF JUMP JUMPDEST JUMPDEST SWAP3 SWAP2 POP POP JUMP JUMPDEST PUSH0 PUSH2 0x73A DUP3 PUSH2 0x41B JUMP JUMPDEST SWAP2 POP PUSH2 0x745 DUP4 PUSH2 0x41B JUMP JUMPDEST SWAP3 POP DUP3 PUSH2 0x755 JUMPI PUSH2 0x754 PUSH2 0x673 JUMP JUMPDEST JUMPDEST DUP3 DUP3 MOD SWAP1 POP SWAP3 SWAP2 POP POP JUMP JUMPDEST PUSH0 PUSH2 0x76A DUP3 PUSH2 0x41B JUMP JUMPDEST SWAP2 POP PUSH2 0x775 DUP4 PUSH2 0x41B JUMP JUMPDEST SWAP3 POP DUP3 DUP3 ADD SWAP1 POP DUP1 DUP3 GT ISZERO PUSH2 0x78D JUMPI PUSH2 0x78C PUSH2 0x5FF JUMP JUMPDEST JUMPDEST SWAP3 SWAP2 POP POP JUMP JUMPDEST PUSH32 0x4E487B7100000000000000000000000000000000000000000000000000000000 PUSH0 MSTORE PUSH1 0x32 PUSH1 0x4 MSTORE PUSH1 0x24 PUSH0 REVERT JUMPDEST PUSH0 PUSH2 0x7CA DUP3 PUSH2 0x41B JUMP JUMPDEST SWAP2 POP PUSH0 DUP3 SUB PUSH2 0x7DC JUMPI PUSH2 0x7DB PUSH2 0x5FF JUMP JUMPDEST JUMPDEST PUSH1 0x1 DUP3 SUB SWAP1 POP SWAP2 SWAP1 POP JUMP INVALID LOG2 PUSH5 0x6970667358 0x22 SLT KECCAK256 DUP16 SWAP1 0xAB 0xAE 0xC3 PUSH13 0x4B2BC9EF64019A3C2D6E4C8AEC 0x2D 0xBD CALLDATASIZE 0xAC PUSH24 0xAD1F8E1DCD6D891364736F6C634300081A00330000000000 "
				},
				"gasEstimates": {
					"creation": {
						"codeDepositCost": "415400",
						"executionCost": "44658",
						"totalCost": "460058"
					},
					"external": {
						"publicStateVar()": "2425",
						"testAddressType()": "infinite",
						"testGlobalVariable()": "1386",
						"testLocalVariable()": "1343",
						"testMultipleThings(uint256)": "infinite",
						"testStateVariable()": "25611",
						"testTypes()": "infinite"
					},
					"internal": {
						"convertIntegerToString(uint256)": "infinite"
					}
				},
				"methodIdentifiers": {
					"publicStateVar()": "09d97dda",
					"testAddressType()": "324224c2",
					"testGlobalVariable()": "b5d499d0",
					"testLocalVariable()": "5b9dbef7",
					"testMultipleThings(uint256)": "7048a82b",
					"testStateVariable()": "fa462c46",
					"testTypes()": "10b300cf"
				}
			},
			"storageLayout": {
				"storage": [
					{
						"astId": 103,
						"contract": "contracts/Basic.sol:Basic",
						"label": "publicStateVar",
						"offset": 0,
						"slot": "0",
						"type": "t_uint256"
					},
					{
						"astId": 106,
						"contract": "contracts/Basic.sol:Basic",
						"label": "internalStateVar",
						"offset": 0,
						"slot": "1",
						"type": "t_uint256"
					},
					{
						"astId": 108,
						"contract": "contracts/Basic.sol:Basic",
						"label": "stateVar",
						"offset": 0,
						"slot": "2",
						"type": "t_uint256"
					}
				],
				"types": {
					"t_uint256": {
						"encoding": "inplace",
						"label": "uint256",
						"numberOfBytes": "32"
					}
				}
			},
			"userdoc": {
				"kind": "user",
				"methods": {},
				"version": 1
			}
		}
	}
}