{
	"contracts/Function.sol": {
		"Function": {
			"abi": [
				{
					"inputs": [
						{
							"internalType": "contract Receiver",
							"name": "receiver",
							"type": "address"
						}
					],
					"name": "testFallback",
					"outputs": [],
					"stateMutability": "nonpayable",
					"type": "function"
				}
			],
			"devdoc": {
				"kind": "dev",
				"methods": {},
				"version": 1
			},
			"evm": {
				"assembly": "    /* \"contracts/Function.sol\":58:1241  contract Function {... */\n  mstore(0x40, 0x80)\n  callvalue\n  dup1\n  iszero\n  tag_1\n  jumpi\n  0x00\n  dup1\n  revert\ntag_1:\n  pop\n  dataSize(sub_0)\n  dup1\n  dataOffset(sub_0)\n  0x00\n  codecopy\n  0x00\n  return\nstop\n\nsub_0: assembly {\n        /* \"contracts/Function.sol\":58:1241  contract Function {... */\n      mstore(0x40, 0x80)\n      callvalue\n      dup1\n      iszero\n      tag_1\n      jumpi\n      0x00\n      dup1\n      revert\n    tag_1:\n      pop\n      jumpi(tag_2, lt(calldatasize, 0x04))\n      shr(0xe0, calldataload(0x00))\n      dup1\n      0xebfe67ce\n      eq\n      tag_3\n      jumpi\n    tag_2:\n      0x00\n      dup1\n      revert\n        /* \"contracts/Function.sol\":114:295  function testFallback(Receiver receiver) public {... */\n    tag_3:\n      tag_4\n      0x04\n      dup1\n      calldatasize\n      sub\n      dup2\n      add\n      swap1\n      tag_5\n      swap2\n      swap1\n      tag_6\n      jump\t// in\n    tag_5:\n      tag_7\n      jump\t// in\n    tag_4:\n      stop\n    tag_7:\n        /* \"contracts/Function.sol\":173:185  bool success */\n      0x00\n        /* \"contracts/Function.sol\":198:206  receiver */\n      dup2\n        /* \"contracts/Function.sol\":190:212  address(receiver).call */\n      0xffffffffffffffffffffffffffffffffffffffff\n      and\n        /* \"contracts/Function.sol\":213:261  abi.encodeWithSignature(\"nonExistingFunction()\") */\n      add(0x24, mload(0x40))\n      mload(0x40)\n      0x20\n      dup2\n      dup4\n      sub\n      sub\n      dup2\n      mstore\n      swap1\n      0x40\n      mstore\n      and(not(0xffffffffffffffffffffffffffffffffffffffffffffffffffffffff), 0xf85396d700000000000000000000000000000000000000000000000000000000)\n      0x20\n      dup3\n      add\n      dup1\n      mload\n      0xffffffffffffffffffffffffffffffffffffffffffffffffffffffff\n      dup4\n      dup2\n      dup4\n      and\n      or\n      dup4\n      mstore\n      pop\n      pop\n      pop\n      pop\n        /* \"contracts/Function.sol\":190:262  address(receiver).call(abi.encodeWithSignature(\"nonExistingFunction()\")) */\n      mload(0x40)\n      tag_9\n      swap2\n      swap1\n      tag_10\n      jump\t// in\n    tag_9:\n      0x00\n      mload(0x40)\n      dup1\n      dup4\n      sub\n      dup2\n      0x00\n      dup7\n      gas\n      call\n      swap2\n      pop\n      pop\n      returndatasize\n      dup1\n      0x00\n      dup2\n      eq\n      tag_13\n      jumpi\n      mload(0x40)\n      swap2\n      pop\n      and(add(returndatasize, 0x3f), not(0x1f))\n      dup3\n      add\n      0x40\n      mstore\n      returndatasize\n      dup3\n      mstore\n      returndatasize\n      0x00\n      0x20\n      dup5\n      add\n      returndatacopy\n      jump(tag_12)\n    tag_13:\n      0x60\n      swap2\n      pop\n    tag_12:\n      pop\n        /* \"contracts/Function.sol\":172:262  (bool success,) = address(receiver).call(abi.encodeWithSignature(\"nonExistingFunction()\")) */\n      pop\n      swap1\n      pop\n        /* \"contracts/Function.sol\":280:287  success */\n      dup1\n        /* \"contracts/Function.sol\":272:288  require(success) */\n      tag_14\n      jumpi\n      0x00\n      dup1\n      revert\n    tag_14:\n        /* \"contracts/Function.sol\":162:295  {... */\n      pop\n        /* \"contracts/Function.sol\":114:295  function testFallback(Receiver receiver) public {... */\n      pop\n      jump\t// out\n        /* \"#utility.yul\":88:205   */\n    tag_16:\n        /* \"#utility.yul\":197:198   */\n      0x00\n        /* \"#utility.yul\":194:195   */\n      dup1\n        /* \"#utility.yul\":187:199   */\n      revert\n        /* \"#utility.yul\":334:460   */\n    tag_18:\n        /* \"#utility.yul\":371:378   */\n      0x00\n        /* \"#utility.yul\":411:453   */\n      0xffffffffffffffffffffffffffffffffffffffff\n        /* \"#utility.yul\":404:409   */\n      dup3\n        /* \"#utility.yul\":400:454   */\n      and\n        /* \"#utility.yul\":389:454   */\n      swap1\n      pop\n        /* \"#utility.yul\":334:460   */\n      swap2\n      swap1\n      pop\n      jump\t// out\n        /* \"#utility.yul\":466:570   */\n    tag_19:\n        /* \"#utility.yul\":511:518   */\n      0x00\n        /* \"#utility.yul\":540:564   */\n      tag_33\n        /* \"#utility.yul\":558:563   */\n      dup3\n        /* \"#utility.yul\":540:564   */\n      tag_18\n      jump\t// in\n    tag_33:\n        /* \"#utility.yul\":529:564   */\n      swap1\n      pop\n        /* \"#utility.yul\":466:570   */\n      swap2\n      swap1\n      pop\n      jump\t// out\n        /* \"#utility.yul\":576:695   */\n    tag_20:\n        /* \"#utility.yul\":628:635   */\n      0x00\n        /* \"#utility.yul\":657:689   */\n      tag_35\n        /* \"#utility.yul\":683:688   */\n      dup3\n        /* \"#utility.yul\":657:689   */\n      tag_19\n      jump\t// in\n    tag_35:\n        /* \"#utility.yul\":646:689   */\n      swap1\n      pop\n        /* \"#utility.yul\":576:695   */\n      swap2\n      swap1\n      pop\n      jump\t// out\n        /* \"#utility.yul\":701:853   */\n    tag_21:\n        /* \"#utility.yul\":789:828   */\n      tag_37\n        /* \"#utility.yul\":822:827   */\n      dup2\n        /* \"#utility.yul\":789:828   */\n      tag_20\n      jump\t// in\n    tag_37:\n        /* \"#utility.yul\":782:787   */\n      dup2\n        /* \"#utility.yul\":779:829   */\n      eq\n        /* \"#utility.yul\":769:847   */\n      tag_38\n      jumpi\n        /* \"#utility.yul\":843:844   */\n      0x00\n        /* \"#utility.yul\":840:841   */\n      dup1\n        /* \"#utility.yul\":833:845   */\n      revert\n        /* \"#utility.yul\":769:847   */\n    tag_38:\n        /* \"#utility.yul\":701:853   */\n      pop\n      jump\t// out\n        /* \"#utility.yul\":859:1028   */\n    tag_22:\n        /* \"#utility.yul\":920:925   */\n      0x00\n        /* \"#utility.yul\":958:964   */\n      dup2\n        /* \"#utility.yul\":945:965   */\n      calldataload\n        /* \"#utility.yul\":936:965   */\n      swap1\n      pop\n        /* \"#utility.yul\":974:1022   */\n      tag_40\n        /* \"#utility.yul\":1016:1021   */\n      dup2\n        /* \"#utility.yul\":974:1022   */\n      tag_21\n      jump\t// in\n    tag_40:\n        /* \"#utility.yul\":859:1028   */\n      swap3\n      swap2\n      pop\n      pop\n      jump\t// out\n        /* \"#utility.yul\":1034:1393   */\n    tag_6:\n        /* \"#utility.yul\":1108:1114   */\n      0x00\n        /* \"#utility.yul\":1157:1159   */\n      0x20\n        /* \"#utility.yul\":1145:1154   */\n      dup3\n        /* \"#utility.yul\":1136:1143   */\n      dup5\n        /* \"#utility.yul\":1132:1155   */\n      sub\n        /* \"#utility.yul\":1128:1160   */\n      slt\n        /* \"#utility.yul\":1125:1244   */\n      iszero\n      tag_42\n      jumpi\n        /* \"#utility.yul\":1163:1242   */\n      tag_43\n      tag_16\n      jump\t// in\n    tag_43:\n        /* \"#utility.yul\":1125:1244   */\n    tag_42:\n        /* \"#utility.yul\":1283:1284   */\n      0x00\n        /* \"#utility.yul\":1308:1376   */\n      tag_44\n        /* \"#utility.yul\":1368:1375   */\n      dup5\n        /* \"#utility.yul\":1359:1365   */\n      dup3\n        /* \"#utility.yul\":1348:1357   */\n      dup6\n        /* \"#utility.yul\":1344:1366   */\n      add\n        /* \"#utility.yul\":1308:1376   */\n      tag_22\n      jump\t// in\n    tag_44:\n        /* \"#utility.yul\":1298:1376   */\n      swap2\n      pop\n        /* \"#utility.yul\":1254:1386   */\n      pop\n        /* \"#utility.yul\":1034:1393   */\n      swap3\n      swap2\n      pop\n      pop\n      jump\t// out\n        /* \"#utility.yul\":1399:1497   */\n    tag_23:\n        /* \"#utility.yul\":1450:1456   */\n      0x00\n        /* \"#utility.yul\":1484:1489   */\n      dup2\n        /* \"#utility.yul\":1478:1490   */\n      mload\n        /* \"#utility.yul\":1468:1490   */\n      swap1\n      pop\n        /* \"#utility.yul\":1399:1497   */\n      swap2\n      swap1\n      pop\n      jump\t// out\n        /* \"#utility.yul\":1503:1650   */\n    tag_24:\n        /* \"#utility.yul\":1604:1615   */\n      0x00\n        /* \"#utility.yul\":1641:1644   */\n      dup2\n        /* \"#utility.yul\":1626:1644   */\n      swap1\n      pop\n        /* \"#utility.yul\":1503:1650   */\n      swap3\n      swap2\n      pop\n      pop\n      jump\t// out\n        /* \"#utility.yul\":1656:1795   */\n    tag_25:\n        /* \"#utility.yul\":1745:1751   */\n      dup3\n        /* \"#utility.yul\":1740:1743   */\n      dup2\n        /* \"#utility.yul\":1735:1738   */\n      dup4\n        /* \"#utility.yul\":1729:1752   */\n      mcopy\n        /* \"#utility.yul\":1786:1787   */\n      0x00\n        /* \"#utility.yul\":1777:1783   */\n      dup4\n        /* \"#utility.yul\":1772:1775   */\n      dup4\n        /* \"#utility.yul\":1768:1784   */\n      add\n        /* \"#utility.yul\":1761:1788   */\n      mstore\n        /* \"#utility.yul\":1656:1795   */\n      pop\n      pop\n      pop\n      jump\t// out\n        /* \"#utility.yul\":1801:2187   */\n    tag_26:\n        /* \"#utility.yul\":1905:1908   */\n      0x00\n        /* \"#utility.yul\":1933:1971   */\n      tag_49\n        /* \"#utility.yul\":1965:1970   */\n      dup3\n        /* \"#utility.yul\":1933:1971   */\n      tag_23\n      jump\t// in\n    tag_49:\n        /* \"#utility.yul\":1987:2075   */\n      tag_50\n        /* \"#utility.yul\":2068:2074   */\n      dup2\n        /* \"#utility.yul\":2063:2066   */\n      dup6\n        /* \"#utility.yul\":1987:2075   */\n      tag_24\n      jump\t// in\n    tag_50:\n        /* \"#utility.yul\":1980:2075   */\n      swap4\n      pop\n        /* \"#utility.yul\":2084:2149   */\n      tag_51\n        /* \"#utility.yul\":2142:2148   */\n      dup2\n        /* \"#utility.yul\":2137:2140   */\n      dup6\n        /* \"#utility.yul\":2130:2134   */\n      0x20\n        /* \"#utility.yul\":2123:2128   */\n      dup7\n        /* \"#utility.yul\":2119:2135   */\n      add\n        /* \"#utility.yul\":2084:2149   */\n      tag_25\n      jump\t// in\n    tag_51:\n        /* \"#utility.yul\":2174:2180   */\n      dup1\n        /* \"#utility.yul\":2169:2172   */\n      dup5\n        /* \"#utility.yul\":2165:2181   */\n      add\n        /* \"#utility.yul\":2158:2181   */\n      swap2\n      pop\n        /* \"#utility.yul\":1909:2187   */\n      pop\n        /* \"#utility.yul\":1801:2187   */\n      swap3\n      swap2\n      pop\n      pop\n      jump\t// out\n        /* \"#utility.yul\":2193:2464   */\n    tag_10:\n        /* \"#utility.yul\":2323:2326   */\n      0x00\n        /* \"#utility.yul\":2345:2438   */\n      tag_53\n        /* \"#utility.yul\":2434:2437   */\n      dup3\n        /* \"#utility.yul\":2425:2431   */\n      dup5\n        /* \"#utility.yul\":2345:2438   */\n      tag_26\n      jump\t// in\n    tag_53:\n        /* \"#utility.yul\":2338:2438   */\n      swap2\n      pop\n        /* \"#utility.yul\":2455:2458   */\n      dup2\n        /* \"#utility.yul\":2448:2458   */\n      swap1\n      pop\n        /* \"#utility.yul\":2193:2464   */\n      swap3\n      swap2\n      pop\n      pop\n      jump\t// out\n\n    auxdata: 0xa2646970667358221220da0947f87915ccc8b12677f0319ff1b4c7e7f19ac96d3c31812b498e6846cef464736f6c634300081a0033\n}\n",
				"bytecode": {
					"linkReferences": {},
					"object": "6080604052348015600e575f80fd5b506102788061001c5f395ff3fe608060405234801561000f575f80fd5b5060043610610029575f3560e01c8063ebfe67ce1461002d575b5f80fd5b610047600480360381019061004291906101af565b610049565b005b5f8173ffffffffffffffffffffffffffffffffffffffff166040516024016040516020818303038152906040527ff85396d7000000000000000000000000000000000000000000000000000000007bffffffffffffffffffffffffffffffffffffffffffffffffffffffff19166020820180517bffffffffffffffffffffffffffffffffffffffffffffffffffffffff83818316178352505050506040516100f1919061022c565b5f604051808303815f865af19150503d805f811461012a576040519150601f19603f3d011682016040523d82523d5f602084013e61012f565b606091505b505090508061013c575f80fd5b5050565b5f80fd5b5f73ffffffffffffffffffffffffffffffffffffffff82169050919050565b5f61016d82610144565b9050919050565b5f61017e82610163565b9050919050565b61018e81610174565b8114610198575f80fd5b50565b5f813590506101a981610185565b92915050565b5f602082840312156101c4576101c3610140565b5b5f6101d18482850161019b565b91505092915050565b5f81519050919050565b5f81905092915050565b8281835e5f83830152505050565b5f610206826101da565b61021081856101e4565b93506102208185602086016101ee565b80840191505092915050565b5f61023782846101fc565b91508190509291505056fea2646970667358221220da0947f87915ccc8b12677f0319ff1b4c7e7f19ac96d3c31812b498e6846cef464736f6c634300081a0033",
					"opcodes": "PUSH1 0x80 PUSH1 0x40 MSTORE CALLVALUE DUP1 ISZERO PUSH1 0xE JUMPI PUSH0 DUP1 REVERT JUMPDEST POP PUSH2 0x278 DUP1 PUSH2 0x1C PUSH0 CODECOPY PUSH0 RETURN INVALID PUSH1 0x80 PUSH1 0x40 MSTORE CALLVALUE DUP1 ISZERO PUSH2 0xF JUMPI PUSH0 DUP1 REVERT JUMPDEST POP PUSH1 0x4 CALLDATASIZE LT PUSH2 0x29 JUMPI PUSH0 CALLDATALOAD PUSH1 0xE0 SHR DUP1 PUSH4 0xEBFE67CE EQ PUSH2 0x2D JUMPI JUMPDEST PUSH0 DUP1 REVERT JUMPDEST PUSH2 0x47 PUSH1 0x4 DUP1 CALLDATASIZE SUB DUP2 ADD SWAP1 PUSH2 0x42 SWAP2 SWAP1 PUSH2 0x1AF JUMP JUMPDEST PUSH2 0x49 JUMP JUMPDEST STOP JUMPDEST PUSH0 DUP2 PUSH20 0xFFFFFFFFFFFFFFFFFFFFFFFFFFFFFFFFFFFFFFFF AND PUSH1 0x40 MLOAD PUSH1 0x24 ADD PUSH1 0x40 MLOAD PUSH1 0x20 DUP2 DUP4 SUB SUB DUP2 MSTORE SWAP1 PUSH1 0x40 MSTORE PUSH32 0xF85396D700000000000000000000000000000000000000000000000000000000 PUSH28 0xFFFFFFFFFFFFFFFFFFFFFFFFFFFFFFFFFFFFFFFFFFFFFFFFFFFFFFFF NOT AND PUSH1 0x20 DUP3 ADD DUP1 MLOAD PUSH28 0xFFFFFFFFFFFFFFFFFFFFFFFFFFFFFFFFFFFFFFFFFFFFFFFFFFFFFFFF DUP4 DUP2 DUP4 AND OR DUP4 MSTORE POP POP POP POP PUSH1 0x40 MLOAD PUSH2 0xF1 SWAP2 SWAP1 PUSH2 0x22C JUMP JUMPDEST PUSH0 PUSH1 0x40 MLOAD DUP1 DUP4 SUB DUP2 PUSH0 DUP7 GAS CALL SWAP2 POP POP RETURNDATASIZE DUP1 PUSH0 DUP2 EQ PUSH2 0x12A JUMPI PUSH1 0x40 MLOAD SWAP2 POP PUSH1 0x1F NOT PUSH1 0x3F RETURNDATASIZE ADD AND DUP3 ADD PUSH1 0x40 MSTORE RETURNDATASIZE DUP3 MSTORE RETURNDATASIZE PUSH0 PUSH1 0x20 DUP5 ADD RETURNDATACOPY PUSH2 0x12F JUMP JUMPDEST PUSH1 0x60 SWAP2 POP JUMPDEST POP POP SWAP1 POP DUP1 PUSH2 0x13C JUMPI PUSH0 DUP1 REVERT JUMPDEST POP POP JUMP JUMPDEST PUSH0 DUP1 REVERT JUMPDEST PUSH0 PUSH20 0xFFFFFFFFFFFFFFFFFFFFFFFFFFFFFFFFFFFFFFFF DUP3 AND SWAP1 POP SWAP2 SWAP1 POP JUMP JUMPDEST PUSH0 PUSH2 0x16D DUP3 PUSH2 0x144 JUMP JUMPDEST SWAP1 POP SWAP2 SWAP1 POP JUMP JUMPDEST PUSH0 PUSH2 0x17E DUP3 PUSH2 0x163 JUMP JUMPDEST SWAP1 POP SWAP2 SWAP1 POP JUMP JUMPDEST PUSH2 0x18E DUP2 PUSH2 0x174 JUMP JUMPDEST DUP2 EQ PUSH2 0x198 JUMPI PUSH0 DUP1 REVERT JUMPDEST POP JUMP JUMPDEST PUSH0 DUP2 CALLDATALOAD SWAP1 POP PUSH2 0x1A9 DUP2 PUSH2 0x185 JUMP JUMPDEST SWAP3 SWAP2 POP POP JUMP JUMPDEST PUSH0 PUSH1 0x20 DUP3 DUP5 SUB SLT ISZERO PUSH2 0x1C4 JUMPI PUSH2 0x1C3 PUSH2 0x140 JUMP JUMPDEST JUMPDEST PUSH0 PUSH2 0x1D1 DUP5 DUP3 DUP6 ADD PUSH2 0x19B JUMP JUMPDEST SWAP2 POP POP SWAP3 SWAP2 POP POP JUMP JUMPDEST PUSH0 DUP2 MLOAD SWAP1 POP SWAP2 SWAP1 POP JUMP JUMPDEST PUSH0 DUP2 SWAP1 POP SWAP3 SWAP2 POP POP JUMP JUMPDEST DUP3 DUP2 DUP4 MCOPY PUSH0 DUP4 DUP4 ADD MSTORE POP POP POP JUMP JUMPDEST PUSH0 PUSH2 0x206 DUP3 PUSH2 0x1DA JUMP JUMPDEST PUSH2 0x210 DUP2 DUP6 PUSH2 0x1E4 JUMP JUMPDEST SWAP4 POP PUSH2 0x220 DUP2 DUP6 PUSH1 0x20 DUP7 ADD PUSH2 0x1EE JUMP JUMPDEST DUP1 DUP5 ADD SWAP2 POP POP SWAP3 SWAP2 POP POP JUMP JUMPDEST PUSH0 PUSH2 0x237 DUP3 DUP5 PUSH2 0x1FC JUMP JUMPDEST SWAP2 POP DUP2 SWAP1 POP SWAP3 SWAP2 POP POP JUMP INVALID LOG2 PUSH5 0x6970667358 0x22 SLT KECCAK256 0xDA MULMOD SELFBALANCE 0xF8 PUSH26 0x15CCC8B12677F0319FF1B4C7E7F19AC96D3C31812B498E6846CE DELEGATECALL PUSH5 0x736F6C6343 STOP ADDMOD BYTE STOP CALLER "
				},
				"gasEstimates": {
					"creation": {
						"codeDepositCost": "126400",
						"executionCost": "169",
						"totalCost": "126569"
					},
					"external": {
						"testFallback(address)": "infinite"
					}
				},
				"methodIdentifiers": {
					"testFallback(address)": "ebfe67ce"
				}
			},
			"storageLayout": {
				"storage": [],
				"types": null
			},
			"userdoc": {
				"kind": "user",
				"methods": {},
				"version": 1
			}
		}
	}
}