{
	"contracts/Basic.sol": {
		"DerivedBasic": {
			"abi": [
				{
					"anonymous": false,
					"inputs": [
						{
							"indexed": false,
							"internalType": "address",
							"name": "_sender",
							"type": "address"
						},
						{
							"indexed": false,
							"internalType": "address",
							"name": "_receiver",
							"type": "address"
						}
					],
					"name": "PrintAddressType",
					"type": "event"
				},
				{
					"anonymous": false,
					"inputs": [
						{
							"indexed": false,
							"internalType": "bool",
							"name": "_boolVal",
							"type": "bool"
						},
						{
							"indexed": false,
							"internalType": "string",
							"name": "_stringVal",
							"type": "string"
						},
						{
							"indexed": false,
							"internalType": "address",
							"name": "_addressVal",
							"type": "address"
						},
						{
							"indexed": false,
							"internalType": "uint256",
							"name": "_uint256Val",
							"type": "uint256"
						}
					],
					"name": "PrintTypes",
					"type": "event"
				},
				{
					"anonymous": false,
					"inputs": [
						{
							"indexed": false,
							"internalType": "uint256",
							"name": "_var",
							"type": "uint256"
						}
					],
					"name": "PrintVariable",
					"type": "event"
				},
				{
					"inputs": [],
					"name": "getInternalStateVariable",
					"outputs": [
						{
							"internalType": "uint256",
							"name": "",
							"type": "uint256"
						}
					],
					"stateMutability": "view",
					"type": "function"
				},
				{
					"inputs": [],
					"name": "publicStateVar",
					"outputs": [
						{
							"internalType": "uint256",
							"name": "",
							"type": "uint256"
						}
					],
					"stateMutability": "view",
					"type": "function"
				},
				{
					"inputs": [],
					"name": "testAddressType",
					"outputs": [],
					"stateMutability": "nonpayable",
					"type": "function"
				},
				{
					"inputs": [],
					"name": "testEtherUnits",
					"outputs": [],
					"stateMutability": "pure",
					"type": "function"
				},
				{
					"inputs": [],
					"name": "testGlobalVariable",
					"outputs": [],
					"stateMutability": "nonpayable",
					"type": "function"
				},
				{
					"inputs": [],
					"name": "testLocalVariable",
					"outputs": [],
					"stateMutability": "nonpayable",
					"type": "function"
				},
				{
					"inputs": [
						{
							"internalType": "uint256",
							"name": "_var",
							"type": "uint256"
						}
					],
					"name": "testMultipleThings",
					"outputs": [
						{
							"internalType": "string",
							"name": "",
							"type": "string"
						}
					],
					"stateMutability": "pure",
					"type": "function"
				},
				{
					"inputs": [],
					"name": "testStateVariable",
					"outputs": [],
					"stateMutability": "nonpayable",
					"type": "function"
				},
				{
					"inputs": [],
					"name": "testTimeUnits",
					"outputs": [],
					"stateMutability": "pure",
					"type": "function"
				},
				{
					"inputs": [],
					"name": "testTypes",
					"outputs": [],
					"stateMutability": "nonpayable",
					"type": "function"
				}
			],
			"devdoc": {
				"kind": "dev",
				"methods": {},
				"version": 1
			},
			"evm": {
				"assembly": "    /* \"contracts/Basic.sol\":3359:3501  contract DerivedBasic is Basic {... */\n  mstore(0x40, 0x80)\n    /* \"contracts/Basic.sol\":2108:2118  1073741824 */\n  0x40000000\n    /* \"contracts/Basic.sol\":2079:2118  uint public publicStateVar = 1073741824 */\n  0x00\n  sstore\n    /* \"contracts/Basic.sol\":2157:2167  1073741824 */\n  0x40000000\n    /* \"contracts/Basic.sol\":2124:2167  uint internal internalStateVar = 1073741824 */\n  0x01\n  sstore\n    /* \"contracts/Basic.sol\":3359:3501  contract DerivedBasic is Basic {... */\n  callvalue\n  dup1\n  iszero\n  tag_1\n  jumpi\n  0x00\n  dup1\n  revert\ntag_1:\n  pop\n  dataSize(sub_0)\n  dup1\n  dataOffset(sub_0)\n  0x00\n  codecopy\n  0x00\n  return\nstop\n\nsub_0: assembly {\n        /* \"contracts/Basic.sol\":3359:3501  contract DerivedBasic is Basic {... */\n      mstore(0x40, 0x80)\n      callvalue\n      dup1\n      iszero\n      tag_1\n      jumpi\n      0x00\n      dup1\n      revert\n    tag_1:\n      pop\n      jumpi(tag_2, lt(calldatasize, 0x04))\n      shr(0xe0, calldataload(0x00))\n      dup1\n      0x7048a82b\n      gt\n      tag_13\n      jumpi\n      dup1\n      0x7048a82b\n      eq\n      tag_8\n      jumpi\n      dup1\n      0x78e96d4d\n      eq\n      tag_9\n      jumpi\n      dup1\n      0x797f3696\n      eq\n      tag_10\n      jumpi\n      dup1\n      0xb5d499d0\n      eq\n      tag_11\n      jumpi\n      dup1\n      0xfa462c46\n      eq\n      tag_12\n      jumpi\n      jump(tag_2)\n    tag_13:\n      dup1\n      0x09d97dda\n      eq\n      tag_3\n      jumpi\n      dup1\n      0x10b300cf\n      eq\n      tag_4\n      jumpi\n      dup1\n      0x324224c2\n      eq\n      tag_5\n      jumpi\n      dup1\n      0x5a748376\n      eq\n      tag_6\n      jumpi\n      dup1\n      0x5b9dbef7\n      eq\n      tag_7\n      jumpi\n    tag_2:\n      0x00\n      dup1\n      revert\n        /* \"contracts/Basic.sol\":2079:2118  uint public publicStateVar = 1073741824 */\n    tag_3:\n      tag_14\n      tag_15\n      jump\t// in\n    tag_14:\n      mload(0x40)\n      tag_16\n      swap2\n      swap1\n      tag_17\n      jump\t// in\n    tag_16:\n      mload(0x40)\n      dup1\n      swap2\n      sub\n      swap1\n      return\n        /* \"contracts/Basic.sol\":2660:2921  function testTypes() public {... */\n    tag_4:\n      tag_18\n      tag_19\n      jump\t// in\n    tag_18:\n      stop\n        /* \"contracts/Basic.sol\":2927:3097  function testAddressType() public {... */\n    tag_5:\n      tag_20\n      tag_21\n      jump\t// in\n    tag_20:\n      stop\n        /* \"contracts/Basic.sol\":903:1130  function testTimeUnits() public pure {... */\n    tag_6:\n      tag_22\n      tag_23\n      jump\t// in\n    tag_22:\n      stop\n        /* \"contracts/Basic.sol\":2353:2470  function testLocalVariable() public {... */\n    tag_7:\n      tag_24\n      tag_25\n      jump\t// in\n    tag_24:\n      stop\n        /* \"contracts/Basic.sol\":1354:1481  function testMultipleThings(uint _var) public pure returns (string memory) {... */\n    tag_8:\n      tag_26\n      0x04\n      dup1\n      calldatasize\n      sub\n      dup2\n      add\n      swap1\n      tag_27\n      swap2\n      swap1\n      tag_28\n      jump\t// in\n    tag_27:\n      tag_29\n      jump\t// in\n    tag_26:\n      mload(0x40)\n      tag_30\n      swap2\n      swap1\n      tag_31\n      jump\t// in\n    tag_30:\n      mload(0x40)\n      dup1\n      swap2\n      sub\n      swap1\n      return\n        /* \"contracts/Basic.sol\":1161:1298  function testEtherUnits() public pure {... */\n    tag_9:\n      tag_32\n      tag_33\n      jump\t// in\n    tag_32:\n      stop\n        /* \"contracts/Basic.sol\":3396:3499  function getInternalStateVariable() public view returns (uint) {... */\n    tag_10:\n      tag_34\n      tag_35\n      jump\t// in\n    tag_34:\n      mload(0x40)\n      tag_36\n      swap2\n      swap1\n      tag_17\n      jump\t// in\n    tag_36:\n      mload(0x40)\n      dup1\n      swap2\n      sub\n      swap1\n      return\n        /* \"contracts/Basic.sol\":2476:2598  function testGlobalVariable() public {... */\n    tag_11:\n      tag_37\n      tag_38\n      jump\t// in\n    tag_37:\n      stop\n        /* \"contracts/Basic.sol\":2235:2347  function testStateVariable() public {... */\n    tag_12:\n      tag_39\n      tag_40\n      jump\t// in\n    tag_39:\n      stop\n        /* \"contracts/Basic.sol\":2079:2118  uint public publicStateVar = 1073741824 */\n    tag_15:\n      sload(0x00)\n      dup2\n      jump\t// out\n        /* \"contracts/Basic.sol\":2660:2921  function testTypes() public {... */\n    tag_19:\n        /* \"contracts/Basic.sol\":2698:2710  bool boolVal */\n      0x00\n        /* \"contracts/Basic.sol\":2713:2717  true */\n      0x01\n        /* \"contracts/Basic.sol\":2698:2717  bool boolVal = true */\n      swap1\n      pop\n        /* \"contracts/Basic.sol\":2727:2750  string memory stringVal */\n      0x00\n        /* \"contracts/Basic.sol\":2727:2763  string memory stringVal = \"Solidity\" */\n      mload(0x40)\n      dup1\n      0x40\n      add\n      0x40\n      mstore\n      dup1\n      0x08\n      dup2\n      mstore\n      0x20\n      add\n      0x536f6c6964697479000000000000000000000000000000000000000000000000\n      dup2\n      mstore\n      pop\n      swap1\n      pop\n        /* \"contracts/Basic.sol\":2773:2791  address addressVal */\n      0x00\n        /* \"contracts/Basic.sol\":2814:2832  uint256 uint256Val */\n      dup1\n        /* \"contracts/Basic.sol\":2835:2845  1073741824 */\n      0x40000000\n        /* \"contracts/Basic.sol\":2814:2845  uint256 uint256Val = 1073741824 */\n      swap1\n      pop\n        /* \"contracts/Basic.sol\":2860:2914  PrintTypes(boolVal, stringVal, addressVal, uint256Val) */\n      0xfacad1dae4aae87c504b27f3a0758158e6782624fe949f45b92fa6c4adce4655\n        /* \"contracts/Basic.sol\":2871:2878  boolVal */\n      dup5\n        /* \"contracts/Basic.sol\":2880:2889  stringVal */\n      dup5\n        /* \"contracts/Basic.sol\":2891:2901  addressVal */\n      dup5\n        /* \"contracts/Basic.sol\":2903:2913  uint256Val */\n      dup5\n        /* \"contracts/Basic.sol\":2860:2914  PrintTypes(boolVal, stringVal, addressVal, uint256Val) */\n      mload(0x40)\n      tag_42\n      swap5\n      swap4\n      swap3\n      swap2\n      swap1\n      tag_43\n      jump\t// in\n    tag_42:\n      mload(0x40)\n      dup1\n      swap2\n      sub\n      swap1\n      log1\n        /* \"contracts/Basic.sol\":2688:2921  {... */\n      pop\n      pop\n      pop\n      pop\n        /* \"contracts/Basic.sol\":2660:2921  function testTypes() public {... */\n      jump\t// out\n        /* \"contracts/Basic.sol\":2927:3097  function testAddressType() public {... */\n    tag_21:\n        /* \"contracts/Basic.sol\":2971:2985  address sender */\n      0x00\n        /* \"contracts/Basic.sol\":2988:2998  msg.sender */\n      caller\n        /* \"contracts/Basic.sol\":2971:2998  address sender = msg.sender */\n      swap1\n      pop\n        /* \"contracts/Basic.sol\":3008:3024  address receiver */\n      0x00\n        /* \"contracts/Basic.sol\":3035:3040  0x101 */\n      0x0101\n        /* \"contracts/Basic.sol\":3008:3041  address receiver = address(0x101) */\n      swap1\n      pop\n        /* \"contracts/Basic.sol\":3056:3090  PrintAddressType(sender, receiver) */\n      0xe46c3d457b890ecba898505ee58d1ffcd1e8a24468d61c92651f8c38595fd571\n        /* \"contracts/Basic.sol\":3073:3079  sender */\n      dup3\n        /* \"contracts/Basic.sol\":3081:3089  receiver */\n      dup3\n        /* \"contracts/Basic.sol\":3056:3090  PrintAddressType(sender, receiver) */\n      mload(0x40)\n      tag_45\n      swap3\n      swap2\n      swap1\n      tag_46\n      jump\t// in\n    tag_45:\n      mload(0x40)\n      dup1\n      swap2\n      sub\n      swap1\n      log1\n        /* \"contracts/Basic.sol\":2961:3097  {... */\n      pop\n      pop\n        /* \"contracts/Basic.sol\":2927:3097  function testAddressType() public {... */\n      jump\t// out\n        /* \"contracts/Basic.sol\":903:1130  function testTimeUnits() public pure {... */\n    tag_23:\n        /* \"contracts/Basic.sol\":970:971  1 */\n      0x01\n        /* \"contracts/Basic.sol\":957:966  1 seconds */\n      dup1\n        /* \"contracts/Basic.sol\":957:971  1 seconds == 1 */\n      eq\n        /* \"contracts/Basic.sol\":950:972  assert(1 seconds == 1) */\n      tag_48\n      jumpi\n      tag_49\n      tag_50\n      jump\t// in\n    tag_49:\n    tag_48:\n        /* \"contracts/Basic.sol\":1002:1012  60 seconds */\n      0x3c\n        /* \"contracts/Basic.sol\":989:998  1 minutes */\n      dup1\n        /* \"contracts/Basic.sol\":989:1012  1 minutes == 60 seconds */\n      eq\n        /* \"contracts/Basic.sol\":982:1013  assert(1 minutes == 60 seconds) */\n      tag_51\n      jumpi\n      tag_52\n      tag_50\n      jump\t// in\n    tag_52:\n    tag_51:\n        /* \"contracts/Basic.sol\":1041:1051  60 minutes */\n      0x0e10\n        /* \"contracts/Basic.sol\":1030:1037  1 hours */\n      dup1\n        /* \"contracts/Basic.sol\":1030:1051  1 hours == 60 minutes */\n      eq\n        /* \"contracts/Basic.sol\":1023:1052  assert(1 hours == 60 minutes) */\n      tag_53\n      jumpi\n      tag_54\n      tag_50\n      jump\t// in\n    tag_54:\n    tag_53:\n        /* \"contracts/Basic.sol\":1079:1087  24 hours */\n      0x015180\n        /* \"contracts/Basic.sol\":1069:1075  1 days */\n      dup1\n        /* \"contracts/Basic.sol\":1069:1087  1 days == 24 hours */\n      eq\n        /* \"contracts/Basic.sol\":1062:1088  assert(1 days == 24 hours) */\n      tag_55\n      jumpi\n      tag_56\n      tag_50\n      jump\t// in\n    tag_56:\n    tag_55:\n        /* \"contracts/Basic.sol\":1116:1122  7 days */\n      0x093a80\n        /* \"contracts/Basic.sol\":1105:1112  1 weeks */\n      dup1\n        /* \"contracts/Basic.sol\":1105:1122  1 weeks == 7 days */\n      eq\n        /* \"contracts/Basic.sol\":1098:1123  assert(1 weeks == 7 days) */\n      tag_57\n      jumpi\n      tag_58\n      tag_50\n      jump\t// in\n    tag_58:\n    tag_57:\n        /* \"contracts/Basic.sol\":903:1130  function testTimeUnits() public pure {... */\n      jump\t// out\n        /* \"contracts/Basic.sol\":2353:2470  function testLocalVariable() public {... */\n    tag_25:\n        /* \"contracts/Basic.sol\":2399:2412  uint localVar */\n      0x00\n        /* \"contracts/Basic.sol\":2415:2425  1073741824 */\n      0x40000000\n        /* \"contracts/Basic.sol\":2399:2425  uint localVar = 1073741824 */\n      swap1\n      pop\n        /* \"contracts/Basic.sol\":2440:2463  PrintVariable(localVar) */\n      0x710b0da34544b4c614537e6a8b1aec86a8c12667d89c805eb3394b587f8f7ab9\n        /* \"contracts/Basic.sol\":2454:2462  localVar */\n      dup2\n        /* \"contracts/Basic.sol\":2440:2463  PrintVariable(localVar) */\n      mload(0x40)\n      tag_60\n      swap2\n      swap1\n      tag_17\n      jump\t// in\n    tag_60:\n      mload(0x40)\n      dup1\n      swap2\n      sub\n      swap1\n      log1\n        /* \"contracts/Basic.sol\":2389:2470  {... */\n      pop\n        /* \"contracts/Basic.sol\":2353:2470  function testLocalVariable() public {... */\n      jump\t// out\n        /* \"contracts/Basic.sol\":1354:1481  function testMultipleThings(uint _var) public pure returns (string memory) {... */\n    tag_29:\n        /* \"contracts/Basic.sol\":1414:1427  string memory */\n      0x60\n        /* \"contracts/Basic.sol\":1446:1474  convertIntegerToString(_var) */\n      tag_62\n        /* \"contracts/Basic.sol\":1469:1473  _var */\n      dup3\n        /* \"contracts/Basic.sol\":1446:1468  convertIntegerToString */\n      tag_63\n        /* \"contracts/Basic.sol\":1446:1474  convertIntegerToString(_var) */\n      jump\t// in\n    tag_62:\n        /* \"contracts/Basic.sol\":1439:1474  return convertIntegerToString(_var) */\n      swap1\n      pop\n        /* \"contracts/Basic.sol\":1354:1481  function testMultipleThings(uint _var) public pure returns (string memory) {... */\n      swap2\n      swap1\n      pop\n      jump\t// out\n        /* \"contracts/Basic.sol\":1161:1298  function testEtherUnits() public pure {... */\n    tag_33:\n        /* \"contracts/Basic.sol\":1225:1226  1 */\n      0x01\n        /* \"contracts/Basic.sol\":1216:1221  1 wei */\n      dup1\n        /* \"contracts/Basic.sol\":1216:1226  1 wei == 1 */\n      eq\n        /* \"contracts/Basic.sol\":1209:1227  assert(1 wei == 1) */\n      tag_65\n      jumpi\n      tag_66\n      tag_50\n      jump\t// in\n    tag_66:\n    tag_65:\n        /* \"contracts/Basic.sol\":1254:1257  1e9 */\n      0x3b9aca00\n        /* \"contracts/Basic.sol\":1244:1250  1 gwei */\n      dup1\n        /* \"contracts/Basic.sol\":1244:1257  1 gwei == 1e9 */\n      eq\n        /* \"contracts/Basic.sol\":1237:1258  assert(1 gwei == 1e9) */\n      tag_67\n      jumpi\n      tag_68\n      tag_50\n      jump\t// in\n    tag_68:\n    tag_67:\n        /* \"contracts/Basic.sol\":1286:1290  1e18 */\n      0x0de0b6b3a7640000\n        /* \"contracts/Basic.sol\":1275:1282  1 ether */\n      dup1\n        /* \"contracts/Basic.sol\":1275:1290  1 ether == 1e18 */\n      eq\n        /* \"contracts/Basic.sol\":1268:1291  assert(1 ether == 1e18) */\n      tag_69\n      jumpi\n      tag_70\n      tag_50\n      jump\t// in\n    tag_70:\n    tag_69:\n        /* \"contracts/Basic.sol\":1161:1298  function testEtherUnits() public pure {... */\n      jump\t// out\n        /* \"contracts/Basic.sol\":3396:3499  function getInternalStateVariable() public view returns (uint) {... */\n    tag_35:\n        /* \"contracts/Basic.sol\":3453:3457  uint */\n      0x00\n        /* \"contracts/Basic.sol\":3476:3492  internalStateVar */\n      sload(0x01)\n        /* \"contracts/Basic.sol\":3469:3492  return internalStateVar */\n      swap1\n      pop\n        /* \"contracts/Basic.sol\":3396:3499  function getInternalStateVariable() public view returns (uint) {... */\n      swap1\n      jump\t// out\n        /* \"contracts/Basic.sol\":2476:2598  function testGlobalVariable() public {... */\n    tag_38:\n        /* \"contracts/Basic.sol\":2523:2537  uint globalVar */\n      0x00\n        /* \"contracts/Basic.sol\":2540:2552  block.number */\n      number\n        /* \"contracts/Basic.sol\":2523:2552  uint globalVar = block.number */\n      swap1\n      pop\n        /* \"contracts/Basic.sol\":2567:2591  PrintVariable(globalVar) */\n      0x710b0da34544b4c614537e6a8b1aec86a8c12667d89c805eb3394b587f8f7ab9\n        /* \"contracts/Basic.sol\":2581:2590  globalVar */\n      dup2\n        /* \"contracts/Basic.sol\":2567:2591  PrintVariable(globalVar) */\n      mload(0x40)\n      tag_73\n      swap2\n      swap1\n      tag_17\n      jump\t// in\n    tag_73:\n      mload(0x40)\n      dup1\n      swap2\n      sub\n      swap1\n      log1\n        /* \"contracts/Basic.sol\":2513:2598  {... */\n      pop\n        /* \"contracts/Basic.sol\":2476:2598  function testGlobalVariable() public {... */\n      jump\t// out\n        /* \"contracts/Basic.sol\":2235:2347  function testStateVariable() public {... */\n    tag_40:\n        /* \"contracts/Basic.sol\":2292:2302  1073741824 */\n      0x40000000\n        /* \"contracts/Basic.sol\":2281:2289  stateVar */\n      0x02\n        /* \"contracts/Basic.sol\":2281:2302  stateVar = 1073741824 */\n      dup2\n      swap1\n      sstore\n      pop\n        /* \"contracts/Basic.sol\":2317:2340  PrintVariable(stateVar) */\n      0x710b0da34544b4c614537e6a8b1aec86a8c12667d89c805eb3394b587f8f7ab9\n        /* \"contracts/Basic.sol\":2331:2339  stateVar */\n      sload(0x02)\n        /* \"contracts/Basic.sol\":2317:2340  PrintVariable(stateVar) */\n      mload(0x40)\n      tag_75\n      swap2\n      swap1\n      tag_17\n      jump\t// in\n    tag_75:\n      mload(0x40)\n      dup1\n      swap2\n      sub\n      swap1\n      log1\n        /* \"contracts/Basic.sol\":2235:2347  function testStateVariable() public {... */\n      jump\t// out\n        /* \"contracts/Basic.sol\":1487:2045  function convertIntegerToString(uint _var) private pure returns (string memory) {... */\n    tag_63:\n        /* \"contracts/Basic.sol\":1552:1565  string memory */\n      0x60\n        /* \"contracts/Basic.sol\":1589:1590  0 */\n      0x00\n        /* \"contracts/Basic.sol\":1581:1585  _var */\n      dup3\n        /* \"contracts/Basic.sol\":1581:1590  _var == 0 */\n      sub\n        /* \"contracts/Basic.sol\":1577:1627  if (_var == 0) {... */\n      tag_77\n      jumpi\n        /* \"contracts/Basic.sol\":1606:1616  return \"0\" */\n      mload(0x40)\n      dup1\n      0x40\n      add\n      0x40\n      mstore\n      dup1\n      0x01\n      dup2\n      mstore\n      0x20\n      add\n      0x3000000000000000000000000000000000000000000000000000000000000000\n      dup2\n      mstore\n      pop\n      swap1\n      pop\n      jump(tag_76)\n        /* \"contracts/Basic.sol\":1577:1627  if (_var == 0) {... */\n    tag_77:\n        /* \"contracts/Basic.sol\":1636:1642  uint i */\n      0x00\n        /* \"contracts/Basic.sol\":1645:1649  _var */\n      dup3\n        /* \"contracts/Basic.sol\":1636:1649  uint i = _var */\n      swap1\n      pop\n        /* \"contracts/Basic.sol\":1659:1667  uint len */\n      0x00\n        /* \"contracts/Basic.sol\":1681:1747  while (i != 0) {... */\n    tag_78:\n        /* \"contracts/Basic.sol\":1693:1694  0 */\n      0x00\n        /* \"contracts/Basic.sol\":1688:1689  i */\n      dup3\n        /* \"contracts/Basic.sol\":1688:1694  i != 0 */\n      eq\n        /* \"contracts/Basic.sol\":1681:1747  while (i != 0) {... */\n      tag_79\n      jumpi\n        /* \"contracts/Basic.sol\":1710:1715  len++ */\n      dup1\n      dup1\n      tag_80\n      swap1\n      tag_81\n      jump\t// in\n    tag_80:\n      swap2\n      pop\n      pop\n        /* \"contracts/Basic.sol\":1734:1736  10 */\n      0x0a\n        /* \"contracts/Basic.sol\":1729:1736  i /= 10 */\n      dup3\n      tag_82\n      swap2\n      swap1\n      tag_83\n      jump\t// in\n    tag_82:\n      swap2\n      pop\n        /* \"contracts/Basic.sol\":1681:1747  while (i != 0) {... */\n      jump(tag_78)\n    tag_79:\n        /* \"contracts/Basic.sol\":1756:1772  bytes memory buf */\n      0x00\n        /* \"contracts/Basic.sol\":1785:1788  len */\n      dup2\n        /* \"contracts/Basic.sol\":1775:1789  new bytes(len) */\n      0xffffffffffffffff\n      dup2\n      gt\n      iszero\n      tag_84\n      jumpi\n      tag_85\n      tag_86\n      jump\t// in\n    tag_85:\n    tag_84:\n      mload(0x40)\n      swap1\n      dup1\n      dup3\n      mstore\n      dup1\n      0x1f\n      add\n      not(0x1f)\n      and\n      0x20\n      add\n      dup3\n      add\n      0x40\n      mstore\n      dup1\n      iszero\n      tag_87\n      jumpi\n      dup2\n      0x20\n      add\n      0x01\n      dup3\n      mul\n      dup1\n      calldatasize\n      dup4\n      calldatacopy\n      dup1\n      dup3\n      add\n      swap2\n      pop\n      pop\n      swap1\n      pop\n    tag_87:\n      pop\n        /* \"contracts/Basic.sol\":1756:1789  bytes memory buf = new bytes(len) */\n      swap1\n      pop\n        /* \"contracts/Basic.sol\":1799:1805  uint j */\n      0x00\n        /* \"contracts/Basic.sol\":1814:1815  1 */\n      0x01\n        /* \"contracts/Basic.sol\":1808:1811  len */\n      dup4\n        /* \"contracts/Basic.sol\":1808:1815  len - 1 */\n      tag_88\n      swap2\n      swap1\n      tag_89\n      jump\t// in\n    tag_88:\n        /* \"contracts/Basic.sol\":1799:1815  uint j = len - 1 */\n      swap1\n      pop\n        /* \"contracts/Basic.sol\":1825:2011  do {... */\n    tag_90:\n        /* \"contracts/Basic.sol\":1876:1878  10 */\n      0x0a\n        /* \"contracts/Basic.sol\":1869:1873  _var */\n      dup7\n        /* \"contracts/Basic.sol\":1869:1878  _var % 10 */\n      tag_93\n      swap2\n      swap1\n      tag_94\n      jump\t// in\n    tag_93:\n        /* \"contracts/Basic.sol\":1864:1866  48 */\n      0x30\n        /* \"contracts/Basic.sol\":1864:1878  48 + _var % 10 */\n      tag_95\n      swap2\n      swap1\n      tag_96\n      jump\t// in\n    tag_95:\n        /* \"contracts/Basic.sol\":1851:1880  bytes1(uint8(48 + _var % 10)) */\n      0xf8\n      shl\n        /* \"contracts/Basic.sol\":1842:1845  buf */\n      dup3\n        /* \"contracts/Basic.sol\":1846:1847  j */\n      dup3\n        /* \"contracts/Basic.sol\":1842:1848  buf[j] */\n      dup2\n      mload\n      dup2\n      lt\n      tag_97\n      jumpi\n      tag_98\n      tag_99\n      jump\t// in\n    tag_98:\n    tag_97:\n      0x20\n      add\n      add\n        /* \"contracts/Basic.sol\":1842:1880  buf[j] = bytes1(uint8(48 + _var % 10)) */\n      swap1\n      not(0xffffffffffffffffffffffffffffffffffffffffffffffffffffffffffffff)\n      and\n      swap1\n      dup2\n      0x00\n      byte\n      swap1\n      mstore8\n      pop\n        /* \"contracts/Basic.sol\":1903:1904  0 */\n      0x00\n        /* \"contracts/Basic.sol\":1898:1899  j */\n      dup2\n        /* \"contracts/Basic.sol\":1898:1904  j == 0 */\n      sub\n        /* \"contracts/Basic.sol\":1894:1944  if (j == 0) {... */\n      iszero\n        /* \"contracts/Basic.sol\":1924:1929  break */\n      tag_91\n        /* \"contracts/Basic.sol\":1894:1944  if (j == 0) {... */\n      jumpi\n        /* \"contracts/Basic.sol\":1957:1960  j-- */\n      dup1\n      dup1\n      tag_101\n      swap1\n      tag_102\n      jump\t// in\n    tag_101:\n      swap2\n      pop\n      pop\n        /* \"contracts/Basic.sol\":1982:1984  10 */\n      0x0a\n        /* \"contracts/Basic.sol\":1974:1984  _var /= 10 */\n      dup7\n      tag_103\n      swap2\n      swap1\n      tag_83\n      jump\t// in\n    tag_103:\n      swap6\n      pop\n        /* \"contracts/Basic.sol\":2008:2009  0 */\n      0x00\n        /* \"contracts/Basic.sol\":2003:2004  j */\n      dup2\n        /* \"contracts/Basic.sol\":2003:2009  j >= 0 */\n      lt\n      iszero\n        /* \"contracts/Basic.sol\":1825:2011  do {... */\n      tag_90\n      jumpi\n    tag_91:\n        /* \"contracts/Basic.sol\":2034:2037  buf */\n      dup2\n        /* \"contracts/Basic.sol\":2020:2038  return string(buf) */\n      swap5\n      pop\n      pop\n      pop\n      pop\n      pop\n        /* \"contracts/Basic.sol\":1487:2045  function convertIntegerToString(uint _var) private pure returns (string memory) {... */\n    tag_76:\n      swap2\n      swap1\n      pop\n      jump\t// out\n        /* \"#utility.yul\":7:84   */\n    tag_104:\n        /* \"#utility.yul\":44:51   */\n      0x00\n        /* \"#utility.yul\":73:78   */\n      dup2\n        /* \"#utility.yul\":62:78   */\n      swap1\n      pop\n        /* \"#utility.yul\":7:84   */\n      swap2\n      swap1\n      pop\n      jump\t// out\n        /* \"#utility.yul\":90:208   */\n    tag_105:\n        /* \"#utility.yul\":177:201   */\n      tag_126\n        /* \"#utility.yul\":195:200   */\n      dup2\n        /* \"#utility.yul\":177:201   */\n      tag_104\n      jump\t// in\n    tag_126:\n        /* \"#utility.yul\":172:175   */\n      dup3\n        /* \"#utility.yul\":165:202   */\n      mstore\n        /* \"#utility.yul\":90:208   */\n      pop\n      pop\n      jump\t// out\n        /* \"#utility.yul\":214:436   */\n    tag_17:\n        /* \"#utility.yul\":307:311   */\n      0x00\n        /* \"#utility.yul\":345:347   */\n      0x20\n        /* \"#utility.yul\":334:343   */\n      dup3\n        /* \"#utility.yul\":330:348   */\n      add\n        /* \"#utility.yul\":322:348   */\n      swap1\n      pop\n        /* \"#utility.yul\":358:429   */\n      tag_128\n        /* \"#utility.yul\":426:427   */\n      0x00\n        /* \"#utility.yul\":415:424   */\n      dup4\n        /* \"#utility.yul\":411:428   */\n      add\n        /* \"#utility.yul\":402:408   */\n      dup5\n        /* \"#utility.yul\":358:429   */\n      tag_105\n      jump\t// in\n    tag_128:\n        /* \"#utility.yul\":214:436   */\n      swap3\n      swap2\n      pop\n      pop\n      jump\t// out\n        /* \"#utility.yul\":523:640   */\n    tag_107:\n        /* \"#utility.yul\":632:633   */\n      0x00\n        /* \"#utility.yul\":629:630   */\n      dup1\n        /* \"#utility.yul\":622:634   */\n      revert\n        /* \"#utility.yul\":769:891   */\n    tag_109:\n        /* \"#utility.yul\":842:866   */\n      tag_133\n        /* \"#utility.yul\":860:865   */\n      dup2\n        /* \"#utility.yul\":842:866   */\n      tag_104\n      jump\t// in\n    tag_133:\n        /* \"#utility.yul\":835:840   */\n      dup2\n        /* \"#utility.yul\":832:867   */\n      eq\n        /* \"#utility.yul\":822:885   */\n      tag_134\n      jumpi\n        /* \"#utility.yul\":881:882   */\n      0x00\n        /* \"#utility.yul\":878:879   */\n      dup1\n        /* \"#utility.yul\":871:883   */\n      revert\n        /* \"#utility.yul\":822:885   */\n    tag_134:\n        /* \"#utility.yul\":769:891   */\n      pop\n      jump\t// out\n        /* \"#utility.yul\":897:1036   */\n    tag_110:\n        /* \"#utility.yul\":943:948   */\n      0x00\n        /* \"#utility.yul\":981:987   */\n      dup2\n        /* \"#utility.yul\":968:988   */\n      calldataload\n        /* \"#utility.yul\":959:988   */\n      swap1\n      pop\n        /* \"#utility.yul\":997:1030   */\n      tag_136\n        /* \"#utility.yul\":1024:1029   */\n      dup2\n        /* \"#utility.yul\":997:1030   */\n      tag_109\n      jump\t// in\n    tag_136:\n        /* \"#utility.yul\":897:1036   */\n      swap3\n      swap2\n      pop\n      pop\n      jump\t// out\n        /* \"#utility.yul\":1042:1371   */\n    tag_28:\n        /* \"#utility.yul\":1101:1107   */\n      0x00\n        /* \"#utility.yul\":1150:1152   */\n      0x20\n        /* \"#utility.yul\":1138:1147   */\n      dup3\n        /* \"#utility.yul\":1129:1136   */\n      dup5\n        /* \"#utility.yul\":1125:1148   */\n      sub\n        /* \"#utility.yul\":1121:1153   */\n      slt\n        /* \"#utility.yul\":1118:1237   */\n      iszero\n      tag_138\n      jumpi\n        /* \"#utility.yul\":1156:1235   */\n      tag_139\n      tag_107\n      jump\t// in\n    tag_139:\n        /* \"#utility.yul\":1118:1237   */\n    tag_138:\n        /* \"#utility.yul\":1276:1277   */\n      0x00\n        /* \"#utility.yul\":1301:1354   */\n      tag_140\n        /* \"#utility.yul\":1346:1353   */\n      dup5\n        /* \"#utility.yul\":1337:1343   */\n      dup3\n        /* \"#utility.yul\":1326:1335   */\n      dup6\n        /* \"#utility.yul\":1322:1344   */\n      add\n        /* \"#utility.yul\":1301:1354   */\n      tag_110\n      jump\t// in\n    tag_140:\n        /* \"#utility.yul\":1291:1354   */\n      swap2\n      pop\n        /* \"#utility.yul\":1247:1364   */\n      pop\n        /* \"#utility.yul\":1042:1371   */\n      swap3\n      swap2\n      pop\n      pop\n      jump\t// out\n        /* \"#utility.yul\":1377:1476   */\n    tag_111:\n        /* \"#utility.yul\":1429:1435   */\n      0x00\n        /* \"#utility.yul\":1463:1468   */\n      dup2\n        /* \"#utility.yul\":1457:1469   */\n      mload\n        /* \"#utility.yul\":1447:1469   */\n      swap1\n      pop\n        /* \"#utility.yul\":1377:1476   */\n      swap2\n      swap1\n      pop\n      jump\t// out\n        /* \"#utility.yul\":1482:1651   */\n    tag_112:\n        /* \"#utility.yul\":1566:1577   */\n      0x00\n        /* \"#utility.yul\":1600:1606   */\n      dup3\n        /* \"#utility.yul\":1595:1598   */\n      dup3\n        /* \"#utility.yul\":1588:1607   */\n      mstore\n        /* \"#utility.yul\":1640:1644   */\n      0x20\n        /* \"#utility.yul\":1635:1638   */\n      dup3\n        /* \"#utility.yul\":1631:1645   */\n      add\n        /* \"#utility.yul\":1616:1645   */\n      swap1\n      pop\n        /* \"#utility.yul\":1482:1651   */\n      swap3\n      swap2\n      pop\n      pop\n      jump\t// out\n        /* \"#utility.yul\":1657:1796   */\n    tag_113:\n        /* \"#utility.yul\":1746:1752   */\n      dup3\n        /* \"#utility.yul\":1741:1744   */\n      dup2\n        /* \"#utility.yul\":1736:1739   */\n      dup4\n        /* \"#utility.yul\":1730:1753   */\n      mcopy\n        /* \"#utility.yul\":1787:1788   */\n      0x00\n        /* \"#utility.yul\":1778:1784   */\n      dup4\n        /* \"#utility.yul\":1773:1776   */\n      dup4\n        /* \"#utility.yul\":1769:1785   */\n      add\n        /* \"#utility.yul\":1762:1789   */\n      mstore\n        /* \"#utility.yul\":1657:1796   */\n      pop\n      pop\n      pop\n      jump\t// out\n        /* \"#utility.yul\":1802:1904   */\n    tag_114:\n        /* \"#utility.yul\":1843:1849   */\n      0x00\n        /* \"#utility.yul\":1894:1896   */\n      0x1f\n        /* \"#utility.yul\":1890:1897   */\n      not\n        /* \"#utility.yul\":1885:1887   */\n      0x1f\n        /* \"#utility.yul\":1878:1883   */\n      dup4\n        /* \"#utility.yul\":1874:1888   */\n      add\n        /* \"#utility.yul\":1870:1898   */\n      and\n        /* \"#utility.yul\":1860:1898   */\n      swap1\n      pop\n        /* \"#utility.yul\":1802:1904   */\n      swap2\n      swap1\n      pop\n      jump\t// out\n        /* \"#utility.yul\":1910:2287   */\n    tag_115:\n        /* \"#utility.yul\":1998:2001   */\n      0x00\n        /* \"#utility.yul\":2026:2065   */\n      tag_146\n        /* \"#utility.yul\":2059:2064   */\n      dup3\n        /* \"#utility.yul\":2026:2065   */\n      tag_111\n      jump\t// in\n    tag_146:\n        /* \"#utility.yul\":2081:2152   */\n      tag_147\n        /* \"#utility.yul\":2145:2151   */\n      dup2\n        /* \"#utility.yul\":2140:2143   */\n      dup6\n        /* \"#utility.yul\":2081:2152   */\n      tag_112\n      jump\t// in\n    tag_147:\n        /* \"#utility.yul\":2074:2152   */\n      swap4\n      pop\n        /* \"#utility.yul\":2161:2226   */\n      tag_148\n        /* \"#utility.yul\":2219:2225   */\n      dup2\n        /* \"#utility.yul\":2214:2217   */\n      dup6\n        /* \"#utility.yul\":2207:2211   */\n      0x20\n        /* \"#utility.yul\":2200:2205   */\n      dup7\n        /* \"#utility.yul\":2196:2212   */\n      add\n        /* \"#utility.yul\":2161:2226   */\n      tag_113\n      jump\t// in\n    tag_148:\n        /* \"#utility.yul\":2251:2280   */\n      tag_149\n        /* \"#utility.yul\":2273:2279   */\n      dup2\n        /* \"#utility.yul\":2251:2280   */\n      tag_114\n      jump\t// in\n    tag_149:\n        /* \"#utility.yul\":2246:2249   */\n      dup5\n        /* \"#utility.yul\":2242:2281   */\n      add\n        /* \"#utility.yul\":2235:2281   */\n      swap2\n      pop\n        /* \"#utility.yul\":2002:2287   */\n      pop\n        /* \"#utility.yul\":1910:2287   */\n      swap3\n      swap2\n      pop\n      pop\n      jump\t// out\n        /* \"#utility.yul\":2293:2606   */\n    tag_31:\n        /* \"#utility.yul\":2406:2410   */\n      0x00\n        /* \"#utility.yul\":2444:2446   */\n      0x20\n        /* \"#utility.yul\":2433:2442   */\n      dup3\n        /* \"#utility.yul\":2429:2447   */\n      add\n        /* \"#utility.yul\":2421:2447   */\n      swap1\n      pop\n        /* \"#utility.yul\":2493:2502   */\n      dup2\n        /* \"#utility.yul\":2487:2491   */\n      dup2\n        /* \"#utility.yul\":2483:2503   */\n      sub\n        /* \"#utility.yul\":2479:2480   */\n      0x00\n        /* \"#utility.yul\":2468:2477   */\n      dup4\n        /* \"#utility.yul\":2464:2481   */\n      add\n        /* \"#utility.yul\":2457:2504   */\n      mstore\n        /* \"#utility.yul\":2521:2599   */\n      tag_151\n        /* \"#utility.yul\":2594:2598   */\n      dup2\n        /* \"#utility.yul\":2585:2591   */\n      dup5\n        /* \"#utility.yul\":2521:2599   */\n      tag_115\n      jump\t// in\n    tag_151:\n        /* \"#utility.yul\":2513:2599   */\n      swap1\n      pop\n        /* \"#utility.yul\":2293:2606   */\n      swap3\n      swap2\n      pop\n      pop\n      jump\t// out\n        /* \"#utility.yul\":2612:2702   */\n    tag_116:\n        /* \"#utility.yul\":2646:2653   */\n      0x00\n        /* \"#utility.yul\":2689:2694   */\n      dup2\n        /* \"#utility.yul\":2682:2695   */\n      iszero\n        /* \"#utility.yul\":2675:2696   */\n      iszero\n        /* \"#utility.yul\":2664:2696   */\n      swap1\n      pop\n        /* \"#utility.yul\":2612:2702   */\n      swap2\n      swap1\n      pop\n      jump\t// out\n        /* \"#utility.yul\":2708:2817   */\n    tag_117:\n        /* \"#utility.yul\":2789:2810   */\n      tag_154\n        /* \"#utility.yul\":2804:2809   */\n      dup2\n        /* \"#utility.yul\":2789:2810   */\n      tag_116\n      jump\t// in\n    tag_154:\n        /* \"#utility.yul\":2784:2787   */\n      dup3\n        /* \"#utility.yul\":2777:2811   */\n      mstore\n        /* \"#utility.yul\":2708:2817   */\n      pop\n      pop\n      jump\t// out\n        /* \"#utility.yul\":2823:2949   */\n    tag_118:\n        /* \"#utility.yul\":2860:2867   */\n      0x00\n        /* \"#utility.yul\":2900:2942   */\n      0xffffffffffffffffffffffffffffffffffffffff\n        /* \"#utility.yul\":2893:2898   */\n      dup3\n        /* \"#utility.yul\":2889:2943   */\n      and\n        /* \"#utility.yul\":2878:2943   */\n      swap1\n      pop\n        /* \"#utility.yul\":2823:2949   */\n      swap2\n      swap1\n      pop\n      jump\t// out\n        /* \"#utility.yul\":2955:3051   */\n    tag_119:\n        /* \"#utility.yul\":2992:2999   */\n      0x00\n        /* \"#utility.yul\":3021:3045   */\n      tag_157\n        /* \"#utility.yul\":3039:3044   */\n      dup3\n        /* \"#utility.yul\":3021:3045   */\n      tag_118\n      jump\t// in\n    tag_157:\n        /* \"#utility.yul\":3010:3045   */\n      swap1\n      pop\n        /* \"#utility.yul\":2955:3051   */\n      swap2\n      swap1\n      pop\n      jump\t// out\n        /* \"#utility.yul\":3057:3175   */\n    tag_120:\n        /* \"#utility.yul\":3144:3168   */\n      tag_159\n        /* \"#utility.yul\":3162:3167   */\n      dup2\n        /* \"#utility.yul\":3144:3168   */\n      tag_119\n      jump\t// in\n    tag_159:\n        /* \"#utility.yul\":3139:3142   */\n      dup3\n        /* \"#utility.yul\":3132:3169   */\n      mstore\n        /* \"#utility.yul\":3057:3175   */\n      pop\n      pop\n      jump\t// out\n        /* \"#utility.yul\":3181:3813   */\n    tag_43:\n        /* \"#utility.yul\":3372:3376   */\n      0x00\n        /* \"#utility.yul\":3410:3413   */\n      0x80\n        /* \"#utility.yul\":3399:3408   */\n      dup3\n        /* \"#utility.yul\":3395:3414   */\n      add\n        /* \"#utility.yul\":3387:3414   */\n      swap1\n      pop\n        /* \"#utility.yul\":3424:3489   */\n      tag_161\n        /* \"#utility.yul\":3486:3487   */\n      0x00\n        /* \"#utility.yul\":3475:3484   */\n      dup4\n        /* \"#utility.yul\":3471:3488   */\n      add\n        /* \"#utility.yul\":3462:3468   */\n      dup8\n        /* \"#utility.yul\":3424:3489   */\n      tag_117\n      jump\t// in\n    tag_161:\n        /* \"#utility.yul\":3536:3545   */\n      dup2\n        /* \"#utility.yul\":3530:3534   */\n      dup2\n        /* \"#utility.yul\":3526:3546   */\n      sub\n        /* \"#utility.yul\":3521:3523   */\n      0x20\n        /* \"#utility.yul\":3510:3519   */\n      dup4\n        /* \"#utility.yul\":3506:3524   */\n      add\n        /* \"#utility.yul\":3499:3547   */\n      mstore\n        /* \"#utility.yul\":3564:3642   */\n      tag_162\n        /* \"#utility.yul\":3637:3641   */\n      dup2\n        /* \"#utility.yul\":3628:3634   */\n      dup7\n        /* \"#utility.yul\":3564:3642   */\n      tag_115\n      jump\t// in\n    tag_162:\n        /* \"#utility.yul\":3556:3642   */\n      swap1\n      pop\n        /* \"#utility.yul\":3652:3724   */\n      tag_163\n        /* \"#utility.yul\":3720:3722   */\n      0x40\n        /* \"#utility.yul\":3709:3718   */\n      dup4\n        /* \"#utility.yul\":3705:3723   */\n      add\n        /* \"#utility.yul\":3696:3702   */\n      dup6\n        /* \"#utility.yul\":3652:3724   */\n      tag_120\n      jump\t// in\n    tag_163:\n        /* \"#utility.yul\":3734:3806   */\n      tag_164\n        /* \"#utility.yul\":3802:3804   */\n      0x60\n        /* \"#utility.yul\":3791:3800   */\n      dup4\n        /* \"#utility.yul\":3787:3805   */\n      add\n        /* \"#utility.yul\":3778:3784   */\n      dup5\n        /* \"#utility.yul\":3734:3806   */\n      tag_105\n      jump\t// in\n    tag_164:\n        /* \"#utility.yul\":3181:3813   */\n      swap6\n      swap5\n      pop\n      pop\n      pop\n      pop\n      pop\n      jump\t// out\n        /* \"#utility.yul\":3819:4151   */\n    tag_46:\n        /* \"#utility.yul\":3940:3944   */\n      0x00\n        /* \"#utility.yul\":3978:3980   */\n      0x40\n        /* \"#utility.yul\":3967:3976   */\n      dup3\n        /* \"#utility.yul\":3963:3981   */\n      add\n        /* \"#utility.yul\":3955:3981   */\n      swap1\n      pop\n        /* \"#utility.yul\":3991:4062   */\n      tag_166\n        /* \"#utility.yul\":4059:4060   */\n      0x00\n        /* \"#utility.yul\":4048:4057   */\n      dup4\n        /* \"#utility.yul\":4044:4061   */\n      add\n        /* \"#utility.yul\":4035:4041   */\n      dup6\n        /* \"#utility.yul\":3991:4062   */\n      tag_120\n      jump\t// in\n    tag_166:\n        /* \"#utility.yul\":4072:4144   */\n      tag_167\n        /* \"#utility.yul\":4140:4142   */\n      0x20\n        /* \"#utility.yul\":4129:4138   */\n      dup4\n        /* \"#utility.yul\":4125:4143   */\n      add\n        /* \"#utility.yul\":4116:4122   */\n      dup5\n        /* \"#utility.yul\":4072:4144   */\n      tag_120\n      jump\t// in\n    tag_167:\n        /* \"#utility.yul\":3819:4151   */\n      swap4\n      swap3\n      pop\n      pop\n      pop\n      jump\t// out\n        /* \"#utility.yul\":4157:4337   */\n    tag_50:\n        /* \"#utility.yul\":4205:4282   */\n      0x4e487b7100000000000000000000000000000000000000000000000000000000\n        /* \"#utility.yul\":4202:4203   */\n      0x00\n        /* \"#utility.yul\":4195:4283   */\n      mstore\n        /* \"#utility.yul\":4302:4306   */\n      0x01\n        /* \"#utility.yul\":4299:4300   */\n      0x04\n        /* \"#utility.yul\":4292:4307   */\n      mstore\n        /* \"#utility.yul\":4326:4330   */\n      0x24\n        /* \"#utility.yul\":4323:4324   */\n      0x00\n        /* \"#utility.yul\":4316:4331   */\n      revert\n        /* \"#utility.yul\":4343:4523   */\n    tag_121:\n        /* \"#utility.yul\":4391:4468   */\n      0x4e487b7100000000000000000000000000000000000000000000000000000000\n        /* \"#utility.yul\":4388:4389   */\n      0x00\n        /* \"#utility.yul\":4381:4469   */\n      mstore\n        /* \"#utility.yul\":4488:4492   */\n      0x11\n        /* \"#utility.yul\":4485:4486   */\n      0x04\n        /* \"#utility.yul\":4478:4493   */\n      mstore\n        /* \"#utility.yul\":4512:4516   */\n      0x24\n        /* \"#utility.yul\":4509:4510   */\n      0x00\n        /* \"#utility.yul\":4502:4517   */\n      revert\n        /* \"#utility.yul\":4529:4762   */\n    tag_81:\n        /* \"#utility.yul\":4568:4571   */\n      0x00\n        /* \"#utility.yul\":4591:4615   */\n      tag_171\n        /* \"#utility.yul\":4609:4614   */\n      dup3\n        /* \"#utility.yul\":4591:4615   */\n      tag_104\n      jump\t// in\n    tag_171:\n        /* \"#utility.yul\":4582:4615   */\n      swap2\n      pop\n        /* \"#utility.yul\":4637:4703   */\n      0xffffffffffffffffffffffffffffffffffffffffffffffffffffffffffffffff\n        /* \"#utility.yul\":4630:4635   */\n      dup3\n        /* \"#utility.yul\":4627:4704   */\n      sub\n        /* \"#utility.yul\":4624:4727   */\n      tag_172\n      jumpi\n        /* \"#utility.yul\":4707:4725   */\n      tag_173\n      tag_121\n      jump\t// in\n    tag_173:\n        /* \"#utility.yul\":4624:4727   */\n    tag_172:\n        /* \"#utility.yul\":4754:4755   */\n      0x01\n        /* \"#utility.yul\":4747:4752   */\n      dup3\n        /* \"#utility.yul\":4743:4756   */\n      add\n        /* \"#utility.yul\":4736:4756   */\n      swap1\n      pop\n        /* \"#utility.yul\":4529:4762   */\n      swap2\n      swap1\n      pop\n      jump\t// out\n        /* \"#utility.yul\":4768:4948   */\n    tag_122:\n        /* \"#utility.yul\":4816:4893   */\n      0x4e487b7100000000000000000000000000000000000000000000000000000000\n        /* \"#utility.yul\":4813:4814   */\n      0x00\n        /* \"#utility.yul\":4806:4894   */\n      mstore\n        /* \"#utility.yul\":4913:4917   */\n      0x12\n        /* \"#utility.yul\":4910:4911   */\n      0x04\n        /* \"#utility.yul\":4903:4918   */\n      mstore\n        /* \"#utility.yul\":4937:4941   */\n      0x24\n        /* \"#utility.yul\":4934:4935   */\n      0x00\n        /* \"#utility.yul\":4927:4942   */\n      revert\n        /* \"#utility.yul\":4954:5139   */\n    tag_83:\n        /* \"#utility.yul\":4994:4995   */\n      0x00\n        /* \"#utility.yul\":5011:5031   */\n      tag_176\n        /* \"#utility.yul\":5029:5030   */\n      dup3\n        /* \"#utility.yul\":5011:5031   */\n      tag_104\n      jump\t// in\n    tag_176:\n        /* \"#utility.yul\":5006:5031   */\n      swap2\n      pop\n        /* \"#utility.yul\":5045:5065   */\n      tag_177\n        /* \"#utility.yul\":5063:5064   */\n      dup4\n        /* \"#utility.yul\":5045:5065   */\n      tag_104\n      jump\t// in\n    tag_177:\n        /* \"#utility.yul\":5040:5065   */\n      swap3\n      pop\n        /* \"#utility.yul\":5084:5085   */\n      dup3\n        /* \"#utility.yul\":5074:5109   */\n      tag_178\n      jumpi\n        /* \"#utility.yul\":5089:5107   */\n      tag_179\n      tag_122\n      jump\t// in\n    tag_179:\n        /* \"#utility.yul\":5074:5109   */\n    tag_178:\n        /* \"#utility.yul\":5131:5132   */\n      dup3\n        /* \"#utility.yul\":5128:5129   */\n      dup3\n        /* \"#utility.yul\":5124:5133   */\n      div\n        /* \"#utility.yul\":5119:5133   */\n      swap1\n      pop\n        /* \"#utility.yul\":4954:5139   */\n      swap3\n      swap2\n      pop\n      pop\n      jump\t// out\n        /* \"#utility.yul\":5145:5325   */\n    tag_86:\n        /* \"#utility.yul\":5193:5270   */\n      0x4e487b7100000000000000000000000000000000000000000000000000000000\n        /* \"#utility.yul\":5190:5191   */\n      0x00\n        /* \"#utility.yul\":5183:5271   */\n      mstore\n        /* \"#utility.yul\":5290:5294   */\n      0x41\n        /* \"#utility.yul\":5287:5288   */\n      0x04\n        /* \"#utility.yul\":5280:5295   */\n      mstore\n        /* \"#utility.yul\":5314:5318   */\n      0x24\n        /* \"#utility.yul\":5311:5312   */\n      0x00\n        /* \"#utility.yul\":5304:5319   */\n      revert\n        /* \"#utility.yul\":5331:5525   */\n    tag_89:\n        /* \"#utility.yul\":5371:5375   */\n      0x00\n        /* \"#utility.yul\":5391:5411   */\n      tag_182\n        /* \"#utility.yul\":5409:5410   */\n      dup3\n        /* \"#utility.yul\":5391:5411   */\n      tag_104\n      jump\t// in\n    tag_182:\n        /* \"#utility.yul\":5386:5411   */\n      swap2\n      pop\n        /* \"#utility.yul\":5425:5445   */\n      tag_183\n        /* \"#utility.yul\":5443:5444   */\n      dup4\n        /* \"#utility.yul\":5425:5445   */\n      tag_104\n      jump\t// in\n    tag_183:\n        /* \"#utility.yul\":5420:5445   */\n      swap3\n      pop\n        /* \"#utility.yul\":5469:5470   */\n      dup3\n        /* \"#utility.yul\":5466:5467   */\n      dup3\n        /* \"#utility.yul\":5462:5471   */\n      sub\n        /* \"#utility.yul\":5454:5471   */\n      swap1\n      pop\n        /* \"#utility.yul\":5493:5494   */\n      dup2\n        /* \"#utility.yul\":5487:5491   */\n      dup2\n        /* \"#utility.yul\":5484:5495   */\n      gt\n        /* \"#utility.yul\":5481:5518   */\n      iszero\n      tag_184\n      jumpi\n        /* \"#utility.yul\":5498:5516   */\n      tag_185\n      tag_121\n      jump\t// in\n    tag_185:\n        /* \"#utility.yul\":5481:5518   */\n    tag_184:\n        /* \"#utility.yul\":5331:5525   */\n      swap3\n      swap2\n      pop\n      pop\n      jump\t// out\n        /* \"#utility.yul\":5531:5707   */\n    tag_94:\n        /* \"#utility.yul\":5563:5564   */\n      0x00\n        /* \"#utility.yul\":5580:5600   */\n      tag_187\n        /* \"#utility.yul\":5598:5599   */\n      dup3\n        /* \"#utility.yul\":5580:5600   */\n      tag_104\n      jump\t// in\n    tag_187:\n        /* \"#utility.yul\":5575:5600   */\n      swap2\n      pop\n        /* \"#utility.yul\":5614:5634   */\n      tag_188\n        /* \"#utility.yul\":5632:5633   */\n      dup4\n        /* \"#utility.yul\":5614:5634   */\n      tag_104\n      jump\t// in\n    tag_188:\n        /* \"#utility.yul\":5609:5634   */\n      swap3\n      pop\n        /* \"#utility.yul\":5653:5654   */\n      dup3\n        /* \"#utility.yul\":5643:5678   */\n      tag_189\n      jumpi\n        /* \"#utility.yul\":5658:5676   */\n      tag_190\n      tag_122\n      jump\t// in\n    tag_190:\n        /* \"#utility.yul\":5643:5678   */\n    tag_189:\n        /* \"#utility.yul\":5699:5700   */\n      dup3\n        /* \"#utility.yul\":5696:5697   */\n      dup3\n        /* \"#utility.yul\":5692:5701   */\n      mod\n        /* \"#utility.yul\":5687:5701   */\n      swap1\n      pop\n        /* \"#utility.yul\":5531:5707   */\n      swap3\n      swap2\n      pop\n      pop\n      jump\t// out\n        /* \"#utility.yul\":5713:5904   */\n    tag_96:\n        /* \"#utility.yul\":5753:5756   */\n      0x00\n        /* \"#utility.yul\":5772:5792   */\n      tag_192\n        /* \"#utility.yul\":5790:5791   */\n      dup3\n        /* \"#utility.yul\":5772:5792   */\n      tag_104\n      jump\t// in\n    tag_192:\n        /* \"#utility.yul\":5767:5792   */\n      swap2\n      pop\n        /* \"#utility.yul\":5806:5826   */\n      tag_193\n        /* \"#utility.yul\":5824:5825   */\n      dup4\n        /* \"#utility.yul\":5806:5826   */\n      tag_104\n      jump\t// in\n    tag_193:\n        /* \"#utility.yul\":5801:5826   */\n      swap3\n      pop\n        /* \"#utility.yul\":5849:5850   */\n      dup3\n        /* \"#utility.yul\":5846:5847   */\n      dup3\n        /* \"#utility.yul\":5842:5851   */\n      add\n        /* \"#utility.yul\":5835:5851   */\n      swap1\n      pop\n        /* \"#utility.yul\":5870:5873   */\n      dup1\n        /* \"#utility.yul\":5867:5868   */\n      dup3\n        /* \"#utility.yul\":5864:5874   */\n      gt\n        /* \"#utility.yul\":5861:5897   */\n      iszero\n      tag_194\n      jumpi\n        /* \"#utility.yul\":5877:5895   */\n      tag_195\n      tag_121\n      jump\t// in\n    tag_195:\n        /* \"#utility.yul\":5861:5897   */\n    tag_194:\n        /* \"#utility.yul\":5713:5904   */\n      swap3\n      swap2\n      pop\n      pop\n      jump\t// out\n        /* \"#utility.yul\":5910:6090   */\n    tag_99:\n        /* \"#utility.yul\":5958:6035   */\n      0x4e487b7100000000000000000000000000000000000000000000000000000000\n        /* \"#utility.yul\":5955:5956   */\n      0x00\n        /* \"#utility.yul\":5948:6036   */\n      mstore\n        /* \"#utility.yul\":6055:6059   */\n      0x32\n        /* \"#utility.yul\":6052:6053   */\n      0x04\n        /* \"#utility.yul\":6045:6060   */\n      mstore\n        /* \"#utility.yul\":6079:6083   */\n      0x24\n        /* \"#utility.yul\":6076:6077   */\n      0x00\n        /* \"#utility.yul\":6069:6084   */\n      revert\n        /* \"#utility.yul\":6096:6267   */\n    tag_102:\n        /* \"#utility.yul\":6135:6138   */\n      0x00\n        /* \"#utility.yul\":6158:6182   */\n      tag_198\n        /* \"#utility.yul\":6176:6181   */\n      dup3\n        /* \"#utility.yul\":6158:6182   */\n      tag_104\n      jump\t// in\n    tag_198:\n        /* \"#utility.yul\":6149:6182   */\n      swap2\n      pop\n        /* \"#utility.yul\":6204:6208   */\n      0x00\n        /* \"#utility.yul\":6197:6202   */\n      dup3\n        /* \"#utility.yul\":6194:6209   */\n      sub\n        /* \"#utility.yul\":6191:6232   */\n      tag_199\n      jumpi\n        /* \"#utility.yul\":6212:6230   */\n      tag_200\n      tag_121\n      jump\t// in\n    tag_200:\n        /* \"#utility.yul\":6191:6232   */\n    tag_199:\n        /* \"#utility.yul\":6259:6260   */\n      0x01\n        /* \"#utility.yul\":6252:6257   */\n      dup3\n        /* \"#utility.yul\":6248:6261   */\n      sub\n        /* \"#utility.yul\":6241:6261   */\n      swap1\n      pop\n        /* \"#utility.yul\":6096:6267   */\n      swap2\n      swap1\n      pop\n      jump\t// out\n\n    auxdata: 0xa2646970667358221220276da9b36b03fe5b7f04ad3f1132ce4037eec8327dbadb4fb19835c122a53e6764736f6c634300081a0033\n}\n",
				"bytecode": {
					"linkReferences": {},
					"object": "608060405263400000005f556340000000600155348015601d575f80fd5b506109418061002b5f395ff3fe608060405234801561000f575f80fd5b506004361061009c575f3560e01c80637048a82b116100645780637048a82b146100e657806378e96d4d14610116578063797f369614610120578063b5d499d01461013e578063fa462c46146101485761009c565b806309d97dda146100a057806310b300cf146100be578063324224c2146100c85780635a748376146100d25780635b9dbef7146100dc575b5f80fd5b6100a8610152565b6040516100b5919061052a565b60405180910390f35b6100c6610157565b005b6100d06101e1565b005b6100da610228565b005b6100e4610284565b005b61010060048036038101906100fb9190610571565b6102c6565b60405161010d919061060c565b60405180910390f35b61011e6102d8565b005b610128610317565b604051610135919061052a565b60405180910390f35b610146610320565b005b61015061035e565b005b5f5481565b5f600190505f6040518060400160405280600881526020017f536f6c696469747900000000000000000000000000000000000000000000000081525090505f80634000000090507ffacad1dae4aae87c504b27f3a0758158e6782624fe949f45b92fa6c4adce4655848484846040516101d39493929190610685565b60405180910390a150505050565b5f3390505f61010190507fe46c3d457b890ecba898505ee58d1ffcd1e8a24468d61c92651f8c38595fd571828260405161021c9291906106cf565b60405180910390a15050565b60018014610239576102386106f6565b5b603c801461024a576102496106f6565b5b610e10801461025c5761025b6106f6565b5b62015180801461026f5761026e6106f6565b5b62093a808014610282576102816106f6565b5b565b5f634000000090507f710b0da34544b4c614537e6a8b1aec86a8c12667d89c805eb3394b587f8f7ab9816040516102bb919061052a565b60405180910390a150565b60606102d1826103a4565b9050919050565b600180146102e9576102e86106f6565b5b633b9aca0080146102fd576102fc6106f6565b5b670de0b6b3a76400008014610315576103146106f6565b5b565b5f600154905090565b5f4390507f710b0da34544b4c614537e6a8b1aec86a8c12667d89c805eb3394b587f8f7ab981604051610353919061052a565b60405180910390a150565b63400000006002819055507f710b0da34544b4c614537e6a8b1aec86a8c12667d89c805eb3394b587f8f7ab960025460405161039a919061052a565b60405180910390a1565b60605f82036103ea576040518060400160405280600181526020017f3000000000000000000000000000000000000000000000000000000000000000815250905061050d565b5f8290505f5b5f821461041957808061040290610750565b915050600a8261041291906107c4565b91506103f0565b5f8167ffffffffffffffff811115610434576104336107f4565b5b6040519080825280601f01601f1916602001820160405280156104665781602001600182028036833780820191505090505b5090505f6001836104779190610821565b90505b600a866104879190610854565b60306104939190610884565b60f81b8282815181106104a9576104a86108b7565b5b60200101907effffffffffffffffffffffffffffffffffffffffffffffffffffffffffffff191690815f1a9053505f8103156105055780806104ea906108e4565b915050600a866104fa91906107c4565b95505f81101561047a575b819450505050505b919050565b5f819050919050565b61052481610512565b82525050565b5f60208201905061053d5f83018461051b565b92915050565b5f80fd5b61055081610512565b811461055a575f80fd5b50565b5f8135905061056b81610547565b92915050565b5f6020828403121561058657610585610543565b5b5f6105938482850161055d565b91505092915050565b5f81519050919050565b5f82825260208201905092915050565b8281835e5f83830152505050565b5f601f19601f8301169050919050565b5f6105de8261059c565b6105e881856105a6565b93506105f88185602086016105b6565b610601816105c4565b840191505092915050565b5f6020820190508181035f83015261062481846105d4565b905092915050565b5f8115159050919050565b6106408161062c565b82525050565b5f73ffffffffffffffffffffffffffffffffffffffff82169050919050565b5f61066f82610646565b9050919050565b61067f81610665565b82525050565b5f6080820190506106985f830187610637565b81810360208301526106aa81866105d4565b90506106b96040830185610676565b6106c6606083018461051b565b95945050505050565b5f6040820190506106e25f830185610676565b6106ef6020830184610676565b9392505050565b7f4e487b71000000000000000000000000000000000000000000000000000000005f52600160045260245ffd5b7f4e487b71000000000000000000000000000000000000000000000000000000005f52601160045260245ffd5b5f61075a82610512565b91507fffffffffffffffffffffffffffffffffffffffffffffffffffffffffffffffff820361078c5761078b610723565b5b600182019050919050565b7f4e487b71000000000000000000000000000000000000000000000000000000005f52601260045260245ffd5b5f6107ce82610512565b91506107d983610512565b9250826107e9576107e8610797565b5b828204905092915050565b7f4e487b71000000000000000000000000000000000000000000000000000000005f52604160045260245ffd5b5f61082b82610512565b915061083683610512565b925082820390508181111561084e5761084d610723565b5b92915050565b5f61085e82610512565b915061086983610512565b92508261087957610878610797565b5b828206905092915050565b5f61088e82610512565b915061089983610512565b92508282019050808211156108b1576108b0610723565b5b92915050565b7f4e487b71000000000000000000000000000000000000000000000000000000005f52603260045260245ffd5b5f6108ee82610512565b91505f8203610900576108ff610723565b5b60018203905091905056fea2646970667358221220276da9b36b03fe5b7f04ad3f1132ce4037eec8327dbadb4fb19835c122a53e6764736f6c634300081a0033",
					"opcodes": "PUSH1 0x80 PUSH1 0x40 MSTORE PUSH4 0x40000000 PUSH0 SSTORE PUSH4 0x40000000 PUSH1 0x1 SSTORE CALLVALUE DUP1 ISZERO PUSH1 0x1D JUMPI PUSH0 DUP1 REVERT JUMPDEST POP PUSH2 0x941 DUP1 PUSH2 0x2B PUSH0 CODECOPY PUSH0 RETURN INVALID PUSH1 0x80 PUSH1 0x40 MSTORE CALLVALUE DUP1 ISZERO PUSH2 0xF JUMPI PUSH0 DUP1 REVERT JUMPDEST POP PUSH1 0x4 CALLDATASIZE LT PUSH2 0x9C JUMPI PUSH0 CALLDATALOAD PUSH1 0xE0 SHR DUP1 PUSH4 0x7048A82B GT PUSH2 0x64 JUMPI DUP1 PUSH4 0x7048A82B EQ PUSH2 0xE6 JUMPI DUP1 PUSH4 0x78E96D4D EQ PUSH2 0x116 JUMPI DUP1 PUSH4 0x797F3696 EQ PUSH2 0x120 JUMPI DUP1 PUSH4 0xB5D499D0 EQ PUSH2 0x13E JUMPI DUP1 PUSH4 0xFA462C46 EQ PUSH2 0x148 JUMPI PUSH2 0x9C JUMP JUMPDEST DUP1 PUSH4 0x9D97DDA EQ PUSH2 0xA0 JUMPI DUP1 PUSH4 0x10B300CF EQ PUSH2 0xBE JUMPI DUP1 PUSH4 0x324224C2 EQ PUSH2 0xC8 JUMPI DUP1 PUSH4 0x5A748376 EQ PUSH2 0xD2 JUMPI DUP1 PUSH4 0x5B9DBEF7 EQ PUSH2 0xDC JUMPI JUMPDEST PUSH0 DUP1 REVERT JUMPDEST PUSH2 0xA8 PUSH2 0x152 JUMP JUMPDEST PUSH1 0x40 MLOAD PUSH2 0xB5 SWAP2 SWAP1 PUSH2 0x52A JUMP JUMPDEST PUSH1 0x40 MLOAD DUP1 SWAP2 SUB SWAP1 RETURN JUMPDEST PUSH2 0xC6 PUSH2 0x157 JUMP JUMPDEST STOP JUMPDEST PUSH2 0xD0 PUSH2 0x1E1 JUMP JUMPDEST STOP JUMPDEST PUSH2 0xDA PUSH2 0x228 JUMP JUMPDEST STOP JUMPDEST PUSH2 0xE4 PUSH2 0x284 JUMP JUMPDEST STOP JUMPDEST PUSH2 0x100 PUSH1 0x4 DUP1 CALLDATASIZE SUB DUP2 ADD SWAP1 PUSH2 0xFB SWAP2 SWAP1 PUSH2 0x571 JUMP JUMPDEST PUSH2 0x2C6 JUMP JUMPDEST PUSH1 0x40 MLOAD PUSH2 0x10D SWAP2 SWAP1 PUSH2 0x60C JUMP JUMPDEST PUSH1 0x40 MLOAD DUP1 SWAP2 SUB SWAP1 RETURN JUMPDEST PUSH2 0x11E PUSH2 0x2D8 JUMP JUMPDEST STOP JUMPDEST PUSH2 0x128 PUSH2 0x317 JUMP JUMPDEST PUSH1 0x40 MLOAD PUSH2 0x135 SWAP2 SWAP1 PUSH2 0x52A JUMP JUMPDEST PUSH1 0x40 MLOAD DUP1 SWAP2 SUB SWAP1 RETURN JUMPDEST PUSH2 0x146 PUSH2 0x320 JUMP JUMPDEST STOP JUMPDEST PUSH2 0x150 PUSH2 0x35E JUMP JUMPDEST STOP JUMPDEST PUSH0 SLOAD DUP2 JUMP JUMPDEST PUSH0 PUSH1 0x1 SWAP1 POP PUSH0 PUSH1 0x40 MLOAD DUP1 PUSH1 0x40 ADD PUSH1 0x40 MSTORE DUP1 PUSH1 0x8 DUP2 MSTORE PUSH1 0x20 ADD PUSH32 0x536F6C6964697479000000000000000000000000000000000000000000000000 DUP2 MSTORE POP SWAP1 POP PUSH0 DUP1 PUSH4 0x40000000 SWAP1 POP PUSH32 0xFACAD1DAE4AAE87C504B27F3A0758158E6782624FE949F45B92FA6C4ADCE4655 DUP5 DUP5 DUP5 DUP5 PUSH1 0x40 MLOAD PUSH2 0x1D3 SWAP5 SWAP4 SWAP3 SWAP2 SWAP1 PUSH2 0x685 JUMP JUMPDEST PUSH1 0x40 MLOAD DUP1 SWAP2 SUB SWAP1 LOG1 POP POP POP POP JUMP JUMPDEST PUSH0 CALLER SWAP1 POP PUSH0 PUSH2 0x101 SWAP1 POP PUSH32 0xE46C3D457B890ECBA898505EE58D1FFCD1E8A24468D61C92651F8C38595FD571 DUP3 DUP3 PUSH1 0x40 MLOAD PUSH2 0x21C SWAP3 SWAP2 SWAP1 PUSH2 0x6CF JUMP JUMPDEST PUSH1 0x40 MLOAD DUP1 SWAP2 SUB SWAP1 LOG1 POP POP JUMP JUMPDEST PUSH1 0x1 DUP1 EQ PUSH2 0x239 JUMPI PUSH2 0x238 PUSH2 0x6F6 JUMP JUMPDEST JUMPDEST PUSH1 0x3C DUP1 EQ PUSH2 0x24A JUMPI PUSH2 0x249 PUSH2 0x6F6 JUMP JUMPDEST JUMPDEST PUSH2 0xE10 DUP1 EQ PUSH2 0x25C JUMPI PUSH2 0x25B PUSH2 0x6F6 JUMP JUMPDEST JUMPDEST PUSH3 0x15180 DUP1 EQ PUSH2 0x26F JUMPI PUSH2 0x26E PUSH2 0x6F6 JUMP JUMPDEST JUMPDEST PUSH3 0x93A80 DUP1 EQ PUSH2 0x282 JUMPI PUSH2 0x281 PUSH2 0x6F6 JUMP JUMPDEST JUMPDEST JUMP JUMPDEST PUSH0 PUSH4 0x40000000 SWAP1 POP PUSH32 0x710B0DA34544B4C614537E6A8B1AEC86A8C12667D89C805EB3394B587F8F7AB9 DUP2 PUSH1 0x40 MLOAD PUSH2 0x2BB SWAP2 SWAP1 PUSH2 0x52A JUMP JUMPDEST PUSH1 0x40 MLOAD DUP1 SWAP2 SUB SWAP1 LOG1 POP JUMP JUMPDEST PUSH1 0x60 PUSH2 0x2D1 DUP3 PUSH2 0x3A4 JUMP JUMPDEST SWAP1 POP SWAP2 SWAP1 POP JUMP JUMPDEST PUSH1 0x1 DUP1 EQ PUSH2 0x2E9 JUMPI PUSH2 0x2E8 PUSH2 0x6F6 JUMP JUMPDEST JUMPDEST PUSH4 0x3B9ACA00 DUP1 EQ PUSH2 0x2FD JUMPI PUSH2 0x2FC PUSH2 0x6F6 JUMP JUMPDEST JUMPDEST PUSH8 0xDE0B6B3A7640000 DUP1 EQ PUSH2 0x315 JUMPI PUSH2 0x314 PUSH2 0x6F6 JUMP JUMPDEST JUMPDEST JUMP JUMPDEST PUSH0 PUSH1 0x1 SLOAD SWAP1 POP SWAP1 JUMP JUMPDEST PUSH0 NUMBER SWAP1 POP PUSH32 0x710B0DA34544B4C614537E6A8B1AEC86A8C12667D89C805EB3394B587F8F7AB9 DUP2 PUSH1 0x40 MLOAD PUSH2 0x353 SWAP2 SWAP1 PUSH2 0x52A JUMP JUMPDEST PUSH1 0x40 MLOAD DUP1 SWAP2 SUB SWAP1 LOG1 POP JUMP JUMPDEST PUSH4 0x40000000 PUSH1 0x2 DUP2 SWAP1 SSTORE POP PUSH32 0x710B0DA34544B4C614537E6A8B1AEC86A8C12667D89C805EB3394B587F8F7AB9 PUSH1 0x2 SLOAD PUSH1 0x40 MLOAD PUSH2 0x39A SWAP2 SWAP1 PUSH2 0x52A JUMP JUMPDEST PUSH1 0x40 MLOAD DUP1 SWAP2 SUB SWAP1 LOG1 JUMP JUMPDEST PUSH1 0x60 PUSH0 DUP3 SUB PUSH2 0x3EA JUMPI PUSH1 0x40 MLOAD DUP1 PUSH1 0x40 ADD PUSH1 0x40 MSTORE DUP1 PUSH1 0x1 DUP2 MSTORE PUSH1 0x20 ADD PUSH32 0x3000000000000000000000000000000000000000000000000000000000000000 DUP2 MSTORE POP SWAP1 POP PUSH2 0x50D JUMP JUMPDEST PUSH0 DUP3 SWAP1 POP PUSH0 JUMPDEST PUSH0 DUP3 EQ PUSH2 0x419 JUMPI DUP1 DUP1 PUSH2 0x402 SWAP1 PUSH2 0x750 JUMP JUMPDEST SWAP2 POP POP PUSH1 0xA DUP3 PUSH2 0x412 SWAP2 SWAP1 PUSH2 0x7C4 JUMP JUMPDEST SWAP2 POP PUSH2 0x3F0 JUMP JUMPDEST PUSH0 DUP2 PUSH8 0xFFFFFFFFFFFFFFFF DUP2 GT ISZERO PUSH2 0x434 JUMPI PUSH2 0x433 PUSH2 0x7F4 JUMP JUMPDEST JUMPDEST PUSH1 0x40 MLOAD SWAP1 DUP1 DUP3 MSTORE DUP1 PUSH1 0x1F ADD PUSH1 0x1F NOT AND PUSH1 0x20 ADD DUP3 ADD PUSH1 0x40 MSTORE DUP1 ISZERO PUSH2 0x466 JUMPI DUP2 PUSH1 0x20 ADD PUSH1 0x1 DUP3 MUL DUP1 CALLDATASIZE DUP4 CALLDATACOPY DUP1 DUP3 ADD SWAP2 POP POP SWAP1 POP JUMPDEST POP SWAP1 POP PUSH0 PUSH1 0x1 DUP4 PUSH2 0x477 SWAP2 SWAP1 PUSH2 0x821 JUMP JUMPDEST SWAP1 POP JUMPDEST PUSH1 0xA DUP7 PUSH2 0x487 SWAP2 SWAP1 PUSH2 0x854 JUMP JUMPDEST PUSH1 0x30 PUSH2 0x493 SWAP2 SWAP1 PUSH2 0x884 JUMP JUMPDEST PUSH1 0xF8 SHL DUP3 DUP3 DUP2 MLOAD DUP2 LT PUSH2 0x4A9 JUMPI PUSH2 0x4A8 PUSH2 0x8B7 JUMP JUMPDEST JUMPDEST PUSH1 0x20 ADD ADD SWAP1 PUSH31 0xFFFFFFFFFFFFFFFFFFFFFFFFFFFFFFFFFFFFFFFFFFFFFFFFFFFFFFFFFFFFFF NOT AND SWAP1 DUP2 PUSH0 BYTE SWAP1 MSTORE8 POP PUSH0 DUP2 SUB ISZERO PUSH2 0x505 JUMPI DUP1 DUP1 PUSH2 0x4EA SWAP1 PUSH2 0x8E4 JUMP JUMPDEST SWAP2 POP POP PUSH1 0xA DUP7 PUSH2 0x4FA SWAP2 SWAP1 PUSH2 0x7C4 JUMP JUMPDEST SWAP6 POP PUSH0 DUP2 LT ISZERO PUSH2 0x47A JUMPI JUMPDEST DUP2 SWAP5 POP POP POP POP POP JUMPDEST SWAP2 SWAP1 POP JUMP JUMPDEST PUSH0 DUP2 SWAP1 POP SWAP2 SWAP1 POP JUMP JUMPDEST PUSH2 0x524 DUP2 PUSH2 0x512 JUMP JUMPDEST DUP3 MSTORE POP POP JUMP JUMPDEST PUSH0 PUSH1 0x20 DUP3 ADD SWAP1 POP PUSH2 0x53D PUSH0 DUP4 ADD DUP5 PUSH2 0x51B JUMP JUMPDEST SWAP3 SWAP2 POP POP JUMP JUMPDEST PUSH0 DUP1 REVERT JUMPDEST PUSH2 0x550 DUP2 PUSH2 0x512 JUMP JUMPDEST DUP2 EQ PUSH2 0x55A JUMPI PUSH0 DUP1 REVERT JUMPDEST POP JUMP JUMPDEST PUSH0 DUP2 CALLDATALOAD SWAP1 POP PUSH2 0x56B DUP2 PUSH2 0x547 JUMP JUMPDEST SWAP3 SWAP2 POP POP JUMP JUMPDEST PUSH0 PUSH1 0x20 DUP3 DUP5 SUB SLT ISZERO PUSH2 0x586 JUMPI PUSH2 0x585 PUSH2 0x543 JUMP JUMPDEST JUMPDEST PUSH0 PUSH2 0x593 DUP5 DUP3 DUP6 ADD PUSH2 0x55D JUMP JUMPDEST SWAP2 POP POP SWAP3 SWAP2 POP POP JUMP JUMPDEST PUSH0 DUP2 MLOAD SWAP1 POP SWAP2 SWAP1 POP JUMP JUMPDEST PUSH0 DUP3 DUP3 MSTORE PUSH1 0x20 DUP3 ADD SWAP1 POP SWAP3 SWAP2 POP POP JUMP JUMPDEST DUP3 DUP2 DUP4 MCOPY PUSH0 DUP4 DUP4 ADD MSTORE POP POP POP JUMP JUMPDEST PUSH0 PUSH1 0x1F NOT PUSH1 0x1F DUP4 ADD AND SWAP1 POP SWAP2 SWAP1 POP JUMP JUMPDEST PUSH0 PUSH2 0x5DE DUP3 PUSH2 0x59C JUMP JUMPDEST PUSH2 0x5E8 DUP2 DUP6 PUSH2 0x5A6 JUMP JUMPDEST SWAP4 POP PUSH2 0x5F8 DUP2 DUP6 PUSH1 0x20 DUP7 ADD PUSH2 0x5B6 JUMP JUMPDEST PUSH2 0x601 DUP2 PUSH2 0x5C4 JUMP JUMPDEST DUP5 ADD SWAP2 POP POP SWAP3 SWAP2 POP POP JUMP JUMPDEST PUSH0 PUSH1 0x20 DUP3 ADD SWAP1 POP DUP2 DUP2 SUB PUSH0 DUP4 ADD MSTORE PUSH2 0x624 DUP2 DUP5 PUSH2 0x5D4 JUMP JUMPDEST SWAP1 POP SWAP3 SWAP2 POP POP JUMP JUMPDEST PUSH0 DUP2 ISZERO ISZERO SWAP1 POP SWAP2 SWAP1 POP JUMP JUMPDEST PUSH2 0x640 DUP2 PUSH2 0x62C JUMP JUMPDEST DUP3 MSTORE POP POP JUMP JUMPDEST PUSH0 PUSH20 0xFFFFFFFFFFFFFFFFFFFFFFFFFFFFFFFFFFFFFFFF DUP3 AND SWAP1 POP SWAP2 SWAP1 POP JUMP JUMPDEST PUSH0 PUSH2 0x66F DUP3 PUSH2 0x646 JUMP JUMPDEST SWAP1 POP SWAP2 SWAP1 POP JUMP JUMPDEST PUSH2 0x67F DUP2 PUSH2 0x665 JUMP JUMPDEST DUP3 MSTORE POP POP JUMP JUMPDEST PUSH0 PUSH1 0x80 DUP3 ADD SWAP1 POP PUSH2 0x698 PUSH0 DUP4 ADD DUP8 PUSH2 0x637 JUMP JUMPDEST DUP2 DUP2 SUB PUSH1 0x20 DUP4 ADD MSTORE PUSH2 0x6AA DUP2 DUP7 PUSH2 0x5D4 JUMP JUMPDEST SWAP1 POP PUSH2 0x6B9 PUSH1 0x40 DUP4 ADD DUP6 PUSH2 0x676 JUMP JUMPDEST PUSH2 0x6C6 PUSH1 0x60 DUP4 ADD DUP5 PUSH2 0x51B JUMP JUMPDEST SWAP6 SWAP5 POP POP POP POP POP JUMP JUMPDEST PUSH0 PUSH1 0x40 DUP3 ADD SWAP1 POP PUSH2 0x6E2 PUSH0 DUP4 ADD DUP6 PUSH2 0x676 JUMP JUMPDEST PUSH2 0x6EF PUSH1 0x20 DUP4 ADD DUP5 PUSH2 0x676 JUMP JUMPDEST SWAP4 SWAP3 POP POP POP JUMP JUMPDEST PUSH32 0x4E487B7100000000000000000000000000000000000000000000000000000000 PUSH0 MSTORE PUSH1 0x1 PUSH1 0x4 MSTORE PUSH1 0x24 PUSH0 REVERT JUMPDEST PUSH32 0x4E487B7100000000000000000000000000000000000000000000000000000000 PUSH0 MSTORE PUSH1 0x11 PUSH1 0x4 MSTORE PUSH1 0x24 PUSH0 REVERT JUMPDEST PUSH0 PUSH2 0x75A DUP3 PUSH2 0x512 JUMP JUMPDEST SWAP2 POP PUSH32 0xFFFFFFFFFFFFFFFFFFFFFFFFFFFFFFFFFFFFFFFFFFFFFFFFFFFFFFFFFFFFFFFF DUP3 SUB PUSH2 0x78C JUMPI PUSH2 0x78B PUSH2 0x723 JUMP JUMPDEST JUMPDEST PUSH1 0x1 DUP3 ADD SWAP1 POP SWAP2 SWAP1 POP JUMP JUMPDEST PUSH32 0x4E487B7100000000000000000000000000000000000000000000000000000000 PUSH0 MSTORE PUSH1 0x12 PUSH1 0x4 MSTORE PUSH1 0x24 PUSH0 REVERT JUMPDEST PUSH0 PUSH2 0x7CE DUP3 PUSH2 0x512 JUMP JUMPDEST SWAP2 POP PUSH2 0x7D9 DUP4 PUSH2 0x512 JUMP JUMPDEST SWAP3 POP DUP3 PUSH2 0x7E9 JUMPI PUSH2 0x7E8 PUSH2 0x797 JUMP JUMPDEST JUMPDEST DUP3 DUP3 DIV SWAP1 POP SWAP3 SWAP2 POP POP JUMP JUMPDEST PUSH32 0x4E487B7100000000000000000000000000000000000000000000000000000000 PUSH0 MSTORE PUSH1 0x41 PUSH1 0x4 MSTORE PUSH1 0x24 PUSH0 REVERT JUMPDEST PUSH0 PUSH2 0x82B DUP3 PUSH2 0x512 JUMP JUMPDEST SWAP2 POP PUSH2 0x836 DUP4 PUSH2 0x512 JUMP JUMPDEST SWAP3 POP DUP3 DUP3 SUB SWAP1 POP DUP2 DUP2 GT ISZERO PUSH2 0x84E JUMPI PUSH2 0x84D PUSH2 0x723 JUMP JUMPDEST JUMPDEST SWAP3 SWAP2 POP POP JUMP JUMPDEST PUSH0 PUSH2 0x85E DUP3 PUSH2 0x512 JUMP JUMPDEST SWAP2 POP PUSH2 0x869 DUP4 PUSH2 0x512 JUMP JUMPDEST SWAP3 POP DUP3 PUSH2 0x879 JUMPI PUSH2 0x878 PUSH2 0x797 JUMP JUMPDEST JUMPDEST DUP3 DUP3 MOD SWAP1 POP SWAP3 SWAP2 POP POP JUMP JUMPDEST PUSH0 PUSH2 0x88E DUP3 PUSH2 0x512 JUMP JUMPDEST SWAP2 POP PUSH2 0x899 DUP4 PUSH2 0x512 JUMP JUMPDEST SWAP3 POP DUP3 DUP3 ADD SWAP1 POP DUP1 DUP3 GT ISZERO PUSH2 0x8B1 JUMPI PUSH2 0x8B0 PUSH2 0x723 JUMP JUMPDEST JUMPDEST SWAP3 SWAP2 POP POP JUMP JUMPDEST PUSH32 0x4E487B7100000000000000000000000000000000000000000000000000000000 PUSH0 MSTORE PUSH1 0x32 PUSH1 0x4 MSTORE PUSH1 0x24 PUSH0 REVERT JUMPDEST PUSH0 PUSH2 0x8EE DUP3 PUSH2 0x512 JUMP JUMPDEST SWAP2 POP PUSH0 DUP3 SUB PUSH2 0x900 JUMPI PUSH2 0x8FF PUSH2 0x723 JUMP JUMPDEST JUMPDEST PUSH1 0x1 DUP3 SUB SWAP1 POP SWAP2 SWAP1 POP JUMP INVALID LOG2 PUSH5 0x6970667358 0x22 SLT KECCAK256 0x27 PUSH14 0xA9B36B03FE5B7F04AD3F1132CE40 CALLDATACOPY 0xEE 0xC8 ORIGIN PUSH30 0xBADB4FB19835C122A53E6764736F6C634300081A00330000000000000000 "
				},
				"gasEstimates": {
					"creation": {
						"codeDepositCost": "473800",
						"executionCost": "44720",
						"totalCost": "518520"
					},
					"external": {
						"getInternalStateVariable()": "2476",
						"publicStateVar()": "2425",
						"testAddressType()": "infinite",
						"testEtherUnits()": "234",
						"testGlobalVariable()": "1408",
						"testLocalVariable()": "1432",
						"testMultipleThings(uint256)": "infinite",
						"testStateVariable()": "25633",
						"testTimeUnits()": "325",
						"testTypes()": "infinite"
					}
				},
				"methodIdentifiers": {
					"getInternalStateVariable()": "797f3696",
					"publicStateVar()": "09d97dda",
					"testAddressType()": "324224c2",
					"testEtherUnits()": "78e96d4d",
					"testGlobalVariable()": "b5d499d0",
					"testLocalVariable()": "5b9dbef7",
					"testMultipleThings(uint256)": "7048a82b",
					"testStateVariable()": "fa462c46",
					"testTimeUnits()": "5a748376",
					"testTypes()": "10b300cf"
				}
			},
			"storageLayout": {
				"storage": [
					{
						"astId": 239,
						"contract": "contracts/Basic.sol:DerivedBasic",
						"label": "publicStateVar",
						"offset": 0,
						"slot": "0",
						"type": "t_uint256"
					},
					{
						"astId": 242,
						"contract": "contracts/Basic.sol:DerivedBasic",
						"label": "internalStateVar",
						"offset": 0,
						"slot": "1",
						"type": "t_uint256"
					},
					{
						"astId": 244,
						"contract": "contracts/Basic.sol:DerivedBasic",
						"label": "stateVar",
						"offset": 0,
						"slot": "2",
						"type": "t_uint256"
					}
				],
				"types": {
					"t_uint256": {
						"encoding": "inplace",
						"label": "uint256",
						"numberOfBytes": "32"
					}
				}
			},
			"userdoc": {
				"kind": "user",
				"methods": {},
				"version": 1
			}
		}
	}
}