{
	"contracts/Basic.sol": {
		"DerivedBasic": {
			"abi": [
				{
					"anonymous": false,
					"inputs": [
						{
							"indexed": false,
							"internalType": "address",
							"name": "_sender",
							"type": "address"
						},
						{
							"indexed": false,
							"internalType": "address",
							"name": "_receiver",
							"type": "address"
						}
					],
					"name": "printAddressType",
					"type": "event"
				},
				{
					"anonymous": false,
					"inputs": [
						{
							"indexed": false,
							"internalType": "bool",
							"name": "_boolVal",
							"type": "bool"
						},
						{
							"indexed": false,
							"internalType": "string",
							"name": "_stringVal",
							"type": "string"
						},
						{
							"indexed": false,
							"internalType": "address",
							"name": "_addressVal",
							"type": "address"
						},
						{
							"indexed": false,
							"internalType": "uint256",
							"name": "_uint256Val",
							"type": "uint256"
						}
					],
					"name": "printTypes",
					"type": "event"
				},
				{
					"anonymous": false,
					"inputs": [
						{
							"indexed": false,
							"internalType": "uint256",
							"name": "_var",
							"type": "uint256"
						}
					],
					"name": "printVariable",
					"type": "event"
				},
				{
					"inputs": [
						{
							"internalType": "uint256",
							"name": "_value",
							"type": "uint256"
						}
					],
					"name": "addElementOfDynamicArray",
					"outputs": [],
					"stateMutability": "nonpayable",
					"type": "function"
				},
				{
					"inputs": [
						{
							"internalType": "uint256",
							"name": "",
							"type": "uint256"
						}
					],
					"name": "dynamicArr",
					"outputs": [
						{
							"internalType": "uint256",
							"name": "",
							"type": "uint256"
						}
					],
					"stateMutability": "view",
					"type": "function"
				},
				{
					"inputs": [
						{
							"internalType": "uint256",
							"name": "",
							"type": "uint256"
						}
					],
					"name": "fixedArr",
					"outputs": [
						{
							"internalType": "uint256",
							"name": "",
							"type": "uint256"
						}
					],
					"stateMutability": "view",
					"type": "function"
				},
				{
					"inputs": [
						{
							"internalType": "uint256",
							"name": "_index",
							"type": "uint256"
						}
					],
					"name": "getElementOfDynamicArray",
					"outputs": [
						{
							"internalType": "uint256",
							"name": "",
							"type": "uint256"
						}
					],
					"stateMutability": "view",
					"type": "function"
				},
				{
					"inputs": [
						{
							"internalType": "uint256",
							"name": "_index",
							"type": "uint256"
						}
					],
					"name": "getElementOfFixedArray",
					"outputs": [
						{
							"internalType": "uint256",
							"name": "",
							"type": "uint256"
						}
					],
					"stateMutability": "view",
					"type": "function"
				},
				{
					"inputs": [],
					"name": "getInternalStateVariable",
					"outputs": [
						{
							"internalType": "uint256",
							"name": "",
							"type": "uint256"
						}
					],
					"stateMutability": "view",
					"type": "function"
				},
				{
					"inputs": [],
					"name": "getLengthOfDynamicArray",
					"outputs": [
						{
							"internalType": "uint256",
							"name": "",
							"type": "uint256"
						}
					],
					"stateMutability": "view",
					"type": "function"
				},
				{
					"inputs": [],
					"name": "publicStateVar",
					"outputs": [
						{
							"internalType": "uint256",
							"name": "",
							"type": "uint256"
						}
					],
					"stateMutability": "view",
					"type": "function"
				},
				{
					"inputs": [],
					"name": "removeLastElementOfDynamicArray",
					"outputs": [],
					"stateMutability": "nonpayable",
					"type": "function"
				},
				{
					"inputs": [],
					"name": "testAddressType",
					"outputs": [],
					"stateMutability": "nonpayable",
					"type": "function"
				},
				{
					"inputs": [],
					"name": "testGlobalVariable",
					"outputs": [],
					"stateMutability": "nonpayable",
					"type": "function"
				},
				{
					"inputs": [],
					"name": "testLocalVariable",
					"outputs": [],
					"stateMutability": "nonpayable",
					"type": "function"
				},
				{
					"inputs": [
						{
							"internalType": "uint256",
							"name": "_var",
							"type": "uint256"
						}
					],
					"name": "testMultipleThings",
					"outputs": [
						{
							"internalType": "string",
							"name": "",
							"type": "string"
						}
					],
					"stateMutability": "pure",
					"type": "function"
				},
				{
					"inputs": [],
					"name": "testStateVariable",
					"outputs": [],
					"stateMutability": "nonpayable",
					"type": "function"
				},
				{
					"inputs": [],
					"name": "testTypes",
					"outputs": [],
					"stateMutability": "nonpayable",
					"type": "function"
				}
			],
			"devdoc": {
				"kind": "dev",
				"methods": {},
				"version": 1
			},
			"evm": {
				"assembly": "    /* \"contracts/Basic.sol\":2888:3030  contract DerivedBasic is Basic {... */\n  mstore(0x40, 0x80)\n    /* \"contracts/Basic.sol\":98:133  uint[3] public fixedArr = [1, 2, 3] */\n  mload(0x40)\n  dup1\n  0x60\n  add\n  0x40\n  mstore\n  dup1\n    /* \"contracts/Basic.sol\":125:126  1 */\n  0x01\n    /* \"contracts/Basic.sol\":98:133  uint[3] public fixedArr = [1, 2, 3] */\n  0xff\n  and\n  dup2\n  mstore\n  0x20\n  add\n    /* \"contracts/Basic.sol\":128:129  2 */\n  0x02\n    /* \"contracts/Basic.sol\":98:133  uint[3] public fixedArr = [1, 2, 3] */\n  0xff\n  and\n  dup2\n  mstore\n  0x20\n  add\n    /* \"contracts/Basic.sol\":131:132  3 */\n  0x03\n    /* \"contracts/Basic.sol\":98:133  uint[3] public fixedArr = [1, 2, 3] */\n  0xff\n  and\n  dup2\n  mstore\n  pop\n  0x00\n  swap1\n  0x03\n  tag_1\n  swap3\n  swap2\n  swap1\n  tag_2\n  jump\t// in\ntag_1:\n  pop\n    /* \"contracts/Basic.sol\":1637:1647  1073741824 */\n  0x40000000\n    /* \"contracts/Basic.sol\":1608:1647  uint public publicStateVar = 1073741824 */\n  0x04\n  sstore\n    /* \"contracts/Basic.sol\":1686:1696  1073741824 */\n  0x40000000\n    /* \"contracts/Basic.sol\":1653:1696  uint internal internalStateVar = 1073741824 */\n  0x05\n  sstore\n    /* \"contracts/Basic.sol\":2888:3030  contract DerivedBasic is Basic {... */\n  callvalue\n  dup1\n  iszero\n  tag_3\n  jumpi\n  0x00\n  dup1\n  revert\ntag_3:\n  pop\n  jump(tag_4)\ntag_2:\n  dup3\n  0x03\n  dup2\n  add\n  swap3\n  dup3\n  iszero\n  tag_5\n  jumpi\n  swap2\n  0x20\n  mul\n  dup3\n  add\ntag_6:\n  dup3\n  dup2\n  gt\n  iszero\n  tag_7\n  jumpi\n  dup3\n  mload\n  dup3\n  swap1\n  0xff\n  and\n  swap1\n  sstore\n  swap2\n  0x20\n  add\n  swap2\n  swap1\n  0x01\n  add\n  swap1\n  jump(tag_6)\ntag_7:\ntag_5:\n  pop\n  swap1\n  pop\n  tag_8\n  swap2\n  swap1\n  tag_9\n  jump\t// in\ntag_8:\n  pop\n  swap1\n  jump\t// out\ntag_9:\ntag_10:\n  dup1\n  dup3\n  gt\n  iszero\n  tag_11\n  jumpi\n  0x00\n  dup2\n  0x00\n  swap1\n  sstore\n  pop\n  0x01\n  add\n  jump(tag_10)\ntag_11:\n  pop\n  swap1\n  jump\t// out\ntag_4:\n  dataSize(sub_0)\n  dup1\n  dataOffset(sub_0)\n  0x00\n  codecopy\n  0x00\n  return\nstop\n\nsub_0: assembly {\n        /* \"contracts/Basic.sol\":2888:3030  contract DerivedBasic is Basic {... */\n      mstore(0x40, 0x80)\n      callvalue\n      dup1\n      iszero\n      tag_1\n      jumpi\n      0x00\n      dup1\n      revert\n    tag_1:\n      pop\n      jumpi(tag_2, lt(calldatasize, 0x04))\n      shr(0xe0, calldataload(0x00))\n      dup1\n      0x44abd13f\n      gt\n      tag_18\n      jumpi\n      dup1\n      0x7a540377\n      gt\n      tag_19\n      jumpi\n      dup1\n      0x7a540377\n      eq\n      tag_14\n      jumpi\n      dup1\n      0xb5d499d0\n      eq\n      tag_15\n      jumpi\n      dup1\n      0xbbaff1aa\n      eq\n      tag_16\n      jumpi\n      dup1\n      0xfa462c46\n      eq\n      tag_17\n      jumpi\n      jump(tag_2)\n    tag_19:\n      dup1\n      0x44abd13f\n      eq\n      tag_10\n      jumpi\n      dup1\n      0x5b9dbef7\n      eq\n      tag_11\n      jumpi\n      dup1\n      0x7048a82b\n      eq\n      tag_12\n      jumpi\n      dup1\n      0x797f3696\n      eq\n      tag_13\n      jumpi\n      jump(tag_2)\n    tag_18:\n      dup1\n      0x10b300cf\n      gt\n      tag_20\n      jumpi\n      dup1\n      0x10b300cf\n      eq\n      tag_6\n      jumpi\n      dup1\n      0x2bc09df2\n      eq\n      tag_7\n      jumpi\n      dup1\n      0x324224c2\n      eq\n      tag_8\n      jumpi\n      dup1\n      0x43916eca\n      eq\n      tag_9\n      jumpi\n      jump(tag_2)\n    tag_20:\n      dup1\n      0x03a159a9\n      eq\n      tag_3\n      jumpi\n      dup1\n      0x09d97dda\n      eq\n      tag_4\n      jumpi\n      dup1\n      0x0b5fcf4b\n      eq\n      tag_5\n      jumpi\n    tag_2:\n      0x00\n      dup1\n      revert\n        /* \"contracts/Basic.sol\":140:304  function getElementOfFixedArray(uint _index) public view returns (uint) {... */\n    tag_3:\n      tag_21\n      0x04\n      dup1\n      calldatasize\n      sub\n      dup2\n      add\n      swap1\n      tag_22\n      swap2\n      swap1\n      tag_23\n      jump\t// in\n    tag_22:\n      tag_24\n      jump\t// in\n    tag_21:\n      mload(0x40)\n      tag_25\n      swap2\n      swap1\n      tag_26\n      jump\t// in\n    tag_25:\n      mload(0x40)\n      dup1\n      swap2\n      sub\n      swap1\n      return\n        /* \"contracts/Basic.sol\":1608:1647  uint public publicStateVar = 1073741824 */\n    tag_4:\n      tag_27\n      tag_28\n      jump\t// in\n    tag_27:\n      mload(0x40)\n      tag_29\n      swap2\n      swap1\n      tag_26\n      jump\t// in\n    tag_29:\n      mload(0x40)\n      dup1\n      swap2\n      sub\n      swap1\n      return\n        /* \"contracts/Basic.sol\":445:528  function removeLastElementOfDynamicArray() public {... */\n    tag_5:\n      tag_30\n      tag_31\n      jump\t// in\n    tag_30:\n      stop\n        /* \"contracts/Basic.sol\":2189:2450  function testTypes() public {... */\n    tag_6:\n      tag_32\n      tag_33\n      jump\t// in\n    tag_32:\n      stop\n        /* \"contracts/Basic.sol\":314:338  uint[] public dynamicArr */\n    tag_7:\n      tag_34\n      0x04\n      dup1\n      calldatasize\n      sub\n      dup2\n      add\n      swap1\n      tag_35\n      swap2\n      swap1\n      tag_23\n      jump\t// in\n    tag_35:\n      tag_36\n      jump\t// in\n    tag_34:\n      mload(0x40)\n      tag_37\n      swap2\n      swap1\n      tag_26\n      jump\t// in\n    tag_37:\n      mload(0x40)\n      dup1\n      swap2\n      sub\n      swap1\n      return\n        /* \"contracts/Basic.sol\":2456:2626  function testAddressType() public {... */\n    tag_8:\n      tag_38\n      tag_39\n      jump\t// in\n    tag_38:\n      stop\n        /* \"contracts/Basic.sol\":98:133  uint[3] public fixedArr = [1, 2, 3] */\n    tag_9:\n      tag_40\n      0x04\n      dup1\n      calldatasize\n      sub\n      dup2\n      add\n      swap1\n      tag_41\n      swap2\n      swap1\n      tag_23\n      jump\t// in\n    tag_41:\n      tag_42\n      jump\t// in\n    tag_40:\n      mload(0x40)\n      tag_43\n      swap2\n      swap1\n      tag_26\n      jump\t// in\n    tag_43:\n      mload(0x40)\n      dup1\n      swap2\n      sub\n      swap1\n      return\n        /* \"contracts/Basic.sol\":345:439  function addElementOfDynamicArray(uint _value) public {... */\n    tag_10:\n      tag_44\n      0x04\n      dup1\n      calldatasize\n      sub\n      dup2\n      add\n      swap1\n      tag_45\n      swap2\n      swap1\n      tag_23\n      jump\t// in\n    tag_45:\n      tag_46\n      jump\t// in\n    tag_44:\n      stop\n        /* \"contracts/Basic.sol\":1882:1999  function testLocalVariable() public {... */\n    tag_11:\n      tag_47\n      tag_48\n      jump\t// in\n    tag_47:\n      stop\n        /* \"contracts/Basic.sol\":883:1010  function testMultipleThings(uint _var) public pure returns (string memory) {... */\n    tag_12:\n      tag_49\n      0x04\n      dup1\n      calldatasize\n      sub\n      dup2\n      add\n      swap1\n      tag_50\n      swap2\n      swap1\n      tag_23\n      jump\t// in\n    tag_50:\n      tag_51\n      jump\t// in\n    tag_49:\n      mload(0x40)\n      tag_52\n      swap2\n      swap1\n      tag_53\n      jump\t// in\n    tag_52:\n      mload(0x40)\n      dup1\n      swap2\n      sub\n      swap1\n      return\n        /* \"contracts/Basic.sol\":2925:3028  function getInternalStateVariable() public view returns (uint) {... */\n    tag_13:\n      tag_54\n      tag_55\n      jump\t// in\n    tag_54:\n      mload(0x40)\n      tag_56\n      swap2\n      swap1\n      tag_26\n      jump\t// in\n    tag_56:\n      mload(0x40)\n      dup1\n      swap2\n      sub\n      swap1\n      return\n        /* \"contracts/Basic.sol\":534:637  function getLengthOfDynamicArray() public view returns (uint) {... */\n    tag_14:\n      tag_57\n      tag_58\n      jump\t// in\n    tag_57:\n      mload(0x40)\n      tag_59\n      swap2\n      swap1\n      tag_26\n      jump\t// in\n    tag_59:\n      mload(0x40)\n      dup1\n      swap2\n      sub\n      swap1\n      return\n        /* \"contracts/Basic.sol\":2005:2127  function testGlobalVariable() public {... */\n    tag_15:\n      tag_60\n      tag_61\n      jump\t// in\n    tag_60:\n      stop\n        /* \"contracts/Basic.sol\":643:827  function getElementOfDynamicArray(uint _index) public view returns (uint) {... */\n    tag_16:\n      tag_62\n      0x04\n      dup1\n      calldatasize\n      sub\n      dup2\n      add\n      swap1\n      tag_63\n      swap2\n      swap1\n      tag_23\n      jump\t// in\n    tag_63:\n      tag_64\n      jump\t// in\n    tag_62:\n      mload(0x40)\n      tag_65\n      swap2\n      swap1\n      tag_26\n      jump\t// in\n    tag_65:\n      mload(0x40)\n      dup1\n      swap2\n      sub\n      swap1\n      return\n        /* \"contracts/Basic.sol\":1764:1876  function testStateVariable() public {... */\n    tag_17:\n      tag_66\n      tag_67\n      jump\t// in\n    tag_66:\n      stop\n        /* \"contracts/Basic.sol\":140:304  function getElementOfFixedArray(uint _index) public view returns (uint) {... */\n    tag_24:\n        /* \"contracts/Basic.sol\":206:210  uint */\n      0x00\n        /* \"contracts/Basic.sol\":239:240  3 */\n      0x03\n        /* \"contracts/Basic.sol\":230:236  _index */\n      dup3\n        /* \"contracts/Basic.sol\":230:240  _index < 3 */\n      lt\n        /* \"contracts/Basic.sol\":222:264  require(_index < 3, \"Index out of bounds\") */\n      tag_69\n      jumpi\n      mload(0x40)\n      0x08c379a000000000000000000000000000000000000000000000000000000000\n      dup2\n      mstore\n      0x04\n      add\n      tag_70\n      swap1\n      tag_71\n      jump\t// in\n    tag_70:\n      mload(0x40)\n      dup1\n      swap2\n      sub\n      swap1\n      revert\n    tag_69:\n        /* \"contracts/Basic.sol\":281:289  fixedArr */\n      0x00\n        /* \"contracts/Basic.sol\":290:296  _index */\n      dup3\n        /* \"contracts/Basic.sol\":281:297  fixedArr[_index] */\n      0x03\n      dup2\n      lt\n      tag_72\n      jumpi\n      tag_73\n      tag_74\n      jump\t// in\n    tag_73:\n    tag_72:\n      add\n      sload\n        /* \"contracts/Basic.sol\":274:297  return fixedArr[_index] */\n      swap1\n      pop\n        /* \"contracts/Basic.sol\":140:304  function getElementOfFixedArray(uint _index) public view returns (uint) {... */\n      swap2\n      swap1\n      pop\n      jump\t// out\n        /* \"contracts/Basic.sol\":1608:1647  uint public publicStateVar = 1073741824 */\n    tag_28:\n      sload(0x04)\n      dup2\n      jump\t// out\n        /* \"contracts/Basic.sol\":445:528  function removeLastElementOfDynamicArray() public {... */\n    tag_31:\n        /* \"contracts/Basic.sol\":505:515  dynamicArr */\n      0x03\n        /* \"contracts/Basic.sol\":505:521  dynamicArr.pop() */\n      dup1\n      sload\n      dup1\n      tag_77\n      jumpi\n      tag_78\n      tag_79\n      jump\t// in\n    tag_78:\n    tag_77:\n      0x01\n      swap1\n      sub\n      dup2\n      dup2\n      swap1\n      0x00\n      mstore\n      keccak256(0x00, 0x20)\n      add\n      0x00\n      swap1\n      sstore\n      swap1\n      sstore\n        /* \"contracts/Basic.sol\":445:528  function removeLastElementOfDynamicArray() public {... */\n      jump\t// out\n        /* \"contracts/Basic.sol\":2189:2450  function testTypes() public {... */\n    tag_33:\n        /* \"contracts/Basic.sol\":2227:2239  bool boolVal */\n      0x00\n        /* \"contracts/Basic.sol\":2242:2246  true */\n      0x01\n        /* \"contracts/Basic.sol\":2227:2246  bool boolVal = true */\n      swap1\n      pop\n        /* \"contracts/Basic.sol\":2256:2279  string memory stringVal */\n      0x00\n        /* \"contracts/Basic.sol\":2256:2292  string memory stringVal = \"Solidity\" */\n      mload(0x40)\n      dup1\n      0x40\n      add\n      0x40\n      mstore\n      dup1\n      0x08\n      dup2\n      mstore\n      0x20\n      add\n      0x536f6c6964697479000000000000000000000000000000000000000000000000\n      dup2\n      mstore\n      pop\n      swap1\n      pop\n        /* \"contracts/Basic.sol\":2302:2320  address addressVal */\n      0x00\n        /* \"contracts/Basic.sol\":2343:2361  uint256 uint256Val */\n      dup1\n        /* \"contracts/Basic.sol\":2364:2374  1073741824 */\n      0x40000000\n        /* \"contracts/Basic.sol\":2343:2374  uint256 uint256Val = 1073741824 */\n      swap1\n      pop\n        /* \"contracts/Basic.sol\":2389:2443  printTypes(boolVal, stringVal, addressVal, uint256Val) */\n      0x2f0d85d6e91ffbeb6d7e574372b7160fc892a08b22ca0d25555c17de3f677141\n        /* \"contracts/Basic.sol\":2400:2407  boolVal */\n      dup5\n        /* \"contracts/Basic.sol\":2409:2418  stringVal */\n      dup5\n        /* \"contracts/Basic.sol\":2420:2430  addressVal */\n      dup5\n        /* \"contracts/Basic.sol\":2432:2442  uint256Val */\n      dup5\n        /* \"contracts/Basic.sol\":2389:2443  printTypes(boolVal, stringVal, addressVal, uint256Val) */\n      mload(0x40)\n      tag_82\n      swap5\n      swap4\n      swap3\n      swap2\n      swap1\n      tag_83\n      jump\t// in\n    tag_82:\n      mload(0x40)\n      dup1\n      swap2\n      sub\n      swap1\n      log1\n        /* \"contracts/Basic.sol\":2217:2450  {... */\n      pop\n      pop\n      pop\n      pop\n        /* \"contracts/Basic.sol\":2189:2450  function testTypes() public {... */\n      jump\t// out\n        /* \"contracts/Basic.sol\":314:338  uint[] public dynamicArr */\n    tag_36:\n      0x03\n      dup2\n      dup2\n      sload\n      dup2\n      lt\n      tag_84\n      jumpi\n      0x00\n      dup1\n      revert\n    tag_84:\n      swap1\n      0x00\n      mstore\n      keccak256(0x00, 0x20)\n      add\n      0x00\n      swap2\n      pop\n      swap1\n      pop\n      sload\n      dup2\n      jump\t// out\n        /* \"contracts/Basic.sol\":2456:2626  function testAddressType() public {... */\n    tag_39:\n        /* \"contracts/Basic.sol\":2500:2514  address sender */\n      0x00\n        /* \"contracts/Basic.sol\":2517:2527  msg.sender */\n      caller\n        /* \"contracts/Basic.sol\":2500:2527  address sender = msg.sender */\n      swap1\n      pop\n        /* \"contracts/Basic.sol\":2537:2553  address receiver */\n      0x00\n        /* \"contracts/Basic.sol\":2564:2569  0x101 */\n      0x0101\n        /* \"contracts/Basic.sol\":2537:2570  address receiver = address(0x101) */\n      swap1\n      pop\n        /* \"contracts/Basic.sol\":2585:2619  printAddressType(sender, receiver) */\n      0xf8e6e1fdfb9a814b6dc1c1a93053742f9ae0933e85677a49e3243e4b382c737a\n        /* \"contracts/Basic.sol\":2602:2608  sender */\n      dup3\n        /* \"contracts/Basic.sol\":2610:2618  receiver */\n      dup3\n        /* \"contracts/Basic.sol\":2585:2619  printAddressType(sender, receiver) */\n      mload(0x40)\n      tag_87\n      swap3\n      swap2\n      swap1\n      tag_88\n      jump\t// in\n    tag_87:\n      mload(0x40)\n      dup1\n      swap2\n      sub\n      swap1\n      log1\n        /* \"contracts/Basic.sol\":2490:2626  {... */\n      pop\n      pop\n        /* \"contracts/Basic.sol\":2456:2626  function testAddressType() public {... */\n      jump\t// out\n        /* \"contracts/Basic.sol\":98:133  uint[3] public fixedArr = [1, 2, 3] */\n    tag_42:\n      0x00\n      dup2\n      0x03\n      dup2\n      lt\n      tag_89\n      jumpi\n      0x00\n      dup1\n      revert\n    tag_89:\n      add\n      0x00\n      swap2\n      pop\n      swap1\n      pop\n      sload\n      dup2\n      jump\t// out\n        /* \"contracts/Basic.sol\":345:439  function addElementOfDynamicArray(uint _value) public {... */\n    tag_46:\n        /* \"contracts/Basic.sol\":409:419  dynamicArr */\n      0x03\n        /* \"contracts/Basic.sol\":425:431  _value */\n      dup2\n        /* \"contracts/Basic.sol\":409:432  dynamicArr.push(_value) */\n      swap1\n      dup1\n      0x01\n      dup2\n      sload\n      add\n      dup1\n      dup3\n      sstore\n      dup1\n      swap2\n      pop\n      pop\n      0x01\n      swap1\n      sub\n      swap1\n      0x00\n      mstore\n      keccak256(0x00, 0x20)\n      add\n      0x00\n      swap1\n      swap2\n      swap1\n      swap2\n      swap1\n      swap2\n      pop\n      sstore\n        /* \"contracts/Basic.sol\":345:439  function addElementOfDynamicArray(uint _value) public {... */\n      pop\n      jump\t// out\n        /* \"contracts/Basic.sol\":1882:1999  function testLocalVariable() public {... */\n    tag_48:\n        /* \"contracts/Basic.sol\":1928:1941  uint localVar */\n      0x00\n        /* \"contracts/Basic.sol\":1944:1954  1073741824 */\n      0x40000000\n        /* \"contracts/Basic.sol\":1928:1954  uint localVar = 1073741824 */\n      swap1\n      pop\n        /* \"contracts/Basic.sol\":1969:1992  printVariable(localVar) */\n      0x4eb424d1dc05ad494739fd43b6d90ca5639bb642b3404edeece2190e0c610991\n        /* \"contracts/Basic.sol\":1983:1991  localVar */\n      dup2\n        /* \"contracts/Basic.sol\":1969:1992  printVariable(localVar) */\n      mload(0x40)\n      tag_94\n      swap2\n      swap1\n      tag_26\n      jump\t// in\n    tag_94:\n      mload(0x40)\n      dup1\n      swap2\n      sub\n      swap1\n      log1\n        /* \"contracts/Basic.sol\":1918:1999  {... */\n      pop\n        /* \"contracts/Basic.sol\":1882:1999  function testLocalVariable() public {... */\n      jump\t// out\n        /* \"contracts/Basic.sol\":883:1010  function testMultipleThings(uint _var) public pure returns (string memory) {... */\n    tag_51:\n        /* \"contracts/Basic.sol\":943:956  string memory */\n      0x60\n        /* \"contracts/Basic.sol\":975:1003  convertIntegerToString(_var) */\n      tag_96\n        /* \"contracts/Basic.sol\":998:1002  _var */\n      dup3\n        /* \"contracts/Basic.sol\":975:997  convertIntegerToString */\n      tag_97\n        /* \"contracts/Basic.sol\":975:1003  convertIntegerToString(_var) */\n      jump\t// in\n    tag_96:\n        /* \"contracts/Basic.sol\":968:1003  return convertIntegerToString(_var) */\n      swap1\n      pop\n        /* \"contracts/Basic.sol\":883:1010  function testMultipleThings(uint _var) public pure returns (string memory) {... */\n      swap2\n      swap1\n      pop\n      jump\t// out\n        /* \"contracts/Basic.sol\":2925:3028  function getInternalStateVariable() public view returns (uint) {... */\n    tag_55:\n        /* \"contracts/Basic.sol\":2982:2986  uint */\n      0x00\n        /* \"contracts/Basic.sol\":3005:3021  internalStateVar */\n      sload(0x05)\n        /* \"contracts/Basic.sol\":2998:3021  return internalStateVar */\n      swap1\n      pop\n        /* \"contracts/Basic.sol\":2925:3028  function getInternalStateVariable() public view returns (uint) {... */\n      swap1\n      jump\t// out\n        /* \"contracts/Basic.sol\":534:637  function getLengthOfDynamicArray() public view returns (uint) {... */\n    tag_58:\n        /* \"contracts/Basic.sol\":590:594  uint */\n      0x00\n        /* \"contracts/Basic.sol\":613:623  dynamicArr */\n      0x03\n        /* \"contracts/Basic.sol\":613:630  dynamicArr.length */\n      dup1\n      sload\n      swap1\n      pop\n        /* \"contracts/Basic.sol\":606:630  return dynamicArr.length */\n      swap1\n      pop\n        /* \"contracts/Basic.sol\":534:637  function getLengthOfDynamicArray() public view returns (uint) {... */\n      swap1\n      jump\t// out\n        /* \"contracts/Basic.sol\":2005:2127  function testGlobalVariable() public {... */\n    tag_61:\n        /* \"contracts/Basic.sol\":2052:2066  uint globalVar */\n      0x00\n        /* \"contracts/Basic.sol\":2069:2081  block.number */\n      number\n        /* \"contracts/Basic.sol\":2052:2081  uint globalVar = block.number */\n      swap1\n      pop\n        /* \"contracts/Basic.sol\":2096:2120  printVariable(globalVar) */\n      0x4eb424d1dc05ad494739fd43b6d90ca5639bb642b3404edeece2190e0c610991\n        /* \"contracts/Basic.sol\":2110:2119  globalVar */\n      dup2\n        /* \"contracts/Basic.sol\":2096:2120  printVariable(globalVar) */\n      mload(0x40)\n      tag_101\n      swap2\n      swap1\n      tag_26\n      jump\t// in\n    tag_101:\n      mload(0x40)\n      dup1\n      swap2\n      sub\n      swap1\n      log1\n        /* \"contracts/Basic.sol\":2042:2127  {... */\n      pop\n        /* \"contracts/Basic.sol\":2005:2127  function testGlobalVariable() public {... */\n      jump\t// out\n        /* \"contracts/Basic.sol\":643:827  function getElementOfDynamicArray(uint _index) public view returns (uint) {... */\n    tag_64:\n        /* \"contracts/Basic.sol\":711:715  uint */\n      0x00\n        /* \"contracts/Basic.sol\":744:754  dynamicArr */\n      0x03\n        /* \"contracts/Basic.sol\":744:761  dynamicArr.length */\n      dup1\n      sload\n      swap1\n      pop\n        /* \"contracts/Basic.sol\":735:741  _index */\n      dup3\n        /* \"contracts/Basic.sol\":735:761  _index < dynamicArr.length */\n      lt\n        /* \"contracts/Basic.sol\":727:785  require(_index < dynamicArr.length, \"Index out of bounds\") */\n      tag_103\n      jumpi\n      mload(0x40)\n      0x08c379a000000000000000000000000000000000000000000000000000000000\n      dup2\n      mstore\n      0x04\n      add\n      tag_104\n      swap1\n      tag_71\n      jump\t// in\n    tag_104:\n      mload(0x40)\n      dup1\n      swap2\n      sub\n      swap1\n      revert\n    tag_103:\n        /* \"contracts/Basic.sol\":802:812  dynamicArr */\n      0x03\n        /* \"contracts/Basic.sol\":813:819  _index */\n      dup3\n        /* \"contracts/Basic.sol\":802:820  dynamicArr[_index] */\n      dup2\n      sload\n      dup2\n      lt\n      tag_105\n      jumpi\n      tag_106\n      tag_74\n      jump\t// in\n    tag_106:\n    tag_105:\n      swap1\n      0x00\n      mstore\n      keccak256(0x00, 0x20)\n      add\n      sload\n        /* \"contracts/Basic.sol\":795:820  return dynamicArr[_index] */\n      swap1\n      pop\n        /* \"contracts/Basic.sol\":643:827  function getElementOfDynamicArray(uint _index) public view returns (uint) {... */\n      swap2\n      swap1\n      pop\n      jump\t// out\n        /* \"contracts/Basic.sol\":1764:1876  function testStateVariable() public {... */\n    tag_67:\n        /* \"contracts/Basic.sol\":1821:1831  1073741824 */\n      0x40000000\n        /* \"contracts/Basic.sol\":1810:1818  stateVar */\n      0x06\n        /* \"contracts/Basic.sol\":1810:1831  stateVar = 1073741824 */\n      dup2\n      swap1\n      sstore\n      pop\n        /* \"contracts/Basic.sol\":1846:1869  printVariable(stateVar) */\n      0x4eb424d1dc05ad494739fd43b6d90ca5639bb642b3404edeece2190e0c610991\n        /* \"contracts/Basic.sol\":1860:1868  stateVar */\n      sload(0x06)\n        /* \"contracts/Basic.sol\":1846:1869  printVariable(stateVar) */\n      mload(0x40)\n      tag_109\n      swap2\n      swap1\n      tag_26\n      jump\t// in\n    tag_109:\n      mload(0x40)\n      dup1\n      swap2\n      sub\n      swap1\n      log1\n        /* \"contracts/Basic.sol\":1764:1876  function testStateVariable() public {... */\n      jump\t// out\n        /* \"contracts/Basic.sol\":1016:1574  function convertIntegerToString(uint _var) private pure returns (string memory) {... */\n    tag_97:\n        /* \"contracts/Basic.sol\":1081:1094  string memory */\n      0x60\n        /* \"contracts/Basic.sol\":1118:1119  0 */\n      0x00\n        /* \"contracts/Basic.sol\":1110:1114  _var */\n      dup3\n        /* \"contracts/Basic.sol\":1110:1119  _var == 0 */\n      sub\n        /* \"contracts/Basic.sol\":1106:1156  if (_var == 0) {... */\n      tag_111\n      jumpi\n        /* \"contracts/Basic.sol\":1135:1145  return \"0\" */\n      mload(0x40)\n      dup1\n      0x40\n      add\n      0x40\n      mstore\n      dup1\n      0x01\n      dup2\n      mstore\n      0x20\n      add\n      0x3000000000000000000000000000000000000000000000000000000000000000\n      dup2\n      mstore\n      pop\n      swap1\n      pop\n      jump(tag_110)\n        /* \"contracts/Basic.sol\":1106:1156  if (_var == 0) {... */\n    tag_111:\n        /* \"contracts/Basic.sol\":1165:1171  uint i */\n      0x00\n        /* \"contracts/Basic.sol\":1174:1178  _var */\n      dup3\n        /* \"contracts/Basic.sol\":1165:1178  uint i = _var */\n      swap1\n      pop\n        /* \"contracts/Basic.sol\":1188:1196  uint len */\n      0x00\n        /* \"contracts/Basic.sol\":1210:1276  while (i != 0) {... */\n    tag_112:\n        /* \"contracts/Basic.sol\":1222:1223  0 */\n      0x00\n        /* \"contracts/Basic.sol\":1217:1218  i */\n      dup3\n        /* \"contracts/Basic.sol\":1217:1223  i != 0 */\n      eq\n        /* \"contracts/Basic.sol\":1210:1276  while (i != 0) {... */\n      tag_113\n      jumpi\n        /* \"contracts/Basic.sol\":1239:1244  len++ */\n      dup1\n      dup1\n      tag_114\n      swap1\n      tag_115\n      jump\t// in\n    tag_114:\n      swap2\n      pop\n      pop\n        /* \"contracts/Basic.sol\":1263:1265  10 */\n      0x0a\n        /* \"contracts/Basic.sol\":1258:1265  i /= 10 */\n      dup3\n      tag_116\n      swap2\n      swap1\n      tag_117\n      jump\t// in\n    tag_116:\n      swap2\n      pop\n        /* \"contracts/Basic.sol\":1210:1276  while (i != 0) {... */\n      jump(tag_112)\n    tag_113:\n        /* \"contracts/Basic.sol\":1285:1301  bytes memory buf */\n      0x00\n        /* \"contracts/Basic.sol\":1314:1317  len */\n      dup2\n        /* \"contracts/Basic.sol\":1304:1318  new bytes(len) */\n      0xffffffffffffffff\n      dup2\n      gt\n      iszero\n      tag_118\n      jumpi\n      tag_119\n      tag_120\n      jump\t// in\n    tag_119:\n    tag_118:\n      mload(0x40)\n      swap1\n      dup1\n      dup3\n      mstore\n      dup1\n      0x1f\n      add\n      not(0x1f)\n      and\n      0x20\n      add\n      dup3\n      add\n      0x40\n      mstore\n      dup1\n      iszero\n      tag_121\n      jumpi\n      dup2\n      0x20\n      add\n      0x01\n      dup3\n      mul\n      dup1\n      calldatasize\n      dup4\n      calldatacopy\n      dup1\n      dup3\n      add\n      swap2\n      pop\n      pop\n      swap1\n      pop\n    tag_121:\n      pop\n        /* \"contracts/Basic.sol\":1285:1318  bytes memory buf = new bytes(len) */\n      swap1\n      pop\n        /* \"contracts/Basic.sol\":1328:1334  uint j */\n      0x00\n        /* \"contracts/Basic.sol\":1343:1344  1 */\n      0x01\n        /* \"contracts/Basic.sol\":1337:1340  len */\n      dup4\n        /* \"contracts/Basic.sol\":1337:1344  len - 1 */\n      tag_122\n      swap2\n      swap1\n      tag_123\n      jump\t// in\n    tag_122:\n        /* \"contracts/Basic.sol\":1328:1344  uint j = len - 1 */\n      swap1\n      pop\n        /* \"contracts/Basic.sol\":1354:1540  do {... */\n    tag_124:\n        /* \"contracts/Basic.sol\":1405:1407  10 */\n      0x0a\n        /* \"contracts/Basic.sol\":1398:1402  _var */\n      dup7\n        /* \"contracts/Basic.sol\":1398:1407  _var % 10 */\n      tag_127\n      swap2\n      swap1\n      tag_128\n      jump\t// in\n    tag_127:\n        /* \"contracts/Basic.sol\":1393:1395  48 */\n      0x30\n        /* \"contracts/Basic.sol\":1393:1407  48 + _var % 10 */\n      tag_129\n      swap2\n      swap1\n      tag_130\n      jump\t// in\n    tag_129:\n        /* \"contracts/Basic.sol\":1380:1409  bytes1(uint8(48 + _var % 10)) */\n      0xf8\n      shl\n        /* \"contracts/Basic.sol\":1371:1374  buf */\n      dup3\n        /* \"contracts/Basic.sol\":1375:1376  j */\n      dup3\n        /* \"contracts/Basic.sol\":1371:1377  buf[j] */\n      dup2\n      mload\n      dup2\n      lt\n      tag_131\n      jumpi\n      tag_132\n      tag_74\n      jump\t// in\n    tag_132:\n    tag_131:\n      0x20\n      add\n      add\n        /* \"contracts/Basic.sol\":1371:1409  buf[j] = bytes1(uint8(48 + _var % 10)) */\n      swap1\n      not(0xffffffffffffffffffffffffffffffffffffffffffffffffffffffffffffff)\n      and\n      swap1\n      dup2\n      0x00\n      byte\n      swap1\n      mstore8\n      pop\n        /* \"contracts/Basic.sol\":1432:1433  0 */\n      0x00\n        /* \"contracts/Basic.sol\":1427:1428  j */\n      dup2\n        /* \"contracts/Basic.sol\":1427:1433  j == 0 */\n      sub\n        /* \"contracts/Basic.sol\":1423:1473  if (j == 0) {... */\n      iszero\n        /* \"contracts/Basic.sol\":1453:1458  break */\n      tag_125\n        /* \"contracts/Basic.sol\":1423:1473  if (j == 0) {... */\n      jumpi\n        /* \"contracts/Basic.sol\":1486:1489  j-- */\n      dup1\n      dup1\n      tag_134\n      swap1\n      tag_135\n      jump\t// in\n    tag_134:\n      swap2\n      pop\n      pop\n        /* \"contracts/Basic.sol\":1511:1513  10 */\n      0x0a\n        /* \"contracts/Basic.sol\":1503:1513  _var /= 10 */\n      dup7\n      tag_136\n      swap2\n      swap1\n      tag_117\n      jump\t// in\n    tag_136:\n      swap6\n      pop\n        /* \"contracts/Basic.sol\":1537:1538  0 */\n      0x00\n        /* \"contracts/Basic.sol\":1532:1533  j */\n      dup2\n        /* \"contracts/Basic.sol\":1532:1538  j >= 0 */\n      lt\n      iszero\n        /* \"contracts/Basic.sol\":1354:1540  do {... */\n      tag_124\n      jumpi\n    tag_125:\n        /* \"contracts/Basic.sol\":1563:1566  buf */\n      dup2\n        /* \"contracts/Basic.sol\":1549:1567  return string(buf) */\n      swap5\n      pop\n      pop\n      pop\n      pop\n      pop\n        /* \"contracts/Basic.sol\":1016:1574  function convertIntegerToString(uint _var) private pure returns (string memory) {... */\n    tag_110:\n      swap2\n      swap1\n      pop\n      jump\t// out\n        /* \"#utility.yul\":88:205   */\n    tag_138:\n        /* \"#utility.yul\":197:198   */\n      0x00\n        /* \"#utility.yul\":194:195   */\n      dup1\n        /* \"#utility.yul\":187:199   */\n      revert\n        /* \"#utility.yul\":334:411   */\n    tag_140:\n        /* \"#utility.yul\":371:378   */\n      0x00\n        /* \"#utility.yul\":400:405   */\n      dup2\n        /* \"#utility.yul\":389:405   */\n      swap1\n      pop\n        /* \"#utility.yul\":334:411   */\n      swap2\n      swap1\n      pop\n      jump\t// out\n        /* \"#utility.yul\":417:539   */\n    tag_141:\n        /* \"#utility.yul\":490:514   */\n      tag_164\n        /* \"#utility.yul\":508:513   */\n      dup2\n        /* \"#utility.yul\":490:514   */\n      tag_140\n      jump\t// in\n    tag_164:\n        /* \"#utility.yul\":483:488   */\n      dup2\n        /* \"#utility.yul\":480:515   */\n      eq\n        /* \"#utility.yul\":470:533   */\n      tag_165\n      jumpi\n        /* \"#utility.yul\":529:530   */\n      0x00\n        /* \"#utility.yul\":526:527   */\n      dup1\n        /* \"#utility.yul\":519:531   */\n      revert\n        /* \"#utility.yul\":470:533   */\n    tag_165:\n        /* \"#utility.yul\":417:539   */\n      pop\n      jump\t// out\n        /* \"#utility.yul\":545:684   */\n    tag_142:\n        /* \"#utility.yul\":591:596   */\n      0x00\n        /* \"#utility.yul\":629:635   */\n      dup2\n        /* \"#utility.yul\":616:636   */\n      calldataload\n        /* \"#utility.yul\":607:636   */\n      swap1\n      pop\n        /* \"#utility.yul\":645:678   */\n      tag_167\n        /* \"#utility.yul\":672:677   */\n      dup2\n        /* \"#utility.yul\":645:678   */\n      tag_141\n      jump\t// in\n    tag_167:\n        /* \"#utility.yul\":545:684   */\n      swap3\n      swap2\n      pop\n      pop\n      jump\t// out\n        /* \"#utility.yul\":690:1019   */\n    tag_23:\n        /* \"#utility.yul\":749:755   */\n      0x00\n        /* \"#utility.yul\":798:800   */\n      0x20\n        /* \"#utility.yul\":786:795   */\n      dup3\n        /* \"#utility.yul\":777:784   */\n      dup5\n        /* \"#utility.yul\":773:796   */\n      sub\n        /* \"#utility.yul\":769:801   */\n      slt\n        /* \"#utility.yul\":766:885   */\n      iszero\n      tag_169\n      jumpi\n        /* \"#utility.yul\":804:883   */\n      tag_170\n      tag_138\n      jump\t// in\n    tag_170:\n        /* \"#utility.yul\":766:885   */\n    tag_169:\n        /* \"#utility.yul\":924:925   */\n      0x00\n        /* \"#utility.yul\":949:1002   */\n      tag_171\n        /* \"#utility.yul\":994:1001   */\n      dup5\n        /* \"#utility.yul\":985:991   */\n      dup3\n        /* \"#utility.yul\":974:983   */\n      dup6\n        /* \"#utility.yul\":970:992   */\n      add\n        /* \"#utility.yul\":949:1002   */\n      tag_142\n      jump\t// in\n    tag_171:\n        /* \"#utility.yul\":939:1002   */\n      swap2\n      pop\n        /* \"#utility.yul\":895:1012   */\n      pop\n        /* \"#utility.yul\":690:1019   */\n      swap3\n      swap2\n      pop\n      pop\n      jump\t// out\n        /* \"#utility.yul\":1025:1143   */\n    tag_143:\n        /* \"#utility.yul\":1112:1136   */\n      tag_173\n        /* \"#utility.yul\":1130:1135   */\n      dup2\n        /* \"#utility.yul\":1112:1136   */\n      tag_140\n      jump\t// in\n    tag_173:\n        /* \"#utility.yul\":1107:1110   */\n      dup3\n        /* \"#utility.yul\":1100:1137   */\n      mstore\n        /* \"#utility.yul\":1025:1143   */\n      pop\n      pop\n      jump\t// out\n        /* \"#utility.yul\":1149:1371   */\n    tag_26:\n        /* \"#utility.yul\":1242:1246   */\n      0x00\n        /* \"#utility.yul\":1280:1282   */\n      0x20\n        /* \"#utility.yul\":1269:1278   */\n      dup3\n        /* \"#utility.yul\":1265:1283   */\n      add\n        /* \"#utility.yul\":1257:1283   */\n      swap1\n      pop\n        /* \"#utility.yul\":1293:1364   */\n      tag_175\n        /* \"#utility.yul\":1361:1362   */\n      0x00\n        /* \"#utility.yul\":1350:1359   */\n      dup4\n        /* \"#utility.yul\":1346:1363   */\n      add\n        /* \"#utility.yul\":1337:1343   */\n      dup5\n        /* \"#utility.yul\":1293:1364   */\n      tag_143\n      jump\t// in\n    tag_175:\n        /* \"#utility.yul\":1149:1371   */\n      swap3\n      swap2\n      pop\n      pop\n      jump\t// out\n        /* \"#utility.yul\":1377:1476   */\n    tag_144:\n        /* \"#utility.yul\":1429:1435   */\n      0x00\n        /* \"#utility.yul\":1463:1468   */\n      dup2\n        /* \"#utility.yul\":1457:1469   */\n      mload\n        /* \"#utility.yul\":1447:1469   */\n      swap1\n      pop\n        /* \"#utility.yul\":1377:1476   */\n      swap2\n      swap1\n      pop\n      jump\t// out\n        /* \"#utility.yul\":1482:1651   */\n    tag_145:\n        /* \"#utility.yul\":1566:1577   */\n      0x00\n        /* \"#utility.yul\":1600:1606   */\n      dup3\n        /* \"#utility.yul\":1595:1598   */\n      dup3\n        /* \"#utility.yul\":1588:1607   */\n      mstore\n        /* \"#utility.yul\":1640:1644   */\n      0x20\n        /* \"#utility.yul\":1635:1638   */\n      dup3\n        /* \"#utility.yul\":1631:1645   */\n      add\n        /* \"#utility.yul\":1616:1645   */\n      swap1\n      pop\n        /* \"#utility.yul\":1482:1651   */\n      swap3\n      swap2\n      pop\n      pop\n      jump\t// out\n        /* \"#utility.yul\":1657:1796   */\n    tag_146:\n        /* \"#utility.yul\":1746:1752   */\n      dup3\n        /* \"#utility.yul\":1741:1744   */\n      dup2\n        /* \"#utility.yul\":1736:1739   */\n      dup4\n        /* \"#utility.yul\":1730:1753   */\n      mcopy\n        /* \"#utility.yul\":1787:1788   */\n      0x00\n        /* \"#utility.yul\":1778:1784   */\n      dup4\n        /* \"#utility.yul\":1773:1776   */\n      dup4\n        /* \"#utility.yul\":1769:1785   */\n      add\n        /* \"#utility.yul\":1762:1789   */\n      mstore\n        /* \"#utility.yul\":1657:1796   */\n      pop\n      pop\n      pop\n      jump\t// out\n        /* \"#utility.yul\":1802:1904   */\n    tag_147:\n        /* \"#utility.yul\":1843:1849   */\n      0x00\n        /* \"#utility.yul\":1894:1896   */\n      0x1f\n        /* \"#utility.yul\":1890:1897   */\n      not\n        /* \"#utility.yul\":1885:1887   */\n      0x1f\n        /* \"#utility.yul\":1878:1883   */\n      dup4\n        /* \"#utility.yul\":1874:1888   */\n      add\n        /* \"#utility.yul\":1870:1898   */\n      and\n        /* \"#utility.yul\":1860:1898   */\n      swap1\n      pop\n        /* \"#utility.yul\":1802:1904   */\n      swap2\n      swap1\n      pop\n      jump\t// out\n        /* \"#utility.yul\":1910:2287   */\n    tag_148:\n        /* \"#utility.yul\":1998:2001   */\n      0x00\n        /* \"#utility.yul\":2026:2065   */\n      tag_181\n        /* \"#utility.yul\":2059:2064   */\n      dup3\n        /* \"#utility.yul\":2026:2065   */\n      tag_144\n      jump\t// in\n    tag_181:\n        /* \"#utility.yul\":2081:2152   */\n      tag_182\n        /* \"#utility.yul\":2145:2151   */\n      dup2\n        /* \"#utility.yul\":2140:2143   */\n      dup6\n        /* \"#utility.yul\":2081:2152   */\n      tag_145\n      jump\t// in\n    tag_182:\n        /* \"#utility.yul\":2074:2152   */\n      swap4\n      pop\n        /* \"#utility.yul\":2161:2226   */\n      tag_183\n        /* \"#utility.yul\":2219:2225   */\n      dup2\n        /* \"#utility.yul\":2214:2217   */\n      dup6\n        /* \"#utility.yul\":2207:2211   */\n      0x20\n        /* \"#utility.yul\":2200:2205   */\n      dup7\n        /* \"#utility.yul\":2196:2212   */\n      add\n        /* \"#utility.yul\":2161:2226   */\n      tag_146\n      jump\t// in\n    tag_183:\n        /* \"#utility.yul\":2251:2280   */\n      tag_184\n        /* \"#utility.yul\":2273:2279   */\n      dup2\n        /* \"#utility.yul\":2251:2280   */\n      tag_147\n      jump\t// in\n    tag_184:\n        /* \"#utility.yul\":2246:2249   */\n      dup5\n        /* \"#utility.yul\":2242:2281   */\n      add\n        /* \"#utility.yul\":2235:2281   */\n      swap2\n      pop\n        /* \"#utility.yul\":2002:2287   */\n      pop\n        /* \"#utility.yul\":1910:2287   */\n      swap3\n      swap2\n      pop\n      pop\n      jump\t// out\n        /* \"#utility.yul\":2293:2606   */\n    tag_53:\n        /* \"#utility.yul\":2406:2410   */\n      0x00\n        /* \"#utility.yul\":2444:2446   */\n      0x20\n        /* \"#utility.yul\":2433:2442   */\n      dup3\n        /* \"#utility.yul\":2429:2447   */\n      add\n        /* \"#utility.yul\":2421:2447   */\n      swap1\n      pop\n        /* \"#utility.yul\":2493:2502   */\n      dup2\n        /* \"#utility.yul\":2487:2491   */\n      dup2\n        /* \"#utility.yul\":2483:2503   */\n      sub\n        /* \"#utility.yul\":2479:2480   */\n      0x00\n        /* \"#utility.yul\":2468:2477   */\n      dup4\n        /* \"#utility.yul\":2464:2481   */\n      add\n        /* \"#utility.yul\":2457:2504   */\n      mstore\n        /* \"#utility.yul\":2521:2599   */\n      tag_186\n        /* \"#utility.yul\":2594:2598   */\n      dup2\n        /* \"#utility.yul\":2585:2591   */\n      dup5\n        /* \"#utility.yul\":2521:2599   */\n      tag_148\n      jump\t// in\n    tag_186:\n        /* \"#utility.yul\":2513:2599   */\n      swap1\n      pop\n        /* \"#utility.yul\":2293:2606   */\n      swap3\n      swap2\n      pop\n      pop\n      jump\t// out\n        /* \"#utility.yul\":2612:2781   */\n    tag_149:\n        /* \"#utility.yul\":2752:2773   */\n      0x496e646578206f7574206f6620626f756e647300000000000000000000000000\n        /* \"#utility.yul\":2748:2749   */\n      0x00\n        /* \"#utility.yul\":2740:2746   */\n      dup3\n        /* \"#utility.yul\":2736:2750   */\n      add\n        /* \"#utility.yul\":2729:2774   */\n      mstore\n        /* \"#utility.yul\":2612:2781   */\n      pop\n      jump\t// out\n        /* \"#utility.yul\":2787:3153   */\n    tag_150:\n        /* \"#utility.yul\":2929:2932   */\n      0x00\n        /* \"#utility.yul\":2950:3017   */\n      tag_189\n        /* \"#utility.yul\":3014:3016   */\n      0x13\n        /* \"#utility.yul\":3009:3012   */\n      dup4\n        /* \"#utility.yul\":2950:3017   */\n      tag_145\n      jump\t// in\n    tag_189:\n        /* \"#utility.yul\":2943:3017   */\n      swap2\n      pop\n        /* \"#utility.yul\":3026:3119   */\n      tag_190\n        /* \"#utility.yul\":3115:3118   */\n      dup3\n        /* \"#utility.yul\":3026:3119   */\n      tag_149\n      jump\t// in\n    tag_190:\n        /* \"#utility.yul\":3144:3146   */\n      0x20\n        /* \"#utility.yul\":3139:3142   */\n      dup3\n        /* \"#utility.yul\":3135:3147   */\n      add\n        /* \"#utility.yul\":3128:3147   */\n      swap1\n      pop\n        /* \"#utility.yul\":2787:3153   */\n      swap2\n      swap1\n      pop\n      jump\t// out\n        /* \"#utility.yul\":3159:3578   */\n    tag_71:\n        /* \"#utility.yul\":3325:3329   */\n      0x00\n        /* \"#utility.yul\":3363:3365   */\n      0x20\n        /* \"#utility.yul\":3352:3361   */\n      dup3\n        /* \"#utility.yul\":3348:3366   */\n      add\n        /* \"#utility.yul\":3340:3366   */\n      swap1\n      pop\n        /* \"#utility.yul\":3412:3421   */\n      dup2\n        /* \"#utility.yul\":3406:3410   */\n      dup2\n        /* \"#utility.yul\":3402:3422   */\n      sub\n        /* \"#utility.yul\":3398:3399   */\n      0x00\n        /* \"#utility.yul\":3387:3396   */\n      dup4\n        /* \"#utility.yul\":3383:3400   */\n      add\n        /* \"#utility.yul\":3376:3423   */\n      mstore\n        /* \"#utility.yul\":3440:3571   */\n      tag_192\n        /* \"#utility.yul\":3566:3570   */\n      dup2\n        /* \"#utility.yul\":3440:3571   */\n      tag_150\n      jump\t// in\n    tag_192:\n        /* \"#utility.yul\":3432:3571   */\n      swap1\n      pop\n        /* \"#utility.yul\":3159:3578   */\n      swap2\n      swap1\n      pop\n      jump\t// out\n        /* \"#utility.yul\":3584:3764   */\n    tag_74:\n        /* \"#utility.yul\":3632:3709   */\n      0x4e487b7100000000000000000000000000000000000000000000000000000000\n        /* \"#utility.yul\":3629:3630   */\n      0x00\n        /* \"#utility.yul\":3622:3710   */\n      mstore\n        /* \"#utility.yul\":3729:3733   */\n      0x32\n        /* \"#utility.yul\":3726:3727   */\n      0x04\n        /* \"#utility.yul\":3719:3734   */\n      mstore\n        /* \"#utility.yul\":3753:3757   */\n      0x24\n        /* \"#utility.yul\":3750:3751   */\n      0x00\n        /* \"#utility.yul\":3743:3758   */\n      revert\n        /* \"#utility.yul\":3770:3950   */\n    tag_79:\n        /* \"#utility.yul\":3818:3895   */\n      0x4e487b7100000000000000000000000000000000000000000000000000000000\n        /* \"#utility.yul\":3815:3816   */\n      0x00\n        /* \"#utility.yul\":3808:3896   */\n      mstore\n        /* \"#utility.yul\":3915:3919   */\n      0x31\n        /* \"#utility.yul\":3912:3913   */\n      0x04\n        /* \"#utility.yul\":3905:3920   */\n      mstore\n        /* \"#utility.yul\":3939:3943   */\n      0x24\n        /* \"#utility.yul\":3936:3937   */\n      0x00\n        /* \"#utility.yul\":3929:3944   */\n      revert\n        /* \"#utility.yul\":3956:4046   */\n    tag_151:\n        /* \"#utility.yul\":3990:3997   */\n      0x00\n        /* \"#utility.yul\":4033:4038   */\n      dup2\n        /* \"#utility.yul\":4026:4039   */\n      iszero\n        /* \"#utility.yul\":4019:4040   */\n      iszero\n        /* \"#utility.yul\":4008:4040   */\n      swap1\n      pop\n        /* \"#utility.yul\":3956:4046   */\n      swap2\n      swap1\n      pop\n      jump\t// out\n        /* \"#utility.yul\":4052:4161   */\n    tag_152:\n        /* \"#utility.yul\":4133:4154   */\n      tag_197\n        /* \"#utility.yul\":4148:4153   */\n      dup2\n        /* \"#utility.yul\":4133:4154   */\n      tag_151\n      jump\t// in\n    tag_197:\n        /* \"#utility.yul\":4128:4131   */\n      dup3\n        /* \"#utility.yul\":4121:4155   */\n      mstore\n        /* \"#utility.yul\":4052:4161   */\n      pop\n      pop\n      jump\t// out\n        /* \"#utility.yul\":4167:4293   */\n    tag_153:\n        /* \"#utility.yul\":4204:4211   */\n      0x00\n        /* \"#utility.yul\":4244:4286   */\n      0xffffffffffffffffffffffffffffffffffffffff\n        /* \"#utility.yul\":4237:4242   */\n      dup3\n        /* \"#utility.yul\":4233:4287   */\n      and\n        /* \"#utility.yul\":4222:4287   */\n      swap1\n      pop\n        /* \"#utility.yul\":4167:4293   */\n      swap2\n      swap1\n      pop\n      jump\t// out\n        /* \"#utility.yul\":4299:4395   */\n    tag_154:\n        /* \"#utility.yul\":4336:4343   */\n      0x00\n        /* \"#utility.yul\":4365:4389   */\n      tag_200\n        /* \"#utility.yul\":4383:4388   */\n      dup3\n        /* \"#utility.yul\":4365:4389   */\n      tag_153\n      jump\t// in\n    tag_200:\n        /* \"#utility.yul\":4354:4389   */\n      swap1\n      pop\n        /* \"#utility.yul\":4299:4395   */\n      swap2\n      swap1\n      pop\n      jump\t// out\n        /* \"#utility.yul\":4401:4519   */\n    tag_155:\n        /* \"#utility.yul\":4488:4512   */\n      tag_202\n        /* \"#utility.yul\":4506:4511   */\n      dup2\n        /* \"#utility.yul\":4488:4512   */\n      tag_154\n      jump\t// in\n    tag_202:\n        /* \"#utility.yul\":4483:4486   */\n      dup3\n        /* \"#utility.yul\":4476:4513   */\n      mstore\n        /* \"#utility.yul\":4401:4519   */\n      pop\n      pop\n      jump\t// out\n        /* \"#utility.yul\":4525:5157   */\n    tag_83:\n        /* \"#utility.yul\":4716:4720   */\n      0x00\n        /* \"#utility.yul\":4754:4757   */\n      0x80\n        /* \"#utility.yul\":4743:4752   */\n      dup3\n        /* \"#utility.yul\":4739:4758   */\n      add\n        /* \"#utility.yul\":4731:4758   */\n      swap1\n      pop\n        /* \"#utility.yul\":4768:4833   */\n      tag_204\n        /* \"#utility.yul\":4830:4831   */\n      0x00\n        /* \"#utility.yul\":4819:4828   */\n      dup4\n        /* \"#utility.yul\":4815:4832   */\n      add\n        /* \"#utility.yul\":4806:4812   */\n      dup8\n        /* \"#utility.yul\":4768:4833   */\n      tag_152\n      jump\t// in\n    tag_204:\n        /* \"#utility.yul\":4880:4889   */\n      dup2\n        /* \"#utility.yul\":4874:4878   */\n      dup2\n        /* \"#utility.yul\":4870:4890   */\n      sub\n        /* \"#utility.yul\":4865:4867   */\n      0x20\n        /* \"#utility.yul\":4854:4863   */\n      dup4\n        /* \"#utility.yul\":4850:4868   */\n      add\n        /* \"#utility.yul\":4843:4891   */\n      mstore\n        /* \"#utility.yul\":4908:4986   */\n      tag_205\n        /* \"#utility.yul\":4981:4985   */\n      dup2\n        /* \"#utility.yul\":4972:4978   */\n      dup7\n        /* \"#utility.yul\":4908:4986   */\n      tag_148\n      jump\t// in\n    tag_205:\n        /* \"#utility.yul\":4900:4986   */\n      swap1\n      pop\n        /* \"#utility.yul\":4996:5068   */\n      tag_206\n        /* \"#utility.yul\":5064:5066   */\n      0x40\n        /* \"#utility.yul\":5053:5062   */\n      dup4\n        /* \"#utility.yul\":5049:5067   */\n      add\n        /* \"#utility.yul\":5040:5046   */\n      dup6\n        /* \"#utility.yul\":4996:5068   */\n      tag_155\n      jump\t// in\n    tag_206:\n        /* \"#utility.yul\":5078:5150   */\n      tag_207\n        /* \"#utility.yul\":5146:5148   */\n      0x60\n        /* \"#utility.yul\":5135:5144   */\n      dup4\n        /* \"#utility.yul\":5131:5149   */\n      add\n        /* \"#utility.yul\":5122:5128   */\n      dup5\n        /* \"#utility.yul\":5078:5150   */\n      tag_143\n      jump\t// in\n    tag_207:\n        /* \"#utility.yul\":4525:5157   */\n      swap6\n      swap5\n      pop\n      pop\n      pop\n      pop\n      pop\n      jump\t// out\n        /* \"#utility.yul\":5163:5495   */\n    tag_88:\n        /* \"#utility.yul\":5284:5288   */\n      0x00\n        /* \"#utility.yul\":5322:5324   */\n      0x40\n        /* \"#utility.yul\":5311:5320   */\n      dup3\n        /* \"#utility.yul\":5307:5325   */\n      add\n        /* \"#utility.yul\":5299:5325   */\n      swap1\n      pop\n        /* \"#utility.yul\":5335:5406   */\n      tag_209\n        /* \"#utility.yul\":5403:5404   */\n      0x00\n        /* \"#utility.yul\":5392:5401   */\n      dup4\n        /* \"#utility.yul\":5388:5405   */\n      add\n        /* \"#utility.yul\":5379:5385   */\n      dup6\n        /* \"#utility.yul\":5335:5406   */\n      tag_155\n      jump\t// in\n    tag_209:\n        /* \"#utility.yul\":5416:5488   */\n      tag_210\n        /* \"#utility.yul\":5484:5486   */\n      0x20\n        /* \"#utility.yul\":5473:5482   */\n      dup4\n        /* \"#utility.yul\":5469:5487   */\n      add\n        /* \"#utility.yul\":5460:5466   */\n      dup5\n        /* \"#utility.yul\":5416:5488   */\n      tag_155\n      jump\t// in\n    tag_210:\n        /* \"#utility.yul\":5163:5495   */\n      swap4\n      swap3\n      pop\n      pop\n      pop\n      jump\t// out\n        /* \"#utility.yul\":5501:5681   */\n    tag_156:\n        /* \"#utility.yul\":5549:5626   */\n      0x4e487b7100000000000000000000000000000000000000000000000000000000\n        /* \"#utility.yul\":5546:5547   */\n      0x00\n        /* \"#utility.yul\":5539:5627   */\n      mstore\n        /* \"#utility.yul\":5646:5650   */\n      0x11\n        /* \"#utility.yul\":5643:5644   */\n      0x04\n        /* \"#utility.yul\":5636:5651   */\n      mstore\n        /* \"#utility.yul\":5670:5674   */\n      0x24\n        /* \"#utility.yul\":5667:5668   */\n      0x00\n        /* \"#utility.yul\":5660:5675   */\n      revert\n        /* \"#utility.yul\":5687:5920   */\n    tag_115:\n        /* \"#utility.yul\":5726:5729   */\n      0x00\n        /* \"#utility.yul\":5749:5773   */\n      tag_213\n        /* \"#utility.yul\":5767:5772   */\n      dup3\n        /* \"#utility.yul\":5749:5773   */\n      tag_140\n      jump\t// in\n    tag_213:\n        /* \"#utility.yul\":5740:5773   */\n      swap2\n      pop\n        /* \"#utility.yul\":5795:5861   */\n      0xffffffffffffffffffffffffffffffffffffffffffffffffffffffffffffffff\n        /* \"#utility.yul\":5788:5793   */\n      dup3\n        /* \"#utility.yul\":5785:5862   */\n      sub\n        /* \"#utility.yul\":5782:5885   */\n      tag_214\n      jumpi\n        /* \"#utility.yul\":5865:5883   */\n      tag_215\n      tag_156\n      jump\t// in\n    tag_215:\n        /* \"#utility.yul\":5782:5885   */\n    tag_214:\n        /* \"#utility.yul\":5912:5913   */\n      0x01\n        /* \"#utility.yul\":5905:5910   */\n      dup3\n        /* \"#utility.yul\":5901:5914   */\n      add\n        /* \"#utility.yul\":5894:5914   */\n      swap1\n      pop\n        /* \"#utility.yul\":5687:5920   */\n      swap2\n      swap1\n      pop\n      jump\t// out\n        /* \"#utility.yul\":5926:6106   */\n    tag_157:\n        /* \"#utility.yul\":5974:6051   */\n      0x4e487b7100000000000000000000000000000000000000000000000000000000\n        /* \"#utility.yul\":5971:5972   */\n      0x00\n        /* \"#utility.yul\":5964:6052   */\n      mstore\n        /* \"#utility.yul\":6071:6075   */\n      0x12\n        /* \"#utility.yul\":6068:6069   */\n      0x04\n        /* \"#utility.yul\":6061:6076   */\n      mstore\n        /* \"#utility.yul\":6095:6099   */\n      0x24\n        /* \"#utility.yul\":6092:6093   */\n      0x00\n        /* \"#utility.yul\":6085:6100   */\n      revert\n        /* \"#utility.yul\":6112:6297   */\n    tag_117:\n        /* \"#utility.yul\":6152:6153   */\n      0x00\n        /* \"#utility.yul\":6169:6189   */\n      tag_218\n        /* \"#utility.yul\":6187:6188   */\n      dup3\n        /* \"#utility.yul\":6169:6189   */\n      tag_140\n      jump\t// in\n    tag_218:\n        /* \"#utility.yul\":6164:6189   */\n      swap2\n      pop\n        /* \"#utility.yul\":6203:6223   */\n      tag_219\n        /* \"#utility.yul\":6221:6222   */\n      dup4\n        /* \"#utility.yul\":6203:6223   */\n      tag_140\n      jump\t// in\n    tag_219:\n        /* \"#utility.yul\":6198:6223   */\n      swap3\n      pop\n        /* \"#utility.yul\":6242:6243   */\n      dup3\n        /* \"#utility.yul\":6232:6267   */\n      tag_220\n      jumpi\n        /* \"#utility.yul\":6247:6265   */\n      tag_221\n      tag_157\n      jump\t// in\n    tag_221:\n        /* \"#utility.yul\":6232:6267   */\n    tag_220:\n        /* \"#utility.yul\":6289:6290   */\n      dup3\n        /* \"#utility.yul\":6286:6287   */\n      dup3\n        /* \"#utility.yul\":6282:6291   */\n      div\n        /* \"#utility.yul\":6277:6291   */\n      swap1\n      pop\n        /* \"#utility.yul\":6112:6297   */\n      swap3\n      swap2\n      pop\n      pop\n      jump\t// out\n        /* \"#utility.yul\":6303:6483   */\n    tag_120:\n        /* \"#utility.yul\":6351:6428   */\n      0x4e487b7100000000000000000000000000000000000000000000000000000000\n        /* \"#utility.yul\":6348:6349   */\n      0x00\n        /* \"#utility.yul\":6341:6429   */\n      mstore\n        /* \"#utility.yul\":6448:6452   */\n      0x41\n        /* \"#utility.yul\":6445:6446   */\n      0x04\n        /* \"#utility.yul\":6438:6453   */\n      mstore\n        /* \"#utility.yul\":6472:6476   */\n      0x24\n        /* \"#utility.yul\":6469:6470   */\n      0x00\n        /* \"#utility.yul\":6462:6477   */\n      revert\n        /* \"#utility.yul\":6489:6683   */\n    tag_123:\n        /* \"#utility.yul\":6529:6533   */\n      0x00\n        /* \"#utility.yul\":6549:6569   */\n      tag_224\n        /* \"#utility.yul\":6567:6568   */\n      dup3\n        /* \"#utility.yul\":6549:6569   */\n      tag_140\n      jump\t// in\n    tag_224:\n        /* \"#utility.yul\":6544:6569   */\n      swap2\n      pop\n        /* \"#utility.yul\":6583:6603   */\n      tag_225\n        /* \"#utility.yul\":6601:6602   */\n      dup4\n        /* \"#utility.yul\":6583:6603   */\n      tag_140\n      jump\t// in\n    tag_225:\n        /* \"#utility.yul\":6578:6603   */\n      swap3\n      pop\n        /* \"#utility.yul\":6627:6628   */\n      dup3\n        /* \"#utility.yul\":6624:6625   */\n      dup3\n        /* \"#utility.yul\":6620:6629   */\n      sub\n        /* \"#utility.yul\":6612:6629   */\n      swap1\n      pop\n        /* \"#utility.yul\":6651:6652   */\n      dup2\n        /* \"#utility.yul\":6645:6649   */\n      dup2\n        /* \"#utility.yul\":6642:6653   */\n      gt\n        /* \"#utility.yul\":6639:6676   */\n      iszero\n      tag_226\n      jumpi\n        /* \"#utility.yul\":6656:6674   */\n      tag_227\n      tag_156\n      jump\t// in\n    tag_227:\n        /* \"#utility.yul\":6639:6676   */\n    tag_226:\n        /* \"#utility.yul\":6489:6683   */\n      swap3\n      swap2\n      pop\n      pop\n      jump\t// out\n        /* \"#utility.yul\":6689:6865   */\n    tag_128:\n        /* \"#utility.yul\":6721:6722   */\n      0x00\n        /* \"#utility.yul\":6738:6758   */\n      tag_229\n        /* \"#utility.yul\":6756:6757   */\n      dup3\n        /* \"#utility.yul\":6738:6758   */\n      tag_140\n      jump\t// in\n    tag_229:\n        /* \"#utility.yul\":6733:6758   */\n      swap2\n      pop\n        /* \"#utility.yul\":6772:6792   */\n      tag_230\n        /* \"#utility.yul\":6790:6791   */\n      dup4\n        /* \"#utility.yul\":6772:6792   */\n      tag_140\n      jump\t// in\n    tag_230:\n        /* \"#utility.yul\":6767:6792   */\n      swap3\n      pop\n        /* \"#utility.yul\":6811:6812   */\n      dup3\n        /* \"#utility.yul\":6801:6836   */\n      tag_231\n      jumpi\n        /* \"#utility.yul\":6816:6834   */\n      tag_232\n      tag_157\n      jump\t// in\n    tag_232:\n        /* \"#utility.yul\":6801:6836   */\n    tag_231:\n        /* \"#utility.yul\":6857:6858   */\n      dup3\n        /* \"#utility.yul\":6854:6855   */\n      dup3\n        /* \"#utility.yul\":6850:6859   */\n      mod\n        /* \"#utility.yul\":6845:6859   */\n      swap1\n      pop\n        /* \"#utility.yul\":6689:6865   */\n      swap3\n      swap2\n      pop\n      pop\n      jump\t// out\n        /* \"#utility.yul\":6871:7062   */\n    tag_130:\n        /* \"#utility.yul\":6911:6914   */\n      0x00\n        /* \"#utility.yul\":6930:6950   */\n      tag_234\n        /* \"#utility.yul\":6948:6949   */\n      dup3\n        /* \"#utility.yul\":6930:6950   */\n      tag_140\n      jump\t// in\n    tag_234:\n        /* \"#utility.yul\":6925:6950   */\n      swap2\n      pop\n        /* \"#utility.yul\":6964:6984   */\n      tag_235\n        /* \"#utility.yul\":6982:6983   */\n      dup4\n        /* \"#utility.yul\":6964:6984   */\n      tag_140\n      jump\t// in\n    tag_235:\n        /* \"#utility.yul\":6959:6984   */\n      swap3\n      pop\n        /* \"#utility.yul\":7007:7008   */\n      dup3\n        /* \"#utility.yul\":7004:7005   */\n      dup3\n        /* \"#utility.yul\":7000:7009   */\n      add\n        /* \"#utility.yul\":6993:7009   */\n      swap1\n      pop\n        /* \"#utility.yul\":7028:7031   */\n      dup1\n        /* \"#utility.yul\":7025:7026   */\n      dup3\n        /* \"#utility.yul\":7022:7032   */\n      gt\n        /* \"#utility.yul\":7019:7055   */\n      iszero\n      tag_236\n      jumpi\n        /* \"#utility.yul\":7035:7053   */\n      tag_237\n      tag_156\n      jump\t// in\n    tag_237:\n        /* \"#utility.yul\":7019:7055   */\n    tag_236:\n        /* \"#utility.yul\":6871:7062   */\n      swap3\n      swap2\n      pop\n      pop\n      jump\t// out\n        /* \"#utility.yul\":7068:7239   */\n    tag_135:\n        /* \"#utility.yul\":7107:7110   */\n      0x00\n        /* \"#utility.yul\":7130:7154   */\n      tag_239\n        /* \"#utility.yul\":7148:7153   */\n      dup3\n        /* \"#utility.yul\":7130:7154   */\n      tag_140\n      jump\t// in\n    tag_239:\n        /* \"#utility.yul\":7121:7154   */\n      swap2\n      pop\n        /* \"#utility.yul\":7176:7180   */\n      0x00\n        /* \"#utility.yul\":7169:7174   */\n      dup3\n        /* \"#utility.yul\":7166:7181   */\n      sub\n        /* \"#utility.yul\":7163:7204   */\n      tag_240\n      jumpi\n        /* \"#utility.yul\":7184:7202   */\n      tag_241\n      tag_156\n      jump\t// in\n    tag_241:\n        /* \"#utility.yul\":7163:7204   */\n    tag_240:\n        /* \"#utility.yul\":7231:7232   */\n      0x01\n        /* \"#utility.yul\":7224:7229   */\n      dup3\n        /* \"#utility.yul\":7220:7233   */\n      sub\n        /* \"#utility.yul\":7213:7233   */\n      swap1\n      pop\n        /* \"#utility.yul\":7068:7239   */\n      swap2\n      swap1\n      pop\n      jump\t// out\n\n    auxdata: 0xa26469706673582212204bda31381b6471b6be7118904a8aa1997c55195032b1cb9bf06c49a88eb92a3b64736f6c634300081a0033\n}\n",
				"bytecode": {
					"linkReferences": {},
					"object": "60806040526040518060600160405280600160ff168152602001600260ff168152602001600360ff168152505f90600360389291906058565b50634000000060045563400000006005553480156053575f80fd5b5060b1565b82600381019282156089579160200282015b828111156088578251829060ff16905591602001919060010190606a565b5b509050609491906098565b5090565b5b8082111560ad575f815f9055506001016099565b5090565b610bb6806100be5f395ff3fe608060405234801561000f575f80fd5b50600436106100f3575f3560e01c806344abd13f116100955780637a540377116100645780637a54037714610237578063b5d499d014610255578063bbaff1aa1461025f578063fa462c461461028f576100f3565b806344abd13f146101c35780635b9dbef7146101df5780637048a82b146101e9578063797f369614610219576100f3565b806310b300cf116100d157806310b300cf1461014f5780632bc09df214610159578063324224c21461018957806343916eca14610193576100f3565b806303a159a9146100f757806309d97dda146101275780630b5fcf4b14610145575b5f80fd5b610111600480360381019061010c9190610756565b610299565b60405161011e9190610790565b60405180910390f35b61012f6102f9565b60405161013c9190610790565b60405180910390f35b61014d6102ff565b005b610157610326565b005b610173600480360381019061016e9190610756565b6103b0565b6040516101809190610790565b60405180910390f35b6101916103d0565b005b6101ad60048036038101906101a89190610756565b610417565b6040516101ba9190610790565b60405180910390f35b6101dd60048036038101906101d89190610756565b61042f565b005b6101e7610458565b005b61020360048036038101906101fe9190610756565b61049a565b6040516102109190610819565b60405180910390f35b6102216104ac565b60405161022e9190610790565b60405180910390f35b61023f6104b5565b60405161024c9190610790565b60405180910390f35b61025d6104c1565b005b61027960048036038101906102749190610756565b6104ff565b6040516102869190610790565b60405180910390f35b61029761056b565b005b5f600382106102dd576040517f08c379a00000000000000000000000000000000000000000000000000000000081526004016102d490610883565b60405180910390fd5b5f82600381106102f0576102ef6108a1565b5b01549050919050565b60045481565b6003805480610311576103106108ce565b5b600190038181905f5260205f20015f90559055565b5f600190505f6040518060400160405280600881526020017f536f6c696469747900000000000000000000000000000000000000000000000081525090505f80634000000090507f2f0d85d6e91ffbeb6d7e574372b7160fc892a08b22ca0d25555c17de3f677141848484846040516103a29493929190610954565b60405180910390a150505050565b600381815481106103bf575f80fd5b905f5260205f20015f915090505481565b5f3390505f61010190507ff8e6e1fdfb9a814b6dc1c1a93053742f9ae0933e85677a49e3243e4b382c737a828260405161040b92919061099e565b60405180910390a15050565b5f8160038110610425575f80fd5b015f915090505481565b600381908060018154018082558091505060019003905f5260205f20015f909190919091505550565b5f634000000090507f4eb424d1dc05ad494739fd43b6d90ca5639bb642b3404edeece2190e0c6109918160405161048f9190610790565b60405180910390a150565b60606104a5826105b1565b9050919050565b5f600554905090565b5f600380549050905090565b5f4390507f4eb424d1dc05ad494739fd43b6d90ca5639bb642b3404edeece2190e0c610991816040516104f49190610790565b60405180910390a150565b5f6003805490508210610547576040517f08c379a000000000000000000000000000000000000000000000000000000000815260040161053e90610883565b60405180910390fd5b6003828154811061055b5761055a6108a1565b5b905f5260205f2001549050919050565b63400000006006819055507f4eb424d1dc05ad494739fd43b6d90ca5639bb642b3404edeece2190e0c6109916006546040516105a79190610790565b60405180910390a1565b60605f82036105f7576040518060400160405280600181526020017f3000000000000000000000000000000000000000000000000000000000000000815250905061071a565b5f8290505f5b5f821461062657808061060f906109f2565b915050600a8261061f9190610a66565b91506105fd565b5f8167ffffffffffffffff81111561064157610640610a96565b5b6040519080825280601f01601f1916602001820160405280156106735781602001600182028036833780820191505090505b5090505f6001836106849190610ac3565b90505b600a866106949190610af6565b60306106a09190610b26565b60f81b8282815181106106b6576106b56108a1565b5b60200101907effffffffffffffffffffffffffffffffffffffffffffffffffffffffffffff191690815f1a9053505f8103156107125780806106f790610b59565b915050600a866107079190610a66565b95505f811015610687575b819450505050505b919050565b5f80fd5b5f819050919050565b61073581610723565b811461073f575f80fd5b50565b5f813590506107508161072c565b92915050565b5f6020828403121561076b5761076a61071f565b5b5f61077884828501610742565b91505092915050565b61078a81610723565b82525050565b5f6020820190506107a35f830184610781565b92915050565b5f81519050919050565b5f82825260208201905092915050565b8281835e5f83830152505050565b5f601f19601f8301169050919050565b5f6107eb826107a9565b6107f581856107b3565b93506108058185602086016107c3565b61080e816107d1565b840191505092915050565b5f6020820190508181035f83015261083181846107e1565b905092915050565b7f496e646578206f7574206f6620626f756e6473000000000000000000000000005f82015250565b5f61086d6013836107b3565b915061087882610839565b602082019050919050565b5f6020820190508181035f83015261089a81610861565b9050919050565b7f4e487b71000000000000000000000000000000000000000000000000000000005f52603260045260245ffd5b7f4e487b71000000000000000000000000000000000000000000000000000000005f52603160045260245ffd5b5f8115159050919050565b61090f816108fb565b82525050565b5f73ffffffffffffffffffffffffffffffffffffffff82169050919050565b5f61093e82610915565b9050919050565b61094e81610934565b82525050565b5f6080820190506109675f830187610906565b818103602083015261097981866107e1565b90506109886040830185610945565b6109956060830184610781565b95945050505050565b5f6040820190506109b15f830185610945565b6109be6020830184610945565b9392505050565b7f4e487b71000000000000000000000000000000000000000000000000000000005f52601160045260245ffd5b5f6109fc82610723565b91507fffffffffffffffffffffffffffffffffffffffffffffffffffffffffffffffff8203610a2e57610a2d6109c5565b5b600182019050919050565b7f4e487b71000000000000000000000000000000000000000000000000000000005f52601260045260245ffd5b5f610a7082610723565b9150610a7b83610723565b925082610a8b57610a8a610a39565b5b828204905092915050565b7f4e487b71000000000000000000000000000000000000000000000000000000005f52604160045260245ffd5b5f610acd82610723565b9150610ad883610723565b9250828203905081811115610af057610aef6109c5565b5b92915050565b5f610b0082610723565b9150610b0b83610723565b925082610b1b57610b1a610a39565b5b828206905092915050565b5f610b3082610723565b9150610b3b83610723565b9250828201905080821115610b5357610b526109c5565b5b92915050565b5f610b6382610723565b91505f8203610b7557610b746109c5565b5b60018203905091905056fea26469706673582212204bda31381b6471b6be7118904a8aa1997c55195032b1cb9bf06c49a88eb92a3b64736f6c634300081a0033",
					"opcodes": "PUSH1 0x80 PUSH1 0x40 MSTORE PUSH1 0x40 MLOAD DUP1 PUSH1 0x60 ADD PUSH1 0x40 MSTORE DUP1 PUSH1 0x1 PUSH1 0xFF AND DUP2 MSTORE PUSH1 0x20 ADD PUSH1 0x2 PUSH1 0xFF AND DUP2 MSTORE PUSH1 0x20 ADD PUSH1 0x3 PUSH1 0xFF AND DUP2 MSTORE POP PUSH0 SWAP1 PUSH1 0x3 PUSH1 0x38 SWAP3 SWAP2 SWAP1 PUSH1 0x58 JUMP JUMPDEST POP PUSH4 0x40000000 PUSH1 0x4 SSTORE PUSH4 0x40000000 PUSH1 0x5 SSTORE CALLVALUE DUP1 ISZERO PUSH1 0x53 JUMPI PUSH0 DUP1 REVERT JUMPDEST POP PUSH1 0xB1 JUMP JUMPDEST DUP3 PUSH1 0x3 DUP2 ADD SWAP3 DUP3 ISZERO PUSH1 0x89 JUMPI SWAP2 PUSH1 0x20 MUL DUP3 ADD JUMPDEST DUP3 DUP2 GT ISZERO PUSH1 0x88 JUMPI DUP3 MLOAD DUP3 SWAP1 PUSH1 0xFF AND SWAP1 SSTORE SWAP2 PUSH1 0x20 ADD SWAP2 SWAP1 PUSH1 0x1 ADD SWAP1 PUSH1 0x6A JUMP JUMPDEST JUMPDEST POP SWAP1 POP PUSH1 0x94 SWAP2 SWAP1 PUSH1 0x98 JUMP JUMPDEST POP SWAP1 JUMP JUMPDEST JUMPDEST DUP1 DUP3 GT ISZERO PUSH1 0xAD JUMPI PUSH0 DUP2 PUSH0 SWAP1 SSTORE POP PUSH1 0x1 ADD PUSH1 0x99 JUMP JUMPDEST POP SWAP1 JUMP JUMPDEST PUSH2 0xBB6 DUP1 PUSH2 0xBE PUSH0 CODECOPY PUSH0 RETURN INVALID PUSH1 0x80 PUSH1 0x40 MSTORE CALLVALUE DUP1 ISZERO PUSH2 0xF JUMPI PUSH0 DUP1 REVERT JUMPDEST POP PUSH1 0x4 CALLDATASIZE LT PUSH2 0xF3 JUMPI PUSH0 CALLDATALOAD PUSH1 0xE0 SHR DUP1 PUSH4 0x44ABD13F GT PUSH2 0x95 JUMPI DUP1 PUSH4 0x7A540377 GT PUSH2 0x64 JUMPI DUP1 PUSH4 0x7A540377 EQ PUSH2 0x237 JUMPI DUP1 PUSH4 0xB5D499D0 EQ PUSH2 0x255 JUMPI DUP1 PUSH4 0xBBAFF1AA EQ PUSH2 0x25F JUMPI DUP1 PUSH4 0xFA462C46 EQ PUSH2 0x28F JUMPI PUSH2 0xF3 JUMP JUMPDEST DUP1 PUSH4 0x44ABD13F EQ PUSH2 0x1C3 JUMPI DUP1 PUSH4 0x5B9DBEF7 EQ PUSH2 0x1DF JUMPI DUP1 PUSH4 0x7048A82B EQ PUSH2 0x1E9 JUMPI DUP1 PUSH4 0x797F3696 EQ PUSH2 0x219 JUMPI PUSH2 0xF3 JUMP JUMPDEST DUP1 PUSH4 0x10B300CF GT PUSH2 0xD1 JUMPI DUP1 PUSH4 0x10B300CF EQ PUSH2 0x14F JUMPI DUP1 PUSH4 0x2BC09DF2 EQ PUSH2 0x159 JUMPI DUP1 PUSH4 0x324224C2 EQ PUSH2 0x189 JUMPI DUP1 PUSH4 0x43916ECA EQ PUSH2 0x193 JUMPI PUSH2 0xF3 JUMP JUMPDEST DUP1 PUSH4 0x3A159A9 EQ PUSH2 0xF7 JUMPI DUP1 PUSH4 0x9D97DDA EQ PUSH2 0x127 JUMPI DUP1 PUSH4 0xB5FCF4B EQ PUSH2 0x145 JUMPI JUMPDEST PUSH0 DUP1 REVERT JUMPDEST PUSH2 0x111 PUSH1 0x4 DUP1 CALLDATASIZE SUB DUP2 ADD SWAP1 PUSH2 0x10C SWAP2 SWAP1 PUSH2 0x756 JUMP JUMPDEST PUSH2 0x299 JUMP JUMPDEST PUSH1 0x40 MLOAD PUSH2 0x11E SWAP2 SWAP1 PUSH2 0x790 JUMP JUMPDEST PUSH1 0x40 MLOAD DUP1 SWAP2 SUB SWAP1 RETURN JUMPDEST PUSH2 0x12F PUSH2 0x2F9 JUMP JUMPDEST PUSH1 0x40 MLOAD PUSH2 0x13C SWAP2 SWAP1 PUSH2 0x790 JUMP JUMPDEST PUSH1 0x40 MLOAD DUP1 SWAP2 SUB SWAP1 RETURN JUMPDEST PUSH2 0x14D PUSH2 0x2FF JUMP JUMPDEST STOP JUMPDEST PUSH2 0x157 PUSH2 0x326 JUMP JUMPDEST STOP JUMPDEST PUSH2 0x173 PUSH1 0x4 DUP1 CALLDATASIZE SUB DUP2 ADD SWAP1 PUSH2 0x16E SWAP2 SWAP1 PUSH2 0x756 JUMP JUMPDEST PUSH2 0x3B0 JUMP JUMPDEST PUSH1 0x40 MLOAD PUSH2 0x180 SWAP2 SWAP1 PUSH2 0x790 JUMP JUMPDEST PUSH1 0x40 MLOAD DUP1 SWAP2 SUB SWAP1 RETURN JUMPDEST PUSH2 0x191 PUSH2 0x3D0 JUMP JUMPDEST STOP JUMPDEST PUSH2 0x1AD PUSH1 0x4 DUP1 CALLDATASIZE SUB DUP2 ADD SWAP1 PUSH2 0x1A8 SWAP2 SWAP1 PUSH2 0x756 JUMP JUMPDEST PUSH2 0x417 JUMP JUMPDEST PUSH1 0x40 MLOAD PUSH2 0x1BA SWAP2 SWAP1 PUSH2 0x790 JUMP JUMPDEST PUSH1 0x40 MLOAD DUP1 SWAP2 SUB SWAP1 RETURN JUMPDEST PUSH2 0x1DD PUSH1 0x4 DUP1 CALLDATASIZE SUB DUP2 ADD SWAP1 PUSH2 0x1D8 SWAP2 SWAP1 PUSH2 0x756 JUMP JUMPDEST PUSH2 0x42F JUMP JUMPDEST STOP JUMPDEST PUSH2 0x1E7 PUSH2 0x458 JUMP JUMPDEST STOP JUMPDEST PUSH2 0x203 PUSH1 0x4 DUP1 CALLDATASIZE SUB DUP2 ADD SWAP1 PUSH2 0x1FE SWAP2 SWAP1 PUSH2 0x756 JUMP JUMPDEST PUSH2 0x49A JUMP JUMPDEST PUSH1 0x40 MLOAD PUSH2 0x210 SWAP2 SWAP1 PUSH2 0x819 JUMP JUMPDEST PUSH1 0x40 MLOAD DUP1 SWAP2 SUB SWAP1 RETURN JUMPDEST PUSH2 0x221 PUSH2 0x4AC JUMP JUMPDEST PUSH1 0x40 MLOAD PUSH2 0x22E SWAP2 SWAP1 PUSH2 0x790 JUMP JUMPDEST PUSH1 0x40 MLOAD DUP1 SWAP2 SUB SWAP1 RETURN JUMPDEST PUSH2 0x23F PUSH2 0x4B5 JUMP JUMPDEST PUSH1 0x40 MLOAD PUSH2 0x24C SWAP2 SWAP1 PUSH2 0x790 JUMP JUMPDEST PUSH1 0x40 MLOAD DUP1 SWAP2 SUB SWAP1 RETURN JUMPDEST PUSH2 0x25D PUSH2 0x4C1 JUMP JUMPDEST STOP JUMPDEST PUSH2 0x279 PUSH1 0x4 DUP1 CALLDATASIZE SUB DUP2 ADD SWAP1 PUSH2 0x274 SWAP2 SWAP1 PUSH2 0x756 JUMP JUMPDEST PUSH2 0x4FF JUMP JUMPDEST PUSH1 0x40 MLOAD PUSH2 0x286 SWAP2 SWAP1 PUSH2 0x790 JUMP JUMPDEST PUSH1 0x40 MLOAD DUP1 SWAP2 SUB SWAP1 RETURN JUMPDEST PUSH2 0x297 PUSH2 0x56B JUMP JUMPDEST STOP JUMPDEST PUSH0 PUSH1 0x3 DUP3 LT PUSH2 0x2DD JUMPI PUSH1 0x40 MLOAD PUSH32 0x8C379A000000000000000000000000000000000000000000000000000000000 DUP2 MSTORE PUSH1 0x4 ADD PUSH2 0x2D4 SWAP1 PUSH2 0x883 JUMP JUMPDEST PUSH1 0x40 MLOAD DUP1 SWAP2 SUB SWAP1 REVERT JUMPDEST PUSH0 DUP3 PUSH1 0x3 DUP2 LT PUSH2 0x2F0 JUMPI PUSH2 0x2EF PUSH2 0x8A1 JUMP JUMPDEST JUMPDEST ADD SLOAD SWAP1 POP SWAP2 SWAP1 POP JUMP JUMPDEST PUSH1 0x4 SLOAD DUP2 JUMP JUMPDEST PUSH1 0x3 DUP1 SLOAD DUP1 PUSH2 0x311 JUMPI PUSH2 0x310 PUSH2 0x8CE JUMP JUMPDEST JUMPDEST PUSH1 0x1 SWAP1 SUB DUP2 DUP2 SWAP1 PUSH0 MSTORE PUSH1 0x20 PUSH0 KECCAK256 ADD PUSH0 SWAP1 SSTORE SWAP1 SSTORE JUMP JUMPDEST PUSH0 PUSH1 0x1 SWAP1 POP PUSH0 PUSH1 0x40 MLOAD DUP1 PUSH1 0x40 ADD PUSH1 0x40 MSTORE DUP1 PUSH1 0x8 DUP2 MSTORE PUSH1 0x20 ADD PUSH32 0x536F6C6964697479000000000000000000000000000000000000000000000000 DUP2 MSTORE POP SWAP1 POP PUSH0 DUP1 PUSH4 0x40000000 SWAP1 POP PUSH32 0x2F0D85D6E91FFBEB6D7E574372B7160FC892A08B22CA0D25555C17DE3F677141 DUP5 DUP5 DUP5 DUP5 PUSH1 0x40 MLOAD PUSH2 0x3A2 SWAP5 SWAP4 SWAP3 SWAP2 SWAP1 PUSH2 0x954 JUMP JUMPDEST PUSH1 0x40 MLOAD DUP1 SWAP2 SUB SWAP1 LOG1 POP POP POP POP JUMP JUMPDEST PUSH1 0x3 DUP2 DUP2 SLOAD DUP2 LT PUSH2 0x3BF JUMPI PUSH0 DUP1 REVERT JUMPDEST SWAP1 PUSH0 MSTORE PUSH1 0x20 PUSH0 KECCAK256 ADD PUSH0 SWAP2 POP SWAP1 POP SLOAD DUP2 JUMP JUMPDEST PUSH0 CALLER SWAP1 POP PUSH0 PUSH2 0x101 SWAP1 POP PUSH32 0xF8E6E1FDFB9A814B6DC1C1A93053742F9AE0933E85677A49E3243E4B382C737A DUP3 DUP3 PUSH1 0x40 MLOAD PUSH2 0x40B SWAP3 SWAP2 SWAP1 PUSH2 0x99E JUMP JUMPDEST PUSH1 0x40 MLOAD DUP1 SWAP2 SUB SWAP1 LOG1 POP POP JUMP JUMPDEST PUSH0 DUP2 PUSH1 0x3 DUP2 LT PUSH2 0x425 JUMPI PUSH0 DUP1 REVERT JUMPDEST ADD PUSH0 SWAP2 POP SWAP1 POP SLOAD DUP2 JUMP JUMPDEST PUSH1 0x3 DUP2 SWAP1 DUP1 PUSH1 0x1 DUP2 SLOAD ADD DUP1 DUP3 SSTORE DUP1 SWAP2 POP POP PUSH1 0x1 SWAP1 SUB SWAP1 PUSH0 MSTORE PUSH1 0x20 PUSH0 KECCAK256 ADD PUSH0 SWAP1 SWAP2 SWAP1 SWAP2 SWAP1 SWAP2 POP SSTORE POP JUMP JUMPDEST PUSH0 PUSH4 0x40000000 SWAP1 POP PUSH32 0x4EB424D1DC05AD494739FD43B6D90CA5639BB642B3404EDEECE2190E0C610991 DUP2 PUSH1 0x40 MLOAD PUSH2 0x48F SWAP2 SWAP1 PUSH2 0x790 JUMP JUMPDEST PUSH1 0x40 MLOAD DUP1 SWAP2 SUB SWAP1 LOG1 POP JUMP JUMPDEST PUSH1 0x60 PUSH2 0x4A5 DUP3 PUSH2 0x5B1 JUMP JUMPDEST SWAP1 POP SWAP2 SWAP1 POP JUMP JUMPDEST PUSH0 PUSH1 0x5 SLOAD SWAP1 POP SWAP1 JUMP JUMPDEST PUSH0 PUSH1 0x3 DUP1 SLOAD SWAP1 POP SWAP1 POP SWAP1 JUMP JUMPDEST PUSH0 NUMBER SWAP1 POP PUSH32 0x4EB424D1DC05AD494739FD43B6D90CA5639BB642B3404EDEECE2190E0C610991 DUP2 PUSH1 0x40 MLOAD PUSH2 0x4F4 SWAP2 SWAP1 PUSH2 0x790 JUMP JUMPDEST PUSH1 0x40 MLOAD DUP1 SWAP2 SUB SWAP1 LOG1 POP JUMP JUMPDEST PUSH0 PUSH1 0x3 DUP1 SLOAD SWAP1 POP DUP3 LT PUSH2 0x547 JUMPI PUSH1 0x40 MLOAD PUSH32 0x8C379A000000000000000000000000000000000000000000000000000000000 DUP2 MSTORE PUSH1 0x4 ADD PUSH2 0x53E SWAP1 PUSH2 0x883 JUMP JUMPDEST PUSH1 0x40 MLOAD DUP1 SWAP2 SUB SWAP1 REVERT JUMPDEST PUSH1 0x3 DUP3 DUP2 SLOAD DUP2 LT PUSH2 0x55B JUMPI PUSH2 0x55A PUSH2 0x8A1 JUMP JUMPDEST JUMPDEST SWAP1 PUSH0 MSTORE PUSH1 0x20 PUSH0 KECCAK256 ADD SLOAD SWAP1 POP SWAP2 SWAP1 POP JUMP JUMPDEST PUSH4 0x40000000 PUSH1 0x6 DUP2 SWAP1 SSTORE POP PUSH32 0x4EB424D1DC05AD494739FD43B6D90CA5639BB642B3404EDEECE2190E0C610991 PUSH1 0x6 SLOAD PUSH1 0x40 MLOAD PUSH2 0x5A7 SWAP2 SWAP1 PUSH2 0x790 JUMP JUMPDEST PUSH1 0x40 MLOAD DUP1 SWAP2 SUB SWAP1 LOG1 JUMP JUMPDEST PUSH1 0x60 PUSH0 DUP3 SUB PUSH2 0x5F7 JUMPI PUSH1 0x40 MLOAD DUP1 PUSH1 0x40 ADD PUSH1 0x40 MSTORE DUP1 PUSH1 0x1 DUP2 MSTORE PUSH1 0x20 ADD PUSH32 0x3000000000000000000000000000000000000000000000000000000000000000 DUP2 MSTORE POP SWAP1 POP PUSH2 0x71A JUMP JUMPDEST PUSH0 DUP3 SWAP1 POP PUSH0 JUMPDEST PUSH0 DUP3 EQ PUSH2 0x626 JUMPI DUP1 DUP1 PUSH2 0x60F SWAP1 PUSH2 0x9F2 JUMP JUMPDEST SWAP2 POP POP PUSH1 0xA DUP3 PUSH2 0x61F SWAP2 SWAP1 PUSH2 0xA66 JUMP JUMPDEST SWAP2 POP PUSH2 0x5FD JUMP JUMPDEST PUSH0 DUP2 PUSH8 0xFFFFFFFFFFFFFFFF DUP2 GT ISZERO PUSH2 0x641 JUMPI PUSH2 0x640 PUSH2 0xA96 JUMP JUMPDEST JUMPDEST PUSH1 0x40 MLOAD SWAP1 DUP1 DUP3 MSTORE DUP1 PUSH1 0x1F ADD PUSH1 0x1F NOT AND PUSH1 0x20 ADD DUP3 ADD PUSH1 0x40 MSTORE DUP1 ISZERO PUSH2 0x673 JUMPI DUP2 PUSH1 0x20 ADD PUSH1 0x1 DUP3 MUL DUP1 CALLDATASIZE DUP4 CALLDATACOPY DUP1 DUP3 ADD SWAP2 POP POP SWAP1 POP JUMPDEST POP SWAP1 POP PUSH0 PUSH1 0x1 DUP4 PUSH2 0x684 SWAP2 SWAP1 PUSH2 0xAC3 JUMP JUMPDEST SWAP1 POP JUMPDEST PUSH1 0xA DUP7 PUSH2 0x694 SWAP2 SWAP1 PUSH2 0xAF6 JUMP JUMPDEST PUSH1 0x30 PUSH2 0x6A0 SWAP2 SWAP1 PUSH2 0xB26 JUMP JUMPDEST PUSH1 0xF8 SHL DUP3 DUP3 DUP2 MLOAD DUP2 LT PUSH2 0x6B6 JUMPI PUSH2 0x6B5 PUSH2 0x8A1 JUMP JUMPDEST JUMPDEST PUSH1 0x20 ADD ADD SWAP1 PUSH31 0xFFFFFFFFFFFFFFFFFFFFFFFFFFFFFFFFFFFFFFFFFFFFFFFFFFFFFFFFFFFFFF NOT AND SWAP1 DUP2 PUSH0 BYTE SWAP1 MSTORE8 POP PUSH0 DUP2 SUB ISZERO PUSH2 0x712 JUMPI DUP1 DUP1 PUSH2 0x6F7 SWAP1 PUSH2 0xB59 JUMP JUMPDEST SWAP2 POP POP PUSH1 0xA DUP7 PUSH2 0x707 SWAP2 SWAP1 PUSH2 0xA66 JUMP JUMPDEST SWAP6 POP PUSH0 DUP2 LT ISZERO PUSH2 0x687 JUMPI JUMPDEST DUP2 SWAP5 POP POP POP POP POP JUMPDEST SWAP2 SWAP1 POP JUMP JUMPDEST PUSH0 DUP1 REVERT JUMPDEST PUSH0 DUP2 SWAP1 POP SWAP2 SWAP1 POP JUMP JUMPDEST PUSH2 0x735 DUP2 PUSH2 0x723 JUMP JUMPDEST DUP2 EQ PUSH2 0x73F JUMPI PUSH0 DUP1 REVERT JUMPDEST POP JUMP JUMPDEST PUSH0 DUP2 CALLDATALOAD SWAP1 POP PUSH2 0x750 DUP2 PUSH2 0x72C JUMP JUMPDEST SWAP3 SWAP2 POP POP JUMP JUMPDEST PUSH0 PUSH1 0x20 DUP3 DUP5 SUB SLT ISZERO PUSH2 0x76B JUMPI PUSH2 0x76A PUSH2 0x71F JUMP JUMPDEST JUMPDEST PUSH0 PUSH2 0x778 DUP5 DUP3 DUP6 ADD PUSH2 0x742 JUMP JUMPDEST SWAP2 POP POP SWAP3 SWAP2 POP POP JUMP JUMPDEST PUSH2 0x78A DUP2 PUSH2 0x723 JUMP JUMPDEST DUP3 MSTORE POP POP JUMP JUMPDEST PUSH0 PUSH1 0x20 DUP3 ADD SWAP1 POP PUSH2 0x7A3 PUSH0 DUP4 ADD DUP5 PUSH2 0x781 JUMP JUMPDEST SWAP3 SWAP2 POP POP JUMP JUMPDEST PUSH0 DUP2 MLOAD SWAP1 POP SWAP2 SWAP1 POP JUMP JUMPDEST PUSH0 DUP3 DUP3 MSTORE PUSH1 0x20 DUP3 ADD SWAP1 POP SWAP3 SWAP2 POP POP JUMP JUMPDEST DUP3 DUP2 DUP4 MCOPY PUSH0 DUP4 DUP4 ADD MSTORE POP POP POP JUMP JUMPDEST PUSH0 PUSH1 0x1F NOT PUSH1 0x1F DUP4 ADD AND SWAP1 POP SWAP2 SWAP1 POP JUMP JUMPDEST PUSH0 PUSH2 0x7EB DUP3 PUSH2 0x7A9 JUMP JUMPDEST PUSH2 0x7F5 DUP2 DUP6 PUSH2 0x7B3 JUMP JUMPDEST SWAP4 POP PUSH2 0x805 DUP2 DUP6 PUSH1 0x20 DUP7 ADD PUSH2 0x7C3 JUMP JUMPDEST PUSH2 0x80E DUP2 PUSH2 0x7D1 JUMP JUMPDEST DUP5 ADD SWAP2 POP POP SWAP3 SWAP2 POP POP JUMP JUMPDEST PUSH0 PUSH1 0x20 DUP3 ADD SWAP1 POP DUP2 DUP2 SUB PUSH0 DUP4 ADD MSTORE PUSH2 0x831 DUP2 DUP5 PUSH2 0x7E1 JUMP JUMPDEST SWAP1 POP SWAP3 SWAP2 POP POP JUMP JUMPDEST PUSH32 0x496E646578206F7574206F6620626F756E647300000000000000000000000000 PUSH0 DUP3 ADD MSTORE POP JUMP JUMPDEST PUSH0 PUSH2 0x86D PUSH1 0x13 DUP4 PUSH2 0x7B3 JUMP JUMPDEST SWAP2 POP PUSH2 0x878 DUP3 PUSH2 0x839 JUMP JUMPDEST PUSH1 0x20 DUP3 ADD SWAP1 POP SWAP2 SWAP1 POP JUMP JUMPDEST PUSH0 PUSH1 0x20 DUP3 ADD SWAP1 POP DUP2 DUP2 SUB PUSH0 DUP4 ADD MSTORE PUSH2 0x89A DUP2 PUSH2 0x861 JUMP JUMPDEST SWAP1 POP SWAP2 SWAP1 POP JUMP JUMPDEST PUSH32 0x4E487B7100000000000000000000000000000000000000000000000000000000 PUSH0 MSTORE PUSH1 0x32 PUSH1 0x4 MSTORE PUSH1 0x24 PUSH0 REVERT JUMPDEST PUSH32 0x4E487B7100000000000000000000000000000000000000000000000000000000 PUSH0 MSTORE PUSH1 0x31 PUSH1 0x4 MSTORE PUSH1 0x24 PUSH0 REVERT JUMPDEST PUSH0 DUP2 ISZERO ISZERO SWAP1 POP SWAP2 SWAP1 POP JUMP JUMPDEST PUSH2 0x90F DUP2 PUSH2 0x8FB JUMP JUMPDEST DUP3 MSTORE POP POP JUMP JUMPDEST PUSH0 PUSH20 0xFFFFFFFFFFFFFFFFFFFFFFFFFFFFFFFFFFFFFFFF DUP3 AND SWAP1 POP SWAP2 SWAP1 POP JUMP JUMPDEST PUSH0 PUSH2 0x93E DUP3 PUSH2 0x915 JUMP JUMPDEST SWAP1 POP SWAP2 SWAP1 POP JUMP JUMPDEST PUSH2 0x94E DUP2 PUSH2 0x934 JUMP JUMPDEST DUP3 MSTORE POP POP JUMP JUMPDEST PUSH0 PUSH1 0x80 DUP3 ADD SWAP1 POP PUSH2 0x967 PUSH0 DUP4 ADD DUP8 PUSH2 0x906 JUMP JUMPDEST DUP2 DUP2 SUB PUSH1 0x20 DUP4 ADD MSTORE PUSH2 0x979 DUP2 DUP7 PUSH2 0x7E1 JUMP JUMPDEST SWAP1 POP PUSH2 0x988 PUSH1 0x40 DUP4 ADD DUP6 PUSH2 0x945 JUMP JUMPDEST PUSH2 0x995 PUSH1 0x60 DUP4 ADD DUP5 PUSH2 0x781 JUMP JUMPDEST SWAP6 SWAP5 POP POP POP POP POP JUMP JUMPDEST PUSH0 PUSH1 0x40 DUP3 ADD SWAP1 POP PUSH2 0x9B1 PUSH0 DUP4 ADD DUP6 PUSH2 0x945 JUMP JUMPDEST PUSH2 0x9BE PUSH1 0x20 DUP4 ADD DUP5 PUSH2 0x945 JUMP JUMPDEST SWAP4 SWAP3 POP POP POP JUMP JUMPDEST PUSH32 0x4E487B7100000000000000000000000000000000000000000000000000000000 PUSH0 MSTORE PUSH1 0x11 PUSH1 0x4 MSTORE PUSH1 0x24 PUSH0 REVERT JUMPDEST PUSH0 PUSH2 0x9FC DUP3 PUSH2 0x723 JUMP JUMPDEST SWAP2 POP PUSH32 0xFFFFFFFFFFFFFFFFFFFFFFFFFFFFFFFFFFFFFFFFFFFFFFFFFFFFFFFFFFFFFFFF DUP3 SUB PUSH2 0xA2E JUMPI PUSH2 0xA2D PUSH2 0x9C5 JUMP JUMPDEST JUMPDEST PUSH1 0x1 DUP3 ADD SWAP1 POP SWAP2 SWAP1 POP JUMP JUMPDEST PUSH32 0x4E487B7100000000000000000000000000000000000000000000000000000000 PUSH0 MSTORE PUSH1 0x12 PUSH1 0x4 MSTORE PUSH1 0x24 PUSH0 REVERT JUMPDEST PUSH0 PUSH2 0xA70 DUP3 PUSH2 0x723 JUMP JUMPDEST SWAP2 POP PUSH2 0xA7B DUP4 PUSH2 0x723 JUMP JUMPDEST SWAP3 POP DUP3 PUSH2 0xA8B JUMPI PUSH2 0xA8A PUSH2 0xA39 JUMP JUMPDEST JUMPDEST DUP3 DUP3 DIV SWAP1 POP SWAP3 SWAP2 POP POP JUMP JUMPDEST PUSH32 0x4E487B7100000000000000000000000000000000000000000000000000000000 PUSH0 MSTORE PUSH1 0x41 PUSH1 0x4 MSTORE PUSH1 0x24 PUSH0 REVERT JUMPDEST PUSH0 PUSH2 0xACD DUP3 PUSH2 0x723 JUMP JUMPDEST SWAP2 POP PUSH2 0xAD8 DUP4 PUSH2 0x723 JUMP JUMPDEST SWAP3 POP DUP3 DUP3 SUB SWAP1 POP DUP2 DUP2 GT ISZERO PUSH2 0xAF0 JUMPI PUSH2 0xAEF PUSH2 0x9C5 JUMP JUMPDEST JUMPDEST SWAP3 SWAP2 POP POP JUMP JUMPDEST PUSH0 PUSH2 0xB00 DUP3 PUSH2 0x723 JUMP JUMPDEST SWAP2 POP PUSH2 0xB0B DUP4 PUSH2 0x723 JUMP JUMPDEST SWAP3 POP DUP3 PUSH2 0xB1B JUMPI PUSH2 0xB1A PUSH2 0xA39 JUMP JUMPDEST JUMPDEST DUP3 DUP3 MOD SWAP1 POP SWAP3 SWAP2 POP POP JUMP JUMPDEST PUSH0 PUSH2 0xB30 DUP3 PUSH2 0x723 JUMP JUMPDEST SWAP2 POP PUSH2 0xB3B DUP4 PUSH2 0x723 JUMP JUMPDEST SWAP3 POP DUP3 DUP3 ADD SWAP1 POP DUP1 DUP3 GT ISZERO PUSH2 0xB53 JUMPI PUSH2 0xB52 PUSH2 0x9C5 JUMP JUMPDEST JUMPDEST SWAP3 SWAP2 POP POP JUMP JUMPDEST PUSH0 PUSH2 0xB63 DUP3 PUSH2 0x723 JUMP JUMPDEST SWAP2 POP PUSH0 DUP3 SUB PUSH2 0xB75 JUMPI PUSH2 0xB74 PUSH2 0x9C5 JUMP JUMPDEST JUMPDEST PUSH1 0x1 DUP3 SUB SWAP1 POP SWAP2 SWAP1 POP JUMP INVALID LOG2 PUSH5 0x6970667358 0x22 SLT KECCAK256 0x4B 0xDA BALANCE CODESIZE SHL PUSH5 0x71B6BE7118 SWAP1 BLOBBASEFEE DUP11 LOG1 SWAP10 PUSH29 0x55195032B1CB9BF06C49A88EB92A3B64736F6C634300081A0033000000 "
				},
				"gasEstimates": {
					"creation": {
						"codeDepositCost": "599600",
						"executionCost": "infinite",
						"totalCost": "infinite"
					},
					"external": {
						"addElementOfDynamicArray(uint256)": "46844",
						"dynamicArr(uint256)": "infinite",
						"fixedArr(uint256)": "infinite",
						"getElementOfDynamicArray(uint256)": "infinite",
						"getElementOfFixedArray(uint256)": "infinite",
						"getInternalStateVariable()": "2521",
						"getLengthOfDynamicArray()": "2462",
						"publicStateVar()": "2471",
						"removeLastElementOfDynamicArray()": "29509",
						"testAddressType()": "infinite",
						"testGlobalVariable()": "1386",
						"testLocalVariable()": "1388",
						"testMultipleThings(uint256)": "infinite",
						"testStateVariable()": "25633",
						"testTypes()": "infinite"
					}
				},
				"methodIdentifiers": {
					"addElementOfDynamicArray(uint256)": "44abd13f",
					"dynamicArr(uint256)": "2bc09df2",
					"fixedArr(uint256)": "43916eca",
					"getElementOfDynamicArray(uint256)": "bbaff1aa",
					"getElementOfFixedArray(uint256)": "03a159a9",
					"getInternalStateVariable()": "797f3696",
					"getLengthOfDynamicArray()": "7a540377",
					"publicStateVar()": "09d97dda",
					"removeLastElementOfDynamicArray()": "0b5fcf4b",
					"testAddressType()": "324224c2",
					"testGlobalVariable()": "b5d499d0",
					"testLocalVariable()": "5b9dbef7",
					"testMultipleThings(uint256)": "7048a82b",
					"testStateVariable()": "fa462c46",
					"testTypes()": "10b300cf"
				}
			},
			"storageLayout": {
				"storage": [
					{
						"astId": 9,
						"contract": "contracts/Basic.sol:DerivedBasic",
						"label": "fixedArr",
						"offset": 0,
						"slot": "0",
						"type": "t_array(t_uint256)3_storage"
					},
					{
						"astId": 31,
						"contract": "contracts/Basic.sol:DerivedBasic",
						"label": "dynamicArr",
						"offset": 0,
						"slot": "3",
						"type": "t_array(t_uint256)dyn_storage"
					},
					{
						"astId": 183,
						"contract": "contracts/Basic.sol:DerivedBasic",
						"label": "publicStateVar",
						"offset": 0,
						"slot": "4",
						"type": "t_uint256"
					},
					{
						"astId": 186,
						"contract": "contracts/Basic.sol:DerivedBasic",
						"label": "internalStateVar",
						"offset": 0,
						"slot": "5",
						"type": "t_uint256"
					},
					{
						"astId": 188,
						"contract": "contracts/Basic.sol:DerivedBasic",
						"label": "stateVar",
						"offset": 0,
						"slot": "6",
						"type": "t_uint256"
					}
				],
				"types": {
					"t_array(t_uint256)3_storage": {
						"base": "t_uint256",
						"encoding": "inplace",
						"label": "uint256[3]",
						"numberOfBytes": "96"
					},
					"t_array(t_uint256)dyn_storage": {
						"base": "t_uint256",
						"encoding": "dynamic_array",
						"label": "uint256[]",
						"numberOfBytes": "32"
					},
					"t_uint256": {
						"encoding": "inplace",
						"label": "uint256",
						"numberOfBytes": "32"
					}
				}
			},
			"userdoc": {
				"kind": "user",
				"methods": {},
				"version": 1
			}
		}
	}
}