{
	"contracts/Basic.sol": {
		"Basic": {
			"abi": [
				{
					"anonymous": false,
					"inputs": [
						{
							"indexed": false,
							"internalType": "address",
							"name": "_sender",
							"type": "address"
						},
						{
							"indexed": false,
							"internalType": "address",
							"name": "_receiver",
							"type": "address"
						}
					],
					"name": "printAddressType",
					"type": "event"
				},
				{
					"anonymous": false,
					"inputs": [
						{
							"indexed": false,
							"internalType": "bool",
							"name": "_boolVal",
							"type": "bool"
						},
						{
							"indexed": false,
							"internalType": "string",
							"name": "_stringVal",
							"type": "string"
						},
						{
							"indexed": false,
							"internalType": "address",
							"name": "_addressVal",
							"type": "address"
						},
						{
							"indexed": false,
							"internalType": "uint256",
							"name": "_uint256Val",
							"type": "uint256"
						}
					],
					"name": "printTypes",
					"type": "event"
				},
				{
					"inputs": [],
					"name": "testAddressType",
					"outputs": [],
					"stateMutability": "nonpayable",
					"type": "function"
				},
				{
					"inputs": [],
					"name": "testTypes",
					"outputs": [],
					"stateMutability": "nonpayable",
					"type": "function"
				}
			],
			"devdoc": {
				"kind": "dev",
				"methods": {},
				"version": 1
			},
			"evm": {
				"assembly": "    /* \"contracts/Basic.sol\":58:795  contract Basic {... */\n  mstore(0x40, 0x80)\n  callvalue\n  dup1\n  iszero\n  tag_1\n  jumpi\n  0x00\n  dup1\n  revert\ntag_1:\n  pop\n  dataSize(sub_0)\n  dup1\n  dataOffset(sub_0)\n  0x00\n  codecopy\n  0x00\n  return\nstop\n\nsub_0: assembly {\n        /* \"contracts/Basic.sol\":58:795  contract Basic {... */\n      mstore(0x40, 0x80)\n      callvalue\n      dup1\n      iszero\n      tag_1\n      jumpi\n      0x00\n      dup1\n      revert\n    tag_1:\n      pop\n      jumpi(tag_2, lt(calldatasize, 0x04))\n      shr(0xe0, calldataload(0x00))\n      dup1\n      0x10b300cf\n      eq\n      tag_3\n      jumpi\n      dup1\n      0x324224c2\n      eq\n      tag_4\n      jumpi\n    tag_2:\n      0x00\n      dup1\n      revert\n        /* \"contracts/Basic.sol\":98:359  function testTypes() public {... */\n    tag_3:\n      tag_5\n      tag_6\n      jump\t// in\n    tag_5:\n      stop\n        /* \"contracts/Basic.sol\":365:535  function testAddressType() public {... */\n    tag_4:\n      tag_7\n      tag_8\n      jump\t// in\n    tag_7:\n      stop\n        /* \"contracts/Basic.sol\":98:359  function testTypes() public {... */\n    tag_6:\n        /* \"contracts/Basic.sol\":136:148  bool boolVal */\n      0x00\n        /* \"contracts/Basic.sol\":151:155  true */\n      0x01\n        /* \"contracts/Basic.sol\":136:155  bool boolVal = true */\n      swap1\n      pop\n        /* \"contracts/Basic.sol\":165:188  string memory stringVal */\n      0x00\n        /* \"contracts/Basic.sol\":165:201  string memory stringVal = \"Solidity\" */\n      mload(0x40)\n      dup1\n      0x40\n      add\n      0x40\n      mstore\n      dup1\n      0x08\n      dup2\n      mstore\n      0x20\n      add\n      0x536f6c6964697479000000000000000000000000000000000000000000000000\n      dup2\n      mstore\n      pop\n      swap1\n      pop\n        /* \"contracts/Basic.sol\":211:229  address addressVal */\n      0x00\n        /* \"contracts/Basic.sol\":252:270  uint256 uint256Val */\n      dup1\n        /* \"contracts/Basic.sol\":273:283  1073741824 */\n      0x40000000\n        /* \"contracts/Basic.sol\":252:283  uint256 uint256Val = 1073741824 */\n      swap1\n      pop\n        /* \"contracts/Basic.sol\":298:352  printTypes(boolVal, stringVal, addressVal, uint256Val) */\n      0x2f0d85d6e91ffbeb6d7e574372b7160fc892a08b22ca0d25555c17de3f677141\n        /* \"contracts/Basic.sol\":309:316  boolVal */\n      dup5\n        /* \"contracts/Basic.sol\":318:327  stringVal */\n      dup5\n        /* \"contracts/Basic.sol\":329:339  addressVal */\n      dup5\n        /* \"contracts/Basic.sol\":341:351  uint256Val */\n      dup5\n        /* \"contracts/Basic.sol\":298:352  printTypes(boolVal, stringVal, addressVal, uint256Val) */\n      mload(0x40)\n      tag_10\n      swap5\n      swap4\n      swap3\n      swap2\n      swap1\n      tag_11\n      jump\t// in\n    tag_10:\n      mload(0x40)\n      dup1\n      swap2\n      sub\n      swap1\n      log1\n        /* \"contracts/Basic.sol\":126:359  {... */\n      pop\n      pop\n      pop\n      pop\n        /* \"contracts/Basic.sol\":98:359  function testTypes() public {... */\n      jump\t// out\n        /* \"contracts/Basic.sol\":365:535  function testAddressType() public {... */\n    tag_8:\n        /* \"contracts/Basic.sol\":409:423  address sender */\n      0x00\n        /* \"contracts/Basic.sol\":426:436  msg.sender */\n      caller\n        /* \"contracts/Basic.sol\":409:436  address sender = msg.sender */\n      swap1\n      pop\n        /* \"contracts/Basic.sol\":446:462  address receiver */\n      0x00\n        /* \"contracts/Basic.sol\":473:478  0x101 */\n      0x0101\n        /* \"contracts/Basic.sol\":446:479  address receiver = address(0x101) */\n      swap1\n      pop\n        /* \"contracts/Basic.sol\":494:528  printAddressType(sender, receiver) */\n      0xf8e6e1fdfb9a814b6dc1c1a93053742f9ae0933e85677a49e3243e4b382c737a\n        /* \"contracts/Basic.sol\":511:517  sender */\n      dup3\n        /* \"contracts/Basic.sol\":519:527  receiver */\n      dup3\n        /* \"contracts/Basic.sol\":494:528  printAddressType(sender, receiver) */\n      mload(0x40)\n      tag_13\n      swap3\n      swap2\n      swap1\n      tag_14\n      jump\t// in\n    tag_13:\n      mload(0x40)\n      dup1\n      swap2\n      sub\n      swap1\n      log1\n        /* \"contracts/Basic.sol\":399:535  {... */\n      pop\n      pop\n        /* \"contracts/Basic.sol\":365:535  function testAddressType() public {... */\n      jump\t// out\n        /* \"#utility.yul\":7:97   */\n    tag_15:\n        /* \"#utility.yul\":41:48   */\n      0x00\n        /* \"#utility.yul\":84:89   */\n      dup2\n        /* \"#utility.yul\":77:90   */\n      iszero\n        /* \"#utility.yul\":70:91   */\n      iszero\n        /* \"#utility.yul\":59:91   */\n      swap1\n      pop\n        /* \"#utility.yul\":7:97   */\n      swap2\n      swap1\n      pop\n      jump\t// out\n        /* \"#utility.yul\":103:212   */\n    tag_16:\n        /* \"#utility.yul\":184:205   */\n      tag_30\n        /* \"#utility.yul\":199:204   */\n      dup2\n        /* \"#utility.yul\":184:205   */\n      tag_15\n      jump\t// in\n    tag_30:\n        /* \"#utility.yul\":179:182   */\n      dup3\n        /* \"#utility.yul\":172:206   */\n      mstore\n        /* \"#utility.yul\":103:212   */\n      pop\n      pop\n      jump\t// out\n        /* \"#utility.yul\":218:317   */\n    tag_17:\n        /* \"#utility.yul\":270:276   */\n      0x00\n        /* \"#utility.yul\":304:309   */\n      dup2\n        /* \"#utility.yul\":298:310   */\n      mload\n        /* \"#utility.yul\":288:310   */\n      swap1\n      pop\n        /* \"#utility.yul\":218:317   */\n      swap2\n      swap1\n      pop\n      jump\t// out\n        /* \"#utility.yul\":323:492   */\n    tag_18:\n        /* \"#utility.yul\":407:418   */\n      0x00\n        /* \"#utility.yul\":441:447   */\n      dup3\n        /* \"#utility.yul\":436:439   */\n      dup3\n        /* \"#utility.yul\":429:448   */\n      mstore\n        /* \"#utility.yul\":481:485   */\n      0x20\n        /* \"#utility.yul\":476:479   */\n      dup3\n        /* \"#utility.yul\":472:486   */\n      add\n        /* \"#utility.yul\":457:486   */\n      swap1\n      pop\n        /* \"#utility.yul\":323:492   */\n      swap3\n      swap2\n      pop\n      pop\n      jump\t// out\n        /* \"#utility.yul\":498:637   */\n    tag_19:\n        /* \"#utility.yul\":587:593   */\n      dup3\n        /* \"#utility.yul\":582:585   */\n      dup2\n        /* \"#utility.yul\":577:580   */\n      dup4\n        /* \"#utility.yul\":571:594   */\n      mcopy\n        /* \"#utility.yul\":628:629   */\n      0x00\n        /* \"#utility.yul\":619:625   */\n      dup4\n        /* \"#utility.yul\":614:617   */\n      dup4\n        /* \"#utility.yul\":610:626   */\n      add\n        /* \"#utility.yul\":603:630   */\n      mstore\n        /* \"#utility.yul\":498:637   */\n      pop\n      pop\n      pop\n      jump\t// out\n        /* \"#utility.yul\":643:745   */\n    tag_20:\n        /* \"#utility.yul\":684:690   */\n      0x00\n        /* \"#utility.yul\":735:737   */\n      0x1f\n        /* \"#utility.yul\":731:738   */\n      not\n        /* \"#utility.yul\":726:728   */\n      0x1f\n        /* \"#utility.yul\":719:724   */\n      dup4\n        /* \"#utility.yul\":715:729   */\n      add\n        /* \"#utility.yul\":711:739   */\n      and\n        /* \"#utility.yul\":701:739   */\n      swap1\n      pop\n        /* \"#utility.yul\":643:745   */\n      swap2\n      swap1\n      pop\n      jump\t// out\n        /* \"#utility.yul\":751:1128   */\n    tag_21:\n        /* \"#utility.yul\":839:842   */\n      0x00\n        /* \"#utility.yul\":867:906   */\n      tag_36\n        /* \"#utility.yul\":900:905   */\n      dup3\n        /* \"#utility.yul\":867:906   */\n      tag_17\n      jump\t// in\n    tag_36:\n        /* \"#utility.yul\":922:993   */\n      tag_37\n        /* \"#utility.yul\":986:992   */\n      dup2\n        /* \"#utility.yul\":981:984   */\n      dup6\n        /* \"#utility.yul\":922:993   */\n      tag_18\n      jump\t// in\n    tag_37:\n        /* \"#utility.yul\":915:993   */\n      swap4\n      pop\n        /* \"#utility.yul\":1002:1067   */\n      tag_38\n        /* \"#utility.yul\":1060:1066   */\n      dup2\n        /* \"#utility.yul\":1055:1058   */\n      dup6\n        /* \"#utility.yul\":1048:1052   */\n      0x20\n        /* \"#utility.yul\":1041:1046   */\n      dup7\n        /* \"#utility.yul\":1037:1053   */\n      add\n        /* \"#utility.yul\":1002:1067   */\n      tag_19\n      jump\t// in\n    tag_38:\n        /* \"#utility.yul\":1092:1121   */\n      tag_39\n        /* \"#utility.yul\":1114:1120   */\n      dup2\n        /* \"#utility.yul\":1092:1121   */\n      tag_20\n      jump\t// in\n    tag_39:\n        /* \"#utility.yul\":1087:1090   */\n      dup5\n        /* \"#utility.yul\":1083:1122   */\n      add\n        /* \"#utility.yul\":1076:1122   */\n      swap2\n      pop\n        /* \"#utility.yul\":843:1128   */\n      pop\n        /* \"#utility.yul\":751:1128   */\n      swap3\n      swap2\n      pop\n      pop\n      jump\t// out\n        /* \"#utility.yul\":1134:1260   */\n    tag_22:\n        /* \"#utility.yul\":1171:1178   */\n      0x00\n        /* \"#utility.yul\":1211:1253   */\n      0xffffffffffffffffffffffffffffffffffffffff\n        /* \"#utility.yul\":1204:1209   */\n      dup3\n        /* \"#utility.yul\":1200:1254   */\n      and\n        /* \"#utility.yul\":1189:1254   */\n      swap1\n      pop\n        /* \"#utility.yul\":1134:1260   */\n      swap2\n      swap1\n      pop\n      jump\t// out\n        /* \"#utility.yul\":1266:1362   */\n    tag_23:\n        /* \"#utility.yul\":1303:1310   */\n      0x00\n        /* \"#utility.yul\":1332:1356   */\n      tag_42\n        /* \"#utility.yul\":1350:1355   */\n      dup3\n        /* \"#utility.yul\":1332:1356   */\n      tag_22\n      jump\t// in\n    tag_42:\n        /* \"#utility.yul\":1321:1356   */\n      swap1\n      pop\n        /* \"#utility.yul\":1266:1362   */\n      swap2\n      swap1\n      pop\n      jump\t// out\n        /* \"#utility.yul\":1368:1486   */\n    tag_24:\n        /* \"#utility.yul\":1455:1479   */\n      tag_44\n        /* \"#utility.yul\":1473:1478   */\n      dup2\n        /* \"#utility.yul\":1455:1479   */\n      tag_23\n      jump\t// in\n    tag_44:\n        /* \"#utility.yul\":1450:1453   */\n      dup3\n        /* \"#utility.yul\":1443:1480   */\n      mstore\n        /* \"#utility.yul\":1368:1486   */\n      pop\n      pop\n      jump\t// out\n        /* \"#utility.yul\":1492:1569   */\n    tag_25:\n        /* \"#utility.yul\":1529:1536   */\n      0x00\n        /* \"#utility.yul\":1558:1563   */\n      dup2\n        /* \"#utility.yul\":1547:1563   */\n      swap1\n      pop\n        /* \"#utility.yul\":1492:1569   */\n      swap2\n      swap1\n      pop\n      jump\t// out\n        /* \"#utility.yul\":1575:1693   */\n    tag_26:\n        /* \"#utility.yul\":1662:1686   */\n      tag_47\n        /* \"#utility.yul\":1680:1685   */\n      dup2\n        /* \"#utility.yul\":1662:1686   */\n      tag_25\n      jump\t// in\n    tag_47:\n        /* \"#utility.yul\":1657:1660   */\n      dup3\n        /* \"#utility.yul\":1650:1687   */\n      mstore\n        /* \"#utility.yul\":1575:1693   */\n      pop\n      pop\n      jump\t// out\n        /* \"#utility.yul\":1699:2331   */\n    tag_11:\n        /* \"#utility.yul\":1890:1894   */\n      0x00\n        /* \"#utility.yul\":1928:1931   */\n      0x80\n        /* \"#utility.yul\":1917:1926   */\n      dup3\n        /* \"#utility.yul\":1913:1932   */\n      add\n        /* \"#utility.yul\":1905:1932   */\n      swap1\n      pop\n        /* \"#utility.yul\":1942:2007   */\n      tag_49\n        /* \"#utility.yul\":2004:2005   */\n      0x00\n        /* \"#utility.yul\":1993:2002   */\n      dup4\n        /* \"#utility.yul\":1989:2006   */\n      add\n        /* \"#utility.yul\":1980:1986   */\n      dup8\n        /* \"#utility.yul\":1942:2007   */\n      tag_16\n      jump\t// in\n    tag_49:\n        /* \"#utility.yul\":2054:2063   */\n      dup2\n        /* \"#utility.yul\":2048:2052   */\n      dup2\n        /* \"#utility.yul\":2044:2064   */\n      sub\n        /* \"#utility.yul\":2039:2041   */\n      0x20\n        /* \"#utility.yul\":2028:2037   */\n      dup4\n        /* \"#utility.yul\":2024:2042   */\n      add\n        /* \"#utility.yul\":2017:2065   */\n      mstore\n        /* \"#utility.yul\":2082:2160   */\n      tag_50\n        /* \"#utility.yul\":2155:2159   */\n      dup2\n        /* \"#utility.yul\":2146:2152   */\n      dup7\n        /* \"#utility.yul\":2082:2160   */\n      tag_21\n      jump\t// in\n    tag_50:\n        /* \"#utility.yul\":2074:2160   */\n      swap1\n      pop\n        /* \"#utility.yul\":2170:2242   */\n      tag_51\n        /* \"#utility.yul\":2238:2240   */\n      0x40\n        /* \"#utility.yul\":2227:2236   */\n      dup4\n        /* \"#utility.yul\":2223:2241   */\n      add\n        /* \"#utility.yul\":2214:2220   */\n      dup6\n        /* \"#utility.yul\":2170:2242   */\n      tag_24\n      jump\t// in\n    tag_51:\n        /* \"#utility.yul\":2252:2324   */\n      tag_52\n        /* \"#utility.yul\":2320:2322   */\n      0x60\n        /* \"#utility.yul\":2309:2318   */\n      dup4\n        /* \"#utility.yul\":2305:2323   */\n      add\n        /* \"#utility.yul\":2296:2302   */\n      dup5\n        /* \"#utility.yul\":2252:2324   */\n      tag_26\n      jump\t// in\n    tag_52:\n        /* \"#utility.yul\":1699:2331   */\n      swap6\n      swap5\n      pop\n      pop\n      pop\n      pop\n      pop\n      jump\t// out\n        /* \"#utility.yul\":2337:2669   */\n    tag_14:\n        /* \"#utility.yul\":2458:2462   */\n      0x00\n        /* \"#utility.yul\":2496:2498   */\n      0x40\n        /* \"#utility.yul\":2485:2494   */\n      dup3\n        /* \"#utility.yul\":2481:2499   */\n      add\n        /* \"#utility.yul\":2473:2499   */\n      swap1\n      pop\n        /* \"#utility.yul\":2509:2580   */\n      tag_54\n        /* \"#utility.yul\":2577:2578   */\n      0x00\n        /* \"#utility.yul\":2566:2575   */\n      dup4\n        /* \"#utility.yul\":2562:2579   */\n      add\n        /* \"#utility.yul\":2553:2559   */\n      dup6\n        /* \"#utility.yul\":2509:2580   */\n      tag_24\n      jump\t// in\n    tag_54:\n        /* \"#utility.yul\":2590:2662   */\n      tag_55\n        /* \"#utility.yul\":2658:2660   */\n      0x20\n        /* \"#utility.yul\":2647:2656   */\n      dup4\n        /* \"#utility.yul\":2643:2661   */\n      add\n        /* \"#utility.yul\":2634:2640   */\n      dup5\n        /* \"#utility.yul\":2590:2662   */\n      tag_24\n      jump\t// in\n    tag_55:\n        /* \"#utility.yul\":2337:2669   */\n      swap4\n      swap3\n      pop\n      pop\n      pop\n      jump\t// out\n\n    auxdata: 0xa264697066735822122034559fe639f6fd8da22466cdc72c0100985feb2ddb9fe3a83271f6a020e8978264736f6c634300081a0033\n}\n",
				"bytecode": {
					"linkReferences": {},
					"object": "6080604052348015600e575f80fd5b506102a58061001c5f395ff3fe608060405234801561000f575f80fd5b5060043610610034575f3560e01c806310b300cf14610038578063324224c214610042575b5f80fd5b61004061004c565b005b61004a6100d6565b005b5f600190505f6040518060400160405280600881526020017f536f6c696469747900000000000000000000000000000000000000000000000081525090505f80634000000090507f2f0d85d6e91ffbeb6d7e574372b7160fc892a08b22ca0d25555c17de3f677141848484846040516100c894939291906101fe565b60405180910390a150505050565b5f3390505f61010190507ff8e6e1fdfb9a814b6dc1c1a93053742f9ae0933e85677a49e3243e4b382c737a8282604051610111929190610248565b60405180910390a15050565b5f8115159050919050565b6101318161011d565b82525050565b5f81519050919050565b5f82825260208201905092915050565b8281835e5f83830152505050565b5f601f19601f8301169050919050565b5f61017982610137565b6101838185610141565b9350610193818560208601610151565b61019c8161015f565b840191505092915050565b5f73ffffffffffffffffffffffffffffffffffffffff82169050919050565b5f6101d0826101a7565b9050919050565b6101e0816101c6565b82525050565b5f819050919050565b6101f8816101e6565b82525050565b5f6080820190506102115f830187610128565b8181036020830152610223818661016f565b905061023260408301856101d7565b61023f60608301846101ef565b95945050505050565b5f60408201905061025b5f8301856101d7565b61026860208301846101d7565b939250505056fea264697066735822122034559fe639f6fd8da22466cdc72c0100985feb2ddb9fe3a83271f6a020e8978264736f6c634300081a0033",
					"opcodes": "PUSH1 0x80 PUSH1 0x40 MSTORE CALLVALUE DUP1 ISZERO PUSH1 0xE JUMPI PUSH0 DUP1 REVERT JUMPDEST POP PUSH2 0x2A5 DUP1 PUSH2 0x1C PUSH0 CODECOPY PUSH0 RETURN INVALID PUSH1 0x80 PUSH1 0x40 MSTORE CALLVALUE DUP1 ISZERO PUSH2 0xF JUMPI PUSH0 DUP1 REVERT JUMPDEST POP PUSH1 0x4 CALLDATASIZE LT PUSH2 0x34 JUMPI PUSH0 CALLDATALOAD PUSH1 0xE0 SHR DUP1 PUSH4 0x10B300CF EQ PUSH2 0x38 JUMPI DUP1 PUSH4 0x324224C2 EQ PUSH2 0x42 JUMPI JUMPDEST PUSH0 DUP1 REVERT JUMPDEST PUSH2 0x40 PUSH2 0x4C JUMP JUMPDEST STOP JUMPDEST PUSH2 0x4A PUSH2 0xD6 JUMP JUMPDEST STOP JUMPDEST PUSH0 PUSH1 0x1 SWAP1 POP PUSH0 PUSH1 0x40 MLOAD DUP1 PUSH1 0x40 ADD PUSH1 0x40 MSTORE DUP1 PUSH1 0x8 DUP2 MSTORE PUSH1 0x20 ADD PUSH32 0x536F6C6964697479000000000000000000000000000000000000000000000000 DUP2 MSTORE POP SWAP1 POP PUSH0 DUP1 PUSH4 0x40000000 SWAP1 POP PUSH32 0x2F0D85D6E91FFBEB6D7E574372B7160FC892A08B22CA0D25555C17DE3F677141 DUP5 DUP5 DUP5 DUP5 PUSH1 0x40 MLOAD PUSH2 0xC8 SWAP5 SWAP4 SWAP3 SWAP2 SWAP1 PUSH2 0x1FE JUMP JUMPDEST PUSH1 0x40 MLOAD DUP1 SWAP2 SUB SWAP1 LOG1 POP POP POP POP JUMP JUMPDEST PUSH0 CALLER SWAP1 POP PUSH0 PUSH2 0x101 SWAP1 POP PUSH32 0xF8E6E1FDFB9A814B6DC1C1A93053742F9AE0933E85677A49E3243E4B382C737A DUP3 DUP3 PUSH1 0x40 MLOAD PUSH2 0x111 SWAP3 SWAP2 SWAP1 PUSH2 0x248 JUMP JUMPDEST PUSH1 0x40 MLOAD DUP1 SWAP2 SUB SWAP1 LOG1 POP POP JUMP JUMPDEST PUSH0 DUP2 ISZERO ISZERO SWAP1 POP SWAP2 SWAP1 POP JUMP JUMPDEST PUSH2 0x131 DUP2 PUSH2 0x11D JUMP JUMPDEST DUP3 MSTORE POP POP JUMP JUMPDEST PUSH0 DUP2 MLOAD SWAP1 POP SWAP2 SWAP1 POP JUMP JUMPDEST PUSH0 DUP3 DUP3 MSTORE PUSH1 0x20 DUP3 ADD SWAP1 POP SWAP3 SWAP2 POP POP JUMP JUMPDEST DUP3 DUP2 DUP4 MCOPY PUSH0 DUP4 DUP4 ADD MSTORE POP POP POP JUMP JUMPDEST PUSH0 PUSH1 0x1F NOT PUSH1 0x1F DUP4 ADD AND SWAP1 POP SWAP2 SWAP1 POP JUMP JUMPDEST PUSH0 PUSH2 0x179 DUP3 PUSH2 0x137 JUMP JUMPDEST PUSH2 0x183 DUP2 DUP6 PUSH2 0x141 JUMP JUMPDEST SWAP4 POP PUSH2 0x193 DUP2 DUP6 PUSH1 0x20 DUP7 ADD PUSH2 0x151 JUMP JUMPDEST PUSH2 0x19C DUP2 PUSH2 0x15F JUMP JUMPDEST DUP5 ADD SWAP2 POP POP SWAP3 SWAP2 POP POP JUMP JUMPDEST PUSH0 PUSH20 0xFFFFFFFFFFFFFFFFFFFFFFFFFFFFFFFFFFFFFFFF DUP3 AND SWAP1 POP SWAP2 SWAP1 POP JUMP JUMPDEST PUSH0 PUSH2 0x1D0 DUP3 PUSH2 0x1A7 JUMP JUMPDEST SWAP1 POP SWAP2 SWAP1 POP JUMP JUMPDEST PUSH2 0x1E0 DUP2 PUSH2 0x1C6 JUMP JUMPDEST DUP3 MSTORE POP POP JUMP JUMPDEST PUSH0 DUP2 SWAP1 POP SWAP2 SWAP1 POP JUMP JUMPDEST PUSH2 0x1F8 DUP2 PUSH2 0x1E6 JUMP JUMPDEST DUP3 MSTORE POP POP JUMP JUMPDEST PUSH0 PUSH1 0x80 DUP3 ADD SWAP1 POP PUSH2 0x211 PUSH0 DUP4 ADD DUP8 PUSH2 0x128 JUMP JUMPDEST DUP2 DUP2 SUB PUSH1 0x20 DUP4 ADD MSTORE PUSH2 0x223 DUP2 DUP7 PUSH2 0x16F JUMP JUMPDEST SWAP1 POP PUSH2 0x232 PUSH1 0x40 DUP4 ADD DUP6 PUSH2 0x1D7 JUMP JUMPDEST PUSH2 0x23F PUSH1 0x60 DUP4 ADD DUP5 PUSH2 0x1EF JUMP JUMPDEST SWAP6 SWAP5 POP POP POP POP POP JUMP JUMPDEST PUSH0 PUSH1 0x40 DUP3 ADD SWAP1 POP PUSH2 0x25B PUSH0 DUP4 ADD DUP6 PUSH2 0x1D7 JUMP JUMPDEST PUSH2 0x268 PUSH1 0x20 DUP4 ADD DUP5 PUSH2 0x1D7 JUMP JUMPDEST SWAP4 SWAP3 POP POP POP JUMP INVALID LOG2 PUSH5 0x6970667358 0x22 SLT KECCAK256 CALLVALUE SSTORE SWAP16 0xE6 CODECOPY 0xF6 REVERT DUP14 LOG2 0x24 PUSH7 0xCDC72C0100985F 0xEB 0x2D 0xDB SWAP16 0xE3 0xA8 ORIGIN PUSH18 0xF6A020E8978264736F6C634300081A003300 "
				},
				"gasEstimates": {
					"creation": {
						"codeDepositCost": "135400",
						"executionCost": "181",
						"totalCost": "135581"
					},
					"external": {
						"testAddressType()": "infinite",
						"testTypes()": "infinite"
					}
				},
				"methodIdentifiers": {
					"testAddressType()": "324224c2",
					"testTypes()": "10b300cf"
				}
			},
			"storageLayout": {
				"storage": [],
				"types": null
			},
			"userdoc": {
				"kind": "user",
				"methods": {},
				"version": 1
			}
		}
	}
}