{
	"data": {
		"bytecode": {
			"linkReferences": {},
			"object": "6080604052348015600e575f80fd5b506103c18061001c5f395ff3fe608060405234801561000f575f80fd5b5060043610610055575f3560e01c806310b300cf14610059578063324224c2146100635780635b9dbef71461006d578063b5d499d014610077578063fa462c4614610081575b5f80fd5b61006161008b565b005b61006b610115565b005b61007561015c565b005b61007f61019e565b005b6100896101dc565b005b5f600190505f6040518060400160405280600881526020017f536f6c696469747900000000000000000000000000000000000000000000000081525090505f80634000000090507f2f0d85d6e91ffbeb6d7e574372b7160fc892a08b22ca0d25555c17de3f677141848484846040516101079493929190610301565b60405180910390a150505050565b5f3390505f61010190507ff8e6e1fdfb9a814b6dc1c1a93053742f9ae0933e85677a49e3243e4b382c737a828260405161015092919061034b565b60405180910390a15050565b5f634000000090507f4eb424d1dc05ad494739fd43b6d90ca5639bb642b3404edeece2190e0c610991816040516101939190610372565b60405180910390a150565b5f4390507f4eb424d1dc05ad494739fd43b6d90ca5639bb642b3404edeece2190e0c610991816040516101d19190610372565b60405180910390a150565b63400000005f819055507f4eb424d1dc05ad494739fd43b6d90ca5639bb642b3404edeece2190e0c6109915f546040516102169190610372565b60405180910390a1565b5f8115159050919050565b61023481610220565b82525050565b5f81519050919050565b5f82825260208201905092915050565b8281835e5f83830152505050565b5f601f19601f8301169050919050565b5f61027c8261023a565b6102868185610244565b9350610296818560208601610254565b61029f81610262565b840191505092915050565b5f73ffffffffffffffffffffffffffffffffffffffff82169050919050565b5f6102d3826102aa565b9050919050565b6102e3816102c9565b82525050565b5f819050919050565b6102fb816102e9565b82525050565b5f6080820190506103145f83018761022b565b81810360208301526103268186610272565b905061033560408301856102da565b61034260608301846102f2565b95945050505050565b5f60408201905061035e5f8301856102da565b61036b60208301846102da565b9392505050565b5f6020820190506103855f8301846102f2565b9291505056fea264697066735822122099d3e28a530dfbad1e5aef4544d3022eb5bcae5d61c21e665daba2246b1c588e64736f6c634300081a0033",
			"opcodes": "PUSH1 0x80 PUSH1 0x40 MSTORE CALLVALUE DUP1 ISZERO PUSH1 0xE JUMPI PUSH0 DUP1 REVERT JUMPDEST POP PUSH2 0x3C1 DUP1 PUSH2 0x1C PUSH0 CODECOPY PUSH0 RETURN INVALID PUSH1 0x80 PUSH1 0x40 MSTORE CALLVALUE DUP1 ISZERO PUSH2 0xF JUMPI PUSH0 DUP1 REVERT JUMPDEST POP PUSH1 0x4 CALLDATASIZE LT PUSH2 0x55 JUMPI PUSH0 CALLDATALOAD PUSH1 0xE0 SHR DUP1 PUSH4 0x10B300CF EQ PUSH2 0x59 JUMPI DUP1 PUSH4 0x324224C2 EQ PUSH2 0x63 JUMPI DUP1 PUSH4 0x5B9DBEF7 EQ PUSH2 0x6D JUMPI DUP1 PUSH4 0xB5D499D0 EQ PUSH2 0x77 JUMPI DUP1 PUSH4 0xFA462C46 EQ PUSH2 0x81 JUMPI JUMPDEST PUSH0 DUP1 REVERT JUMPDEST PUSH2 0x61 PUSH2 0x8B JUMP JUMPDEST STOP JUMPDEST PUSH2 0x6B PUSH2 0x115 JUMP JUMPDEST STOP JUMPDEST PUSH2 0x75 PUSH2 0x15C JUMP JUMPDEST STOP JUMPDEST PUSH2 0x7F PUSH2 0x19E JUMP JUMPDEST STOP JUMPDEST PUSH2 0x89 PUSH2 0x1DC JUMP JUMPDEST STOP JUMPDEST PUSH0 PUSH1 0x1 SWAP1 POP PUSH0 PUSH1 0x40 MLOAD DUP1 PUSH1 0x40 ADD PUSH1 0x40 MSTORE DUP1 PUSH1 0x8 DUP2 MSTORE PUSH1 0x20 ADD PUSH32 0x536F6C6964697479000000000000000000000000000000000000000000000000 DUP2 MSTORE POP SWAP1 POP PUSH0 DUP1 PUSH4 0x40000000 SWAP1 POP PUSH32 0x2F0D85D6E91FFBEB6D7E574372B7160FC892A08B22CA0D25555C17DE3F677141 DUP5 DUP5 DUP5 DUP5 PUSH1 0x40 MLOAD PUSH2 0x107 SWAP5 SWAP4 SWAP3 SWAP2 SWAP1 PUSH2 0x301 JUMP JUMPDEST PUSH1 0x40 MLOAD DUP1 SWAP2 SUB SWAP1 LOG1 POP POP POP POP JUMP JUMPDEST PUSH0 CALLER SWAP1 POP PUSH0 PUSH2 0x101 SWAP1 POP PUSH32 0xF8E6E1FDFB9A814B6DC1C1A93053742F9AE0933E85677A49E3243E4B382C737A DUP3 DUP3 PUSH1 0x40 MLOAD PUSH2 0x150 SWAP3 SWAP2 SWAP1 PUSH2 0x34B JUMP JUMPDEST PUSH1 0x40 MLOAD DUP1 SWAP2 SUB SWAP1 LOG1 POP POP JUMP JUMPDEST PUSH0 PUSH4 0x40000000 SWAP1 POP PUSH32 0x4EB424D1DC05AD494739FD43B6D90CA5639BB642B3404EDEECE2190E0C610991 DUP2 PUSH1 0x40 MLOAD PUSH2 0x193 SWAP2 SWAP1 PUSH2 0x372 JUMP JUMPDEST PUSH1 0x40 MLOAD DUP1 SWAP2 SUB SWAP1 LOG1 POP JUMP JUMPDEST PUSH0 NUMBER SWAP1 POP PUSH32 0x4EB424D1DC05AD494739FD43B6D90CA5639BB642B3404EDEECE2190E0C610991 DUP2 PUSH1 0x40 MLOAD PUSH2 0x1D1 SWAP2 SWAP1 PUSH2 0x372 JUMP JUMPDEST PUSH1 0x40 MLOAD DUP1 SWAP2 SUB SWAP1 LOG1 POP JUMP JUMPDEST PUSH4 0x40000000 PUSH0 DUP2 SWAP1 SSTORE POP PUSH32 0x4EB424D1DC05AD494739FD43B6D90CA5639BB642B3404EDEECE2190E0C610991 PUSH0 SLOAD PUSH1 0x40 MLOAD PUSH2 0x216 SWAP2 SWAP1 PUSH2 0x372 JUMP JUMPDEST PUSH1 0x40 MLOAD DUP1 SWAP2 SUB SWAP1 LOG1 JUMP JUMPDEST PUSH0 DUP2 ISZERO ISZERO SWAP1 POP SWAP2 SWAP1 POP JUMP JUMPDEST PUSH2 0x234 DUP2 PUSH2 0x220 JUMP JUMPDEST DUP3 MSTORE POP POP JUMP JUMPDEST PUSH0 DUP2 MLOAD SWAP1 POP SWAP2 SWAP1 POP JUMP JUMPDEST PUSH0 DUP3 DUP3 MSTORE PUSH1 0x20 DUP3 ADD SWAP1 POP SWAP3 SWAP2 POP POP JUMP JUMPDEST DUP3 DUP2 DUP4 MCOPY PUSH0 DUP4 DUP4 ADD MSTORE POP POP POP JUMP JUMPDEST PUSH0 PUSH1 0x1F NOT PUSH1 0x1F DUP4 ADD AND SWAP1 POP SWAP2 SWAP1 POP JUMP JUMPDEST PUSH0 PUSH2 0x27C DUP3 PUSH2 0x23A JUMP JUMPDEST PUSH2 0x286 DUP2 DUP6 PUSH2 0x244 JUMP JUMPDEST SWAP4 POP PUSH2 0x296 DUP2 DUP6 PUSH1 0x20 DUP7 ADD PUSH2 0x254 JUMP JUMPDEST PUSH2 0x29F DUP2 PUSH2 0x262 JUMP JUMPDEST DUP5 ADD SWAP2 POP POP SWAP3 SWAP2 POP POP JUMP JUMPDEST PUSH0 PUSH20 0xFFFFFFFFFFFFFFFFFFFFFFFFFFFFFFFFFFFFFFFF DUP3 AND SWAP1 POP SWAP2 SWAP1 POP JUMP JUMPDEST PUSH0 PUSH2 0x2D3 DUP3 PUSH2 0x2AA JUMP JUMPDEST SWAP1 POP SWAP2 SWAP1 POP JUMP JUMPDEST PUSH2 0x2E3 DUP2 PUSH2 0x2C9 JUMP JUMPDEST DUP3 MSTORE POP POP JUMP JUMPDEST PUSH0 DUP2 SWAP1 POP SWAP2 SWAP1 POP JUMP JUMPDEST PUSH2 0x2FB DUP2 PUSH2 0x2E9 JUMP JUMPDEST DUP3 MSTORE POP POP JUMP JUMPDEST PUSH0 PUSH1 0x80 DUP3 ADD SWAP1 POP PUSH2 0x314 PUSH0 DUP4 ADD DUP8 PUSH2 0x22B JUMP JUMPDEST DUP2 DUP2 SUB PUSH1 0x20 DUP4 ADD MSTORE PUSH2 0x326 DUP2 DUP7 PUSH2 0x272 JUMP JUMPDEST SWAP1 POP PUSH2 0x335 PUSH1 0x40 DUP4 ADD DUP6 PUSH2 0x2DA JUMP JUMPDEST PUSH2 0x342 PUSH1 0x60 DUP4 ADD DUP5 PUSH2 0x2F2 JUMP JUMPDEST SWAP6 SWAP5 POP POP POP POP POP JUMP JUMPDEST PUSH0 PUSH1 0x40 DUP3 ADD SWAP1 POP PUSH2 0x35E PUSH0 DUP4 ADD DUP6 PUSH2 0x2DA JUMP JUMPDEST PUSH2 0x36B PUSH1 0x20 DUP4 ADD DUP5 PUSH2 0x2DA JUMP JUMPDEST SWAP4 SWAP3 POP POP POP JUMP JUMPDEST PUSH0 PUSH1 0x20 DUP3 ADD SWAP1 POP PUSH2 0x385 PUSH0 DUP4 ADD DUP5 PUSH2 0x2F2 JUMP JUMPDEST SWAP3 SWAP2 POP POP JUMP INVALID LOG2 PUSH5 0x6970667358 0x22 SLT KECCAK256 SWAP10 0xD3 0xE2 DUP11 MSTORE8 0xD 0xFB 0xAD 0x1E GAS 0xEF GASLIMIT PREVRANDAO 0xD3 MUL 0x2E 0xB5 0xBC 0xAE TSTORE PUSH2 0xC21E PUSH7 0x5DABA2246B1C58 DUP15 PUSH5 0x736F6C6343 STOP ADDMOD BYTE STOP CALLER "
		},
		"gasEstimates": {
			"creation": {
				"codeDepositCost": "192200",
				"executionCost": "236",
				"totalCost": "192436"
			},
			"external": {
				"testAddressType()": "infinite",
				"testGlobalVariable()": "1386",
				"testLocalVariable()": "1365",
				"testStateVariable()": "25609",
				"testTypes()": "infinite"
			}
		},
		"methodIdentifiers": {
			"testAddressType()": "324224c2",
			"testGlobalVariable()": "b5d499d0",
			"testLocalVariable()": "5b9dbef7",
			"testStateVariable()": "fa462c46",
			"testTypes()": "10b300cf"
		}
	},
	"abi": [
		{
			"anonymous": false,
			"inputs": [
				{
					"indexed": false,
					"internalType": "address",
					"name": "_sender",
					"type": "address"
				},
				{
					"indexed": false,
					"internalType": "address",
					"name": "_receiver",
					"type": "address"
				}
			],
			"name": "printAddressType",
			"type": "event"
		},
		{
			"anonymous": false,
			"inputs": [
				{
					"indexed": false,
					"internalType": "bool",
					"name": "_boolVal",
					"type": "bool"
				},
				{
					"indexed": false,
					"internalType": "string",
					"name": "_stringVal",
					"type": "string"
				},
				{
					"indexed": false,
					"internalType": "address",
					"name": "_addressVal",
					"type": "address"
				},
				{
					"indexed": false,
					"internalType": "uint256",
					"name": "_uint256Val",
					"type": "uint256"
				}
			],
			"name": "printTypes",
			"type": "event"
		},
		{
			"anonymous": false,
			"inputs": [
				{
					"indexed": false,
					"internalType": "uint256",
					"name": "_var",
					"type": "uint256"
				}
			],
			"name": "printVariable",
			"type": "event"
		},
		{
			"inputs": [],
			"name": "testAddressType",
			"outputs": [],
			"stateMutability": "nonpayable",
			"type": "function"
		},
		{
			"inputs": [],
			"name": "testGlobalVariable",
			"outputs": [],
			"stateMutability": "nonpayable",
			"type": "function"
		},
		{
			"inputs": [],
			"name": "testLocalVariable",
			"outputs": [],
			"stateMutability": "nonpayable",
			"type": "function"
		},
		{
			"inputs": [],
			"name": "testStateVariable",
			"outputs": [],
			"stateMutability": "nonpayable",
			"type": "function"
		},
		{
			"inputs": [],
			"name": "testTypes",
			"outputs": [],
			"stateMutability": "nonpayable",
			"type": "function"
		}
	]
}