{
	"data": {
		"bytecode": {
			"linkReferences": {},
			"object": "6080604052604051600e906074565b604051809103905ff0801580156026573d5f803e3d5ffd5b505f806101000a81548173ffffffffffffffffffffffffffffffffffffffff021916908373ffffffffffffffffffffffffffffffffffffffff160217905550348015606f575f80fd5b506081565b61093a8061022c83390190565b61019e8061008e5f395ff3fe608060405234801561000f575f80fd5b5060043610610029575f3560e01c8063f6b4f73c1461002d575b5f80fd5b61003561004b565b60405161004291906100f6565b60405180910390f35b5f805f9054906101000a900473ffffffffffffffffffffffffffffffffffffffff1673ffffffffffffffffffffffffffffffffffffffff166309d97dda6040518163ffffffff1660e01b8152600401602060405180830381865afa1580156100b5573d5f803e3d5ffd5b505050506040513d601f19601f820116820180604052508101906100d9919061013d565b905090565b5f819050919050565b6100f0816100de565b82525050565b5f6020820190506101095f8301846100e7565b92915050565b5f80fd5b61011c816100de565b8114610126575f80fd5b50565b5f8151905061013781610113565b92915050565b5f602082840312156101525761015161010f565b5b5f61015f84828501610129565b9150509291505056fea2646970667358221220eb74af6032bbc207a2faa718b6264bd931a337f16c9b9140e3450d724e3b5e4f64736f6c634300081a0033608060405263400000005f556340000000600155348015601d575f80fd5b5061090f8061002b5f395ff3fe608060405234801561000f575f80fd5b5060043610610091575f3560e01c80635b9dbef7116100645780635b9dbef7146100d15780637048a82b146100db57806378e96d4d1461010b578063b5d499d014610115578063fa462c461461011f57610091565b806309d97dda1461009557806310b300cf146100b3578063324224c2146100bd5780635a748376146100c7575b5f80fd5b61009d610129565b6040516100aa91906104f8565b60405180910390f35b6100bb61012e565b005b6100c56101b8565b005b6100cf6101ff565b005b6100d961025b565b005b6100f560048036038101906100f0919061053f565b61029d565b60405161010291906105da565b60405180910390f35b6101136102af565b005b61011d6102ee565b005b61012761032c565b005b5f5481565b5f600190505f6040518060400160405280600881526020017f536f6c696469747900000000000000000000000000000000000000000000000081525090505f80634000000090507f2f0d85d6e91ffbeb6d7e574372b7160fc892a08b22ca0d25555c17de3f677141848484846040516101aa9493929190610653565b60405180910390a150505050565b5f3390505f61010190507ff8e6e1fdfb9a814b6dc1c1a93053742f9ae0933e85677a49e3243e4b382c737a82826040516101f392919061069d565b60405180910390a15050565b600180146102105761020f6106c4565b5b603c8014610221576102206106c4565b5b610e108014610233576102326106c4565b5b620151808014610246576102456106c4565b5b62093a808014610259576102586106c4565b5b565b5f634000000090507f4eb424d1dc05ad494739fd43b6d90ca5639bb642b3404edeece2190e0c6109918160405161029291906104f8565b60405180910390a150565b60606102a882610372565b9050919050565b600180146102c0576102bf6106c4565b5b633b9aca0080146102d4576102d36106c4565b5b670de0b6b3a764000080146102ec576102eb6106c4565b5b565b5f4390507f4eb424d1dc05ad494739fd43b6d90ca5639bb642b3404edeece2190e0c6109918160405161032191906104f8565b60405180910390a150565b63400000006002819055507f4eb424d1dc05ad494739fd43b6d90ca5639bb642b3404edeece2190e0c61099160025460405161036891906104f8565b60405180910390a1565b60605f82036103b8576040518060400160405280600181526020017f300000000000000000000000000000000000000000000000000000000000000081525090506104db565b5f8290505f5b5f82146103e75780806103d09061071e565b915050600a826103e09190610792565b91506103be565b5f8167ffffffffffffffff811115610402576104016107c2565b5b6040519080825280601f01601f1916602001820160405280156104345781602001600182028036833780820191505090505b5090505f60018361044591906107ef565b90505b600a866104559190610822565b60306104619190610852565b60f81b82828151811061047757610476610885565b5b60200101907effffffffffffffffffffffffffffffffffffffffffffffffffffffffffffff191690815f1a9053505f8103156104d35780806104b8906108b2565b915050600a866104c89190610792565b95505f811015610448575b819450505050505b919050565b5f819050919050565b6104f2816104e0565b82525050565b5f60208201905061050b5f8301846104e9565b92915050565b5f80fd5b61051e816104e0565b8114610528575f80fd5b50565b5f8135905061053981610515565b92915050565b5f6020828403121561055457610553610511565b5b5f6105618482850161052b565b91505092915050565b5f81519050919050565b5f82825260208201905092915050565b8281835e5f83830152505050565b5f601f19601f8301169050919050565b5f6105ac8261056a565b6105b68185610574565b93506105c6818560208601610584565b6105cf81610592565b840191505092915050565b5f6020820190508181035f8301526105f281846105a2565b905092915050565b5f8115159050919050565b61060e816105fa565b82525050565b5f73ffffffffffffffffffffffffffffffffffffffff82169050919050565b5f61063d82610614565b9050919050565b61064d81610633565b82525050565b5f6080820190506106665f830187610605565b818103602083015261067881866105a2565b90506106876040830185610644565b61069460608301846104e9565b95945050505050565b5f6040820190506106b05f830185610644565b6106bd6020830184610644565b9392505050565b7f4e487b71000000000000000000000000000000000000000000000000000000005f52600160045260245ffd5b7f4e487b71000000000000000000000000000000000000000000000000000000005f52601160045260245ffd5b5f610728826104e0565b91507fffffffffffffffffffffffffffffffffffffffffffffffffffffffffffffffff820361075a576107596106f1565b5b600182019050919050565b7f4e487b71000000000000000000000000000000000000000000000000000000005f52601260045260245ffd5b5f61079c826104e0565b91506107a7836104e0565b9250826107b7576107b6610765565b5b828204905092915050565b7f4e487b71000000000000000000000000000000000000000000000000000000005f52604160045260245ffd5b5f6107f9826104e0565b9150610804836104e0565b925082820390508181111561081c5761081b6106f1565b5b92915050565b5f61082c826104e0565b9150610837836104e0565b92508261084757610846610765565b5b828206905092915050565b5f61085c826104e0565b9150610867836104e0565b925082820190508082111561087f5761087e6106f1565b5b92915050565b7f4e487b71000000000000000000000000000000000000000000000000000000005f52603260045260245ffd5b5f6108bc826104e0565b91505f82036108ce576108cd6106f1565b5b60018203905091905056fea264697066735822122091ac64fa71e4bcc261a3fbfa997fe2032b0112f9142da92329ef0f3384d5118b64736f6c634300081a0033",
			"opcodes": "PUSH1 0x80 PUSH1 0x40 MSTORE PUSH1 0x40 MLOAD PUSH1 0xE SWAP1 PUSH1 0x74 JUMP JUMPDEST PUSH1 0x40 MLOAD DUP1 SWAP2 SUB SWAP1 PUSH0 CREATE DUP1 ISZERO DUP1 ISZERO PUSH1 0x26 JUMPI RETURNDATASIZE PUSH0 DUP1 RETURNDATACOPY RETURNDATASIZE PUSH0 REVERT JUMPDEST POP PUSH0 DUP1 PUSH2 0x100 EXP DUP2 SLOAD DUP2 PUSH20 0xFFFFFFFFFFFFFFFFFFFFFFFFFFFFFFFFFFFFFFFF MUL NOT AND SWAP1 DUP4 PUSH20 0xFFFFFFFFFFFFFFFFFFFFFFFFFFFFFFFFFFFFFFFF AND MUL OR SWAP1 SSTORE POP CALLVALUE DUP1 ISZERO PUSH1 0x6F JUMPI PUSH0 DUP1 REVERT JUMPDEST POP PUSH1 0x81 JUMP JUMPDEST PUSH2 0x93A DUP1 PUSH2 0x22C DUP4 CODECOPY ADD SWAP1 JUMP JUMPDEST PUSH2 0x19E DUP1 PUSH2 0x8E PUSH0 CODECOPY PUSH0 RETURN INVALID PUSH1 0x80 PUSH1 0x40 MSTORE CALLVALUE DUP1 ISZERO PUSH2 0xF JUMPI PUSH0 DUP1 REVERT JUMPDEST POP PUSH1 0x4 CALLDATASIZE LT PUSH2 0x29 JUMPI PUSH0 CALLDATALOAD PUSH1 0xE0 SHR DUP1 PUSH4 0xF6B4F73C EQ PUSH2 0x2D JUMPI JUMPDEST PUSH0 DUP1 REVERT JUMPDEST PUSH2 0x35 PUSH2 0x4B JUMP JUMPDEST PUSH1 0x40 MLOAD PUSH2 0x42 SWAP2 SWAP1 PUSH2 0xF6 JUMP JUMPDEST PUSH1 0x40 MLOAD DUP1 SWAP2 SUB SWAP1 RETURN JUMPDEST PUSH0 DUP1 PUSH0 SWAP1 SLOAD SWAP1 PUSH2 0x100 EXP SWAP1 DIV PUSH20 0xFFFFFFFFFFFFFFFFFFFFFFFFFFFFFFFFFFFFFFFF AND PUSH20 0xFFFFFFFFFFFFFFFFFFFFFFFFFFFFFFFFFFFFFFFF AND PUSH4 0x9D97DDA PUSH1 0x40 MLOAD DUP2 PUSH4 0xFFFFFFFF AND PUSH1 0xE0 SHL DUP2 MSTORE PUSH1 0x4 ADD PUSH1 0x20 PUSH1 0x40 MLOAD DUP1 DUP4 SUB DUP2 DUP7 GAS STATICCALL ISZERO DUP1 ISZERO PUSH2 0xB5 JUMPI RETURNDATASIZE PUSH0 DUP1 RETURNDATACOPY RETURNDATASIZE PUSH0 REVERT JUMPDEST POP POP POP POP PUSH1 0x40 MLOAD RETURNDATASIZE PUSH1 0x1F NOT PUSH1 0x1F DUP3 ADD AND DUP3 ADD DUP1 PUSH1 0x40 MSTORE POP DUP2 ADD SWAP1 PUSH2 0xD9 SWAP2 SWAP1 PUSH2 0x13D JUMP JUMPDEST SWAP1 POP SWAP1 JUMP JUMPDEST PUSH0 DUP2 SWAP1 POP SWAP2 SWAP1 POP JUMP JUMPDEST PUSH2 0xF0 DUP2 PUSH2 0xDE JUMP JUMPDEST DUP3 MSTORE POP POP JUMP JUMPDEST PUSH0 PUSH1 0x20 DUP3 ADD SWAP1 POP PUSH2 0x109 PUSH0 DUP4 ADD DUP5 PUSH2 0xE7 JUMP JUMPDEST SWAP3 SWAP2 POP POP JUMP JUMPDEST PUSH0 DUP1 REVERT JUMPDEST PUSH2 0x11C DUP2 PUSH2 0xDE JUMP JUMPDEST DUP2 EQ PUSH2 0x126 JUMPI PUSH0 DUP1 REVERT JUMPDEST POP JUMP JUMPDEST PUSH0 DUP2 MLOAD SWAP1 POP PUSH2 0x137 DUP2 PUSH2 0x113 JUMP JUMPDEST SWAP3 SWAP2 POP POP JUMP JUMPDEST PUSH0 PUSH1 0x20 DUP3 DUP5 SUB SLT ISZERO PUSH2 0x152 JUMPI PUSH2 0x151 PUSH2 0x10F JUMP JUMPDEST JUMPDEST PUSH0 PUSH2 0x15F DUP5 DUP3 DUP6 ADD PUSH2 0x129 JUMP JUMPDEST SWAP2 POP POP SWAP3 SWAP2 POP POP JUMP INVALID LOG2 PUSH5 0x6970667358 0x22 SLT KECCAK256 0xEB PUSH21 0xAF6032BBC207A2FAA718B6264BD931A337F16C9B91 BLOCKHASH 0xE3 GASLIMIT 0xD PUSH19 0x4E3B5E4F64736F6C634300081A003360806040 MSTORE PUSH4 0x40000000 PUSH0 SSTORE PUSH4 0x40000000 PUSH1 0x1 SSTORE CALLVALUE DUP1 ISZERO PUSH1 0x1D JUMPI PUSH0 DUP1 REVERT JUMPDEST POP PUSH2 0x90F DUP1 PUSH2 0x2B PUSH0 CODECOPY PUSH0 RETURN INVALID PUSH1 0x80 PUSH1 0x40 MSTORE CALLVALUE DUP1 ISZERO PUSH2 0xF JUMPI PUSH0 DUP1 REVERT JUMPDEST POP PUSH1 0x4 CALLDATASIZE LT PUSH2 0x91 JUMPI PUSH0 CALLDATALOAD PUSH1 0xE0 SHR DUP1 PUSH4 0x5B9DBEF7 GT PUSH2 0x64 JUMPI DUP1 PUSH4 0x5B9DBEF7 EQ PUSH2 0xD1 JUMPI DUP1 PUSH4 0x7048A82B EQ PUSH2 0xDB JUMPI DUP1 PUSH4 0x78E96D4D EQ PUSH2 0x10B JUMPI DUP1 PUSH4 0xB5D499D0 EQ PUSH2 0x115 JUMPI DUP1 PUSH4 0xFA462C46 EQ PUSH2 0x11F JUMPI PUSH2 0x91 JUMP JUMPDEST DUP1 PUSH4 0x9D97DDA EQ PUSH2 0x95 JUMPI DUP1 PUSH4 0x10B300CF EQ PUSH2 0xB3 JUMPI DUP1 PUSH4 0x324224C2 EQ PUSH2 0xBD JUMPI DUP1 PUSH4 0x5A748376 EQ PUSH2 0xC7 JUMPI JUMPDEST PUSH0 DUP1 REVERT JUMPDEST PUSH2 0x9D PUSH2 0x129 JUMP JUMPDEST PUSH1 0x40 MLOAD PUSH2 0xAA SWAP2 SWAP1 PUSH2 0x4F8 JUMP JUMPDEST PUSH1 0x40 MLOAD DUP1 SWAP2 SUB SWAP1 RETURN JUMPDEST PUSH2 0xBB PUSH2 0x12E JUMP JUMPDEST STOP JUMPDEST PUSH2 0xC5 PUSH2 0x1B8 JUMP JUMPDEST STOP JUMPDEST PUSH2 0xCF PUSH2 0x1FF JUMP JUMPDEST STOP JUMPDEST PUSH2 0xD9 PUSH2 0x25B JUMP JUMPDEST STOP JUMPDEST PUSH2 0xF5 PUSH1 0x4 DUP1 CALLDATASIZE SUB DUP2 ADD SWAP1 PUSH2 0xF0 SWAP2 SWAP1 PUSH2 0x53F JUMP JUMPDEST PUSH2 0x29D JUMP JUMPDEST PUSH1 0x40 MLOAD PUSH2 0x102 SWAP2 SWAP1 PUSH2 0x5DA JUMP JUMPDEST PUSH1 0x40 MLOAD DUP1 SWAP2 SUB SWAP1 RETURN JUMPDEST PUSH2 0x113 PUSH2 0x2AF JUMP JUMPDEST STOP JUMPDEST PUSH2 0x11D PUSH2 0x2EE JUMP JUMPDEST STOP JUMPDEST PUSH2 0x127 PUSH2 0x32C JUMP JUMPDEST STOP JUMPDEST PUSH0 SLOAD DUP2 JUMP JUMPDEST PUSH0 PUSH1 0x1 SWAP1 POP PUSH0 PUSH1 0x40 MLOAD DUP1 PUSH1 0x40 ADD PUSH1 0x40 MSTORE DUP1 PUSH1 0x8 DUP2 MSTORE PUSH1 0x20 ADD PUSH32 0x536F6C6964697479000000000000000000000000000000000000000000000000 DUP2 MSTORE POP SWAP1 POP PUSH0 DUP1 PUSH4 0x40000000 SWAP1 POP PUSH32 0x2F0D85D6E91FFBEB6D7E574372B7160FC892A08B22CA0D25555C17DE3F677141 DUP5 DUP5 DUP5 DUP5 PUSH1 0x40 MLOAD PUSH2 0x1AA SWAP5 SWAP4 SWAP3 SWAP2 SWAP1 PUSH2 0x653 JUMP JUMPDEST PUSH1 0x40 MLOAD DUP1 SWAP2 SUB SWAP1 LOG1 POP POP POP POP JUMP JUMPDEST PUSH0 CALLER SWAP1 POP PUSH0 PUSH2 0x101 SWAP1 POP PUSH32 0xF8E6E1FDFB9A814B6DC1C1A93053742F9AE0933E85677A49E3243E4B382C737A DUP3 DUP3 PUSH1 0x40 MLOAD PUSH2 0x1F3 SWAP3 SWAP2 SWAP1 PUSH2 0x69D JUMP JUMPDEST PUSH1 0x40 MLOAD DUP1 SWAP2 SUB SWAP1 LOG1 POP POP JUMP JUMPDEST PUSH1 0x1 DUP1 EQ PUSH2 0x210 JUMPI PUSH2 0x20F PUSH2 0x6C4 JUMP JUMPDEST JUMPDEST PUSH1 0x3C DUP1 EQ PUSH2 0x221 JUMPI PUSH2 0x220 PUSH2 0x6C4 JUMP JUMPDEST JUMPDEST PUSH2 0xE10 DUP1 EQ PUSH2 0x233 JUMPI PUSH2 0x232 PUSH2 0x6C4 JUMP JUMPDEST JUMPDEST PUSH3 0x15180 DUP1 EQ PUSH2 0x246 JUMPI PUSH2 0x245 PUSH2 0x6C4 JUMP JUMPDEST JUMPDEST PUSH3 0x93A80 DUP1 EQ PUSH2 0x259 JUMPI PUSH2 0x258 PUSH2 0x6C4 JUMP JUMPDEST JUMPDEST JUMP JUMPDEST PUSH0 PUSH4 0x40000000 SWAP1 POP PUSH32 0x4EB424D1DC05AD494739FD43B6D90CA5639BB642B3404EDEECE2190E0C610991 DUP2 PUSH1 0x40 MLOAD PUSH2 0x292 SWAP2 SWAP1 PUSH2 0x4F8 JUMP JUMPDEST PUSH1 0x40 MLOAD DUP1 SWAP2 SUB SWAP1 LOG1 POP JUMP JUMPDEST PUSH1 0x60 PUSH2 0x2A8 DUP3 PUSH2 0x372 JUMP JUMPDEST SWAP1 POP SWAP2 SWAP1 POP JUMP JUMPDEST PUSH1 0x1 DUP1 EQ PUSH2 0x2C0 JUMPI PUSH2 0x2BF PUSH2 0x6C4 JUMP JUMPDEST JUMPDEST PUSH4 0x3B9ACA00 DUP1 EQ PUSH2 0x2D4 JUMPI PUSH2 0x2D3 PUSH2 0x6C4 JUMP JUMPDEST JUMPDEST PUSH8 0xDE0B6B3A7640000 DUP1 EQ PUSH2 0x2EC JUMPI PUSH2 0x2EB PUSH2 0x6C4 JUMP JUMPDEST JUMPDEST JUMP JUMPDEST PUSH0 NUMBER SWAP1 POP PUSH32 0x4EB424D1DC05AD494739FD43B6D90CA5639BB642B3404EDEECE2190E0C610991 DUP2 PUSH1 0x40 MLOAD PUSH2 0x321 SWAP2 SWAP1 PUSH2 0x4F8 JUMP JUMPDEST PUSH1 0x40 MLOAD DUP1 SWAP2 SUB SWAP1 LOG1 POP JUMP JUMPDEST PUSH4 0x40000000 PUSH1 0x2 DUP2 SWAP1 SSTORE POP PUSH32 0x4EB424D1DC05AD494739FD43B6D90CA5639BB642B3404EDEECE2190E0C610991 PUSH1 0x2 SLOAD PUSH1 0x40 MLOAD PUSH2 0x368 SWAP2 SWAP1 PUSH2 0x4F8 JUMP JUMPDEST PUSH1 0x40 MLOAD DUP1 SWAP2 SUB SWAP1 LOG1 JUMP JUMPDEST PUSH1 0x60 PUSH0 DUP3 SUB PUSH2 0x3B8 JUMPI PUSH1 0x40 MLOAD DUP1 PUSH1 0x40 ADD PUSH1 0x40 MSTORE DUP1 PUSH1 0x1 DUP2 MSTORE PUSH1 0x20 ADD PUSH32 0x3000000000000000000000000000000000000000000000000000000000000000 DUP2 MSTORE POP SWAP1 POP PUSH2 0x4DB JUMP JUMPDEST PUSH0 DUP3 SWAP1 POP PUSH0 JUMPDEST PUSH0 DUP3 EQ PUSH2 0x3E7 JUMPI DUP1 DUP1 PUSH2 0x3D0 SWAP1 PUSH2 0x71E JUMP JUMPDEST SWAP2 POP POP PUSH1 0xA DUP3 PUSH2 0x3E0 SWAP2 SWAP1 PUSH2 0x792 JUMP JUMPDEST SWAP2 POP PUSH2 0x3BE JUMP JUMPDEST PUSH0 DUP2 PUSH8 0xFFFFFFFFFFFFFFFF DUP2 GT ISZERO PUSH2 0x402 JUMPI PUSH2 0x401 PUSH2 0x7C2 JUMP JUMPDEST JUMPDEST PUSH1 0x40 MLOAD SWAP1 DUP1 DUP3 MSTORE DUP1 PUSH1 0x1F ADD PUSH1 0x1F NOT AND PUSH1 0x20 ADD DUP3 ADD PUSH1 0x40 MSTORE DUP1 ISZERO PUSH2 0x434 JUMPI DUP2 PUSH1 0x20 ADD PUSH1 0x1 DUP3 MUL DUP1 CALLDATASIZE DUP4 CALLDATACOPY DUP1 DUP3 ADD SWAP2 POP POP SWAP1 POP JUMPDEST POP SWAP1 POP PUSH0 PUSH1 0x1 DUP4 PUSH2 0x445 SWAP2 SWAP1 PUSH2 0x7EF JUMP JUMPDEST SWAP1 POP JUMPDEST PUSH1 0xA DUP7 PUSH2 0x455 SWAP2 SWAP1 PUSH2 0x822 JUMP JUMPDEST PUSH1 0x30 PUSH2 0x461 SWAP2 SWAP1 PUSH2 0x852 JUMP JUMPDEST PUSH1 0xF8 SHL DUP3 DUP3 DUP2 MLOAD DUP2 LT PUSH2 0x477 JUMPI PUSH2 0x476 PUSH2 0x885 JUMP JUMPDEST JUMPDEST PUSH1 0x20 ADD ADD SWAP1 PUSH31 0xFFFFFFFFFFFFFFFFFFFFFFFFFFFFFFFFFFFFFFFFFFFFFFFFFFFFFFFFFFFFFF NOT AND SWAP1 DUP2 PUSH0 BYTE SWAP1 MSTORE8 POP PUSH0 DUP2 SUB ISZERO PUSH2 0x4D3 JUMPI DUP1 DUP1 PUSH2 0x4B8 SWAP1 PUSH2 0x8B2 JUMP JUMPDEST SWAP2 POP POP PUSH1 0xA DUP7 PUSH2 0x4C8 SWAP2 SWAP1 PUSH2 0x792 JUMP JUMPDEST SWAP6 POP PUSH0 DUP2 LT ISZERO PUSH2 0x448 JUMPI JUMPDEST DUP2 SWAP5 POP POP POP POP POP JUMPDEST SWAP2 SWAP1 POP JUMP JUMPDEST PUSH0 DUP2 SWAP1 POP SWAP2 SWAP1 POP JUMP JUMPDEST PUSH2 0x4F2 DUP2 PUSH2 0x4E0 JUMP JUMPDEST DUP3 MSTORE POP POP JUMP JUMPDEST PUSH0 PUSH1 0x20 DUP3 ADD SWAP1 POP PUSH2 0x50B PUSH0 DUP4 ADD DUP5 PUSH2 0x4E9 JUMP JUMPDEST SWAP3 SWAP2 POP POP JUMP JUMPDEST PUSH0 DUP1 REVERT JUMPDEST PUSH2 0x51E DUP2 PUSH2 0x4E0 JUMP JUMPDEST DUP2 EQ PUSH2 0x528 JUMPI PUSH0 DUP1 REVERT JUMPDEST POP JUMP JUMPDEST PUSH0 DUP2 CALLDATALOAD SWAP1 POP PUSH2 0x539 DUP2 PUSH2 0x515 JUMP JUMPDEST SWAP3 SWAP2 POP POP JUMP JUMPDEST PUSH0 PUSH1 0x20 DUP3 DUP5 SUB SLT ISZERO PUSH2 0x554 JUMPI PUSH2 0x553 PUSH2 0x511 JUMP JUMPDEST JUMPDEST PUSH0 PUSH2 0x561 DUP5 DUP3 DUP6 ADD PUSH2 0x52B JUMP JUMPDEST SWAP2 POP POP SWAP3 SWAP2 POP POP JUMP JUMPDEST PUSH0 DUP2 MLOAD SWAP1 POP SWAP2 SWAP1 POP JUMP JUMPDEST PUSH0 DUP3 DUP3 MSTORE PUSH1 0x20 DUP3 ADD SWAP1 POP SWAP3 SWAP2 POP POP JUMP JUMPDEST DUP3 DUP2 DUP4 MCOPY PUSH0 DUP4 DUP4 ADD MSTORE POP POP POP JUMP JUMPDEST PUSH0 PUSH1 0x1F NOT PUSH1 0x1F DUP4 ADD AND SWAP1 POP SWAP2 SWAP1 POP JUMP JUMPDEST PUSH0 PUSH2 0x5AC DUP3 PUSH2 0x56A JUMP JUMPDEST PUSH2 0x5B6 DUP2 DUP6 PUSH2 0x574 JUMP JUMPDEST SWAP4 POP PUSH2 0x5C6 DUP2 DUP6 PUSH1 0x20 DUP7 ADD PUSH2 0x584 JUMP JUMPDEST PUSH2 0x5CF DUP2 PUSH2 0x592 JUMP JUMPDEST DUP5 ADD SWAP2 POP POP SWAP3 SWAP2 POP POP JUMP JUMPDEST PUSH0 PUSH1 0x20 DUP3 ADD SWAP1 POP DUP2 DUP2 SUB PUSH0 DUP4 ADD MSTORE PUSH2 0x5F2 DUP2 DUP5 PUSH2 0x5A2 JUMP JUMPDEST SWAP1 POP SWAP3 SWAP2 POP POP JUMP JUMPDEST PUSH0 DUP2 ISZERO ISZERO SWAP1 POP SWAP2 SWAP1 POP JUMP JUMPDEST PUSH2 0x60E DUP2 PUSH2 0x5FA JUMP JUMPDEST DUP3 MSTORE POP POP JUMP JUMPDEST PUSH0 PUSH20 0xFFFFFFFFFFFFFFFFFFFFFFFFFFFFFFFFFFFFFFFF DUP3 AND SWAP1 POP SWAP2 SWAP1 POP JUMP JUMPDEST PUSH0 PUSH2 0x63D DUP3 PUSH2 0x614 JUMP JUMPDEST SWAP1 POP SWAP2 SWAP1 POP JUMP JUMPDEST PUSH2 0x64D DUP2 PUSH2 0x633 JUMP JUMPDEST DUP3 MSTORE POP POP JUMP JUMPDEST PUSH0 PUSH1 0x80 DUP3 ADD SWAP1 POP PUSH2 0x666 PUSH0 DUP4 ADD DUP8 PUSH2 0x605 JUMP JUMPDEST DUP2 DUP2 SUB PUSH1 0x20 DUP4 ADD MSTORE PUSH2 0x678 DUP2 DUP7 PUSH2 0x5A2 JUMP JUMPDEST SWAP1 POP PUSH2 0x687 PUSH1 0x40 DUP4 ADD DUP6 PUSH2 0x644 JUMP JUMPDEST PUSH2 0x694 PUSH1 0x60 DUP4 ADD DUP5 PUSH2 0x4E9 JUMP JUMPDEST SWAP6 SWAP5 POP POP POP POP POP JUMP JUMPDEST PUSH0 PUSH1 0x40 DUP3 ADD SWAP1 POP PUSH2 0x6B0 PUSH0 DUP4 ADD DUP6 PUSH2 0x644 JUMP JUMPDEST PUSH2 0x6BD PUSH1 0x20 DUP4 ADD DUP5 PUSH2 0x644 JUMP JUMPDEST SWAP4 SWAP3 POP POP POP JUMP JUMPDEST PUSH32 0x4E487B7100000000000000000000000000000000000000000000000000000000 PUSH0 MSTORE PUSH1 0x1 PUSH1 0x4 MSTORE PUSH1 0x24 PUSH0 REVERT JUMPDEST PUSH32 0x4E487B7100000000000000000000000000000000000000000000000000000000 PUSH0 MSTORE PUSH1 0x11 PUSH1 0x4 MSTORE PUSH1 0x24 PUSH0 REVERT JUMPDEST PUSH0 PUSH2 0x728 DUP3 PUSH2 0x4E0 JUMP JUMPDEST SWAP2 POP PUSH32 0xFFFFFFFFFFFFFFFFFFFFFFFFFFFFFFFFFFFFFFFFFFFFFFFFFFFFFFFFFFFFFFFF DUP3 SUB PUSH2 0x75A JUMPI PUSH2 0x759 PUSH2 0x6F1 JUMP JUMPDEST JUMPDEST PUSH1 0x1 DUP3 ADD SWAP1 POP SWAP2 SWAP1 POP JUMP JUMPDEST PUSH32 0x4E487B7100000000000000000000000000000000000000000000000000000000 PUSH0 MSTORE PUSH1 0x12 PUSH1 0x4 MSTORE PUSH1 0x24 PUSH0 REVERT JUMPDEST PUSH0 PUSH2 0x79C DUP3 PUSH2 0x4E0 JUMP JUMPDEST SWAP2 POP PUSH2 0x7A7 DUP4 PUSH2 0x4E0 JUMP JUMPDEST SWAP3 POP DUP3 PUSH2 0x7B7 JUMPI PUSH2 0x7B6 PUSH2 0x765 JUMP JUMPDEST JUMPDEST DUP3 DUP3 DIV SWAP1 POP SWAP3 SWAP2 POP POP JUMP JUMPDEST PUSH32 0x4E487B7100000000000000000000000000000000000000000000000000000000 PUSH0 MSTORE PUSH1 0x41 PUSH1 0x4 MSTORE PUSH1 0x24 PUSH0 REVERT JUMPDEST PUSH0 PUSH2 0x7F9 DUP3 PUSH2 0x4E0 JUMP JUMPDEST SWAP2 POP PUSH2 0x804 DUP4 PUSH2 0x4E0 JUMP JUMPDEST SWAP3 POP DUP3 DUP3 SUB SWAP1 POP DUP2 DUP2 GT ISZERO PUSH2 0x81C JUMPI PUSH2 0x81B PUSH2 0x6F1 JUMP JUMPDEST JUMPDEST SWAP3 SWAP2 POP POP JUMP JUMPDEST PUSH0 PUSH2 0x82C DUP3 PUSH2 0x4E0 JUMP JUMPDEST SWAP2 POP PUSH2 0x837 DUP4 PUSH2 0x4E0 JUMP JUMPDEST SWAP3 POP DUP3 PUSH2 0x847 JUMPI PUSH2 0x846 PUSH2 0x765 JUMP JUMPDEST JUMPDEST DUP3 DUP3 MOD SWAP1 POP SWAP3 SWAP2 POP POP JUMP JUMPDEST PUSH0 PUSH2 0x85C DUP3 PUSH2 0x4E0 JUMP JUMPDEST SWAP2 POP PUSH2 0x867 DUP4 PUSH2 0x4E0 JUMP JUMPDEST SWAP3 POP DUP3 DUP3 ADD SWAP1 POP DUP1 DUP3 GT ISZERO PUSH2 0x87F JUMPI PUSH2 0x87E PUSH2 0x6F1 JUMP JUMPDEST JUMPDEST SWAP3 SWAP2 POP POP JUMP JUMPDEST PUSH32 0x4E487B7100000000000000000000000000000000000000000000000000000000 PUSH0 MSTORE PUSH1 0x32 PUSH1 0x4 MSTORE PUSH1 0x24 PUSH0 REVERT JUMPDEST PUSH0 PUSH2 0x8BC DUP3 PUSH2 0x4E0 JUMP JUMPDEST SWAP2 POP PUSH0 DUP3 SUB PUSH2 0x8CE JUMPI PUSH2 0x8CD PUSH2 0x6F1 JUMP JUMPDEST JUMPDEST PUSH1 0x1 DUP3 SUB SWAP1 POP SWAP2 SWAP1 POP JUMP INVALID LOG2 PUSH5 0x6970667358 0x22 SLT KECCAK256 SWAP2 0xAC PUSH5 0xFA71E4BCC2 PUSH2 0xA3FB STATICCALL SWAP10 PUSH32 0xE2032B0112F9142DA92329EF0F3384D5118B64736F6C634300081A0033000000 "
		},
		"gasEstimates": {
			"creation": {
				"codeDepositCost": "82800",
				"executionCost": "infinite",
				"totalCost": "infinite"
			},
			"external": {
				"getPublicStateVariable()": "infinite"
			}
		},
		"methodIdentifiers": {
			"getPublicStateVariable()": "f6b4f73c"
		}
	},
	"abi": [
		{
			"inputs": [],
			"name": "getPublicStateVariable",
			"outputs": [
				{
					"internalType": "uint256",
					"name": "",
					"type": "uint256"
				}
			],
			"stateMutability": "view",
			"type": "function"
		}
	]
}