{
	"data": {
		"bytecode": {
			"linkReferences": {},
			"object": "6080604052348015600e575f80fd5b506109158061001c5f395ff3fe608060405234801561000f575f80fd5b5060043610610086575f3560e01c80639450268b116100595780639450268b1461014a578063cad0899b1461017a578063ebfe67ce146101aa578063f64054ac146101c657610086565b80630a8f9e5e1461008a5780631fd793da146100ba5780638b053758146100ea57806393730bbe1461011a575b5f80fd5b6100a4600480360381019061009f919061054b565b6101f6565b6040516100b191906105cc565b60405180910390f35b6100d460048036038101906100cf9190610618565b610233565b6040516100e19190610677565b60405180910390f35b61010460048036038101906100ff919061054b565b61024f565b60405161011191906106a8565b60405180910390f35b610134600480360381019061012f919061054b565b6102a5565b60405161014191906106a8565b60405180910390f35b610164600480360381019061015f9190610618565b6102b5565b6040516101719190610677565b60405180910390f35b610194600480360381019061018f91906106c1565b6102d6565b6040516101a19190610677565b60405180910390f35b6101c460048036038101906101bf919061076a565b6102eb565b005b6101e060048036038101906101db9190610618565b6103e2565b6040516101ed9190610677565b60405180910390f35b5f60038260405161020791906107e7565b602060405180830381855afa158015610222573d5f803e3d5ffd5b5050506040515160601b9050919050565b5f8180610243576102426107fd565b5b83850890509392505050565b5f60028260405161026091906107e7565b602060405180830381855afa15801561027b573d5f803e3d5ffd5b5050506040513d601f19601f8201168201806040525081019061029e9190610854565b9050919050565b5f81805190602001209050919050565b5f8183856102c391906108ac565b6102cd91906108ac565b90509392505050565b5f81836102e391906108ac565b905092915050565b5f8173ffffffffffffffffffffffffffffffffffffffff166040516024016040516020818303038152906040527ff85396d7000000000000000000000000000000000000000000000000000000007bffffffffffffffffffffffffffffffffffffffffffffffffffffffff19166020820180517bffffffffffffffffffffffffffffffffffffffffffffffffffffffff838183161783525050505060405161039391906107e7565b5f604051808303815f865af19150503d805f81146103cc576040519150601f19603f3d011682016040523d82523d5f602084013e6103d1565b606091505b50509050806103de575f80fd5b5050565b5f81806103f2576103f16107fd565b5b83850990509392505050565b5f604051905090565b5f80fd5b5f80fd5b5f80fd5b5f80fd5b5f601f19601f8301169050919050565b7f4e487b71000000000000000000000000000000000000000000000000000000005f52604160045260245ffd5b61045d82610417565b810181811067ffffffffffffffff8211171561047c5761047b610427565b5b80604052505050565b5f61048e6103fe565b905061049a8282610454565b919050565b5f67ffffffffffffffff8211156104b9576104b8610427565b5b6104c282610417565b9050602081019050919050565b828183375f83830152505050565b5f6104ef6104ea8461049f565b610485565b90508281526020810184848401111561050b5761050a610413565b5b6105168482856104cf565b509392505050565b5f82601f8301126105325761053161040f565b5b81356105428482602086016104dd565b91505092915050565b5f602082840312156105605761055f610407565b5b5f82013567ffffffffffffffff81111561057d5761057c61040b565b5b6105898482850161051e565b91505092915050565b5f7fffffffffffffffffffffffffffffffffffffffff00000000000000000000000082169050919050565b6105c681610592565b82525050565b5f6020820190506105df5f8301846105bd565b92915050565b5f819050919050565b6105f7816105e5565b8114610601575f80fd5b50565b5f81359050610612816105ee565b92915050565b5f805f6060848603121561062f5761062e610407565b5b5f61063c86828701610604565b935050602061064d86828701610604565b925050604061065e86828701610604565b9150509250925092565b610671816105e5565b82525050565b5f60208201905061068a5f830184610668565b92915050565b5f819050919050565b6106a281610690565b82525050565b5f6020820190506106bb5f830184610699565b92915050565b5f80604083850312156106d7576106d6610407565b5b5f6106e485828601610604565b92505060206106f585828601610604565b9150509250929050565b5f73ffffffffffffffffffffffffffffffffffffffff82169050919050565b5f610728826106ff565b9050919050565b5f6107398261071e565b9050919050565b6107498161072f565b8114610753575f80fd5b50565b5f8135905061076481610740565b92915050565b5f6020828403121561077f5761077e610407565b5b5f61078c84828501610756565b91505092915050565b5f81519050919050565b5f81905092915050565b8281835e5f83830152505050565b5f6107c182610795565b6107cb818561079f565b93506107db8185602086016107a9565b80840191505092915050565b5f6107f282846107b7565b915081905092915050565b7f4e487b71000000000000000000000000000000000000000000000000000000005f52601260045260245ffd5b61083381610690565b811461083d575f80fd5b50565b5f8151905061084e8161082a565b92915050565b5f6020828403121561086957610868610407565b5b5f61087684828501610840565b91505092915050565b7f4e487b71000000000000000000000000000000000000000000000000000000005f52601160045260245ffd5b5f6108b6826105e5565b91506108c1836105e5565b92508282019050808211156108d9576108d861087f565b5b9291505056fea26469706673582212200fd36bf238009b786b39205d3869b67fc5b77ae6dfdc603e430cc970d28dd00164736f6c634300081a0033",
			"opcodes": "PUSH1 0x80 PUSH1 0x40 MSTORE CALLVALUE DUP1 ISZERO PUSH1 0xE JUMPI PUSH0 DUP1 REVERT JUMPDEST POP PUSH2 0x915 DUP1 PUSH2 0x1C PUSH0 CODECOPY PUSH0 RETURN INVALID PUSH1 0x80 PUSH1 0x40 MSTORE CALLVALUE DUP1 ISZERO PUSH2 0xF JUMPI PUSH0 DUP1 REVERT JUMPDEST POP PUSH1 0x4 CALLDATASIZE LT PUSH2 0x86 JUMPI PUSH0 CALLDATALOAD PUSH1 0xE0 SHR DUP1 PUSH4 0x9450268B GT PUSH2 0x59 JUMPI DUP1 PUSH4 0x9450268B EQ PUSH2 0x14A JUMPI DUP1 PUSH4 0xCAD0899B EQ PUSH2 0x17A JUMPI DUP1 PUSH4 0xEBFE67CE EQ PUSH2 0x1AA JUMPI DUP1 PUSH4 0xF64054AC EQ PUSH2 0x1C6 JUMPI PUSH2 0x86 JUMP JUMPDEST DUP1 PUSH4 0xA8F9E5E EQ PUSH2 0x8A JUMPI DUP1 PUSH4 0x1FD793DA EQ PUSH2 0xBA JUMPI DUP1 PUSH4 0x8B053758 EQ PUSH2 0xEA JUMPI DUP1 PUSH4 0x93730BBE EQ PUSH2 0x11A JUMPI JUMPDEST PUSH0 DUP1 REVERT JUMPDEST PUSH2 0xA4 PUSH1 0x4 DUP1 CALLDATASIZE SUB DUP2 ADD SWAP1 PUSH2 0x9F SWAP2 SWAP1 PUSH2 0x54B JUMP JUMPDEST PUSH2 0x1F6 JUMP JUMPDEST PUSH1 0x40 MLOAD PUSH2 0xB1 SWAP2 SWAP1 PUSH2 0x5CC JUMP JUMPDEST PUSH1 0x40 MLOAD DUP1 SWAP2 SUB SWAP1 RETURN JUMPDEST PUSH2 0xD4 PUSH1 0x4 DUP1 CALLDATASIZE SUB DUP2 ADD SWAP1 PUSH2 0xCF SWAP2 SWAP1 PUSH2 0x618 JUMP JUMPDEST PUSH2 0x233 JUMP JUMPDEST PUSH1 0x40 MLOAD PUSH2 0xE1 SWAP2 SWAP1 PUSH2 0x677 JUMP JUMPDEST PUSH1 0x40 MLOAD DUP1 SWAP2 SUB SWAP1 RETURN JUMPDEST PUSH2 0x104 PUSH1 0x4 DUP1 CALLDATASIZE SUB DUP2 ADD SWAP1 PUSH2 0xFF SWAP2 SWAP1 PUSH2 0x54B JUMP JUMPDEST PUSH2 0x24F JUMP JUMPDEST PUSH1 0x40 MLOAD PUSH2 0x111 SWAP2 SWAP1 PUSH2 0x6A8 JUMP JUMPDEST PUSH1 0x40 MLOAD DUP1 SWAP2 SUB SWAP1 RETURN JUMPDEST PUSH2 0x134 PUSH1 0x4 DUP1 CALLDATASIZE SUB DUP2 ADD SWAP1 PUSH2 0x12F SWAP2 SWAP1 PUSH2 0x54B JUMP JUMPDEST PUSH2 0x2A5 JUMP JUMPDEST PUSH1 0x40 MLOAD PUSH2 0x141 SWAP2 SWAP1 PUSH2 0x6A8 JUMP JUMPDEST PUSH1 0x40 MLOAD DUP1 SWAP2 SUB SWAP1 RETURN JUMPDEST PUSH2 0x164 PUSH1 0x4 DUP1 CALLDATASIZE SUB DUP2 ADD SWAP1 PUSH2 0x15F SWAP2 SWAP1 PUSH2 0x618 JUMP JUMPDEST PUSH2 0x2B5 JUMP JUMPDEST PUSH1 0x40 MLOAD PUSH2 0x171 SWAP2 SWAP1 PUSH2 0x677 JUMP JUMPDEST PUSH1 0x40 MLOAD DUP1 SWAP2 SUB SWAP1 RETURN JUMPDEST PUSH2 0x194 PUSH1 0x4 DUP1 CALLDATASIZE SUB DUP2 ADD SWAP1 PUSH2 0x18F SWAP2 SWAP1 PUSH2 0x6C1 JUMP JUMPDEST PUSH2 0x2D6 JUMP JUMPDEST PUSH1 0x40 MLOAD PUSH2 0x1A1 SWAP2 SWAP1 PUSH2 0x677 JUMP JUMPDEST PUSH1 0x40 MLOAD DUP1 SWAP2 SUB SWAP1 RETURN JUMPDEST PUSH2 0x1C4 PUSH1 0x4 DUP1 CALLDATASIZE SUB DUP2 ADD SWAP1 PUSH2 0x1BF SWAP2 SWAP1 PUSH2 0x76A JUMP JUMPDEST PUSH2 0x2EB JUMP JUMPDEST STOP JUMPDEST PUSH2 0x1E0 PUSH1 0x4 DUP1 CALLDATASIZE SUB DUP2 ADD SWAP1 PUSH2 0x1DB SWAP2 SWAP1 PUSH2 0x618 JUMP JUMPDEST PUSH2 0x3E2 JUMP JUMPDEST PUSH1 0x40 MLOAD PUSH2 0x1ED SWAP2 SWAP1 PUSH2 0x677 JUMP JUMPDEST PUSH1 0x40 MLOAD DUP1 SWAP2 SUB SWAP1 RETURN JUMPDEST PUSH0 PUSH1 0x3 DUP3 PUSH1 0x40 MLOAD PUSH2 0x207 SWAP2 SWAP1 PUSH2 0x7E7 JUMP JUMPDEST PUSH1 0x20 PUSH1 0x40 MLOAD DUP1 DUP4 SUB DUP2 DUP6 GAS STATICCALL ISZERO DUP1 ISZERO PUSH2 0x222 JUMPI RETURNDATASIZE PUSH0 DUP1 RETURNDATACOPY RETURNDATASIZE PUSH0 REVERT JUMPDEST POP POP POP PUSH1 0x40 MLOAD MLOAD PUSH1 0x60 SHL SWAP1 POP SWAP2 SWAP1 POP JUMP JUMPDEST PUSH0 DUP2 DUP1 PUSH2 0x243 JUMPI PUSH2 0x242 PUSH2 0x7FD JUMP JUMPDEST JUMPDEST DUP4 DUP6 ADDMOD SWAP1 POP SWAP4 SWAP3 POP POP POP JUMP JUMPDEST PUSH0 PUSH1 0x2 DUP3 PUSH1 0x40 MLOAD PUSH2 0x260 SWAP2 SWAP1 PUSH2 0x7E7 JUMP JUMPDEST PUSH1 0x20 PUSH1 0x40 MLOAD DUP1 DUP4 SUB DUP2 DUP6 GAS STATICCALL ISZERO DUP1 ISZERO PUSH2 0x27B JUMPI RETURNDATASIZE PUSH0 DUP1 RETURNDATACOPY RETURNDATASIZE PUSH0 REVERT JUMPDEST POP POP POP PUSH1 0x40 MLOAD RETURNDATASIZE PUSH1 0x1F NOT PUSH1 0x1F DUP3 ADD AND DUP3 ADD DUP1 PUSH1 0x40 MSTORE POP DUP2 ADD SWAP1 PUSH2 0x29E SWAP2 SWAP1 PUSH2 0x854 JUMP JUMPDEST SWAP1 POP SWAP2 SWAP1 POP JUMP JUMPDEST PUSH0 DUP2 DUP1 MLOAD SWAP1 PUSH1 0x20 ADD KECCAK256 SWAP1 POP SWAP2 SWAP1 POP JUMP JUMPDEST PUSH0 DUP2 DUP4 DUP6 PUSH2 0x2C3 SWAP2 SWAP1 PUSH2 0x8AC JUMP JUMPDEST PUSH2 0x2CD SWAP2 SWAP1 PUSH2 0x8AC JUMP JUMPDEST SWAP1 POP SWAP4 SWAP3 POP POP POP JUMP JUMPDEST PUSH0 DUP2 DUP4 PUSH2 0x2E3 SWAP2 SWAP1 PUSH2 0x8AC JUMP JUMPDEST SWAP1 POP SWAP3 SWAP2 POP POP JUMP JUMPDEST PUSH0 DUP2 PUSH20 0xFFFFFFFFFFFFFFFFFFFFFFFFFFFFFFFFFFFFFFFF AND PUSH1 0x40 MLOAD PUSH1 0x24 ADD PUSH1 0x40 MLOAD PUSH1 0x20 DUP2 DUP4 SUB SUB DUP2 MSTORE SWAP1 PUSH1 0x40 MSTORE PUSH32 0xF85396D700000000000000000000000000000000000000000000000000000000 PUSH28 0xFFFFFFFFFFFFFFFFFFFFFFFFFFFFFFFFFFFFFFFFFFFFFFFFFFFFFFFF NOT AND PUSH1 0x20 DUP3 ADD DUP1 MLOAD PUSH28 0xFFFFFFFFFFFFFFFFFFFFFFFFFFFFFFFFFFFFFFFFFFFFFFFFFFFFFFFF DUP4 DUP2 DUP4 AND OR DUP4 MSTORE POP POP POP POP PUSH1 0x40 MLOAD PUSH2 0x393 SWAP2 SWAP1 PUSH2 0x7E7 JUMP JUMPDEST PUSH0 PUSH1 0x40 MLOAD DUP1 DUP4 SUB DUP2 PUSH0 DUP7 GAS CALL SWAP2 POP POP RETURNDATASIZE DUP1 PUSH0 DUP2 EQ PUSH2 0x3CC JUMPI PUSH1 0x40 MLOAD SWAP2 POP PUSH1 0x1F NOT PUSH1 0x3F RETURNDATASIZE ADD AND DUP3 ADD PUSH1 0x40 MSTORE RETURNDATASIZE DUP3 MSTORE RETURNDATASIZE PUSH0 PUSH1 0x20 DUP5 ADD RETURNDATACOPY PUSH2 0x3D1 JUMP JUMPDEST PUSH1 0x60 SWAP2 POP JUMPDEST POP POP SWAP1 POP DUP1 PUSH2 0x3DE JUMPI PUSH0 DUP1 REVERT JUMPDEST POP POP JUMP JUMPDEST PUSH0 DUP2 DUP1 PUSH2 0x3F2 JUMPI PUSH2 0x3F1 PUSH2 0x7FD JUMP JUMPDEST JUMPDEST DUP4 DUP6 MULMOD SWAP1 POP SWAP4 SWAP3 POP POP POP JUMP JUMPDEST PUSH0 PUSH1 0x40 MLOAD SWAP1 POP SWAP1 JUMP JUMPDEST PUSH0 DUP1 REVERT JUMPDEST PUSH0 DUP1 REVERT JUMPDEST PUSH0 DUP1 REVERT JUMPDEST PUSH0 DUP1 REVERT JUMPDEST PUSH0 PUSH1 0x1F NOT PUSH1 0x1F DUP4 ADD AND SWAP1 POP SWAP2 SWAP1 POP JUMP JUMPDEST PUSH32 0x4E487B7100000000000000000000000000000000000000000000000000000000 PUSH0 MSTORE PUSH1 0x41 PUSH1 0x4 MSTORE PUSH1 0x24 PUSH0 REVERT JUMPDEST PUSH2 0x45D DUP3 PUSH2 0x417 JUMP JUMPDEST DUP2 ADD DUP2 DUP2 LT PUSH8 0xFFFFFFFFFFFFFFFF DUP3 GT OR ISZERO PUSH2 0x47C JUMPI PUSH2 0x47B PUSH2 0x427 JUMP JUMPDEST JUMPDEST DUP1 PUSH1 0x40 MSTORE POP POP POP JUMP JUMPDEST PUSH0 PUSH2 0x48E PUSH2 0x3FE JUMP JUMPDEST SWAP1 POP PUSH2 0x49A DUP3 DUP3 PUSH2 0x454 JUMP JUMPDEST SWAP2 SWAP1 POP JUMP JUMPDEST PUSH0 PUSH8 0xFFFFFFFFFFFFFFFF DUP3 GT ISZERO PUSH2 0x4B9 JUMPI PUSH2 0x4B8 PUSH2 0x427 JUMP JUMPDEST JUMPDEST PUSH2 0x4C2 DUP3 PUSH2 0x417 JUMP JUMPDEST SWAP1 POP PUSH1 0x20 DUP2 ADD SWAP1 POP SWAP2 SWAP1 POP JUMP JUMPDEST DUP3 DUP2 DUP4 CALLDATACOPY PUSH0 DUP4 DUP4 ADD MSTORE POP POP POP JUMP JUMPDEST PUSH0 PUSH2 0x4EF PUSH2 0x4EA DUP5 PUSH2 0x49F JUMP JUMPDEST PUSH2 0x485 JUMP JUMPDEST SWAP1 POP DUP3 DUP2 MSTORE PUSH1 0x20 DUP2 ADD DUP5 DUP5 DUP5 ADD GT ISZERO PUSH2 0x50B JUMPI PUSH2 0x50A PUSH2 0x413 JUMP JUMPDEST JUMPDEST PUSH2 0x516 DUP5 DUP3 DUP6 PUSH2 0x4CF JUMP JUMPDEST POP SWAP4 SWAP3 POP POP POP JUMP JUMPDEST PUSH0 DUP3 PUSH1 0x1F DUP4 ADD SLT PUSH2 0x532 JUMPI PUSH2 0x531 PUSH2 0x40F JUMP JUMPDEST JUMPDEST DUP2 CALLDATALOAD PUSH2 0x542 DUP5 DUP3 PUSH1 0x20 DUP7 ADD PUSH2 0x4DD JUMP JUMPDEST SWAP2 POP POP SWAP3 SWAP2 POP POP JUMP JUMPDEST PUSH0 PUSH1 0x20 DUP3 DUP5 SUB SLT ISZERO PUSH2 0x560 JUMPI PUSH2 0x55F PUSH2 0x407 JUMP JUMPDEST JUMPDEST PUSH0 DUP3 ADD CALLDATALOAD PUSH8 0xFFFFFFFFFFFFFFFF DUP2 GT ISZERO PUSH2 0x57D JUMPI PUSH2 0x57C PUSH2 0x40B JUMP JUMPDEST JUMPDEST PUSH2 0x589 DUP5 DUP3 DUP6 ADD PUSH2 0x51E JUMP JUMPDEST SWAP2 POP POP SWAP3 SWAP2 POP POP JUMP JUMPDEST PUSH0 PUSH32 0xFFFFFFFFFFFFFFFFFFFFFFFFFFFFFFFFFFFFFFFF000000000000000000000000 DUP3 AND SWAP1 POP SWAP2 SWAP1 POP JUMP JUMPDEST PUSH2 0x5C6 DUP2 PUSH2 0x592 JUMP JUMPDEST DUP3 MSTORE POP POP JUMP JUMPDEST PUSH0 PUSH1 0x20 DUP3 ADD SWAP1 POP PUSH2 0x5DF PUSH0 DUP4 ADD DUP5 PUSH2 0x5BD JUMP JUMPDEST SWAP3 SWAP2 POP POP JUMP JUMPDEST PUSH0 DUP2 SWAP1 POP SWAP2 SWAP1 POP JUMP JUMPDEST PUSH2 0x5F7 DUP2 PUSH2 0x5E5 JUMP JUMPDEST DUP2 EQ PUSH2 0x601 JUMPI PUSH0 DUP1 REVERT JUMPDEST POP JUMP JUMPDEST PUSH0 DUP2 CALLDATALOAD SWAP1 POP PUSH2 0x612 DUP2 PUSH2 0x5EE JUMP JUMPDEST SWAP3 SWAP2 POP POP JUMP JUMPDEST PUSH0 DUP1 PUSH0 PUSH1 0x60 DUP5 DUP7 SUB SLT ISZERO PUSH2 0x62F JUMPI PUSH2 0x62E PUSH2 0x407 JUMP JUMPDEST JUMPDEST PUSH0 PUSH2 0x63C DUP7 DUP3 DUP8 ADD PUSH2 0x604 JUMP JUMPDEST SWAP4 POP POP PUSH1 0x20 PUSH2 0x64D DUP7 DUP3 DUP8 ADD PUSH2 0x604 JUMP JUMPDEST SWAP3 POP POP PUSH1 0x40 PUSH2 0x65E DUP7 DUP3 DUP8 ADD PUSH2 0x604 JUMP JUMPDEST SWAP2 POP POP SWAP3 POP SWAP3 POP SWAP3 JUMP JUMPDEST PUSH2 0x671 DUP2 PUSH2 0x5E5 JUMP JUMPDEST DUP3 MSTORE POP POP JUMP JUMPDEST PUSH0 PUSH1 0x20 DUP3 ADD SWAP1 POP PUSH2 0x68A PUSH0 DUP4 ADD DUP5 PUSH2 0x668 JUMP JUMPDEST SWAP3 SWAP2 POP POP JUMP JUMPDEST PUSH0 DUP2 SWAP1 POP SWAP2 SWAP1 POP JUMP JUMPDEST PUSH2 0x6A2 DUP2 PUSH2 0x690 JUMP JUMPDEST DUP3 MSTORE POP POP JUMP JUMPDEST PUSH0 PUSH1 0x20 DUP3 ADD SWAP1 POP PUSH2 0x6BB PUSH0 DUP4 ADD DUP5 PUSH2 0x699 JUMP JUMPDEST SWAP3 SWAP2 POP POP JUMP JUMPDEST PUSH0 DUP1 PUSH1 0x40 DUP4 DUP6 SUB SLT ISZERO PUSH2 0x6D7 JUMPI PUSH2 0x6D6 PUSH2 0x407 JUMP JUMPDEST JUMPDEST PUSH0 PUSH2 0x6E4 DUP6 DUP3 DUP7 ADD PUSH2 0x604 JUMP JUMPDEST SWAP3 POP POP PUSH1 0x20 PUSH2 0x6F5 DUP6 DUP3 DUP7 ADD PUSH2 0x604 JUMP JUMPDEST SWAP2 POP POP SWAP3 POP SWAP3 SWAP1 POP JUMP JUMPDEST PUSH0 PUSH20 0xFFFFFFFFFFFFFFFFFFFFFFFFFFFFFFFFFFFFFFFF DUP3 AND SWAP1 POP SWAP2 SWAP1 POP JUMP JUMPDEST PUSH0 PUSH2 0x728 DUP3 PUSH2 0x6FF JUMP JUMPDEST SWAP1 POP SWAP2 SWAP1 POP JUMP JUMPDEST PUSH0 PUSH2 0x739 DUP3 PUSH2 0x71E JUMP JUMPDEST SWAP1 POP SWAP2 SWAP1 POP JUMP JUMPDEST PUSH2 0x749 DUP2 PUSH2 0x72F JUMP JUMPDEST DUP2 EQ PUSH2 0x753 JUMPI PUSH0 DUP1 REVERT JUMPDEST POP JUMP JUMPDEST PUSH0 DUP2 CALLDATALOAD SWAP1 POP PUSH2 0x764 DUP2 PUSH2 0x740 JUMP JUMPDEST SWAP3 SWAP2 POP POP JUMP JUMPDEST PUSH0 PUSH1 0x20 DUP3 DUP5 SUB SLT ISZERO PUSH2 0x77F JUMPI PUSH2 0x77E PUSH2 0x407 JUMP JUMPDEST JUMPDEST PUSH0 PUSH2 0x78C DUP5 DUP3 DUP6 ADD PUSH2 0x756 JUMP JUMPDEST SWAP2 POP POP SWAP3 SWAP2 POP POP JUMP JUMPDEST PUSH0 DUP2 MLOAD SWAP1 POP SWAP2 SWAP1 POP JUMP JUMPDEST PUSH0 DUP2 SWAP1 POP SWAP3 SWAP2 POP POP JUMP JUMPDEST DUP3 DUP2 DUP4 MCOPY PUSH0 DUP4 DUP4 ADD MSTORE POP POP POP JUMP JUMPDEST PUSH0 PUSH2 0x7C1 DUP3 PUSH2 0x795 JUMP JUMPDEST PUSH2 0x7CB DUP2 DUP6 PUSH2 0x79F JUMP JUMPDEST SWAP4 POP PUSH2 0x7DB DUP2 DUP6 PUSH1 0x20 DUP7 ADD PUSH2 0x7A9 JUMP JUMPDEST DUP1 DUP5 ADD SWAP2 POP POP SWAP3 SWAP2 POP POP JUMP JUMPDEST PUSH0 PUSH2 0x7F2 DUP3 DUP5 PUSH2 0x7B7 JUMP JUMPDEST SWAP2 POP DUP2 SWAP1 POP SWAP3 SWAP2 POP POP JUMP JUMPDEST PUSH32 0x4E487B7100000000000000000000000000000000000000000000000000000000 PUSH0 MSTORE PUSH1 0x12 PUSH1 0x4 MSTORE PUSH1 0x24 PUSH0 REVERT JUMPDEST PUSH2 0x833 DUP2 PUSH2 0x690 JUMP JUMPDEST DUP2 EQ PUSH2 0x83D JUMPI PUSH0 DUP1 REVERT JUMPDEST POP JUMP JUMPDEST PUSH0 DUP2 MLOAD SWAP1 POP PUSH2 0x84E DUP2 PUSH2 0x82A JUMP JUMPDEST SWAP3 SWAP2 POP POP JUMP JUMPDEST PUSH0 PUSH1 0x20 DUP3 DUP5 SUB SLT ISZERO PUSH2 0x869 JUMPI PUSH2 0x868 PUSH2 0x407 JUMP JUMPDEST JUMPDEST PUSH0 PUSH2 0x876 DUP5 DUP3 DUP6 ADD PUSH2 0x840 JUMP JUMPDEST SWAP2 POP POP SWAP3 SWAP2 POP POP JUMP JUMPDEST PUSH32 0x4E487B7100000000000000000000000000000000000000000000000000000000 PUSH0 MSTORE PUSH1 0x11 PUSH1 0x4 MSTORE PUSH1 0x24 PUSH0 REVERT JUMPDEST PUSH0 PUSH2 0x8B6 DUP3 PUSH2 0x5E5 JUMP JUMPDEST SWAP2 POP PUSH2 0x8C1 DUP4 PUSH2 0x5E5 JUMP JUMPDEST SWAP3 POP DUP3 DUP3 ADD SWAP1 POP DUP1 DUP3 GT ISZERO PUSH2 0x8D9 JUMPI PUSH2 0x8D8 PUSH2 0x87F JUMP JUMPDEST JUMPDEST SWAP3 SWAP2 POP POP JUMP INVALID LOG2 PUSH5 0x6970667358 0x22 SLT KECCAK256 0xF 0xD3 PUSH12 0xF238009B786B39205D3869B6 PUSH32 0xC5B77AE6DFDC603E430CC970D28DD00164736F6C634300081A00330000000000 "
		},
		"gasEstimates": {
			"creation": {
				"codeDepositCost": "465000",
				"executionCost": "497",
				"totalCost": "465497"
			},
			"external": {
				"getAddMod(uint256,uint256,uint256)": "infinite",
				"getKeccak256(bytes)": "infinite",
				"getMulMod(uint256,uint256,uint256)": "infinite",
				"getRipemd160(bytes)": "infinite",
				"getSha256(bytes)": "infinite",
				"sum(uint256,uint256)": "infinite",
				"sum(uint256,uint256,uint256)": "infinite",
				"testFallback(address)": "infinite"
			}
		},
		"methodIdentifiers": {
			"getAddMod(uint256,uint256,uint256)": "1fd793da",
			"getKeccak256(bytes)": "93730bbe",
			"getMulMod(uint256,uint256,uint256)": "f64054ac",
			"getRipemd160(bytes)": "0a8f9e5e",
			"getSha256(bytes)": "8b053758",
			"sum(uint256,uint256)": "cad0899b",
			"sum(uint256,uint256,uint256)": "9450268b",
			"testFallback(address)": "ebfe67ce"
		}
	},
	"abi": [
		{
			"inputs": [
				{
					"internalType": "uint256",
					"name": "x",
					"type": "uint256"
				},
				{
					"internalType": "uint256",
					"name": "y",
					"type": "uint256"
				},
				{
					"internalType": "uint256",
					"name": "k",
					"type": "uint256"
				}
			],
			"name": "getAddMod",
			"outputs": [
				{
					"internalType": "uint256",
					"name": "",
					"type": "uint256"
				}
			],
			"stateMutability": "pure",
			"type": "function"
		},
		{
			"inputs": [
				{
					"internalType": "bytes",
					"name": "_bytes",
					"type": "bytes"
				}
			],
			"name": "getKeccak256",
			"outputs": [
				{
					"internalType": "bytes32",
					"name": "result",
					"type": "bytes32"
				}
			],
			"stateMutability": "pure",
			"type": "function"
		},
		{
			"inputs": [
				{
					"internalType": "uint256",
					"name": "x",
					"type": "uint256"
				},
				{
					"internalType": "uint256",
					"name": "y",
					"type": "uint256"
				},
				{
					"internalType": "uint256",
					"name": "k",
					"type": "uint256"
				}
			],
			"name": "getMulMod",
			"outputs": [
				{
					"internalType": "uint256",
					"name": "",
					"type": "uint256"
				}
			],
			"stateMutability": "pure",
			"type": "function"
		},
		{
			"inputs": [
				{
					"internalType": "bytes",
					"name": "_bytes",
					"type": "bytes"
				}
			],
			"name": "getRipemd160",
			"outputs": [
				{
					"internalType": "bytes20",
					"name": "result",
					"type": "bytes20"
				}
			],
			"stateMutability": "pure",
			"type": "function"
		},
		{
			"inputs": [
				{
					"internalType": "bytes",
					"name": "_bytes",
					"type": "bytes"
				}
			],
			"name": "getSha256",
			"outputs": [
				{
					"internalType": "bytes32",
					"name": "result",
					"type": "bytes32"
				}
			],
			"stateMutability": "pure",
			"type": "function"
		},
		{
			"inputs": [
				{
					"internalType": "uint256",
					"name": "a",
					"type": "uint256"
				},
				{
					"internalType": "uint256",
					"name": "b",
					"type": "uint256"
				},
				{
					"internalType": "uint256",
					"name": "c",
					"type": "uint256"
				}
			],
			"name": "sum",
			"outputs": [
				{
					"internalType": "uint256",
					"name": "",
					"type": "uint256"
				}
			],
			"stateMutability": "pure",
			"type": "function"
		},
		{
			"inputs": [
				{
					"internalType": "uint256",
					"name": "a",
					"type": "uint256"
				},
				{
					"internalType": "uint256",
					"name": "b",
					"type": "uint256"
				}
			],
			"name": "sum",
			"outputs": [
				{
					"internalType": "uint256",
					"name": "",
					"type": "uint256"
				}
			],
			"stateMutability": "pure",
			"type": "function"
		},
		{
			"inputs": [
				{
					"internalType": "contract Receiver",
					"name": "receiver",
					"type": "address"
				}
			],
			"name": "testFallback",
			"outputs": [],
			"stateMutability": "nonpayable",
			"type": "function"
		}
	]
}